{
	"contracts/BasicERC20.sol": {
		"BWCContract": {
			"abi": [
				{
					"inputs": [
						{
							"internalType": "string",
							"name": "name_",
							"type": "string"
						},
						{
							"internalType": "string",
							"name": "symbol_",
							"type": "string"
						},
						{
							"internalType": "uint8",
							"name": "decimals_",
							"type": "uint8"
						}
					],
					"stateMutability": "nonpayable",
					"type": "constructor"
				},
				{
					"inputs": [
						{
							"internalType": "address",
							"name": "account",
							"type": "address"
						},
						{
							"internalType": "uint256",
							"name": "required",
							"type": "uint256"
						},
						{
							"internalType": "uint256",
							"name": "available",
							"type": "uint256"
						}
					],
					"name": "InsufficientBalance",
					"type": "error"
				},
				{
					"inputs": [
						{
							"internalType": "address",
							"name": "addr",
							"type": "address"
						},
						{
							"internalType": "string",
							"name": "message",
							"type": "string"
						}
					],
					"name": "ZeroAddress",
					"type": "error"
				},
				{
					"inputs": [],
					"name": "ZeroValue",
					"type": "error"
				},
				{
					"anonymous": false,
					"inputs": [
						{
							"indexed": true,
							"internalType": "address",
							"name": "owner",
							"type": "address"
						},
						{
							"indexed": true,
							"internalType": "address",
							"name": "spender",
							"type": "address"
						},
						{
							"indexed": false,
							"internalType": "uint256",
							"name": "value",
							"type": "uint256"
						}
					],
					"name": "Approval",
					"type": "event"
				},
				{
					"anonymous": false,
					"inputs": [
						{
							"indexed": true,
							"internalType": "address",
							"name": "to",
							"type": "address"
						},
						{
							"indexed": false,
							"internalType": "uint256",
							"name": "amount",
							"type": "uint256"
						}
					],
					"name": "Mint",
					"type": "event"
				},
				{
					"anonymous": false,
					"inputs": [
						{
							"indexed": true,
							"internalType": "address",
							"name": "from",
							"type": "address"
						},
						{
							"indexed": true,
							"internalType": "address",
							"name": "to",
							"type": "address"
						},
						{
							"indexed": false,
							"internalType": "uint256",
							"name": "value",
							"type": "uint256"
						}
					],
					"name": "Transfer",
					"type": "event"
				},
				{
					"inputs": [
						{
							"internalType": "address",
							"name": "owner",
							"type": "address"
						},
						{
							"internalType": "address",
							"name": "spender",
							"type": "address"
						}
					],
					"name": "allowance",
					"outputs": [
						{
							"internalType": "uint256",
							"name": "",
							"type": "uint256"
						}
					],
					"stateMutability": "view",
					"type": "function"
				},
				{
					"inputs": [
						{
							"internalType": "address",
							"name": "spender",
							"type": "address"
						},
						{
							"internalType": "uint256",
							"name": "amount",
							"type": "uint256"
						}
					],
					"name": "approve",
					"outputs": [
						{
							"internalType": "bool",
							"name": "",
							"type": "bool"
						}
					],
					"stateMutability": "nonpayable",
					"type": "function"
				},
				{
					"inputs": [
						{
							"internalType": "address",
							"name": "account",
							"type": "address"
						}
					],
					"name": "balanceOf",
					"outputs": [
						{
							"internalType": "uint256",
							"name": "balance",
							"type": "uint256"
						}
					],
					"stateMutability": "view",
					"type": "function"
				},
				{
					"inputs": [],
					"name": "decimals",
					"outputs": [
						{
							"internalType": "uint8",
							"name": "",
							"type": "uint8"
						}
					],
					"stateMutability": "view",
					"type": "function"
				},
				{
					"inputs": [
						{
							"internalType": "address",
							"name": "to",
							"type": "address"
						},
						{
							"internalType": "uint256",
							"name": "value",
							"type": "uint256"
						}
					],
					"name": "mint",
					"outputs": [],
					"stateMutability": "nonpayable",
					"type": "function"
				},
				{
					"inputs": [],
					"name": "name",
					"outputs": [
						{
							"internalType": "string",
							"name": "",
							"type": "string"
						}
					],
					"stateMutability": "view",
					"type": "function"
				},
				{
					"inputs": [],
					"name": "symbol",
					"outputs": [
						{
							"internalType": "string",
							"name": "",
							"type": "string"
						}
					],
					"stateMutability": "view",
					"type": "function"
				},
				{
					"inputs": [],
					"name": "totalSupply",
					"outputs": [
						{
							"internalType": "uint256",
							"name": "",
							"type": "uint256"
						}
					],
					"stateMutability": "view",
					"type": "function"
				},
				{
					"inputs": [
						{
							"internalType": "address",
							"name": "to",
							"type": "address"
						},
						{
							"internalType": "uint256",
							"name": "value",
							"type": "uint256"
						}
					],
					"name": "transfer",
					"outputs": [
						{
							"internalType": "bool",
							"name": "",
							"type": "bool"
						}
					],
					"stateMutability": "nonpayable",
					"type": "function"
				},
				{
					"inputs": [
						{
							"internalType": "address",
							"name": "from",
							"type": "address"
						},
						{
							"internalType": "address",
							"name": "to",
							"type": "address"
						},
						{
							"internalType": "uint256",
							"name": "value",
							"type": "uint256"
						}
					],
					"name": "transferfrom",
					"outputs": [
						{
							"internalType": "bool",
							"name": "",
							"type": "bool"
						}
					],
					"stateMutability": "nonpayable",
					"type": "function"
				}
			],
			"devdoc": {
				"errors": {
					"InsufficientBalance(address,uint256,uint256)": [
						{
							"details": "Emitted when an account has insufficient balance."
						}
					],
					"ZeroAddress(address,string)": [
						{
							"details": "Emitted when an address is provided as zero."
						}
					],
					"ZeroValue()": [
						{
							"details": "Emitted when a zero value is encountered."
						}
					]
				},
				"events": {
					"Approval(address,address,uint256)": {
						"details": "Emitted when the allowance of a spender for an owner is set by the owner."
					},
					"Mint(address,uint256)": {
						"details": "Emitted when tokens are minted to `to`."
					},
					"Transfer(address,address,uint256)": {
						"details": "Emitted when tokens are transferred from one account to another."
					}
				},
				"kind": "dev",
				"methods": {
					"allowance(address,address)": {
						"details": "Returns the allowance of one address to another.",
						"params": {
							"owner": "The address which owns the funds.",
							"spender": "The address which will spend the funds."
						}
					},
					"approve(address,uint256)": {
						"details": "Sets `amount` as the allowance of `spender` over the caller's tokens.",
						"params": {
							"amount": "The amount of tokens to allow.",
							"spender": "The address which will spend the funds."
						},
						"returns": {
							"_0": "A boolean value indicating whether the operation succeeded."
						}
					},
					"balanceOf(address)": {
						"details": "Returns the balance of the specified account.",
						"params": {
							"account": "The address of the account to query the balance of."
						}
					},
					"constructor": {
						"details": "Constructs the contract, initializing the name, symbol, and decimals of the token.",
						"params": {
							"decimals_": "The number of decimals used in the token.",
							"name_": "The name of the token.",
							"symbol_": "The symbol of the token."
						}
					},
					"decimals()": {
						"details": "Returns the number of decimals used in the token.",
						"returns": {
							"_0": "The number of decimals used in the token."
						}
					},
					"mint(address,uint256)": {
						"details": "Mints new tokens and adds them to the specified account.",
						"params": {
							"to": "The address of the account to receive the minted tokens.",
							"value": "The amount of tokens to mint."
						}
					},
					"name()": {
						"details": "Returns the name of the token.",
						"returns": {
							"_0": "The name of the token."
						}
					},
					"symbol()": {
						"details": "Returns the symbol of the token.",
						"returns": {
							"_0": "The symbol of the token."
						}
					},
					"totalSupply()": {
						"details": "Returns the total supply of the token.",
						"returns": {
							"_0": "The total supply of the token."
						}
					},
					"transfer(address,uint256)": {
						"details": "Transfers tokens from the sender's account to the specified recipient.",
						"params": {
							"to": "The address of the recipient.",
							"value": "The amount of tokens to transfer."
						},
						"returns": {
							"_0": "A boolean indicating whether the transfer was successful."
						}
					}
				},
				"version": 1
			},
			"evm": {
				"assembly": "    /* \"contracts/BasicERC20.sol\":2427:8587  contract BWCContract {... */\n  mstore(0x40, 0x80)\n    /* \"contracts/BasicERC20.sol\":3874:4039  constructor(string memory name_, string memory symbol_, uint8 decimals_) {... */\n  callvalue\n  dup1\n  iszero\n  tag_1\n  jumpi\n  0x00\n  dup1\n  revert\ntag_1:\n  pop\n  mload(0x40)\n  sub(codesize, bytecodeSize)\n  dup1\n  bytecodeSize\n  dup4\n  codecopy\n  dup2\n  dup2\n  add\n  0x40\n  mstore\n  dup2\n  add\n  swap1\n  tag_2\n  swap2\n  swap1\n  tag_3\n  jump\t// in\ntag_2:\n    /* \"contracts/BasicERC20.sol\":3966:3971  name_ */\n  dup3\n    /* \"contracts/BasicERC20.sol\":3958:3963  _name */\n  0x00\n    /* \"contracts/BasicERC20.sol\":3958:3971  _name = name_ */\n  swap1\n  dup2\n  tag_6\n  swap2\n  swap1\n  tag_7\n  jump\t// in\ntag_6:\n  pop\n    /* \"contracts/BasicERC20.sol\":3992:3999  symbol_ */\n  dup2\n    /* \"contracts/BasicERC20.sol\":3982:3989  _symbol */\n  0x01\n    /* \"contracts/BasicERC20.sol\":3982:3999  _symbol = symbol_ */\n  swap1\n  dup2\n  tag_8\n  swap2\n  swap1\n  tag_7\n  jump\t// in\ntag_8:\n  pop\n    /* \"contracts/BasicERC20.sol\":4022:4031  decimals_ */\n  dup1\n    /* \"contracts/BasicERC20.sol\":4010:4019  _decimals */\n  0x02\n  0x00\n    /* \"contracts/BasicERC20.sol\":4010:4031  _decimals = decimals_ */\n  0x0100\n  exp\n  dup2\n  sload\n  dup2\n  0xff\n  mul\n  not\n  and\n  swap1\n  dup4\n  0xff\n  and\n  mul\n  or\n  swap1\n  sstore\n  pop\n    /* \"contracts/BasicERC20.sol\":3874:4039  constructor(string memory name_, string memory symbol_, uint8 decimals_) {... */\n  pop\n  pop\n  pop\n    /* \"contracts/BasicERC20.sol\":2427:8587  contract BWCContract {... */\n  jump(tag_9)\n    /* \"#utility.yul\":7:82   */\ntag_10:\n    /* \"#utility.yul\":40:46   */\n  0x00\n    /* \"#utility.yul\":73:75   */\n  0x40\n    /* \"#utility.yul\":67:76   */\n  mload\n    /* \"#utility.yul\":57:76   */\n  swap1\n  pop\n    /* \"#utility.yul\":7:82   */\n  swap1\n  jump\t// out\n    /* \"#utility.yul\":88:205   */\ntag_11:\n    /* \"#utility.yul\":197:198   */\n  0x00\n    /* \"#utility.yul\":194:195   */\n  dup1\n    /* \"#utility.yul\":187:199   */\n  revert\n    /* \"#utility.yul\":211:328   */\ntag_12:\n    /* \"#utility.yul\":320:321   */\n  0x00\n    /* \"#utility.yul\":317:318   */\n  dup1\n    /* \"#utility.yul\":310:322   */\n  revert\n    /* \"#utility.yul\":334:451   */\ntag_13:\n    /* \"#utility.yul\":443:444   */\n  0x00\n    /* \"#utility.yul\":440:441   */\n  dup1\n    /* \"#utility.yul\":433:445   */\n  revert\n    /* \"#utility.yul\":457:574   */\ntag_14:\n    /* \"#utility.yul\":566:567   */\n  0x00\n    /* \"#utility.yul\":563:564   */\n  dup1\n    /* \"#utility.yul\":556:568   */\n  revert\n    /* \"#utility.yul\":580:682   */\ntag_15:\n    /* \"#utility.yul\":621:627   */\n  0x00\n    /* \"#utility.yul\":672:674   */\n  0x1f\n    /* \"#utility.yul\":668:675   */\n  not\n    /* \"#utility.yul\":663:665   */\n  0x1f\n    /* \"#utility.yul\":656:661   */\n  dup4\n    /* \"#utility.yul\":652:666   */\n  add\n    /* \"#utility.yul\":648:676   */\n  and\n    /* \"#utility.yul\":638:676   */\n  swap1\n  pop\n    /* \"#utility.yul\":580:682   */\n  swap2\n  swap1\n  pop\n  jump\t// out\n    /* \"#utility.yul\":688:868   */\ntag_16:\n    /* \"#utility.yul\":736:813   */\n  0x4e487b7100000000000000000000000000000000000000000000000000000000\n    /* \"#utility.yul\":733:734   */\n  0x00\n    /* \"#utility.yul\":726:814   */\n  mstore\n    /* \"#utility.yul\":833:837   */\n  0x41\n    /* \"#utility.yul\":830:831   */\n  0x04\n    /* \"#utility.yul\":823:838   */\n  mstore\n    /* \"#utility.yul\":857:861   */\n  0x24\n    /* \"#utility.yul\":854:855   */\n  0x00\n    /* \"#utility.yul\":847:862   */\n  revert\n    /* \"#utility.yul\":874:1155   */\ntag_17:\n    /* \"#utility.yul\":957:984   */\n  tag_54\n    /* \"#utility.yul\":979:983   */\n  dup3\n    /* \"#utility.yul\":957:984   */\n  tag_15\n  jump\t// in\ntag_54:\n    /* \"#utility.yul\":949:955   */\n  dup2\n    /* \"#utility.yul\":945:985   */\n  add\n    /* \"#utility.yul\":1087:1093   */\n  dup2\n    /* \"#utility.yul\":1075:1085   */\n  dup2\n    /* \"#utility.yul\":1072:1094   */\n  lt\n    /* \"#utility.yul\":1051:1069   */\n  0xffffffffffffffff\n    /* \"#utility.yul\":1039:1049   */\n  dup3\n    /* \"#utility.yul\":1036:1070   */\n  gt\n    /* \"#utility.yul\":1033:1095   */\n  or\n    /* \"#utility.yul\":1030:1118   */\n  iszero\n  tag_55\n  jumpi\n    /* \"#utility.yul\":1098:1116   */\n  tag_56\n  tag_16\n  jump\t// in\ntag_56:\n    /* \"#utility.yul\":1030:1118   */\ntag_55:\n    /* \"#utility.yul\":1138:1148   */\n  dup1\n    /* \"#utility.yul\":1134:1136   */\n  0x40\n    /* \"#utility.yul\":1127:1149   */\n  mstore\n    /* \"#utility.yul\":917:1155   */\n  pop\n    /* \"#utility.yul\":874:1155   */\n  pop\n  pop\n  jump\t// out\n    /* \"#utility.yul\":1161:1290   */\ntag_18:\n    /* \"#utility.yul\":1195:1201   */\n  0x00\n    /* \"#utility.yul\":1222:1242   */\n  tag_58\n  tag_10\n  jump\t// in\ntag_58:\n    /* \"#utility.yul\":1212:1242   */\n  swap1\n  pop\n    /* \"#utility.yul\":1251:1284   */\n  tag_59\n    /* \"#utility.yul\":1279:1283   */\n  dup3\n    /* \"#utility.yul\":1271:1277   */\n  dup3\n    /* \"#utility.yul\":1251:1284   */\n  tag_17\n  jump\t// in\ntag_59:\n    /* \"#utility.yul\":1161:1290   */\n  swap2\n  swap1\n  pop\n  jump\t// out\n    /* \"#utility.yul\":1296:1604   */\ntag_19:\n    /* \"#utility.yul\":1358:1362   */\n  0x00\n    /* \"#utility.yul\":1448:1466   */\n  0xffffffffffffffff\n    /* \"#utility.yul\":1440:1446   */\n  dup3\n    /* \"#utility.yul\":1437:1467   */\n  gt\n    /* \"#utility.yul\":1434:1490   */\n  iszero\n  tag_61\n  jumpi\n    /* \"#utility.yul\":1470:1488   */\n  tag_62\n  tag_16\n  jump\t// in\ntag_62:\n    /* \"#utility.yul\":1434:1490   */\ntag_61:\n    /* \"#utility.yul\":1508:1537   */\n  tag_63\n    /* \"#utility.yul\":1530:1536   */\n  dup3\n    /* \"#utility.yul\":1508:1537   */\n  tag_15\n  jump\t// in\ntag_63:\n    /* \"#utility.yul\":1500:1537   */\n  swap1\n  pop\n    /* \"#utility.yul\":1592:1596   */\n  0x20\n    /* \"#utility.yul\":1586:1590   */\n  dup2\n    /* \"#utility.yul\":1582:1597   */\n  add\n    /* \"#utility.yul\":1574:1597   */\n  swap1\n  pop\n    /* \"#utility.yul\":1296:1604   */\n  swap2\n  swap1\n  pop\n  jump\t// out\n    /* \"#utility.yul\":1610:1856   */\ntag_20:\n    /* \"#utility.yul\":1691:1692   */\n  0x00\n    /* \"#utility.yul\":1701:1814   */\ntag_65:\n    /* \"#utility.yul\":1715:1721   */\n  dup4\n    /* \"#utility.yul\":1712:1713   */\n  dup2\n    /* \"#utility.yul\":1709:1722   */\n  lt\n    /* \"#utility.yul\":1701:1814   */\n  iszero\n  tag_67\n  jumpi\n    /* \"#utility.yul\":1800:1801   */\n  dup1\n    /* \"#utility.yul\":1795:1798   */\n  dup3\n    /* \"#utility.yul\":1791:1802   */\n  add\n    /* \"#utility.yul\":1785:1803   */\n  mload\n    /* \"#utility.yul\":1781:1782   */\n  dup2\n    /* \"#utility.yul\":1776:1779   */\n  dup5\n    /* \"#utility.yul\":1772:1783   */\n  add\n    /* \"#utility.yul\":1765:1804   */\n  mstore\n    /* \"#utility.yul\":1737:1739   */\n  0x20\n    /* \"#utility.yul\":1734:1735   */\n  dup2\n    /* \"#utility.yul\":1730:1740   */\n  add\n    /* \"#utility.yul\":1725:1740   */\n  swap1\n  pop\n    /* \"#utility.yul\":1701:1814   */\n  jump(tag_65)\ntag_67:\n    /* \"#utility.yul\":1848:1849   */\n  0x00\n    /* \"#utility.yul\":1839:1845   */\n  dup5\n    /* \"#utility.yul\":1834:1837   */\n  dup5\n    /* \"#utility.yul\":1830:1846   */\n  add\n    /* \"#utility.yul\":1823:1850   */\n  mstore\n    /* \"#utility.yul\":1672:1856   */\n  pop\n    /* \"#utility.yul\":1610:1856   */\n  pop\n  pop\n  pop\n  jump\t// out\n    /* \"#utility.yul\":1862:2296   */\ntag_21:\n    /* \"#utility.yul\":1951:1956   */\n  0x00\n    /* \"#utility.yul\":1976:2042   */\n  tag_69\n    /* \"#utility.yul\":1992:2041   */\n  tag_70\n    /* \"#utility.yul\":2034:2040   */\n  dup5\n    /* \"#utility.yul\":1992:2041   */\n  tag_19\n  jump\t// in\ntag_70:\n    /* \"#utility.yul\":1976:2042   */\n  tag_18\n  jump\t// in\ntag_69:\n    /* \"#utility.yul\":1967:2042   */\n  swap1\n  pop\n    /* \"#utility.yul\":2065:2071   */\n  dup3\n    /* \"#utility.yul\":2058:2063   */\n  dup2\n    /* \"#utility.yul\":2051:2072   */\n  mstore\n    /* \"#utility.yul\":2103:2107   */\n  0x20\n    /* \"#utility.yul\":2096:2101   */\n  dup2\n    /* \"#utility.yul\":2092:2108   */\n  add\n    /* \"#utility.yul\":2141:2144   */\n  dup5\n    /* \"#utility.yul\":2132:2138   */\n  dup5\n    /* \"#utility.yul\":2127:2130   */\n  dup5\n    /* \"#utility.yul\":2123:2139   */\n  add\n    /* \"#utility.yul\":2120:2145   */\n  gt\n    /* \"#utility.yul\":2117:2229   */\n  iszero\n  tag_71\n  jumpi\n    /* \"#utility.yul\":2148:2227   */\n  tag_72\n  tag_14\n  jump\t// in\ntag_72:\n    /* \"#utility.yul\":2117:2229   */\ntag_71:\n    /* \"#utility.yul\":2238:2290   */\n  tag_73\n    /* \"#utility.yul\":2283:2289   */\n  dup5\n    /* \"#utility.yul\":2278:2281   */\n  dup3\n    /* \"#utility.yul\":2273:2276   */\n  dup6\n    /* \"#utility.yul\":2238:2290   */\n  tag_20\n  jump\t// in\ntag_73:\n    /* \"#utility.yul\":1957:2296   */\n  pop\n    /* \"#utility.yul\":1862:2296   */\n  swap4\n  swap3\n  pop\n  pop\n  pop\n  jump\t// out\n    /* \"#utility.yul\":2316:2671   */\ntag_22:\n    /* \"#utility.yul\":2383:2388   */\n  0x00\n    /* \"#utility.yul\":2432:2435   */\n  dup3\n    /* \"#utility.yul\":2425:2429   */\n  0x1f\n    /* \"#utility.yul\":2417:2423   */\n  dup4\n    /* \"#utility.yul\":2413:2430   */\n  add\n    /* \"#utility.yul\":2409:2436   */\n  slt\n    /* \"#utility.yul\":2399:2521   */\n  tag_75\n  jumpi\n    /* \"#utility.yul\":2440:2519   */\n  tag_76\n  tag_13\n  jump\t// in\ntag_76:\n    /* \"#utility.yul\":2399:2521   */\ntag_75:\n    /* \"#utility.yul\":2550:2556   */\n  dup2\n    /* \"#utility.yul\":2544:2557   */\n  mload\n    /* \"#utility.yul\":2575:2665   */\n  tag_77\n    /* \"#utility.yul\":2661:2664   */\n  dup5\n    /* \"#utility.yul\":2653:2659   */\n  dup3\n    /* \"#utility.yul\":2646:2650   */\n  0x20\n    /* \"#utility.yul\":2638:2644   */\n  dup7\n    /* \"#utility.yul\":2634:2651   */\n  add\n    /* \"#utility.yul\":2575:2665   */\n  tag_21\n  jump\t// in\ntag_77:\n    /* \"#utility.yul\":2566:2665   */\n  swap2\n  pop\n    /* \"#utility.yul\":2389:2671   */\n  pop\n    /* \"#utility.yul\":2316:2671   */\n  swap3\n  swap2\n  pop\n  pop\n  jump\t// out\n    /* \"#utility.yul\":2677:2763   */\ntag_23:\n    /* \"#utility.yul\":2712:2719   */\n  0x00\n    /* \"#utility.yul\":2752:2756   */\n  0xff\n    /* \"#utility.yul\":2745:2750   */\n  dup3\n    /* \"#utility.yul\":2741:2757   */\n  and\n    /* \"#utility.yul\":2730:2757   */\n  swap1\n  pop\n    /* \"#utility.yul\":2677:2763   */\n  swap2\n  swap1\n  pop\n  jump\t// out\n    /* \"#utility.yul\":2769:2887   */\ntag_24:\n    /* \"#utility.yul\":2840:2862   */\n  tag_80\n    /* \"#utility.yul\":2856:2861   */\n  dup2\n    /* \"#utility.yul\":2840:2862   */\n  tag_23\n  jump\t// in\ntag_80:\n    /* \"#utility.yul\":2833:2838   */\n  dup2\n    /* \"#utility.yul\":2830:2863   */\n  eq\n    /* \"#utility.yul\":2820:2881   */\n  tag_81\n  jumpi\n    /* \"#utility.yul\":2877:2878   */\n  0x00\n    /* \"#utility.yul\":2874:2875   */\n  dup1\n    /* \"#utility.yul\":2867:2879   */\n  revert\n    /* \"#utility.yul\":2820:2881   */\ntag_81:\n    /* \"#utility.yul\":2769:2887   */\n  pop\n  jump\t// out\n    /* \"#utility.yul\":2893:3032   */\ntag_25:\n    /* \"#utility.yul\":2948:2953   */\n  0x00\n    /* \"#utility.yul\":2979:2985   */\n  dup2\n    /* \"#utility.yul\":2973:2986   */\n  mload\n    /* \"#utility.yul\":2964:2986   */\n  swap1\n  pop\n    /* \"#utility.yul\":2995:3026   */\n  tag_83\n    /* \"#utility.yul\":3020:3025   */\n  dup2\n    /* \"#utility.yul\":2995:3026   */\n  tag_24\n  jump\t// in\ntag_83:\n    /* \"#utility.yul\":2893:3032   */\n  swap3\n  swap2\n  pop\n  pop\n  jump\t// out\n    /* \"#utility.yul\":3038:4043   */\ntag_3:\n    /* \"#utility.yul\":3144:3150   */\n  0x00\n    /* \"#utility.yul\":3152:3158   */\n  dup1\n    /* \"#utility.yul\":3160:3166   */\n  0x00\n    /* \"#utility.yul\":3209:3211   */\n  0x60\n    /* \"#utility.yul\":3197:3206   */\n  dup5\n    /* \"#utility.yul\":3188:3195   */\n  dup7\n    /* \"#utility.yul\":3184:3207   */\n  sub\n    /* \"#utility.yul\":3180:3212   */\n  slt\n    /* \"#utility.yul\":3177:3296   */\n  iszero\n  tag_85\n  jumpi\n    /* \"#utility.yul\":3215:3294   */\n  tag_86\n  tag_11\n  jump\t// in\ntag_86:\n    /* \"#utility.yul\":3177:3296   */\ntag_85:\n    /* \"#utility.yul\":3356:3357   */\n  0x00\n    /* \"#utility.yul\":3345:3354   */\n  dup5\n    /* \"#utility.yul\":3341:3358   */\n  add\n    /* \"#utility.yul\":3335:3359   */\n  mload\n    /* \"#utility.yul\":3386:3404   */\n  0xffffffffffffffff\n    /* \"#utility.yul\":3378:3384   */\n  dup2\n    /* \"#utility.yul\":3375:3405   */\n  gt\n    /* \"#utility.yul\":3372:3489   */\n  iszero\n  tag_87\n  jumpi\n    /* \"#utility.yul\":3408:3487   */\n  tag_88\n  tag_12\n  jump\t// in\ntag_88:\n    /* \"#utility.yul\":3372:3489   */\ntag_87:\n    /* \"#utility.yul\":3513:3587   */\n  tag_89\n    /* \"#utility.yul\":3579:3586   */\n  dup7\n    /* \"#utility.yul\":3570:3576   */\n  dup3\n    /* \"#utility.yul\":3559:3568   */\n  dup8\n    /* \"#utility.yul\":3555:3577   */\n  add\n    /* \"#utility.yul\":3513:3587   */\n  tag_22\n  jump\t// in\ntag_89:\n    /* \"#utility.yul\":3503:3587   */\n  swap4\n  pop\n    /* \"#utility.yul\":3306:3597   */\n  pop\n    /* \"#utility.yul\":3657:3659   */\n  0x20\n    /* \"#utility.yul\":3646:3655   */\n  dup5\n    /* \"#utility.yul\":3642:3660   */\n  add\n    /* \"#utility.yul\":3636:3661   */\n  mload\n    /* \"#utility.yul\":3688:3706   */\n  0xffffffffffffffff\n    /* \"#utility.yul\":3680:3686   */\n  dup2\n    /* \"#utility.yul\":3677:3707   */\n  gt\n    /* \"#utility.yul\":3674:3791   */\n  iszero\n  tag_90\n  jumpi\n    /* \"#utility.yul\":3710:3789   */\n  tag_91\n  tag_12\n  jump\t// in\ntag_91:\n    /* \"#utility.yul\":3674:3791   */\ntag_90:\n    /* \"#utility.yul\":3815:3889   */\n  tag_92\n    /* \"#utility.yul\":3881:3888   */\n  dup7\n    /* \"#utility.yul\":3872:3878   */\n  dup3\n    /* \"#utility.yul\":3861:3870   */\n  dup8\n    /* \"#utility.yul\":3857:3879   */\n  add\n    /* \"#utility.yul\":3815:3889   */\n  tag_22\n  jump\t// in\ntag_92:\n    /* \"#utility.yul\":3805:3889   */\n  swap3\n  pop\n    /* \"#utility.yul\":3607:3899   */\n  pop\n    /* \"#utility.yul\":3938:3940   */\n  0x40\n    /* \"#utility.yul\":3964:4026   */\n  tag_93\n    /* \"#utility.yul\":4018:4025   */\n  dup7\n    /* \"#utility.yul\":4009:4015   */\n  dup3\n    /* \"#utility.yul\":3998:4007   */\n  dup8\n    /* \"#utility.yul\":3994:4016   */\n  add\n    /* \"#utility.yul\":3964:4026   */\n  tag_25\n  jump\t// in\ntag_93:\n    /* \"#utility.yul\":3954:4026   */\n  swap2\n  pop\n    /* \"#utility.yul\":3909:4036   */\n  pop\n    /* \"#utility.yul\":3038:4043   */\n  swap3\n  pop\n  swap3\n  pop\n  swap3\n  jump\t// out\n    /* \"#utility.yul\":4049:4148   */\ntag_26:\n    /* \"#utility.yul\":4101:4107   */\n  0x00\n    /* \"#utility.yul\":4135:4140   */\n  dup2\n    /* \"#utility.yul\":4129:4141   */\n  mload\n    /* \"#utility.yul\":4119:4141   */\n  swap1\n  pop\n    /* \"#utility.yul\":4049:4148   */\n  swap2\n  swap1\n  pop\n  jump\t// out\n    /* \"#utility.yul\":4154:4334   */\ntag_27:\n    /* \"#utility.yul\":4202:4279   */\n  0x4e487b7100000000000000000000000000000000000000000000000000000000\n    /* \"#utility.yul\":4199:4200   */\n  0x00\n    /* \"#utility.yul\":4192:4280   */\n  mstore\n    /* \"#utility.yul\":4299:4303   */\n  0x22\n    /* \"#utility.yul\":4296:4297   */\n  0x04\n    /* \"#utility.yul\":4289:4304   */\n  mstore\n    /* \"#utility.yul\":4323:4327   */\n  0x24\n    /* \"#utility.yul\":4320:4321   */\n  0x00\n    /* \"#utility.yul\":4313:4328   */\n  revert\n    /* \"#utility.yul\":4340:4660   */\ntag_28:\n    /* \"#utility.yul\":4384:4390   */\n  0x00\n    /* \"#utility.yul\":4421:4422   */\n  0x02\n    /* \"#utility.yul\":4415:4419   */\n  dup3\n    /* \"#utility.yul\":4411:4423   */\n  div\n    /* \"#utility.yul\":4401:4423   */\n  swap1\n  pop\n    /* \"#utility.yul\":4468:4469   */\n  0x01\n    /* \"#utility.yul\":4462:4466   */\n  dup3\n    /* \"#utility.yul\":4458:4470   */\n  and\n    /* \"#utility.yul\":4489:4507   */\n  dup1\n    /* \"#utility.yul\":4479:4560   */\n  tag_97\n  jumpi\n    /* \"#utility.yul\":4545:4549   */\n  0x7f\n    /* \"#utility.yul\":4537:4543   */\n  dup3\n    /* \"#utility.yul\":4533:4550   */\n  and\n    /* \"#utility.yul\":4523:4550   */\n  swap2\n  pop\n    /* \"#utility.yul\":4479:4560   */\ntag_97:\n    /* \"#utility.yul\":4607:4609   */\n  0x20\n    /* \"#utility.yul\":4599:4605   */\n  dup3\n    /* \"#utility.yul\":4596:4610   */\n  lt\n    /* \"#utility.yul\":4576:4594   */\n  dup2\n    /* \"#utility.yul\":4573:4611   */\n  sub\n    /* \"#utility.yul\":4570:4654   */\n  tag_98\n  jumpi\n    /* \"#utility.yul\":4626:4644   */\n  tag_99\n  tag_27\n  jump\t// in\ntag_99:\n    /* \"#utility.yul\":4570:4654   */\ntag_98:\n    /* \"#utility.yul\":4391:4660   */\n  pop\n    /* \"#utility.yul\":4340:4660   */\n  swap2\n  swap1\n  pop\n  jump\t// out\n    /* \"#utility.yul\":4666:4807   */\ntag_29:\n    /* \"#utility.yul\":4715:4719   */\n  0x00\n    /* \"#utility.yul\":4738:4741   */\n  dup2\n    /* \"#utility.yul\":4730:4741   */\n  swap1\n  pop\n    /* \"#utility.yul\":4761:4764   */\n  dup2\n    /* \"#utility.yul\":4758:4759   */\n  0x00\n    /* \"#utility.yul\":4751:4765   */\n  mstore\n    /* \"#utility.yul\":4795:4799   */\n  0x20\n    /* \"#utility.yul\":4792:4793   */\n  0x00\n    /* \"#utility.yul\":4782:4800   */\n  keccak256\n    /* \"#utility.yul\":4774:4800   */\n  swap1\n  pop\n    /* \"#utility.yul\":4666:4807   */\n  swap2\n  swap1\n  pop\n  jump\t// out\n    /* \"#utility.yul\":4813:4906   */\ntag_30:\n    /* \"#utility.yul\":4850:4856   */\n  0x00\n    /* \"#utility.yul\":4897:4899   */\n  0x20\n    /* \"#utility.yul\":4892:4894   */\n  0x1f\n    /* \"#utility.yul\":4885:4890   */\n  dup4\n    /* \"#utility.yul\":4881:4895   */\n  add\n    /* \"#utility.yul\":4877:4900   */\n  div\n    /* \"#utility.yul\":4867:4900   */\n  swap1\n  pop\n    /* \"#utility.yul\":4813:4906   */\n  swap2\n  swap1\n  pop\n  jump\t// out\n    /* \"#utility.yul\":4912:5019   */\ntag_31:\n    /* \"#utility.yul\":4956:4964   */\n  0x00\n    /* \"#utility.yul\":5006:5011   */\n  dup3\n    /* \"#utility.yul\":5000:5004   */\n  dup3\n    /* \"#utility.yul\":4996:5012   */\n  shl\n    /* \"#utility.yul\":4975:5012   */\n  swap1\n  pop\n    /* \"#utility.yul\":4912:5019   */\n  swap3\n  swap2\n  pop\n  pop\n  jump\t// out\n    /* \"#utility.yul\":5025:5418   */\ntag_32:\n    /* \"#utility.yul\":5094:5100   */\n  0x00\n    /* \"#utility.yul\":5144:5145   */\n  0x08\n    /* \"#utility.yul\":5132:5142   */\n  dup4\n    /* \"#utility.yul\":5128:5146   */\n  mul\n    /* \"#utility.yul\":5167:5264   */\n  tag_104\n    /* \"#utility.yul\":5197:5263   */\n  0xffffffffffffffffffffffffffffffffffffffffffffffffffffffffffffffff\n    /* \"#utility.yul\":5186:5195   */\n  dup3\n    /* \"#utility.yul\":5167:5264   */\n  tag_31\n  jump\t// in\ntag_104:\n    /* \"#utility.yul\":5285:5324   */\n  tag_105\n    /* \"#utility.yul\":5315:5323   */\n  dup7\n    /* \"#utility.yul\":5304:5313   */\n  dup4\n    /* \"#utility.yul\":5285:5324   */\n  tag_31\n  jump\t// in\ntag_105:\n    /* \"#utility.yul\":5273:5324   */\n  swap6\n  pop\n    /* \"#utility.yul\":5357:5361   */\n  dup1\n    /* \"#utility.yul\":5353:5362   */\n  not\n    /* \"#utility.yul\":5346:5351   */\n  dup5\n    /* \"#utility.yul\":5342:5363   */\n  and\n    /* \"#utility.yul\":5333:5363   */\n  swap4\n  pop\n    /* \"#utility.yul\":5406:5410   */\n  dup1\n    /* \"#utility.yul\":5396:5404   */\n  dup7\n    /* \"#utility.yul\":5392:5411   */\n  and\n    /* \"#utility.yul\":5385:5390   */\n  dup5\n    /* \"#utility.yul\":5382:5412   */\n  or\n    /* \"#utility.yul\":5372:5412   */\n  swap3\n  pop\n    /* \"#utility.yul\":5101:5418   */\n  pop\n  pop\n    /* \"#utility.yul\":5025:5418   */\n  swap4\n  swap3\n  pop\n  pop\n  pop\n  jump\t// out\n    /* \"#utility.yul\":5424:5501   */\ntag_33:\n    /* \"#utility.yul\":5461:5468   */\n  0x00\n    /* \"#utility.yul\":5490:5495   */\n  dup2\n    /* \"#utility.yul\":5479:5495   */\n  swap1\n  pop\n    /* \"#utility.yul\":5424:5501   */\n  swap2\n  swap1\n  pop\n  jump\t// out\n    /* \"#utility.yul\":5507:5567   */\ntag_34:\n    /* \"#utility.yul\":5535:5538   */\n  0x00\n    /* \"#utility.yul\":5556:5561   */\n  dup2\n    /* \"#utility.yul\":5549:5561   */\n  swap1\n  pop\n    /* \"#utility.yul\":5507:5567   */\n  swap2\n  swap1\n  pop\n  jump\t// out\n    /* \"#utility.yul\":5573:5715   */\ntag_35:\n    /* \"#utility.yul\":5623:5632   */\n  0x00\n    /* \"#utility.yul\":5656:5709   */\n  tag_109\n    /* \"#utility.yul\":5674:5708   */\n  tag_110\n    /* \"#utility.yul\":5683:5707   */\n  tag_111\n    /* \"#utility.yul\":5701:5706   */\n  dup5\n    /* \"#utility.yul\":5683:5707   */\n  tag_33\n  jump\t// in\ntag_111:\n    /* \"#utility.yul\":5674:5708   */\n  tag_34\n  jump\t// in\ntag_110:\n    /* \"#utility.yul\":5656:5709   */\n  tag_33\n  jump\t// in\ntag_109:\n    /* \"#utility.yul\":5643:5709   */\n  swap1\n  pop\n    /* \"#utility.yul\":5573:5715   */\n  swap2\n  swap1\n  pop\n  jump\t// out\n    /* \"#utility.yul\":5721:5796   */\ntag_36:\n    /* \"#utility.yul\":5764:5767   */\n  0x00\n    /* \"#utility.yul\":5785:5790   */\n  dup2\n    /* \"#utility.yul\":5778:5790   */\n  swap1\n  pop\n    /* \"#utility.yul\":5721:5796   */\n  swap2\n  swap1\n  pop\n  jump\t// out\n    /* \"#utility.yul\":5802:6071   */\ntag_37:\n    /* \"#utility.yul\":5912:5951   */\n  tag_114\n    /* \"#utility.yul\":5943:5950   */\n  dup4\n    /* \"#utility.yul\":5912:5951   */\n  tag_35\n  jump\t// in\ntag_114:\n    /* \"#utility.yul\":5973:6064   */\n  tag_115\n    /* \"#utility.yul\":6022:6063   */\n  tag_116\n    /* \"#utility.yul\":6046:6062   */\n  dup3\n    /* \"#utility.yul\":6022:6063   */\n  tag_36\n  jump\t// in\ntag_116:\n    /* \"#utility.yul\":6014:6020   */\n  dup5\n    /* \"#utility.yul\":6007:6011   */\n  dup5\n    /* \"#utility.yul\":6001:6012   */\n  sload\n    /* \"#utility.yul\":5973:6064   */\n  tag_32\n  jump\t// in\ntag_115:\n    /* \"#utility.yul\":5967:5971   */\n  dup3\n    /* \"#utility.yul\":5960:6065   */\n  sstore\n    /* \"#utility.yul\":5878:6071   */\n  pop\n    /* \"#utility.yul\":5802:6071   */\n  pop\n  pop\n  pop\n  jump\t// out\n    /* \"#utility.yul\":6077:6150   */\ntag_38:\n    /* \"#utility.yul\":6122:6125   */\n  0x00\n    /* \"#utility.yul\":6077:6150   */\n  swap1\n  jump\t// out\n    /* \"#utility.yul\":6156:6345   */\ntag_39:\n    /* \"#utility.yul\":6233:6265   */\n  tag_119\n  tag_38\n  jump\t// in\ntag_119:\n    /* \"#utility.yul\":6274:6339   */\n  tag_120\n    /* \"#utility.yul\":6332:6338   */\n  dup2\n    /* \"#utility.yul\":6324:6330   */\n  dup5\n    /* \"#utility.yul\":6318:6322   */\n  dup5\n    /* \"#utility.yul\":6274:6339   */\n  tag_37\n  jump\t// in\ntag_120:\n    /* \"#utility.yul\":6209:6345   */\n  pop\n    /* \"#utility.yul\":6156:6345   */\n  pop\n  pop\n  jump\t// out\n    /* \"#utility.yul\":6351:6537   */\ntag_40:\n    /* \"#utility.yul\":6411:6531   */\ntag_122:\n    /* \"#utility.yul\":6428:6431   */\n  dup2\n    /* \"#utility.yul\":6421:6426   */\n  dup2\n    /* \"#utility.yul\":6418:6432   */\n  lt\n    /* \"#utility.yul\":6411:6531   */\n  iszero\n  tag_124\n  jumpi\n    /* \"#utility.yul\":6482:6521   */\n  tag_125\n    /* \"#utility.yul\":6519:6520   */\n  0x00\n    /* \"#utility.yul\":6512:6517   */\n  dup3\n    /* \"#utility.yul\":6482:6521   */\n  tag_39\n  jump\t// in\ntag_125:\n    /* \"#utility.yul\":6455:6456   */\n  0x01\n    /* \"#utility.yul\":6448:6453   */\n  dup2\n    /* \"#utility.yul\":6444:6457   */\n  add\n    /* \"#utility.yul\":6435:6457   */\n  swap1\n  pop\n    /* \"#utility.yul\":6411:6531   */\n  jump(tag_122)\ntag_124:\n    /* \"#utility.yul\":6351:6537   */\n  pop\n  pop\n  jump\t// out\n    /* \"#utility.yul\":6543:7086   */\ntag_41:\n    /* \"#utility.yul\":6644:6646   */\n  0x1f\n    /* \"#utility.yul\":6639:6642   */\n  dup3\n    /* \"#utility.yul\":6636:6647   */\n  gt\n    /* \"#utility.yul\":6633:7079   */\n  iszero\n  tag_127\n  jumpi\n    /* \"#utility.yul\":6678:6716   */\n  tag_128\n    /* \"#utility.yul\":6710:6715   */\n  dup2\n    /* \"#utility.yul\":6678:6716   */\n  tag_29\n  jump\t// in\ntag_128:\n    /* \"#utility.yul\":6762:6791   */\n  tag_129\n    /* \"#utility.yul\":6780:6790   */\n  dup5\n    /* \"#utility.yul\":6762:6791   */\n  tag_30\n  jump\t// in\ntag_129:\n    /* \"#utility.yul\":6752:6760   */\n  dup2\n    /* \"#utility.yul\":6748:6792   */\n  add\n    /* \"#utility.yul\":6945:6947   */\n  0x20\n    /* \"#utility.yul\":6933:6943   */\n  dup6\n    /* \"#utility.yul\":6930:6948   */\n  lt\n    /* \"#utility.yul\":6927:6976   */\n  iszero\n  tag_130\n  jumpi\n    /* \"#utility.yul\":6966:6974   */\n  dup2\n    /* \"#utility.yul\":6951:6974   */\n  swap1\n  pop\n    /* \"#utility.yul\":6927:6976   */\ntag_130:\n    /* \"#utility.yul\":6989:7069   */\n  tag_131\n    /* \"#utility.yul\":7045:7067   */\n  tag_132\n    /* \"#utility.yul\":7063:7066   */\n  dup6\n    /* \"#utility.yul\":7045:7067   */\n  tag_30\n  jump\t// in\ntag_132:\n    /* \"#utility.yul\":7035:7043   */\n  dup4\n    /* \"#utility.yul\":7031:7068   */\n  add\n    /* \"#utility.yul\":7018:7029   */\n  dup3\n    /* \"#utility.yul\":6989:7069   */\n  tag_40\n  jump\t// in\ntag_131:\n    /* \"#utility.yul\":6648:7079   */\n  pop\n  pop\n    /* \"#utility.yul\":6633:7079   */\ntag_127:\n    /* \"#utility.yul\":6543:7086   */\n  pop\n  pop\n  pop\n  jump\t// out\n    /* \"#utility.yul\":7092:7209   */\ntag_42:\n    /* \"#utility.yul\":7146:7154   */\n  0x00\n    /* \"#utility.yul\":7196:7201   */\n  dup3\n    /* \"#utility.yul\":7190:7194   */\n  dup3\n    /* \"#utility.yul\":7186:7202   */\n  shr\n    /* \"#utility.yul\":7165:7202   */\n  swap1\n  pop\n    /* \"#utility.yul\":7092:7209   */\n  swap3\n  swap2\n  pop\n  pop\n  jump\t// out\n    /* \"#utility.yul\":7215:7384   */\ntag_43:\n    /* \"#utility.yul\":7259:7265   */\n  0x00\n    /* \"#utility.yul\":7292:7343   */\n  tag_135\n    /* \"#utility.yul\":7340:7341   */\n  0x00\n    /* \"#utility.yul\":7336:7342   */\n  not\n    /* \"#utility.yul\":7328:7333   */\n  dup5\n    /* \"#utility.yul\":7325:7326   */\n  0x08\n    /* \"#utility.yul\":7321:7334   */\n  mul\n    /* \"#utility.yul\":7292:7343   */\n  tag_42\n  jump\t// in\ntag_135:\n    /* \"#utility.yul\":7288:7344   */\n  not\n    /* \"#utility.yul\":7373:7377   */\n  dup1\n    /* \"#utility.yul\":7367:7371   */\n  dup4\n    /* \"#utility.yul\":7363:7378   */\n  and\n    /* \"#utility.yul\":7353:7378   */\n  swap2\n  pop\n    /* \"#utility.yul\":7266:7384   */\n  pop\n    /* \"#utility.yul\":7215:7384   */\n  swap3\n  swap2\n  pop\n  pop\n  jump\t// out\n    /* \"#utility.yul\":7389:7684   */\ntag_44:\n    /* \"#utility.yul\":7465:7469   */\n  0x00\n    /* \"#utility.yul\":7611:7640   */\n  tag_137\n    /* \"#utility.yul\":7636:7639   */\n  dup4\n    /* \"#utility.yul\":7630:7634   */\n  dup4\n    /* \"#utility.yul\":7611:7640   */\n  tag_43\n  jump\t// in\ntag_137:\n    /* \"#utility.yul\":7603:7640   */\n  swap2\n  pop\n    /* \"#utility.yul\":7673:7676   */\n  dup3\n    /* \"#utility.yul\":7670:7671   */\n  0x02\n    /* \"#utility.yul\":7666:7677   */\n  mul\n    /* \"#utility.yul\":7660:7664   */\n  dup3\n    /* \"#utility.yul\":7657:7678   */\n  or\n    /* \"#utility.yul\":7649:7678   */\n  swap1\n  pop\n    /* \"#utility.yul\":7389:7684   */\n  swap3\n  swap2\n  pop\n  pop\n  jump\t// out\n    /* \"#utility.yul\":7689:9084   */\ntag_7:\n    /* \"#utility.yul\":7806:7843   */\n  tag_139\n    /* \"#utility.yul\":7839:7842   */\n  dup3\n    /* \"#utility.yul\":7806:7843   */\n  tag_26\n  jump\t// in\ntag_139:\n    /* \"#utility.yul\":7908:7926   */\n  0xffffffffffffffff\n    /* \"#utility.yul\":7900:7906   */\n  dup2\n    /* \"#utility.yul\":7897:7927   */\n  gt\n    /* \"#utility.yul\":7894:7950   */\n  iszero\n  tag_140\n  jumpi\n    /* \"#utility.yul\":7930:7948   */\n  tag_141\n  tag_16\n  jump\t// in\ntag_141:\n    /* \"#utility.yul\":7894:7950   */\ntag_140:\n    /* \"#utility.yul\":7974:8012   */\n  tag_142\n    /* \"#utility.yul\":8006:8010   */\n  dup3\n    /* \"#utility.yul\":8000:8011   */\n  sload\n    /* \"#utility.yul\":7974:8012   */\n  tag_28\n  jump\t// in\ntag_142:\n    /* \"#utility.yul\":8059:8126   */\n  tag_143\n    /* \"#utility.yul\":8119:8125   */\n  dup3\n    /* \"#utility.yul\":8111:8117   */\n  dup3\n    /* \"#utility.yul\":8105:8109   */\n  dup6\n    /* \"#utility.yul\":8059:8126   */\n  tag_41\n  jump\t// in\ntag_143:\n    /* \"#utility.yul\":8153:8154   */\n  0x00\n    /* \"#utility.yul\":8177:8181   */\n  0x20\n    /* \"#utility.yul\":8164:8181   */\n  swap1\n  pop\n    /* \"#utility.yul\":8209:8211   */\n  0x1f\n    /* \"#utility.yul\":8201:8207   */\n  dup4\n    /* \"#utility.yul\":8198:8212   */\n  gt\n    /* \"#utility.yul\":8226:8227   */\n  0x01\n    /* \"#utility.yul\":8221:8839   */\n  dup2\n  eq\n  tag_145\n  jumpi\n    /* \"#utility.yul\":8883:8884   */\n  0x00\n    /* \"#utility.yul\":8900:8906   */\n  dup5\n    /* \"#utility.yul\":8897:8974   */\n  iszero\n  tag_146\n  jumpi\n    /* \"#utility.yul\":8949:8958   */\n  dup3\n    /* \"#utility.yul\":8944:8947   */\n  dup8\n    /* \"#utility.yul\":8940:8959   */\n  add\n    /* \"#utility.yul\":8934:8960   */\n  mload\n    /* \"#utility.yul\":8925:8960   */\n  swap1\n  pop\n    /* \"#utility.yul\":8897:8974   */\ntag_146:\n    /* \"#utility.yul\":9000:9067   */\n  tag_147\n    /* \"#utility.yul\":9060:9066   */\n  dup6\n    /* \"#utility.yul\":9053:9058   */\n  dup3\n    /* \"#utility.yul\":9000:9067   */\n  tag_44\n  jump\t// in\ntag_147:\n    /* \"#utility.yul\":8994:8998   */\n  dup7\n    /* \"#utility.yul\":8987:9068   */\n  sstore\n    /* \"#utility.yul\":8856:9078   */\n  pop\n    /* \"#utility.yul\":8191:9078   */\n  jump(tag_144)\n    /* \"#utility.yul\":8221:8839   */\ntag_145:\n    /* \"#utility.yul\":8273:8277   */\n  0x1f\n    /* \"#utility.yul\":8269:8278   */\n  not\n    /* \"#utility.yul\":8261:8267   */\n  dup5\n    /* \"#utility.yul\":8257:8279   */\n  and\n    /* \"#utility.yul\":8307:8344   */\n  tag_148\n    /* \"#utility.yul\":8339:8343   */\n  dup7\n    /* \"#utility.yul\":8307:8344   */\n  tag_29\n  jump\t// in\ntag_148:\n    /* \"#utility.yul\":8366:8367   */\n  0x00\n    /* \"#utility.yul\":8380:8588   */\ntag_149:\n    /* \"#utility.yul\":8394:8401   */\n  dup3\n    /* \"#utility.yul\":8391:8392   */\n  dup2\n    /* \"#utility.yul\":8388:8402   */\n  lt\n    /* \"#utility.yul\":8380:8588   */\n  iszero\n  tag_151\n  jumpi\n    /* \"#utility.yul\":8473:8482   */\n  dup5\n    /* \"#utility.yul\":8468:8471   */\n  dup10\n    /* \"#utility.yul\":8464:8483   */\n  add\n    /* \"#utility.yul\":8458:8484   */\n  mload\n    /* \"#utility.yul\":8450:8456   */\n  dup3\n    /* \"#utility.yul\":8443:8485   */\n  sstore\n    /* \"#utility.yul\":8524:8525   */\n  0x01\n    /* \"#utility.yul\":8516:8522   */\n  dup3\n    /* \"#utility.yul\":8512:8526   */\n  add\n    /* \"#utility.yul\":8502:8526   */\n  swap2\n  pop\n    /* \"#utility.yul\":8571:8573   */\n  0x20\n    /* \"#utility.yul\":8560:8569   */\n  dup6\n    /* \"#utility.yul\":8556:8574   */\n  add\n    /* \"#utility.yul\":8543:8574   */\n  swap5\n  pop\n    /* \"#utility.yul\":8417:8421   */\n  0x20\n    /* \"#utility.yul\":8414:8415   */\n  dup2\n    /* \"#utility.yul\":8410:8422   */\n  add\n    /* \"#utility.yul\":8405:8422   */\n  swap1\n  pop\n    /* \"#utility.yul\":8380:8588   */\n  jump(tag_149)\ntag_151:\n    /* \"#utility.yul\":8616:8622   */\n  dup7\n    /* \"#utility.yul\":8607:8614   */\n  dup4\n    /* \"#utility.yul\":8604:8623   */\n  lt\n    /* \"#utility.yul\":8601:8780   */\n  iszero\n  tag_152\n  jumpi\n    /* \"#utility.yul\":8674:8683   */\n  dup5\n    /* \"#utility.yul\":8669:8672   */\n  dup10\n    /* \"#utility.yul\":8665:8684   */\n  add\n    /* \"#utility.yul\":8659:8685   */\n  mload\n    /* \"#utility.yul\":8717:8765   */\n  tag_153\n    /* \"#utility.yul\":8759:8763   */\n  0x1f\n    /* \"#utility.yul\":8751:8757   */\n  dup10\n    /* \"#utility.yul\":8747:8764   */\n  and\n    /* \"#utility.yul\":8736:8745   */\n  dup3\n    /* \"#utility.yul\":8717:8765   */\n  tag_43\n  jump\t// in\ntag_153:\n    /* \"#utility.yul\":8709:8715   */\n  dup4\n    /* \"#utility.yul\":8702:8766   */\n  sstore\n    /* \"#utility.yul\":8624:8780   */\n  pop\n    /* \"#utility.yul\":8601:8780   */\ntag_152:\n    /* \"#utility.yul\":8826:8827   */\n  0x01\n    /* \"#utility.yul\":8822:8823   */\n  0x02\n    /* \"#utility.yul\":8814:8820   */\n  dup9\n    /* \"#utility.yul\":8810:8824   */\n  mul\n    /* \"#utility.yul\":8806:8828   */\n  add\n    /* \"#utility.yul\":8800:8804   */\n  dup9\n    /* \"#utility.yul\":8793:8829   */\n  sstore\n    /* \"#utility.yul\":8228:8839   */\n  pop\n  pop\n  pop\n    /* \"#utility.yul\":8191:9078   */\ntag_144:\n  pop\n    /* \"#utility.yul\":7781:9084   */\n  pop\n  pop\n  pop\n    /* \"#utility.yul\":7689:9084   */\n  pop\n  pop\n  jump\t// out\n    /* \"contracts/BasicERC20.sol\":2427:8587  contract BWCContract {... */\ntag_9:\n  dataSize(sub_0)\n  dup1\n  dataOffset(sub_0)\n  0x00\n  codecopy\n  0x00\n  return\nstop\n\nsub_0: assembly {\n        /* \"contracts/BasicERC20.sol\":2427:8587  contract BWCContract {... */\n      mstore(0x40, 0x80)\n      callvalue\n      dup1\n      iszero\n      tag_1\n      jumpi\n      0x00\n      dup1\n      revert\n    tag_1:\n      pop\n      jumpi(tag_2, lt(calldatasize, 0x04))\n      shr(0xe0, calldataload(0x00))\n      dup1\n      0x63b0545f\n      gt\n      tag_13\n      jumpi\n      dup1\n      0x63b0545f\n      eq\n      tag_8\n      jumpi\n      dup1\n      0x70a08231\n      eq\n      tag_9\n      jumpi\n      dup1\n      0x95d89b41\n      eq\n      tag_10\n      jumpi\n      dup1\n      0xa9059cbb\n      eq\n      tag_11\n      jumpi\n      dup1\n      0xdd62ed3e\n      eq\n      tag_12\n      jumpi\n      jump(tag_2)\n    tag_13:\n      dup1\n      0x06fdde03\n      eq\n      tag_3\n      jumpi\n      dup1\n      0x095ea7b3\n      eq\n      tag_4\n      jumpi\n      dup1\n      0x18160ddd\n      eq\n      tag_5\n      jumpi\n      dup1\n      0x313ce567\n      eq\n      tag_6\n      jumpi\n      dup1\n      0x40c10f19\n      eq\n      tag_7\n      jumpi\n    tag_2:\n      0x00\n      dup1\n      revert\n        /* \"contracts/BasicERC20.sol\":4132:4215  function name() public view returns (string memory) {... */\n    tag_3:\n      tag_14\n      tag_15\n      jump\t// in\n    tag_14:\n      mload(0x40)\n      tag_16\n      swap2\n      swap1\n      tag_17\n      jump\t// in\n    tag_16:\n      mload(0x40)\n      dup1\n      swap2\n      sub\n      swap1\n      return\n        /* \"contracts/BasicERC20.sol\":5732:5941  function approve(address spender, uint256 amount) external returns (bool) {... */\n    tag_4:\n      tag_18\n      0x04\n      dup1\n      calldatasize\n      sub\n      dup2\n      add\n      swap1\n      tag_19\n      swap2\n      swap1\n      tag_20\n      jump\t// in\n    tag_19:\n      tag_21\n      jump\t// in\n    tag_18:\n      mload(0x40)\n      tag_22\n      swap2\n      swap1\n      tag_23\n      jump\t// in\n    tag_22:\n      mload(0x40)\n      dup1\n      swap2\n      sub\n      swap1\n      return\n        /* \"contracts/BasicERC20.sol\":4722:4812  function totalSupply() public view returns (uint256) {... */\n    tag_5:\n      tag_24\n      tag_25\n      jump\t// in\n    tag_24:\n      mload(0x40)\n      tag_26\n      swap2\n      swap1\n      tag_27\n      jump\t// in\n    tag_26:\n      mload(0x40)\n      dup1\n      swap2\n      sub\n      swap1\n      return\n        /* \"contracts/BasicERC20.sol\":4530:4613  function decimals() public view returns (uint8) {... */\n    tag_6:\n      tag_28\n      tag_29\n      jump\t// in\n    tag_28:\n      mload(0x40)\n      tag_30\n      swap2\n      swap1\n      tag_31\n      jump\t// in\n    tag_30:\n      mload(0x40)\n      dup1\n      swap2\n      sub\n      swap1\n      return\n        /* \"contracts/BasicERC20.sol\":8074:8584  function mint(address to, uint256 value) public {... */\n    tag_7:\n      tag_32\n      0x04\n      dup1\n      calldatasize\n      sub\n      dup2\n      add\n      swap1\n      tag_33\n      swap2\n      swap1\n      tag_20\n      jump\t// in\n    tag_33:\n      tag_34\n      jump\t// in\n    tag_32:\n      stop\n        /* \"contracts/BasicERC20.sol\":7003:7867  function transferfrom(... */\n    tag_8:\n      tag_35\n      0x04\n      dup1\n      calldatasize\n      sub\n      dup2\n      add\n      swap1\n      tag_36\n      swap2\n      swap1\n      tag_37\n      jump\t// in\n    tag_36:\n      tag_38\n      jump\t// in\n    tag_35:\n      mload(0x40)\n      tag_39\n      swap2\n      swap1\n      tag_23\n      jump\t// in\n    tag_39:\n      mload(0x40)\n      dup1\n      swap2\n      sub\n      swap1\n      return\n        /* \"contracts/BasicERC20.sol\":4960:5081  function balanceOf(address account) public view returns (uint256 balance) {... */\n    tag_9:\n      tag_40\n      0x04\n      dup1\n      calldatasize\n      sub\n      dup2\n      add\n      swap1\n      tag_41\n      swap2\n      swap1\n      tag_42\n      jump\t// in\n    tag_41:\n      tag_43\n      jump\t// in\n    tag_40:\n      mload(0x40)\n      tag_44\n      swap2\n      swap1\n      tag_27\n      jump\t// in\n    tag_44:\n      mload(0x40)\n      dup1\n      swap2\n      sub\n      swap1\n      return\n        /* \"contracts/BasicERC20.sol\":4312:4399  function symbol() public view returns (string memory) {... */\n    tag_10:\n      tag_45\n      tag_46\n      jump\t// in\n    tag_45:\n      mload(0x40)\n      tag_47\n      swap2\n      swap1\n      tag_17\n      jump\t// in\n    tag_47:\n      mload(0x40)\n      dup1\n      swap2\n      sub\n      swap1\n      return\n        /* \"contracts/BasicERC20.sol\":6214:6995  function transfer(address to, uint256 value) public returns (bool) {... */\n    tag_11:\n      tag_48\n      0x04\n      dup1\n      calldatasize\n      sub\n      dup2\n      add\n      swap1\n      tag_49\n      swap2\n      swap1\n      tag_20\n      jump\t// in\n    tag_49:\n      tag_50\n      jump\t// in\n    tag_48:\n      mload(0x40)\n      tag_51\n      swap2\n      swap1\n      tag_23\n      jump\t// in\n    tag_51:\n      mload(0x40)\n      dup1\n      swap2\n      sub\n      swap1\n      return\n        /* \"contracts/BasicERC20.sol\":5278:5439  function allowance(... */\n    tag_12:\n      tag_52\n      0x04\n      dup1\n      calldatasize\n      sub\n      dup2\n      add\n      swap1\n      tag_53\n      swap2\n      swap1\n      tag_54\n      jump\t// in\n    tag_53:\n      tag_55\n      jump\t// in\n    tag_52:\n      mload(0x40)\n      tag_56\n      swap2\n      swap1\n      tag_27\n      jump\t// in\n    tag_56:\n      mload(0x40)\n      dup1\n      swap2\n      sub\n      swap1\n      return\n        /* \"contracts/BasicERC20.sol\":4132:4215  function name() public view returns (string memory) {... */\n    tag_15:\n        /* \"contracts/BasicERC20.sol\":4169:4182  string memory */\n      0x60\n        /* \"contracts/BasicERC20.sol\":4202:4207  _name */\n      0x00\n        /* \"contracts/BasicERC20.sol\":4195:4207  return _name */\n      dup1\n      sload\n      tag_58\n      swap1\n      tag_59\n      jump\t// in\n    tag_58:\n      dup1\n      0x1f\n      add\n      0x20\n      dup1\n      swap2\n      div\n      mul\n      0x20\n      add\n      mload(0x40)\n      swap1\n      dup2\n      add\n      0x40\n      mstore\n      dup1\n      swap3\n      swap2\n      swap1\n      dup2\n      dup2\n      mstore\n      0x20\n      add\n      dup3\n      dup1\n      sload\n      tag_60\n      swap1\n      tag_59\n      jump\t// in\n    tag_60:\n      dup1\n      iszero\n      tag_61\n      jumpi\n      dup1\n      0x1f\n      lt\n      tag_62\n      jumpi\n      0x0100\n      dup1\n      dup4\n      sload\n      div\n      mul\n      dup4\n      mstore\n      swap2\n      0x20\n      add\n      swap2\n      jump(tag_61)\n    tag_62:\n      dup3\n      add\n      swap2\n      swap1\n      0x00\n      mstore\n      keccak256(0x00, 0x20)\n      swap1\n    tag_63:\n      dup2\n      sload\n      dup2\n      mstore\n      swap1\n      0x01\n      add\n      swap1\n      0x20\n      add\n      dup1\n      dup4\n      gt\n      tag_63\n      jumpi\n      dup3\n      swap1\n      sub\n      0x1f\n      and\n      dup3\n      add\n      swap2\n    tag_61:\n      pop\n      pop\n      pop\n      pop\n      pop\n      swap1\n      pop\n        /* \"contracts/BasicERC20.sol\":4132:4215  function name() public view returns (string memory) {... */\n      swap1\n      jump\t// out\n        /* \"contracts/BasicERC20.sol\":5732:5941  function approve(address spender, uint256 amount) external returns (bool) {... */\n    tag_21:\n        /* \"contracts/BasicERC20.sol\":5800:5804  bool */\n      0x00\n        /* \"contracts/BasicERC20.sol\":5852:5858  amount */\n      dup2\n        /* \"contracts/BasicERC20.sol\":5817:5828  _allowances */\n      0x05\n        /* \"contracts/BasicERC20.sol\":5817:5840  _allowances[msg.sender] */\n      0x00\n        /* \"contracts/BasicERC20.sol\":5829:5839  msg.sender */\n      caller\n        /* \"contracts/BasicERC20.sol\":5817:5840  _allowances[msg.sender] */\n      0xffffffffffffffffffffffffffffffffffffffff\n      and\n      0xffffffffffffffffffffffffffffffffffffffff\n      and\n      dup2\n      mstore\n      0x20\n      add\n      swap1\n      dup2\n      mstore\n      0x20\n      add\n      0x00\n      keccak256\n        /* \"contracts/BasicERC20.sol\":5817:5849  _allowances[msg.sender][spender] */\n      0x00\n        /* \"contracts/BasicERC20.sol\":5841:5848  spender */\n      dup6\n        /* \"contracts/BasicERC20.sol\":5817:5849  _allowances[msg.sender][spender] */\n      0xffffffffffffffffffffffffffffffffffffffff\n      and\n      0xffffffffffffffffffffffffffffffffffffffff\n      and\n      dup2\n      mstore\n      0x20\n      add\n      swap1\n      dup2\n      mstore\n      0x20\n      add\n      0x00\n      keccak256\n        /* \"contracts/BasicERC20.sol\":5817:5858  _allowances[msg.sender][spender] = amount */\n      dup2\n      swap1\n      sstore\n      pop\n        /* \"contracts/BasicERC20.sol\":5895:5902  spender */\n      dup3\n        /* \"contracts/BasicERC20.sol\":5874:5911  Approval(msg.sender, spender, amount) */\n      0xffffffffffffffffffffffffffffffffffffffff\n      and\n        /* \"contracts/BasicERC20.sol\":5883:5893  msg.sender */\n      caller\n        /* \"contracts/BasicERC20.sol\":5874:5911  Approval(msg.sender, spender, amount) */\n      0xffffffffffffffffffffffffffffffffffffffff\n      and\n      0x8c5be1e5ebec7d5bd14f71427d1e84f3dd0314c0f7b2291e5b200ac8c7c3b925\n        /* \"contracts/BasicERC20.sol\":5904:5910  amount */\n      dup5\n        /* \"contracts/BasicERC20.sol\":5874:5911  Approval(msg.sender, spender, amount) */\n      mload(0x40)\n      tag_65\n      swap2\n      swap1\n      tag_27\n      jump\t// in\n    tag_65:\n      mload(0x40)\n      dup1\n      swap2\n      sub\n      swap1\n      log3\n        /* \"contracts/BasicERC20.sol\":5929:5933  true */\n      0x01\n        /* \"contracts/BasicERC20.sol\":5922:5933  return true */\n      swap1\n      pop\n        /* \"contracts/BasicERC20.sol\":5732:5941  function approve(address spender, uint256 amount) external returns (bool) {... */\n      swap3\n      swap2\n      pop\n      pop\n      jump\t// out\n        /* \"contracts/BasicERC20.sol\":4722:4812  function totalSupply() public view returns (uint256) {... */\n    tag_25:\n        /* \"contracts/BasicERC20.sol\":4766:4773  uint256 */\n      0x00\n        /* \"contracts/BasicERC20.sol\":4793:4804  TotalSupply */\n      sload(0x03)\n        /* \"contracts/BasicERC20.sol\":4786:4804  return TotalSupply */\n      swap1\n      pop\n        /* \"contracts/BasicERC20.sol\":4722:4812  function totalSupply() public view returns (uint256) {... */\n      swap1\n      jump\t// out\n        /* \"contracts/BasicERC20.sol\":4530:4613  function decimals() public view returns (uint8) {... */\n    tag_29:\n        /* \"contracts/BasicERC20.sol\":4571:4576  uint8 */\n      0x00\n        /* \"contracts/BasicERC20.sol\":4596:4605  _decimals */\n      0x02\n      0x00\n      swap1\n      sload\n      swap1\n      0x0100\n      exp\n      swap1\n      div\n      0xff\n      and\n        /* \"contracts/BasicERC20.sol\":4589:4605  return _decimals */\n      swap1\n      pop\n        /* \"contracts/BasicERC20.sol\":4530:4613  function decimals() public view returns (uint8) {... */\n      swap1\n      jump\t// out\n        /* \"contracts/BasicERC20.sol\":8074:8584  function mint(address to, uint256 value) public {... */\n    tag_34:\n        /* \"contracts/BasicERC20.sol\":8133:8145  address from */\n      0x00\n        /* \"contracts/BasicERC20.sol\":8148:8158  msg.sender */\n      caller\n        /* \"contracts/BasicERC20.sol\":8133:8158  address from = msg.sender */\n      swap1\n      pop\n        /* \"contracts/BasicERC20.sol\":8189:8190  0 */\n      0x00\n        /* \"contracts/BasicERC20.sol\":8173:8191  from == address(0) */\n      0xffffffffffffffffffffffffffffffffffffffff\n      and\n        /* \"contracts/BasicERC20.sol\":8173:8177  from */\n      dup2\n        /* \"contracts/BasicERC20.sol\":8173:8191  from == address(0) */\n      0xffffffffffffffffffffffffffffffffffffffff\n      and\n      sub\n        /* \"contracts/BasicERC20.sol\":8169:8284  if (from == address(0)) {... */\n      tag_69\n      jumpi\n        /* \"contracts/BasicERC20.sol\":8227:8231  from */\n      dup1\n        /* \"contracts/BasicERC20.sol\":8215:8272  ZeroAddress(from, \"Sender is zero address\"... */\n      mload(0x40)\n      0x7f879f2400000000000000000000000000000000000000000000000000000000\n      dup2\n      mstore\n      0x04\n      add\n      tag_70\n      swap2\n      swap1\n      tag_71\n      jump\t// in\n    tag_70:\n      mload(0x40)\n      dup1\n      swap2\n      sub\n      swap1\n      revert\n        /* \"contracts/BasicERC20.sol\":8169:8284  if (from == address(0)) {... */\n    tag_69:\n        /* \"contracts/BasicERC20.sol\":8312:8313  0 */\n      0x00\n        /* \"contracts/BasicERC20.sol\":8298:8314  to == address(0) */\n      0xffffffffffffffffffffffffffffffffffffffff\n      and\n        /* \"contracts/BasicERC20.sol\":8298:8300  to */\n      dup4\n        /* \"contracts/BasicERC20.sol\":8298:8314  to == address(0) */\n      0xffffffffffffffffffffffffffffffffffffffff\n      and\n      sub\n        /* \"contracts/BasicERC20.sol\":8294:8407  if (to == address(0)) {... */\n      tag_72\n      jumpi\n        /* \"contracts/BasicERC20.sol\":8350:8352  to */\n      dup3\n        /* \"contracts/BasicERC20.sol\":8338:8395  ZeroAddress(to, \"Receiver is zero address\"... */\n      mload(0x40)\n      0x7f879f2400000000000000000000000000000000000000000000000000000000\n      dup2\n      mstore\n      0x04\n      add\n      tag_73\n      swap2\n      swap1\n      tag_74\n      jump\t// in\n    tag_73:\n      mload(0x40)\n      dup1\n      swap2\n      sub\n      swap1\n      revert\n        /* \"contracts/BasicERC20.sol\":8294:8407  if (to == address(0)) {... */\n    tag_72:\n        /* \"contracts/BasicERC20.sol\":8430:8431  0 */\n      0x00\n        /* \"contracts/BasicERC20.sol\":8421:8426  value */\n      dup3\n        /* \"contracts/BasicERC20.sol\":8421:8431  value == 0 */\n      sub\n        /* \"contracts/BasicERC20.sol\":8417:8478  if (value == 0) {... */\n      tag_75\n      jumpi\n        /* \"contracts/BasicERC20.sol\":8455:8466  ZeroValue() */\n      mload(0x40)\n      0x7c946ed700000000000000000000000000000000000000000000000000000000\n      dup2\n      mstore\n      0x04\n      add\n      mload(0x40)\n      dup1\n      swap2\n      sub\n      swap1\n      revert\n        /* \"contracts/BasicERC20.sol\":8417:8478  if (value == 0) {... */\n    tag_75:\n        /* \"contracts/BasicERC20.sol\":8505:8510  value */\n      dup2\n        /* \"contracts/BasicERC20.sol\":8490:8501  TotalSupply */\n      0x03\n      0x00\n        /* \"contracts/BasicERC20.sol\":8490:8510  TotalSupply += value */\n      dup3\n      dup3\n      sload\n      tag_76\n      swap2\n      swap1\n      tag_77\n      jump\t// in\n    tag_76:\n      swap3\n      pop\n      pop\n      dup2\n      swap1\n      sstore\n      pop\n        /* \"contracts/BasicERC20.sol\":8538:8543  value */\n      dup2\n        /* \"contracts/BasicERC20.sol\":8521:8530  _balances */\n      0x04\n        /* \"contracts/BasicERC20.sol\":8521:8534  _balances[to] */\n      0x00\n        /* \"contracts/BasicERC20.sol\":8531:8533  to */\n      dup6\n        /* \"contracts/BasicERC20.sol\":8521:8534  _balances[to] */\n      0xffffffffffffffffffffffffffffffffffffffff\n      and\n      0xffffffffffffffffffffffffffffffffffffffff\n      and\n      dup2\n      mstore\n      0x20\n      add\n      swap1\n      dup2\n      mstore\n      0x20\n      add\n      0x00\n      keccak256\n      0x00\n        /* \"contracts/BasicERC20.sol\":8521:8543  _balances[to] += value */\n      dup3\n      dup3\n      sload\n      tag_78\n      swap2\n      swap1\n      tag_77\n      jump\t// in\n    tag_78:\n      swap3\n      pop\n      pop\n      dup2\n      swap1\n      sstore\n      pop\n        /* \"contracts/BasicERC20.sol\":8566:8568  to */\n      dup3\n        /* \"contracts/BasicERC20.sol\":8561:8576  Mint(to, value) */\n      0xffffffffffffffffffffffffffffffffffffffff\n      and\n      0x0f6798a560793a54c3bcfe86a93cde1e73087d944c0ea20544137d4121396885\n        /* \"contracts/BasicERC20.sol\":8570:8575  value */\n      dup4\n        /* \"contracts/BasicERC20.sol\":8561:8576  Mint(to, value) */\n      mload(0x40)\n      tag_79\n      swap2\n      swap1\n      tag_27\n      jump\t// in\n    tag_79:\n      mload(0x40)\n      dup1\n      swap2\n      sub\n      swap1\n      log2\n        /* \"contracts/BasicERC20.sol\":8122:8584  {... */\n      pop\n        /* \"contracts/BasicERC20.sol\":8074:8584  function mint(address to, uint256 value) public {... */\n      pop\n      pop\n      jump\t// out\n        /* \"contracts/BasicERC20.sol\":7003:7867  function transferfrom(... */\n    tag_38:\n        /* \"contracts/BasicERC20.sol\":7118:7122  bool */\n      0x00\n        /* \"contracts/BasicERC20.sol\":7157:7158  0 */\n      dup1\n        /* \"contracts/BasicERC20.sol\":7141:7159  from == address(0) */\n      0xffffffffffffffffffffffffffffffffffffffff\n      and\n        /* \"contracts/BasicERC20.sol\":7141:7145  from */\n      dup5\n        /* \"contracts/BasicERC20.sol\":7141:7159  from == address(0) */\n      0xffffffffffffffffffffffffffffffffffffffff\n      and\n      sub\n        /* \"contracts/BasicERC20.sol\":7137:7238  if (from == address(0)) {... */\n      tag_81\n      jumpi\n        /* \"contracts/BasicERC20.sol\":7195:7199  from */\n      dup4\n        /* \"contracts/BasicERC20.sol\":7183:7226  ZeroAddress(from, \"Sender is zero address\") */\n      mload(0x40)\n      0x7f879f2400000000000000000000000000000000000000000000000000000000\n      dup2\n      mstore\n      0x04\n      add\n      tag_82\n      swap2\n      swap1\n      tag_71\n      jump\t// in\n    tag_82:\n      mload(0x40)\n      dup1\n      swap2\n      sub\n      swap1\n      revert\n        /* \"contracts/BasicERC20.sol\":7137:7238  if (from == address(0)) {... */\n    tag_81:\n        /* \"contracts/BasicERC20.sol\":7268:7269  0 */\n      0x00\n        /* \"contracts/BasicERC20.sol\":7254:7270  to == address(0) */\n      0xffffffffffffffffffffffffffffffffffffffff\n      and\n        /* \"contracts/BasicERC20.sol\":7254:7256  to */\n      dup4\n        /* \"contracts/BasicERC20.sol\":7254:7270  to == address(0) */\n      0xffffffffffffffffffffffffffffffffffffffff\n      and\n      sub\n        /* \"contracts/BasicERC20.sol\":7250:7349  if (to == address(0)) {... */\n      tag_83\n      jumpi\n        /* \"contracts/BasicERC20.sol\":7306:7308  to */\n      dup3\n        /* \"contracts/BasicERC20.sol\":7294:7337  ZeroAddress(to, \"Receiver is zero address\") */\n      mload(0x40)\n      0x7f879f2400000000000000000000000000000000000000000000000000000000\n      dup2\n      mstore\n      0x04\n      add\n      tag_84\n      swap2\n      swap1\n      tag_74\n      jump\t// in\n    tag_84:\n      mload(0x40)\n      dup1\n      swap2\n      sub\n      swap1\n      revert\n        /* \"contracts/BasicERC20.sol\":7250:7349  if (to == address(0)) {... */\n    tag_83:\n        /* \"contracts/BasicERC20.sol\":7442:7461  uint256 fromBalance */\n      0x00\n        /* \"contracts/BasicERC20.sol\":7464:7473  _balances */\n      0x04\n        /* \"contracts/BasicERC20.sol\":7464:7479  _balances[from] */\n      0x00\n        /* \"contracts/BasicERC20.sol\":7474:7478  from */\n      dup7\n        /* \"contracts/BasicERC20.sol\":7464:7479  _balances[from] */\n      0xffffffffffffffffffffffffffffffffffffffff\n      and\n      0xffffffffffffffffffffffffffffffffffffffff\n      and\n      dup2\n      mstore\n      0x20\n      add\n      swap1\n      dup2\n      mstore\n      0x20\n      add\n      0x00\n      keccak256\n      sload\n        /* \"contracts/BasicERC20.sol\":7442:7479  uint256 fromBalance = _balances[from] */\n      swap1\n      pop\n        /* \"contracts/BasicERC20.sol\":7510:7515  value */\n      dup3\n        /* \"contracts/BasicERC20.sol\":7496:7507  fromBalance */\n      dup2\n        /* \"contracts/BasicERC20.sol\":7496:7515  fromBalance < value */\n      lt\n        /* \"contracts/BasicERC20.sol\":7492:7662  if (fromBalance < value) {... */\n      iszero\n      tag_85\n      jumpi\n        /* \"contracts/BasicERC20.sol\":7577:7581  from */\n      dup5\n        /* \"contracts/BasicERC20.sol\":7600:7605  value */\n      dup4\n        /* \"contracts/BasicERC20.sol\":7624:7635  fromBalance */\n      dup3\n        /* \"contracts/BasicERC20.sol\":7539:7650  InsufficientBalance(... */\n      mload(0x40)\n      0xdb42144d00000000000000000000000000000000000000000000000000000000\n      dup2\n      mstore\n      0x04\n      add\n      tag_86\n      swap4\n      swap3\n      swap2\n      swap1\n      tag_87\n      jump\t// in\n    tag_86:\n      mload(0x40)\n      dup1\n      swap2\n      sub\n      swap1\n      revert\n        /* \"contracts/BasicERC20.sol\":7492:7662  if (fromBalance < value) {... */\n    tag_85:\n        /* \"contracts/BasicERC20.sol\":7697:7702  value */\n      dup3\n        /* \"contracts/BasicERC20.sol\":7678:7687  _balances */\n      0x04\n        /* \"contracts/BasicERC20.sol\":7678:7693  _balances[from] */\n      0x00\n        /* \"contracts/BasicERC20.sol\":7688:7692  from */\n      dup8\n        /* \"contracts/BasicERC20.sol\":7678:7693  _balances[from] */\n      0xffffffffffffffffffffffffffffffffffffffff\n      and\n      0xffffffffffffffffffffffffffffffffffffffff\n      and\n      dup2\n      mstore\n      0x20\n      add\n      swap1\n      dup2\n      mstore\n      0x20\n      add\n      0x00\n      keccak256\n      0x00\n        /* \"contracts/BasicERC20.sol\":7678:7702  _balances[from] -= value */\n      dup3\n      dup3\n      sload\n      tag_88\n      swap2\n      swap1\n      tag_89\n      jump\t// in\n    tag_88:\n      swap3\n      pop\n      pop\n      dup2\n      swap1\n      sstore\n      pop\n        /* \"contracts/BasicERC20.sol\":7730:7735  value */\n      dup3\n        /* \"contracts/BasicERC20.sol\":7713:7722  _balances */\n      0x04\n        /* \"contracts/BasicERC20.sol\":7713:7726  _balances[to] */\n      0x00\n        /* \"contracts/BasicERC20.sol\":7723:7725  to */\n      dup7\n        /* \"contracts/BasicERC20.sol\":7713:7726  _balances[to] */\n      0xffffffffffffffffffffffffffffffffffffffff\n      and\n      0xffffffffffffffffffffffffffffffffffffffff\n      and\n      dup2\n      mstore\n      0x20\n      add\n      swap1\n      dup2\n      mstore\n      0x20\n      add\n      0x00\n      keccak256\n      0x00\n        /* \"contracts/BasicERC20.sol\":7713:7735  _balances[to] += value */\n      dup3\n      dup3\n      sload\n      tag_90\n      swap2\n      swap1\n      tag_77\n      jump\t// in\n    tag_90:\n      swap3\n      pop\n      pop\n      dup2\n      swap1\n      sstore\n      pop\n        /* \"contracts/BasicERC20.sol\":7779:7784  value */\n      dup3\n        /* \"contracts/BasicERC20.sol\":7746:7757  _allowances */\n      0x05\n        /* \"contracts/BasicERC20.sol\":7746:7763  _allowances[from] */\n      0x00\n        /* \"contracts/BasicERC20.sol\":7758:7762  from */\n      dup8\n        /* \"contracts/BasicERC20.sol\":7746:7763  _allowances[from] */\n      0xffffffffffffffffffffffffffffffffffffffff\n      and\n      0xffffffffffffffffffffffffffffffffffffffff\n      and\n      dup2\n      mstore\n      0x20\n      add\n      swap1\n      dup2\n      mstore\n      0x20\n      add\n      0x00\n      keccak256\n        /* \"contracts/BasicERC20.sol\":7746:7775  _allowances[from][msg.sender] */\n      0x00\n        /* \"contracts/BasicERC20.sol\":7764:7774  msg.sender */\n      caller\n        /* \"contracts/BasicERC20.sol\":7746:7775  _allowances[from][msg.sender] */\n      0xffffffffffffffffffffffffffffffffffffffff\n      and\n      0xffffffffffffffffffffffffffffffffffffffff\n      and\n      dup2\n      mstore\n      0x20\n      add\n      swap1\n      dup2\n      mstore\n      0x20\n      add\n      0x00\n      keccak256\n      0x00\n        /* \"contracts/BasicERC20.sol\":7746:7784  _allowances[from][msg.sender] -= value */\n      dup3\n      dup3\n      sload\n      tag_91\n      swap2\n      swap1\n      tag_89\n      jump\t// in\n    tag_91:\n      swap3\n      pop\n      pop\n      dup2\n      swap1\n      sstore\n      pop\n        /* \"contracts/BasicERC20.sol\":7827:7829  to */\n      dup4\n        /* \"contracts/BasicERC20.sol\":7812:7837  Transfer(from, to, value) */\n      0xffffffffffffffffffffffffffffffffffffffff\n      and\n        /* \"contracts/BasicERC20.sol\":7821:7825  from */\n      dup6\n        /* \"contracts/BasicERC20.sol\":7812:7837  Transfer(from, to, value) */\n      0xffffffffffffffffffffffffffffffffffffffff\n      and\n      0xddf252ad1be2c89b69c2b068fc378daa952ba7f163c4a11628f55a4df523b3ef\n        /* \"contracts/BasicERC20.sol\":7831:7836  value */\n      dup6\n        /* \"contracts/BasicERC20.sol\":7812:7837  Transfer(from, to, value) */\n      mload(0x40)\n      tag_92\n      swap2\n      swap1\n      tag_27\n      jump\t// in\n    tag_92:\n      mload(0x40)\n      dup1\n      swap2\n      sub\n      swap1\n      log3\n        /* \"contracts/BasicERC20.sol\":7855:7859  true */\n      0x01\n        /* \"contracts/BasicERC20.sol\":7848:7859  return true */\n      swap2\n      pop\n      pop\n        /* \"contracts/BasicERC20.sol\":7003:7867  function transferfrom(... */\n      swap4\n      swap3\n      pop\n      pop\n      pop\n      jump\t// out\n        /* \"contracts/BasicERC20.sol\":4960:5081  function balanceOf(address account) public view returns (uint256 balance) {... */\n    tag_43:\n        /* \"contracts/BasicERC20.sol\":5017:5032  uint256 balance */\n      0x00\n        /* \"contracts/BasicERC20.sol\":5055:5064  _balances */\n      0x04\n        /* \"contracts/BasicERC20.sol\":5055:5073  _balances[account] */\n      0x00\n        /* \"contracts/BasicERC20.sol\":5065:5072  account */\n      dup4\n        /* \"contracts/BasicERC20.sol\":5055:5073  _balances[account] */\n      0xffffffffffffffffffffffffffffffffffffffff\n      and\n      0xffffffffffffffffffffffffffffffffffffffff\n      and\n      dup2\n      mstore\n      0x20\n      add\n      swap1\n      dup2\n      mstore\n      0x20\n      add\n      0x00\n      keccak256\n      sload\n        /* \"contracts/BasicERC20.sol\":5045:5073  balance = _balances[account] */\n      swap1\n      pop\n        /* \"contracts/BasicERC20.sol\":4960:5081  function balanceOf(address account) public view returns (uint256 balance) {... */\n      swap2\n      swap1\n      pop\n      jump\t// out\n        /* \"contracts/BasicERC20.sol\":4312:4399  function symbol() public view returns (string memory) {... */\n    tag_46:\n        /* \"contracts/BasicERC20.sol\":4351:4364  string memory */\n      0x60\n        /* \"contracts/BasicERC20.sol\":4384:4391  _symbol */\n      0x01\n        /* \"contracts/BasicERC20.sol\":4377:4391  return _symbol */\n      dup1\n      sload\n      tag_95\n      swap1\n      tag_59\n      jump\t// in\n    tag_95:\n      dup1\n      0x1f\n      add\n      0x20\n      dup1\n      swap2\n      div\n      mul\n      0x20\n      add\n      mload(0x40)\n      swap1\n      dup2\n      add\n      0x40\n      mstore\n      dup1\n      swap3\n      swap2\n      swap1\n      dup2\n      dup2\n      mstore\n      0x20\n      add\n      dup3\n      dup1\n      sload\n      tag_96\n      swap1\n      tag_59\n      jump\t// in\n    tag_96:\n      dup1\n      iszero\n      tag_97\n      jumpi\n      dup1\n      0x1f\n      lt\n      tag_98\n      jumpi\n      0x0100\n      dup1\n      dup4\n      sload\n      div\n      mul\n      dup4\n      mstore\n      swap2\n      0x20\n      add\n      swap2\n      jump(tag_97)\n    tag_98:\n      dup3\n      add\n      swap2\n      swap1\n      0x00\n      mstore\n      keccak256(0x00, 0x20)\n      swap1\n    tag_99:\n      dup2\n      sload\n      dup2\n      mstore\n      swap1\n      0x01\n      add\n      swap1\n      0x20\n      add\n      dup1\n      dup4\n      gt\n      tag_99\n      jumpi\n      dup3\n      swap1\n      sub\n      0x1f\n      and\n      dup3\n      add\n      swap2\n    tag_97:\n      pop\n      pop\n      pop\n      pop\n      pop\n      swap1\n      pop\n        /* \"contracts/BasicERC20.sol\":4312:4399  function symbol() public view returns (string memory) {... */\n      swap1\n      jump\t// out\n        /* \"contracts/BasicERC20.sol\":6214:6995  function transfer(address to, uint256 value) public returns (bool) {... */\n    tag_50:\n        /* \"contracts/BasicERC20.sol\":6275:6279  bool */\n      0x00\n        /* \"contracts/BasicERC20.sol\":6292:6304  address from */\n      dup1\n        /* \"contracts/BasicERC20.sol\":6307:6317  msg.sender */\n      caller\n        /* \"contracts/BasicERC20.sol\":6292:6317  address from = msg.sender */\n      swap1\n      pop\n        /* \"contracts/BasicERC20.sol\":6350:6351  0 */\n      0x00\n        /* \"contracts/BasicERC20.sol\":6334:6352  from == address(0) */\n      0xffffffffffffffffffffffffffffffffffffffff\n      and\n        /* \"contracts/BasicERC20.sol\":6334:6338  from */\n      dup2\n        /* \"contracts/BasicERC20.sol\":6334:6352  from == address(0) */\n      0xffffffffffffffffffffffffffffffffffffffff\n      and\n      sub\n        /* \"contracts/BasicERC20.sol\":6330:6431  if (from == address(0)) {... */\n      tag_101\n      jumpi\n        /* \"contracts/BasicERC20.sol\":6388:6392  from */\n      dup1\n        /* \"contracts/BasicERC20.sol\":6376:6419  ZeroAddress(from, \"Sender is zero address\") */\n      mload(0x40)\n      0x7f879f2400000000000000000000000000000000000000000000000000000000\n      dup2\n      mstore\n      0x04\n      add\n      tag_102\n      swap2\n      swap1\n      tag_71\n      jump\t// in\n    tag_102:\n      mload(0x40)\n      dup1\n      swap2\n      sub\n      swap1\n      revert\n        /* \"contracts/BasicERC20.sol\":6330:6431  if (from == address(0)) {... */\n    tag_101:\n        /* \"contracts/BasicERC20.sol\":6461:6462  0 */\n      0x00\n        /* \"contracts/BasicERC20.sol\":6447:6463  to == address(0) */\n      0xffffffffffffffffffffffffffffffffffffffff\n      and\n        /* \"contracts/BasicERC20.sol\":6447:6449  to */\n      dup5\n        /* \"contracts/BasicERC20.sol\":6447:6463  to == address(0) */\n      0xffffffffffffffffffffffffffffffffffffffff\n      and\n      sub\n        /* \"contracts/BasicERC20.sol\":6443:6542  if (to == address(0)) {... */\n      tag_103\n      jumpi\n        /* \"contracts/BasicERC20.sol\":6499:6501  to */\n      dup4\n        /* \"contracts/BasicERC20.sol\":6487:6530  ZeroAddress(to, \"Receiver is zero address\") */\n      mload(0x40)\n      0x7f879f2400000000000000000000000000000000000000000000000000000000\n      dup2\n      mstore\n      0x04\n      add\n      tag_104\n      swap2\n      swap1\n      tag_74\n      jump\t// in\n    tag_104:\n      mload(0x40)\n      dup1\n      swap2\n      sub\n      swap1\n      revert\n        /* \"contracts/BasicERC20.sol\":6443:6542  if (to == address(0)) {... */\n    tag_103:\n        /* \"contracts/BasicERC20.sol\":6569:6570  0 */\n      0x00\n        /* \"contracts/BasicERC20.sol\":6560:6565  value */\n      dup4\n        /* \"contracts/BasicERC20.sol\":6560:6570  value == 0 */\n      sub\n        /* \"contracts/BasicERC20.sol\":6556:6617  if (value == 0) {... */\n      tag_105\n      jumpi\n        /* \"contracts/BasicERC20.sol\":6594:6605  ZeroValue() */\n      mload(0x40)\n      0x7c946ed700000000000000000000000000000000000000000000000000000000\n      dup2\n      mstore\n      0x04\n      add\n      mload(0x40)\n      dup1\n      swap2\n      sub\n      swap1\n      revert\n        /* \"contracts/BasicERC20.sol\":6556:6617  if (value == 0) {... */\n    tag_105:\n        /* \"contracts/BasicERC20.sol\":6629:6648  uint256 fromBalance */\n      0x00\n        /* \"contracts/BasicERC20.sol\":6651:6660  _balances */\n      0x04\n        /* \"contracts/BasicERC20.sol\":6651:6666  _balances[from] */\n      0x00\n        /* \"contracts/BasicERC20.sol\":6661:6665  from */\n      dup4\n        /* \"contracts/BasicERC20.sol\":6651:6666  _balances[from] */\n      0xffffffffffffffffffffffffffffffffffffffff\n      and\n      0xffffffffffffffffffffffffffffffffffffffff\n      and\n      dup2\n      mstore\n      0x20\n      add\n      swap1\n      dup2\n      mstore\n      0x20\n      add\n      0x00\n      keccak256\n      sload\n        /* \"contracts/BasicERC20.sol\":6629:6666  uint256 fromBalance = _balances[from] */\n      swap1\n      pop\n        /* \"contracts/BasicERC20.sol\":6697:6702  value */\n      dup4\n        /* \"contracts/BasicERC20.sol\":6683:6694  fromBalance */\n      dup2\n        /* \"contracts/BasicERC20.sol\":6683:6702  fromBalance < value */\n      lt\n        /* \"contracts/BasicERC20.sol\":6679:6849  if (fromBalance < value) {... */\n      iszero\n      tag_106\n      jumpi\n        /* \"contracts/BasicERC20.sol\":6764:6768  from */\n      dup2\n        /* \"contracts/BasicERC20.sol\":6787:6792  value */\n      dup5\n        /* \"contracts/BasicERC20.sol\":6811:6822  fromBalance */\n      dup3\n        /* \"contracts/BasicERC20.sol\":6726:6837  InsufficientBalance(... */\n      mload(0x40)\n      0xdb42144d00000000000000000000000000000000000000000000000000000000\n      dup2\n      mstore\n      0x04\n      add\n      tag_107\n      swap4\n      swap3\n      swap2\n      swap1\n      tag_87\n      jump\t// in\n    tag_107:\n      mload(0x40)\n      dup1\n      swap2\n      sub\n      swap1\n      revert\n        /* \"contracts/BasicERC20.sol\":6679:6849  if (fromBalance < value) {... */\n    tag_106:\n        /* \"contracts/BasicERC20.sol\":6884:6889  value */\n      dup4\n        /* \"contracts/BasicERC20.sol\":6865:6874  _balances */\n      0x04\n        /* \"contracts/BasicERC20.sol\":6865:6880  _balances[from] */\n      0x00\n        /* \"contracts/BasicERC20.sol\":6875:6879  from */\n      dup5\n        /* \"contracts/BasicERC20.sol\":6865:6880  _balances[from] */\n      0xffffffffffffffffffffffffffffffffffffffff\n      and\n      0xffffffffffffffffffffffffffffffffffffffff\n      and\n      dup2\n      mstore\n      0x20\n      add\n      swap1\n      dup2\n      mstore\n      0x20\n      add\n      0x00\n      keccak256\n      0x00\n        /* \"contracts/BasicERC20.sol\":6865:6889  _balances[from] -= value */\n      dup3\n      dup3\n      sload\n      tag_108\n      swap2\n      swap1\n      tag_89\n      jump\t// in\n    tag_108:\n      swap3\n      pop\n      pop\n      dup2\n      swap1\n      sstore\n      pop\n        /* \"contracts/BasicERC20.sol\":6917:6922  value */\n      dup4\n        /* \"contracts/BasicERC20.sol\":6900:6909  _balances */\n      0x04\n        /* \"contracts/BasicERC20.sol\":6900:6913  _balances[to] */\n      0x00\n        /* \"contracts/BasicERC20.sol\":6910:6912  to */\n      dup8\n        /* \"contracts/BasicERC20.sol\":6900:6913  _balances[to] */\n      0xffffffffffffffffffffffffffffffffffffffff\n      and\n      0xffffffffffffffffffffffffffffffffffffffff\n      and\n      dup2\n      mstore\n      0x20\n      add\n      swap1\n      dup2\n      mstore\n      0x20\n      add\n      0x00\n      keccak256\n      0x00\n        /* \"contracts/BasicERC20.sol\":6900:6922  _balances[to] += value */\n      dup3\n      dup3\n      sload\n      tag_109\n      swap2\n      swap1\n      tag_77\n      jump\t// in\n    tag_109:\n      swap3\n      pop\n      pop\n      dup2\n      swap1\n      sstore\n      pop\n        /* \"contracts/BasicERC20.sol\":6955:6957  to */\n      dup5\n        /* \"contracts/BasicERC20.sol\":6940:6965  Transfer(from, to, value) */\n      0xffffffffffffffffffffffffffffffffffffffff\n      and\n        /* \"contracts/BasicERC20.sol\":6949:6953  from */\n      dup3\n        /* \"contracts/BasicERC20.sol\":6940:6965  Transfer(from, to, value) */\n      0xffffffffffffffffffffffffffffffffffffffff\n      and\n      0xddf252ad1be2c89b69c2b068fc378daa952ba7f163c4a11628f55a4df523b3ef\n        /* \"contracts/BasicERC20.sol\":6959:6964  value */\n      dup7\n        /* \"contracts/BasicERC20.sol\":6940:6965  Transfer(from, to, value) */\n      mload(0x40)\n      tag_110\n      swap2\n      swap1\n      tag_27\n      jump\t// in\n    tag_110:\n      mload(0x40)\n      dup1\n      swap2\n      sub\n      swap1\n      log3\n        /* \"contracts/BasicERC20.sol\":6983:6987  true */\n      0x01\n        /* \"contracts/BasicERC20.sol\":6976:6987  return true */\n      swap3\n      pop\n      pop\n      pop\n        /* \"contracts/BasicERC20.sol\":6214:6995  function transfer(address to, uint256 value) public returns (bool) {... */\n      swap3\n      swap2\n      pop\n      pop\n      jump\t// out\n        /* \"contracts/BasicERC20.sol\":5278:5439  function allowance(... */\n    tag_55:\n        /* \"contracts/BasicERC20.sol\":5377:5384  uint256 */\n      0x00\n        /* \"contracts/BasicERC20.sol\":5404:5415  _allowances */\n      0x05\n        /* \"contracts/BasicERC20.sol\":5404:5422  _allowances[owner] */\n      0x00\n        /* \"contracts/BasicERC20.sol\":5416:5421  owner */\n      dup5\n        /* \"contracts/BasicERC20.sol\":5404:5422  _allowances[owner] */\n      0xffffffffffffffffffffffffffffffffffffffff\n      and\n      0xffffffffffffffffffffffffffffffffffffffff\n      and\n      dup2\n      mstore\n      0x20\n      add\n      swap1\n      dup2\n      mstore\n      0x20\n      add\n      0x00\n      keccak256\n        /* \"contracts/BasicERC20.sol\":5404:5431  _allowances[owner][spender] */\n      0x00\n        /* \"contracts/BasicERC20.sol\":5423:5430  spender */\n      dup4\n        /* \"contracts/BasicERC20.sol\":5404:5431  _allowances[owner][spender] */\n      0xffffffffffffffffffffffffffffffffffffffff\n      and\n      0xffffffffffffffffffffffffffffffffffffffff\n      and\n      dup2\n      mstore\n      0x20\n      add\n      swap1\n      dup2\n      mstore\n      0x20\n      add\n      0x00\n      keccak256\n      sload\n        /* \"contracts/BasicERC20.sol\":5397:5431  return _allowances[owner][spender] */\n      swap1\n      pop\n        /* \"contracts/BasicERC20.sol\":5278:5439  function allowance(... */\n      swap3\n      swap2\n      pop\n      pop\n      jump\t// out\n        /* \"#utility.yul\":7:106   */\n    tag_112:\n        /* \"#utility.yul\":59:65   */\n      0x00\n        /* \"#utility.yul\":93:98   */\n      dup2\n        /* \"#utility.yul\":87:99   */\n      mload\n        /* \"#utility.yul\":77:99   */\n      swap1\n      pop\n        /* \"#utility.yul\":7:106   */\n      swap2\n      swap1\n      pop\n      jump\t// out\n        /* \"#utility.yul\":112:281   */\n    tag_113:\n        /* \"#utility.yul\":196:207   */\n      0x00\n        /* \"#utility.yul\":230:236   */\n      dup3\n        /* \"#utility.yul\":225:228   */\n      dup3\n        /* \"#utility.yul\":218:237   */\n      mstore\n        /* \"#utility.yul\":270:274   */\n      0x20\n        /* \"#utility.yul\":265:268   */\n      dup3\n        /* \"#utility.yul\":261:275   */\n      add\n        /* \"#utility.yul\":246:275   */\n      swap1\n      pop\n        /* \"#utility.yul\":112:281   */\n      swap3\n      swap2\n      pop\n      pop\n      jump\t// out\n        /* \"#utility.yul\":287:533   */\n    tag_114:\n        /* \"#utility.yul\":368:369   */\n      0x00\n        /* \"#utility.yul\":378:491   */\n    tag_143:\n        /* \"#utility.yul\":392:398   */\n      dup4\n        /* \"#utility.yul\":389:390   */\n      dup2\n        /* \"#utility.yul\":386:399   */\n      lt\n        /* \"#utility.yul\":378:491   */\n      iszero\n      tag_145\n      jumpi\n        /* \"#utility.yul\":477:478   */\n      dup1\n        /* \"#utility.yul\":472:475   */\n      dup3\n        /* \"#utility.yul\":468:479   */\n      add\n        /* \"#utility.yul\":462:480   */\n      mload\n        /* \"#utility.yul\":458:459   */\n      dup2\n        /* \"#utility.yul\":453:456   */\n      dup5\n        /* \"#utility.yul\":449:460   */\n      add\n        /* \"#utility.yul\":442:481   */\n      mstore\n        /* \"#utility.yul\":414:416   */\n      0x20\n        /* \"#utility.yul\":411:412   */\n      dup2\n        /* \"#utility.yul\":407:417   */\n      add\n        /* \"#utility.yul\":402:417   */\n      swap1\n      pop\n        /* \"#utility.yul\":378:491   */\n      jump(tag_143)\n    tag_145:\n        /* \"#utility.yul\":525:526   */\n      0x00\n        /* \"#utility.yul\":516:522   */\n      dup5\n        /* \"#utility.yul\":511:514   */\n      dup5\n        /* \"#utility.yul\":507:523   */\n      add\n        /* \"#utility.yul\":500:527   */\n      mstore\n        /* \"#utility.yul\":349:533   */\n      pop\n        /* \"#utility.yul\":287:533   */\n      pop\n      pop\n      pop\n      jump\t// out\n        /* \"#utility.yul\":539:641   */\n    tag_115:\n        /* \"#utility.yul\":580:586   */\n      0x00\n        /* \"#utility.yul\":631:633   */\n      0x1f\n        /* \"#utility.yul\":627:634   */\n      not\n        /* \"#utility.yul\":622:624   */\n      0x1f\n        /* \"#utility.yul\":615:620   */\n      dup4\n        /* \"#utility.yul\":611:625   */\n      add\n        /* \"#utility.yul\":607:635   */\n      and\n        /* \"#utility.yul\":597:635   */\n      swap1\n      pop\n        /* \"#utility.yul\":539:641   */\n      swap2\n      swap1\n      pop\n      jump\t// out\n        /* \"#utility.yul\":647:1024   */\n    tag_116:\n        /* \"#utility.yul\":735:738   */\n      0x00\n        /* \"#utility.yul\":763:802   */\n      tag_148\n        /* \"#utility.yul\":796:801   */\n      dup3\n        /* \"#utility.yul\":763:802   */\n      tag_112\n      jump\t// in\n    tag_148:\n        /* \"#utility.yul\":818:889   */\n      tag_149\n        /* \"#utility.yul\":882:888   */\n      dup2\n        /* \"#utility.yul\":877:880   */\n      dup6\n        /* \"#utility.yul\":818:889   */\n      tag_113\n      jump\t// in\n    tag_149:\n        /* \"#utility.yul\":811:889   */\n      swap4\n      pop\n        /* \"#utility.yul\":898:963   */\n      tag_150\n        /* \"#utility.yul\":956:962   */\n      dup2\n        /* \"#utility.yul\":951:954   */\n      dup6\n        /* \"#utility.yul\":944:948   */\n      0x20\n        /* \"#utility.yul\":937:942   */\n      dup7\n        /* \"#utility.yul\":933:949   */\n      add\n        /* \"#utility.yul\":898:963   */\n      tag_114\n      jump\t// in\n    tag_150:\n        /* \"#utility.yul\":988:1017   */\n      tag_151\n        /* \"#utility.yul\":1010:1016   */\n      dup2\n        /* \"#utility.yul\":988:1017   */\n      tag_115\n      jump\t// in\n    tag_151:\n        /* \"#utility.yul\":983:986   */\n      dup5\n        /* \"#utility.yul\":979:1018   */\n      add\n        /* \"#utility.yul\":972:1018   */\n      swap2\n      pop\n        /* \"#utility.yul\":739:1024   */\n      pop\n        /* \"#utility.yul\":647:1024   */\n      swap3\n      swap2\n      pop\n      pop\n      jump\t// out\n        /* \"#utility.yul\":1030:1343   */\n    tag_17:\n        /* \"#utility.yul\":1143:1147   */\n      0x00\n        /* \"#utility.yul\":1181:1183   */\n      0x20\n        /* \"#utility.yul\":1170:1179   */\n      dup3\n        /* \"#utility.yul\":1166:1184   */\n      add\n        /* \"#utility.yul\":1158:1184   */\n      swap1\n      pop\n        /* \"#utility.yul\":1230:1239   */\n      dup2\n        /* \"#utility.yul\":1224:1228   */\n      dup2\n        /* \"#utility.yul\":1220:1240   */\n      sub\n        /* \"#utility.yul\":1216:1217   */\n      0x00\n        /* \"#utility.yul\":1205:1214   */\n      dup4\n        /* \"#utility.yul\":1201:1218   */\n      add\n        /* \"#utility.yul\":1194:1241   */\n      mstore\n        /* \"#utility.yul\":1258:1336   */\n      tag_153\n        /* \"#utility.yul\":1331:1335   */\n      dup2\n        /* \"#utility.yul\":1322:1328   */\n      dup5\n        /* \"#utility.yul\":1258:1336   */\n      tag_116\n      jump\t// in\n    tag_153:\n        /* \"#utility.yul\":1250:1336   */\n      swap1\n      pop\n        /* \"#utility.yul\":1030:1343   */\n      swap3\n      swap2\n      pop\n      pop\n      jump\t// out\n        /* \"#utility.yul\":1430:1547   */\n    tag_118:\n        /* \"#utility.yul\":1539:1540   */\n      0x00\n        /* \"#utility.yul\":1536:1537   */\n      dup1\n        /* \"#utility.yul\":1529:1541   */\n      revert\n        /* \"#utility.yul\":1676:1802   */\n    tag_120:\n        /* \"#utility.yul\":1713:1720   */\n      0x00\n        /* \"#utility.yul\":1753:1795   */\n      0xffffffffffffffffffffffffffffffffffffffff\n        /* \"#utility.yul\":1746:1751   */\n      dup3\n        /* \"#utility.yul\":1742:1796   */\n      and\n        /* \"#utility.yul\":1731:1796   */\n      swap1\n      pop\n        /* \"#utility.yul\":1676:1802   */\n      swap2\n      swap1\n      pop\n      jump\t// out\n        /* \"#utility.yul\":1808:1904   */\n    tag_121:\n        /* \"#utility.yul\":1845:1852   */\n      0x00\n        /* \"#utility.yul\":1874:1898   */\n      tag_159\n        /* \"#utility.yul\":1892:1897   */\n      dup3\n        /* \"#utility.yul\":1874:1898   */\n      tag_120\n      jump\t// in\n    tag_159:\n        /* \"#utility.yul\":1863:1898   */\n      swap1\n      pop\n        /* \"#utility.yul\":1808:1904   */\n      swap2\n      swap1\n      pop\n      jump\t// out\n        /* \"#utility.yul\":1910:2032   */\n    tag_122:\n        /* \"#utility.yul\":1983:2007   */\n      tag_161\n        /* \"#utility.yul\":2001:2006   */\n      dup2\n        /* \"#utility.yul\":1983:2007   */\n      tag_121\n      jump\t// in\n    tag_161:\n        /* \"#utility.yul\":1976:1981   */\n      dup2\n        /* \"#utility.yul\":1973:2008   */\n      eq\n        /* \"#utility.yul\":1963:2026   */\n      tag_162\n      jumpi\n        /* \"#utility.yul\":2022:2023   */\n      0x00\n        /* \"#utility.yul\":2019:2020   */\n      dup1\n        /* \"#utility.yul\":2012:2024   */\n      revert\n        /* \"#utility.yul\":1963:2026   */\n    tag_162:\n        /* \"#utility.yul\":1910:2032   */\n      pop\n      jump\t// out\n        /* \"#utility.yul\":2038:2177   */\n    tag_123:\n        /* \"#utility.yul\":2084:2089   */\n      0x00\n        /* \"#utility.yul\":2122:2128   */\n      dup2\n        /* \"#utility.yul\":2109:2129   */\n      calldataload\n        /* \"#utility.yul\":2100:2129   */\n      swap1\n      pop\n        /* \"#utility.yul\":2138:2171   */\n      tag_164\n        /* \"#utility.yul\":2165:2170   */\n      dup2\n        /* \"#utility.yul\":2138:2171   */\n      tag_122\n      jump\t// in\n    tag_164:\n        /* \"#utility.yul\":2038:2177   */\n      swap3\n      swap2\n      pop\n      pop\n      jump\t// out\n        /* \"#utility.yul\":2183:2260   */\n    tag_124:\n        /* \"#utility.yul\":2220:2227   */\n      0x00\n        /* \"#utility.yul\":2249:2254   */\n      dup2\n        /* \"#utility.yul\":2238:2254   */\n      swap1\n      pop\n        /* \"#utility.yul\":2183:2260   */\n      swap2\n      swap1\n      pop\n      jump\t// out\n        /* \"#utility.yul\":2266:2388   */\n    tag_125:\n        /* \"#utility.yul\":2339:2363   */\n      tag_167\n        /* \"#utility.yul\":2357:2362   */\n      dup2\n        /* \"#utility.yul\":2339:2363   */\n      tag_124\n      jump\t// in\n    tag_167:\n        /* \"#utility.yul\":2332:2337   */\n      dup2\n        /* \"#utility.yul\":2329:2364   */\n      eq\n        /* \"#utility.yul\":2319:2382   */\n      tag_168\n      jumpi\n        /* \"#utility.yul\":2378:2379   */\n      0x00\n        /* \"#utility.yul\":2375:2376   */\n      dup1\n        /* \"#utility.yul\":2368:2380   */\n      revert\n        /* \"#utility.yul\":2319:2382   */\n    tag_168:\n        /* \"#utility.yul\":2266:2388   */\n      pop\n      jump\t// out\n        /* \"#utility.yul\":2394:2533   */\n    tag_126:\n        /* \"#utility.yul\":2440:2445   */\n      0x00\n        /* \"#utility.yul\":2478:2484   */\n      dup2\n        /* \"#utility.yul\":2465:2485   */\n      calldataload\n        /* \"#utility.yul\":2456:2485   */\n      swap1\n      pop\n        /* \"#utility.yul\":2494:2527   */\n      tag_170\n        /* \"#utility.yul\":2521:2526   */\n      dup2\n        /* \"#utility.yul\":2494:2527   */\n      tag_125\n      jump\t// in\n    tag_170:\n        /* \"#utility.yul\":2394:2533   */\n      swap3\n      swap2\n      pop\n      pop\n      jump\t// out\n        /* \"#utility.yul\":2539:3013   */\n    tag_20:\n        /* \"#utility.yul\":2607:2613   */\n      0x00\n        /* \"#utility.yul\":2615:2621   */\n      dup1\n        /* \"#utility.yul\":2664:2666   */\n      0x40\n        /* \"#utility.yul\":2652:2661   */\n      dup4\n        /* \"#utility.yul\":2643:2650   */\n      dup6\n        /* \"#utility.yul\":2639:2662   */\n      sub\n        /* \"#utility.yul\":2635:2667   */\n      slt\n        /* \"#utility.yul\":2632:2751   */\n      iszero\n      tag_172\n      jumpi\n        /* \"#utility.yul\":2670:2749   */\n      tag_173\n      tag_118\n      jump\t// in\n    tag_173:\n        /* \"#utility.yul\":2632:2751   */\n    tag_172:\n        /* \"#utility.yul\":2790:2791   */\n      0x00\n        /* \"#utility.yul\":2815:2868   */\n      tag_174\n        /* \"#utility.yul\":2860:2867   */\n      dup6\n        /* \"#utility.yul\":2851:2857   */\n      dup3\n        /* \"#utility.yul\":2840:2849   */\n      dup7\n        /* \"#utility.yul\":2836:2858   */\n      add\n        /* \"#utility.yul\":2815:2868   */\n      tag_123\n      jump\t// in\n    tag_174:\n        /* \"#utility.yul\":2805:2868   */\n      swap3\n      pop\n        /* \"#utility.yul\":2761:2878   */\n      pop\n        /* \"#utility.yul\":2917:2919   */\n      0x20\n        /* \"#utility.yul\":2943:2996   */\n      tag_175\n        /* \"#utility.yul\":2988:2995   */\n      dup6\n        /* \"#utility.yul\":2979:2985   */\n      dup3\n        /* \"#utility.yul\":2968:2977   */\n      dup7\n        /* \"#utility.yul\":2964:2986   */\n      add\n        /* \"#utility.yul\":2943:2996   */\n      tag_126\n      jump\t// in\n    tag_175:\n        /* \"#utility.yul\":2933:2996   */\n      swap2\n      pop\n        /* \"#utility.yul\":2888:3006   */\n      pop\n        /* \"#utility.yul\":2539:3013   */\n      swap3\n      pop\n      swap3\n      swap1\n      pop\n      jump\t// out\n        /* \"#utility.yul\":3019:3109   */\n    tag_127:\n        /* \"#utility.yul\":3053:3060   */\n      0x00\n        /* \"#utility.yul\":3096:3101   */\n      dup2\n        /* \"#utility.yul\":3089:3102   */\n      iszero\n        /* \"#utility.yul\":3082:3103   */\n      iszero\n        /* \"#utility.yul\":3071:3103   */\n      swap1\n      pop\n        /* \"#utility.yul\":3019:3109   */\n      swap2\n      swap1\n      pop\n      jump\t// out\n        /* \"#utility.yul\":3115:3224   */\n    tag_128:\n        /* \"#utility.yul\":3196:3217   */\n      tag_178\n        /* \"#utility.yul\":3211:3216   */\n      dup2\n        /* \"#utility.yul\":3196:3217   */\n      tag_127\n      jump\t// in\n    tag_178:\n        /* \"#utility.yul\":3191:3194   */\n      dup3\n        /* \"#utility.yul\":3184:3218   */\n      mstore\n        /* \"#utility.yul\":3115:3224   */\n      pop\n      pop\n      jump\t// out\n        /* \"#utility.yul\":3230:3440   */\n    tag_23:\n        /* \"#utility.yul\":3317:3321   */\n      0x00\n        /* \"#utility.yul\":3355:3357   */\n      0x20\n        /* \"#utility.yul\":3344:3353   */\n      dup3\n        /* \"#utility.yul\":3340:3358   */\n      add\n        /* \"#utility.yul\":3332:3358   */\n      swap1\n      pop\n        /* \"#utility.yul\":3368:3433   */\n      tag_180\n        /* \"#utility.yul\":3430:3431   */\n      0x00\n        /* \"#utility.yul\":3419:3428   */\n      dup4\n        /* \"#utility.yul\":3415:3432   */\n      add\n        /* \"#utility.yul\":3406:3412   */\n      dup5\n        /* \"#utility.yul\":3368:3433   */\n      tag_128\n      jump\t// in\n    tag_180:\n        /* \"#utility.yul\":3230:3440   */\n      swap3\n      swap2\n      pop\n      pop\n      jump\t// out\n        /* \"#utility.yul\":3446:3564   */\n    tag_129:\n        /* \"#utility.yul\":3533:3557   */\n      tag_182\n        /* \"#utility.yul\":3551:3556   */\n      dup2\n        /* \"#utility.yul\":3533:3557   */\n      tag_124\n      jump\t// in\n    tag_182:\n        /* \"#utility.yul\":3528:3531   */\n      dup3\n        /* \"#utility.yul\":3521:3558   */\n      mstore\n        /* \"#utility.yul\":3446:3564   */\n      pop\n      pop\n      jump\t// out\n        /* \"#utility.yul\":3570:3792   */\n    tag_27:\n        /* \"#utility.yul\":3663:3667   */\n      0x00\n        /* \"#utility.yul\":3701:3703   */\n      0x20\n        /* \"#utility.yul\":3690:3699   */\n      dup3\n        /* \"#utility.yul\":3686:3704   */\n      add\n        /* \"#utility.yul\":3678:3704   */\n      swap1\n      pop\n        /* \"#utility.yul\":3714:3785   */\n      tag_184\n        /* \"#utility.yul\":3782:3783   */\n      0x00\n        /* \"#utility.yul\":3771:3780   */\n      dup4\n        /* \"#utility.yul\":3767:3784   */\n      add\n        /* \"#utility.yul\":3758:3764   */\n      dup5\n        /* \"#utility.yul\":3714:3785   */\n      tag_129\n      jump\t// in\n    tag_184:\n        /* \"#utility.yul\":3570:3792   */\n      swap3\n      swap2\n      pop\n      pop\n      jump\t// out\n        /* \"#utility.yul\":3798:3884   */\n    tag_130:\n        /* \"#utility.yul\":3833:3840   */\n      0x00\n        /* \"#utility.yul\":3873:3877   */\n      0xff\n        /* \"#utility.yul\":3866:3871   */\n      dup3\n        /* \"#utility.yul\":3862:3878   */\n      and\n        /* \"#utility.yul\":3851:3878   */\n      swap1\n      pop\n        /* \"#utility.yul\":3798:3884   */\n      swap2\n      swap1\n      pop\n      jump\t// out\n        /* \"#utility.yul\":3890:4002   */\n    tag_131:\n        /* \"#utility.yul\":3973:3995   */\n      tag_187\n        /* \"#utility.yul\":3989:3994   */\n      dup2\n        /* \"#utility.yul\":3973:3995   */\n      tag_130\n      jump\t// in\n    tag_187:\n        /* \"#utility.yul\":3968:3971   */\n      dup3\n        /* \"#utility.yul\":3961:3996   */\n      mstore\n        /* \"#utility.yul\":3890:4002   */\n      pop\n      pop\n      jump\t// out\n        /* \"#utility.yul\":4008:4222   */\n    tag_31:\n        /* \"#utility.yul\":4097:4101   */\n      0x00\n        /* \"#utility.yul\":4135:4137   */\n      0x20\n        /* \"#utility.yul\":4124:4133   */\n      dup3\n        /* \"#utility.yul\":4120:4138   */\n      add\n        /* \"#utility.yul\":4112:4138   */\n      swap1\n      pop\n        /* \"#utility.yul\":4148:4215   */\n      tag_189\n        /* \"#utility.yul\":4212:4213   */\n      0x00\n        /* \"#utility.yul\":4201:4210   */\n      dup4\n        /* \"#utility.yul\":4197:4214   */\n      add\n        /* \"#utility.yul\":4188:4194   */\n      dup5\n        /* \"#utility.yul\":4148:4215   */\n      tag_131\n      jump\t// in\n    tag_189:\n        /* \"#utility.yul\":4008:4222   */\n      swap3\n      swap2\n      pop\n      pop\n      jump\t// out\n        /* \"#utility.yul\":4228:4847   */\n    tag_37:\n        /* \"#utility.yul\":4305:4311   */\n      0x00\n        /* \"#utility.yul\":4313:4319   */\n      dup1\n        /* \"#utility.yul\":4321:4327   */\n      0x00\n        /* \"#utility.yul\":4370:4372   */\n      0x60\n        /* \"#utility.yul\":4358:4367   */\n      dup5\n        /* \"#utility.yul\":4349:4356   */\n      dup7\n        /* \"#utility.yul\":4345:4368   */\n      sub\n        /* \"#utility.yul\":4341:4373   */\n      slt\n        /* \"#utility.yul\":4338:4457   */\n      iszero\n      tag_191\n      jumpi\n        /* \"#utility.yul\":4376:4455   */\n      tag_192\n      tag_118\n      jump\t// in\n    tag_192:\n        /* \"#utility.yul\":4338:4457   */\n    tag_191:\n        /* \"#utility.yul\":4496:4497   */\n      0x00\n        /* \"#utility.yul\":4521:4574   */\n      tag_193\n        /* \"#utility.yul\":4566:4573   */\n      dup7\n        /* \"#utility.yul\":4557:4563   */\n      dup3\n        /* \"#utility.yul\":4546:4555   */\n      dup8\n        /* \"#utility.yul\":4542:4564   */\n      add\n        /* \"#utility.yul\":4521:4574   */\n      tag_123\n      jump\t// in\n    tag_193:\n        /* \"#utility.yul\":4511:4574   */\n      swap4\n      pop\n        /* \"#utility.yul\":4467:4584   */\n      pop\n        /* \"#utility.yul\":4623:4625   */\n      0x20\n        /* \"#utility.yul\":4649:4702   */\n      tag_194\n        /* \"#utility.yul\":4694:4701   */\n      dup7\n        /* \"#utility.yul\":4685:4691   */\n      dup3\n        /* \"#utility.yul\":4674:4683   */\n      dup8\n        /* \"#utility.yul\":4670:4692   */\n      add\n        /* \"#utility.yul\":4649:4702   */\n      tag_123\n      jump\t// in\n    tag_194:\n        /* \"#utility.yul\":4639:4702   */\n      swap3\n      pop\n        /* \"#utility.yul\":4594:4712   */\n      pop\n        /* \"#utility.yul\":4751:4753   */\n      0x40\n        /* \"#utility.yul\":4777:4830   */\n      tag_195\n        /* \"#utility.yul\":4822:4829   */\n      dup7\n        /* \"#utility.yul\":4813:4819   */\n      dup3\n        /* \"#utility.yul\":4802:4811   */\n      dup8\n        /* \"#utility.yul\":4798:4820   */\n      add\n        /* \"#utility.yul\":4777:4830   */\n      tag_126\n      jump\t// in\n    tag_195:\n        /* \"#utility.yul\":4767:4830   */\n      swap2\n      pop\n        /* \"#utility.yul\":4722:4840   */\n      pop\n        /* \"#utility.yul\":4228:4847   */\n      swap3\n      pop\n      swap3\n      pop\n      swap3\n      jump\t// out\n        /* \"#utility.yul\":4853:5182   */\n    tag_42:\n        /* \"#utility.yul\":4912:4918   */\n      0x00\n        /* \"#utility.yul\":4961:4963   */\n      0x20\n        /* \"#utility.yul\":4949:4958   */\n      dup3\n        /* \"#utility.yul\":4940:4947   */\n      dup5\n        /* \"#utility.yul\":4936:4959   */\n      sub\n        /* \"#utility.yul\":4932:4964   */\n      slt\n        /* \"#utility.yul\":4929:5048   */\n      iszero\n      tag_197\n      jumpi\n        /* \"#utility.yul\":4967:5046   */\n      tag_198\n      tag_118\n      jump\t// in\n    tag_198:\n        /* \"#utility.yul\":4929:5048   */\n    tag_197:\n        /* \"#utility.yul\":5087:5088   */\n      0x00\n        /* \"#utility.yul\":5112:5165   */\n      tag_199\n        /* \"#utility.yul\":5157:5164   */\n      dup5\n        /* \"#utility.yul\":5148:5154   */\n      dup3\n        /* \"#utility.yul\":5137:5146   */\n      dup6\n        /* \"#utility.yul\":5133:5155   */\n      add\n        /* \"#utility.yul\":5112:5165   */\n      tag_123\n      jump\t// in\n    tag_199:\n        /* \"#utility.yul\":5102:5165   */\n      swap2\n      pop\n        /* \"#utility.yul\":5058:5175   */\n      pop\n        /* \"#utility.yul\":4853:5182   */\n      swap3\n      swap2\n      pop\n      pop\n      jump\t// out\n        /* \"#utility.yul\":5188:5662   */\n    tag_54:\n        /* \"#utility.yul\":5256:5262   */\n      0x00\n        /* \"#utility.yul\":5264:5270   */\n      dup1\n        /* \"#utility.yul\":5313:5315   */\n      0x40\n        /* \"#utility.yul\":5301:5310   */\n      dup4\n        /* \"#utility.yul\":5292:5299   */\n      dup6\n        /* \"#utility.yul\":5288:5311   */\n      sub\n        /* \"#utility.yul\":5284:5316   */\n      slt\n        /* \"#utility.yul\":5281:5400   */\n      iszero\n      tag_201\n      jumpi\n        /* \"#utility.yul\":5319:5398   */\n      tag_202\n      tag_118\n      jump\t// in\n    tag_202:\n        /* \"#utility.yul\":5281:5400   */\n    tag_201:\n        /* \"#utility.yul\":5439:5440   */\n      0x00\n        /* \"#utility.yul\":5464:5517   */\n      tag_203\n        /* \"#utility.yul\":5509:5516   */\n      dup6\n        /* \"#utility.yul\":5500:5506   */\n      dup3\n        /* \"#utility.yul\":5489:5498   */\n      dup7\n        /* \"#utility.yul\":5485:5507   */\n      add\n        /* \"#utility.yul\":5464:5517   */\n      tag_123\n      jump\t// in\n    tag_203:\n        /* \"#utility.yul\":5454:5517   */\n      swap3\n      pop\n        /* \"#utility.yul\":5410:5527   */\n      pop\n        /* \"#utility.yul\":5566:5568   */\n      0x20\n        /* \"#utility.yul\":5592:5645   */\n      tag_204\n        /* \"#utility.yul\":5637:5644   */\n      dup6\n        /* \"#utility.yul\":5628:5634   */\n      dup3\n        /* \"#utility.yul\":5617:5626   */\n      dup7\n        /* \"#utility.yul\":5613:5635   */\n      add\n        /* \"#utility.yul\":5592:5645   */\n      tag_123\n      jump\t// in\n    tag_204:\n        /* \"#utility.yul\":5582:5645   */\n      swap2\n      pop\n        /* \"#utility.yul\":5537:5655   */\n      pop\n        /* \"#utility.yul\":5188:5662   */\n      swap3\n      pop\n      swap3\n      swap1\n      pop\n      jump\t// out\n        /* \"#utility.yul\":5668:5848   */\n    tag_132:\n        /* \"#utility.yul\":5716:5793   */\n      0x4e487b7100000000000000000000000000000000000000000000000000000000\n        /* \"#utility.yul\":5713:5714   */\n      0x00\n        /* \"#utility.yul\":5706:5794   */\n      mstore\n        /* \"#utility.yul\":5813:5817   */\n      0x22\n        /* \"#utility.yul\":5810:5811   */\n      0x04\n        /* \"#utility.yul\":5803:5818   */\n      mstore\n        /* \"#utility.yul\":5837:5841   */\n      0x24\n        /* \"#utility.yul\":5834:5835   */\n      0x00\n        /* \"#utility.yul\":5827:5842   */\n      revert\n        /* \"#utility.yul\":5854:6174   */\n    tag_59:\n        /* \"#utility.yul\":5898:5904   */\n      0x00\n        /* \"#utility.yul\":5935:5936   */\n      0x02\n        /* \"#utility.yul\":5929:5933   */\n      dup3\n        /* \"#utility.yul\":5925:5937   */\n      div\n        /* \"#utility.yul\":5915:5937   */\n      swap1\n      pop\n        /* \"#utility.yul\":5982:5983   */\n      0x01\n        /* \"#utility.yul\":5976:5980   */\n      dup3\n        /* \"#utility.yul\":5972:5984   */\n      and\n        /* \"#utility.yul\":6003:6021   */\n      dup1\n        /* \"#utility.yul\":5993:6074   */\n      tag_207\n      jumpi\n        /* \"#utility.yul\":6059:6063   */\n      0x7f\n        /* \"#utility.yul\":6051:6057   */\n      dup3\n        /* \"#utility.yul\":6047:6064   */\n      and\n        /* \"#utility.yul\":6037:6064   */\n      swap2\n      pop\n        /* \"#utility.yul\":5993:6074   */\n    tag_207:\n        /* \"#utility.yul\":6121:6123   */\n      0x20\n        /* \"#utility.yul\":6113:6119   */\n      dup3\n        /* \"#utility.yul\":6110:6124   */\n      lt\n        /* \"#utility.yul\":6090:6108   */\n      dup2\n        /* \"#utility.yul\":6087:6125   */\n      sub\n        /* \"#utility.yul\":6084:6168   */\n      tag_208\n      jumpi\n        /* \"#utility.yul\":6140:6158   */\n      tag_209\n      tag_132\n      jump\t// in\n    tag_209:\n        /* \"#utility.yul\":6084:6168   */\n    tag_208:\n        /* \"#utility.yul\":5905:6174   */\n      pop\n        /* \"#utility.yul\":5854:6174   */\n      swap2\n      swap1\n      pop\n      jump\t// out\n        /* \"#utility.yul\":6180:6298   */\n    tag_133:\n        /* \"#utility.yul\":6267:6291   */\n      tag_211\n        /* \"#utility.yul\":6285:6290   */\n      dup2\n        /* \"#utility.yul\":6267:6291   */\n      tag_121\n      jump\t// in\n    tag_211:\n        /* \"#utility.yul\":6262:6265   */\n      dup3\n        /* \"#utility.yul\":6255:6292   */\n      mstore\n        /* \"#utility.yul\":6180:6298   */\n      pop\n      pop\n      jump\t// out\n        /* \"#utility.yul\":6304:6476   */\n    tag_134:\n        /* \"#utility.yul\":6444:6468   */\n      0x53656e646572206973207a65726f206164647265737300000000000000000000\n        /* \"#utility.yul\":6440:6441   */\n      0x00\n        /* \"#utility.yul\":6432:6438   */\n      dup3\n        /* \"#utility.yul\":6428:6442   */\n      add\n        /* \"#utility.yul\":6421:6469   */\n      mstore\n        /* \"#utility.yul\":6304:6476   */\n      pop\n      jump\t// out\n        /* \"#utility.yul\":6482:6848   */\n    tag_135:\n        /* \"#utility.yul\":6624:6627   */\n      0x00\n        /* \"#utility.yul\":6645:6712   */\n      tag_214\n        /* \"#utility.yul\":6709:6711   */\n      0x16\n        /* \"#utility.yul\":6704:6707   */\n      dup4\n        /* \"#utility.yul\":6645:6712   */\n      tag_113\n      jump\t// in\n    tag_214:\n        /* \"#utility.yul\":6638:6712   */\n      swap2\n      pop\n        /* \"#utility.yul\":6721:6814   */\n      tag_215\n        /* \"#utility.yul\":6810:6813   */\n      dup3\n        /* \"#utility.yul\":6721:6814   */\n      tag_134\n      jump\t// in\n    tag_215:\n        /* \"#utility.yul\":6839:6841   */\n      0x20\n        /* \"#utility.yul\":6834:6837   */\n      dup3\n        /* \"#utility.yul\":6830:6842   */\n      add\n        /* \"#utility.yul\":6823:6842   */\n      swap1\n      pop\n        /* \"#utility.yul\":6482:6848   */\n      swap2\n      swap1\n      pop\n      jump\t// out\n        /* \"#utility.yul\":6854:7383   */\n    tag_71:\n        /* \"#utility.yul\":7048:7052   */\n      0x00\n        /* \"#utility.yul\":7086:7088   */\n      0x40\n        /* \"#utility.yul\":7075:7084   */\n      dup3\n        /* \"#utility.yul\":7071:7089   */\n      add\n        /* \"#utility.yul\":7063:7089   */\n      swap1\n      pop\n        /* \"#utility.yul\":7099:7170   */\n      tag_217\n        /* \"#utility.yul\":7167:7168   */\n      0x00\n        /* \"#utility.yul\":7156:7165   */\n      dup4\n        /* \"#utility.yul\":7152:7169   */\n      add\n        /* \"#utility.yul\":7143:7149   */\n      dup5\n        /* \"#utility.yul\":7099:7170   */\n      tag_133\n      jump\t// in\n    tag_217:\n        /* \"#utility.yul\":7217:7226   */\n      dup2\n        /* \"#utility.yul\":7211:7215   */\n      dup2\n        /* \"#utility.yul\":7207:7227   */\n      sub\n        /* \"#utility.yul\":7202:7204   */\n      0x20\n        /* \"#utility.yul\":7191:7200   */\n      dup4\n        /* \"#utility.yul\":7187:7205   */\n      add\n        /* \"#utility.yul\":7180:7228   */\n      mstore\n        /* \"#utility.yul\":7245:7376   */\n      tag_218\n        /* \"#utility.yul\":7371:7375   */\n      dup2\n        /* \"#utility.yul\":7245:7376   */\n      tag_135\n      jump\t// in\n    tag_218:\n        /* \"#utility.yul\":7237:7376   */\n      swap1\n      pop\n        /* \"#utility.yul\":6854:7383   */\n      swap3\n      swap2\n      pop\n      pop\n      jump\t// out\n        /* \"#utility.yul\":7389:7563   */\n    tag_136:\n        /* \"#utility.yul\":7529:7555   */\n      0x5265636569766572206973207a65726f20616464726573730000000000000000\n        /* \"#utility.yul\":7525:7526   */\n      0x00\n        /* \"#utility.yul\":7517:7523   */\n      dup3\n        /* \"#utility.yul\":7513:7527   */\n      add\n        /* \"#utility.yul\":7506:7556   */\n      mstore\n        /* \"#utility.yul\":7389:7563   */\n      pop\n      jump\t// out\n        /* \"#utility.yul\":7569:7935   */\n    tag_137:\n        /* \"#utility.yul\":7711:7714   */\n      0x00\n        /* \"#utility.yul\":7732:7799   */\n      tag_221\n        /* \"#utility.yul\":7796:7798   */\n      0x18\n        /* \"#utility.yul\":7791:7794   */\n      dup4\n        /* \"#utility.yul\":7732:7799   */\n      tag_113\n      jump\t// in\n    tag_221:\n        /* \"#utility.yul\":7725:7799   */\n      swap2\n      pop\n        /* \"#utility.yul\":7808:7901   */\n      tag_222\n        /* \"#utility.yul\":7897:7900   */\n      dup3\n        /* \"#utility.yul\":7808:7901   */\n      tag_136\n      jump\t// in\n    tag_222:\n        /* \"#utility.yul\":7926:7928   */\n      0x20\n        /* \"#utility.yul\":7921:7924   */\n      dup3\n        /* \"#utility.yul\":7917:7929   */\n      add\n        /* \"#utility.yul\":7910:7929   */\n      swap1\n      pop\n        /* \"#utility.yul\":7569:7935   */\n      swap2\n      swap1\n      pop\n      jump\t// out\n        /* \"#utility.yul\":7941:8470   */\n    tag_74:\n        /* \"#utility.yul\":8135:8139   */\n      0x00\n        /* \"#utility.yul\":8173:8175   */\n      0x40\n        /* \"#utility.yul\":8162:8171   */\n      dup3\n        /* \"#utility.yul\":8158:8176   */\n      add\n        /* \"#utility.yul\":8150:8176   */\n      swap1\n      pop\n        /* \"#utility.yul\":8186:8257   */\n      tag_224\n        /* \"#utility.yul\":8254:8255   */\n      0x00\n        /* \"#utility.yul\":8243:8252   */\n      dup4\n        /* \"#utility.yul\":8239:8256   */\n      add\n        /* \"#utility.yul\":8230:8236   */\n      dup5\n        /* \"#utility.yul\":8186:8257   */\n      tag_133\n      jump\t// in\n    tag_224:\n        /* \"#utility.yul\":8304:8313   */\n      dup2\n        /* \"#utility.yul\":8298:8302   */\n      dup2\n        /* \"#utility.yul\":8294:8314   */\n      sub\n        /* \"#utility.yul\":8289:8291   */\n      0x20\n        /* \"#utility.yul\":8278:8287   */\n      dup4\n        /* \"#utility.yul\":8274:8292   */\n      add\n        /* \"#utility.yul\":8267:8315   */\n      mstore\n        /* \"#utility.yul\":8332:8463   */\n      tag_225\n        /* \"#utility.yul\":8458:8462   */\n      dup2\n        /* \"#utility.yul\":8332:8463   */\n      tag_137\n      jump\t// in\n    tag_225:\n        /* \"#utility.yul\":8324:8463   */\n      swap1\n      pop\n        /* \"#utility.yul\":7941:8470   */\n      swap3\n      swap2\n      pop\n      pop\n      jump\t// out\n        /* \"#utility.yul\":8476:8656   */\n    tag_138:\n        /* \"#utility.yul\":8524:8601   */\n      0x4e487b7100000000000000000000000000000000000000000000000000000000\n        /* \"#utility.yul\":8521:8522   */\n      0x00\n        /* \"#utility.yul\":8514:8602   */\n      mstore\n        /* \"#utility.yul\":8621:8625   */\n      0x11\n        /* \"#utility.yul\":8618:8619   */\n      0x04\n        /* \"#utility.yul\":8611:8626   */\n      mstore\n        /* \"#utility.yul\":8645:8649   */\n      0x24\n        /* \"#utility.yul\":8642:8643   */\n      0x00\n        /* \"#utility.yul\":8635:8650   */\n      revert\n        /* \"#utility.yul\":8662:8853   */\n    tag_77:\n        /* \"#utility.yul\":8702:8705   */\n      0x00\n        /* \"#utility.yul\":8721:8741   */\n      tag_228\n        /* \"#utility.yul\":8739:8740   */\n      dup3\n        /* \"#utility.yul\":8721:8741   */\n      tag_124\n      jump\t// in\n    tag_228:\n        /* \"#utility.yul\":8716:8741   */\n      swap2\n      pop\n        /* \"#utility.yul\":8755:8775   */\n      tag_229\n        /* \"#utility.yul\":8773:8774   */\n      dup4\n        /* \"#utility.yul\":8755:8775   */\n      tag_124\n      jump\t// in\n    tag_229:\n        /* \"#utility.yul\":8750:8775   */\n      swap3\n      pop\n        /* \"#utility.yul\":8798:8799   */\n      dup3\n        /* \"#utility.yul\":8795:8796   */\n      dup3\n        /* \"#utility.yul\":8791:8800   */\n      add\n        /* \"#utility.yul\":8784:8800   */\n      swap1\n      pop\n        /* \"#utility.yul\":8819:8822   */\n      dup1\n        /* \"#utility.yul\":8816:8817   */\n      dup3\n        /* \"#utility.yul\":8813:8823   */\n      gt\n        /* \"#utility.yul\":8810:8846   */\n      iszero\n      tag_230\n      jumpi\n        /* \"#utility.yul\":8826:8844   */\n      tag_231\n      tag_138\n      jump\t// in\n    tag_231:\n        /* \"#utility.yul\":8810:8846   */\n    tag_230:\n        /* \"#utility.yul\":8662:8853   */\n      swap3\n      swap2\n      pop\n      pop\n      jump\t// out\n        /* \"#utility.yul\":8859:9301   */\n    tag_87:\n        /* \"#utility.yul\":9008:9012   */\n      0x00\n        /* \"#utility.yul\":9046:9048   */\n      0x60\n        /* \"#utility.yul\":9035:9044   */\n      dup3\n        /* \"#utility.yul\":9031:9049   */\n      add\n        /* \"#utility.yul\":9023:9049   */\n      swap1\n      pop\n        /* \"#utility.yul\":9059:9130   */\n      tag_233\n        /* \"#utility.yul\":9127:9128   */\n      0x00\n        /* \"#utility.yul\":9116:9125   */\n      dup4\n        /* \"#utility.yul\":9112:9129   */\n      add\n        /* \"#utility.yul\":9103:9109   */\n      dup7\n        /* \"#utility.yul\":9059:9130   */\n      tag_133\n      jump\t// in\n    tag_233:\n        /* \"#utility.yul\":9140:9212   */\n      tag_234\n        /* \"#utility.yul\":9208:9210   */\n      0x20\n        /* \"#utility.yul\":9197:9206   */\n      dup4\n        /* \"#utility.yul\":9193:9211   */\n      add\n        /* \"#utility.yul\":9184:9190   */\n      dup6\n        /* \"#utility.yul\":9140:9212   */\n      tag_129\n      jump\t// in\n    tag_234:\n        /* \"#utility.yul\":9222:9294   */\n      tag_235\n        /* \"#utility.yul\":9290:9292   */\n      0x40\n        /* \"#utility.yul\":9279:9288   */\n      dup4\n        /* \"#utility.yul\":9275:9293   */\n      add\n        /* \"#utility.yul\":9266:9272   */\n      dup5\n        /* \"#utility.yul\":9222:9294   */\n      tag_129\n      jump\t// in\n    tag_235:\n        /* \"#utility.yul\":8859:9301   */\n      swap5\n      swap4\n      pop\n      pop\n      pop\n      pop\n      jump\t// out\n        /* \"#utility.yul\":9307:9501   */\n    tag_89:\n        /* \"#utility.yul\":9347:9351   */\n      0x00\n        /* \"#utility.yul\":9367:9387   */\n      tag_237\n        /* \"#utility.yul\":9385:9386   */\n      dup3\n        /* \"#utility.yul\":9367:9387   */\n      tag_124\n      jump\t// in\n    tag_237:\n        /* \"#utility.yul\":9362:9387   */\n      swap2\n      pop\n        /* \"#utility.yul\":9401:9421   */\n      tag_238\n        /* \"#utility.yul\":9419:9420   */\n      dup4\n        /* \"#utility.yul\":9401:9421   */\n      tag_124\n      jump\t// in\n    tag_238:\n        /* \"#utility.yul\":9396:9421   */\n      swap3\n      pop\n        /* \"#utility.yul\":9445:9446   */\n      dup3\n        /* \"#utility.yul\":9442:9443   */\n      dup3\n        /* \"#utility.yul\":9438:9447   */\n      sub\n        /* \"#utility.yul\":9430:9447   */\n      swap1\n      pop\n        /* \"#utility.yul\":9469:9470   */\n      dup2\n        /* \"#utility.yul\":9463:9467   */\n      dup2\n        /* \"#utility.yul\":9460:9471   */\n      gt\n        /* \"#utility.yul\":9457:9494   */\n      iszero\n      tag_239\n      jumpi\n        /* \"#utility.yul\":9474:9492   */\n      tag_240\n      tag_138\n      jump\t// in\n    tag_240:\n        /* \"#utility.yul\":9457:9494   */\n    tag_239:\n        /* \"#utility.yul\":9307:9501   */\n      swap3\n      swap2\n      pop\n      pop\n      jump\t// out\n\n    auxdata: 0xa26469706673582212208527b1ab6186a68997f6dcf69ea4d0e8715a2862ca93806b2410cd5ccaf670f364736f6c63430008180033\n}\n",
				"bytecode": {
					"linkReferences": {},
					"object": "608060405234801562000010575f80fd5b50604051620017d3380380620017d383398181016040528101906200003691906200023c565b825f90816200004691906200050a565b5081600190816200005891906200050a565b508060025f6101000a81548160ff021916908360ff160217905550505050620005ee565b5f604051905090565b5f80fd5b5f80fd5b5f80fd5b5f80fd5b5f601f19601f8301169050919050565b7f4e487b71000000000000000000000000000000000000000000000000000000005f52604160045260245ffd5b620000dd8262000095565b810181811067ffffffffffffffff82111715620000ff57620000fe620000a5565b5b80604052505050565b5f620001136200007c565b9050620001218282620000d2565b919050565b5f67ffffffffffffffff821115620001435762000142620000a5565b5b6200014e8262000095565b9050602081019050919050565b5f5b838110156200017a5780820151818401526020810190506200015d565b5f8484015250505050565b5f6200019b620001958462000126565b62000108565b905082815260208101848484011115620001ba57620001b962000091565b5b620001c78482856200015b565b509392505050565b5f82601f830112620001e657620001e56200008d565b5b8151620001f884826020860162000185565b91505092915050565b5f60ff82169050919050565b620002188162000201565b811462000223575f80fd5b50565b5f8151905062000236816200020d565b92915050565b5f805f6060848603121562000256576200025562000085565b5b5f84015167ffffffffffffffff81111562000276576200027562000089565b5b6200028486828701620001cf565b935050602084015167ffffffffffffffff811115620002a857620002a762000089565b5b620002b686828701620001cf565b9250506040620002c98682870162000226565b9150509250925092565b5f81519050919050565b7f4e487b71000000000000000000000000000000000000000000000000000000005f52602260045260245ffd5b5f60028204905060018216806200032257607f821691505b602082108103620003385762000337620002dd565b5b50919050565b5f819050815f5260205f209050919050565b5f6020601f8301049050919050565b5f82821b905092915050565b5f600883026200039c7fffffffffffffffffffffffffffffffffffffffffffffffffffffffffffffffff826200035f565b620003a886836200035f565b95508019841693508086168417925050509392505050565b5f819050919050565b5f819050919050565b5f620003f2620003ec620003e684620003c0565b620003c9565b620003c0565b9050919050565b5f819050919050565b6200040d83620003d2565b620004256200041c82620003f9565b8484546200036b565b825550505050565b5f90565b6200043b6200042d565b6200044881848462000402565b505050565b5b818110156200046f57620004635f8262000431565b6001810190506200044e565b5050565b601f821115620004be5762000488816200033e565b620004938462000350565b81016020851015620004a3578190505b620004bb620004b28562000350565b8301826200044d565b50505b505050565b5f82821c905092915050565b5f620004e05f1984600802620004c3565b1980831691505092915050565b5f620004fa8383620004cf565b9150826002028217905092915050565b6200051582620002d3565b67ffffffffffffffff811115620005315762000530620000a5565b5b6200053d82546200030a565b6200054a82828562000473565b5f60209050601f83116001811462000580575f84156200056b578287015190505b620005778582620004ed565b865550620005e6565b601f19841662000590866200033e565b5f5b82811015620005b95784890151825560018201915060208501945060208101905062000592565b86831015620005d95784890151620005d5601f891682620004cf565b8355505b6001600288020188555050505b505050505050565b6111d780620005fc5f395ff3fe608060405234801561000f575f80fd5b506004361061009c575f3560e01c806363b0545f1161006457806363b0545f1461014657806370a082311461017657806395d89b41146101a6578063a9059cbb146101c4578063dd62ed3e146101f45761009c565b806306fdde03146100a0578063095ea7b3146100be57806318160ddd146100ee578063313ce5671461010c57806340c10f191461012a575b5f80fd5b6100a8610224565b6040516100b59190610d4a565b60405180910390f35b6100d860048036038101906100d39190610dfb565b6102b3565b6040516100e59190610e53565b60405180910390f35b6100f66103a0565b6040516101039190610e7b565b60405180910390f35b6101146103a9565b6040516101219190610eaf565b60405180910390f35b610144600480360381019061013f9190610dfb565b6103be565b005b610160600480360381019061015b9190610ec8565b610599565b60405161016d9190610e53565b60405180910390f35b610190600480360381019061018b9190610f18565b6108a9565b60405161019d9190610e7b565b60405180910390f35b6101ae6108ef565b6040516101bb9190610d4a565b60405180910390f35b6101de60048036038101906101d99190610dfb565b61097f565b6040516101eb9190610e53565b60405180910390f35b61020e60048036038101906102099190610f43565b610c3e565b60405161021b9190610e7b565b60405180910390f35b60605f805461023290610fae565b80601f016020809104026020016040519081016040528092919081815260200182805461025e90610fae565b80156102a95780601f10610280576101008083540402835291602001916102a9565b820191905f5260205f20905b81548152906001019060200180831161028c57829003601f168201915b5050505050905090565b5f8160055f3373ffffffffffffffffffffffffffffffffffffffff1673ffffffffffffffffffffffffffffffffffffffff1681526020019081526020015f205f8573ffffffffffffffffffffffffffffffffffffffff1673ffffffffffffffffffffffffffffffffffffffff1681526020019081526020015f20819055508273ffffffffffffffffffffffffffffffffffffffff163373ffffffffffffffffffffffffffffffffffffffff167f8c5be1e5ebec7d5bd14f71427d1e84f3dd0314c0f7b2291e5b200ac8c7c3b9258460405161038e9190610e7b565b60405180910390a36001905092915050565b5f600354905090565b5f60025f9054906101000a900460ff16905090565b5f3390505f73ffffffffffffffffffffffffffffffffffffffff168173ffffffffffffffffffffffffffffffffffffffff160361043257806040517f7f879f240000000000000000000000000000000000000000000000000000000081526004016104299190611037565b60405180910390fd5b5f73ffffffffffffffffffffffffffffffffffffffff168373ffffffffffffffffffffffffffffffffffffffff16036104a257826040517f7f879f2400000000000000000000000000000000000000000000000000000000815260040161049991906110ad565b60405180910390fd5b5f82036104db576040517f7c946ed700000000000000000000000000000000000000000000000000000000815260040160405180910390fd5b8160035f8282546104ec9190611106565b925050819055508160045f8573ffffffffffffffffffffffffffffffffffffffff1673ffffffffffffffffffffffffffffffffffffffff1681526020019081526020015f205f82825461053f9190611106565b925050819055508273ffffffffffffffffffffffffffffffffffffffff167f0f6798a560793a54c3bcfe86a93cde1e73087d944c0ea20544137d41213968858360405161058c9190610e7b565b60405180910390a2505050565b5f8073ffffffffffffffffffffffffffffffffffffffff168473ffffffffffffffffffffffffffffffffffffffff160361060a57836040517f7f879f240000000000000000000000000000000000000000000000000000000081526004016106019190611037565b60405180910390fd5b5f73ffffffffffffffffffffffffffffffffffffffff168373ffffffffffffffffffffffffffffffffffffffff160361067a57826040517f7f879f2400000000000000000000000000000000000000000000000000000000815260040161067191906110ad565b60405180910390fd5b5f60045f8673ffffffffffffffffffffffffffffffffffffffff1673ffffffffffffffffffffffffffffffffffffffff1681526020019081526020015f2054905082811015610704578483826040517fdb42144d0000000000000000000000000000000000000000000000000000000081526004016106fb93929190611139565b60405180910390fd5b8260045f8773ffffffffffffffffffffffffffffffffffffffff1673ffffffffffffffffffffffffffffffffffffffff1681526020019081526020015f205f828254610750919061116e565b925050819055508260045f8673ffffffffffffffffffffffffffffffffffffffff1673ffffffffffffffffffffffffffffffffffffffff1681526020019081526020015f205f8282546107a39190611106565b925050819055508260055f8773ffffffffffffffffffffffffffffffffffffffff1673ffffffffffffffffffffffffffffffffffffffff1681526020019081526020015f205f3373ffffffffffffffffffffffffffffffffffffffff1673ffffffffffffffffffffffffffffffffffffffff1681526020019081526020015f205f828254610831919061116e565b925050819055508373ffffffffffffffffffffffffffffffffffffffff168573ffffffffffffffffffffffffffffffffffffffff167fddf252ad1be2c89b69c2b068fc378daa952ba7f163c4a11628f55a4df523b3ef856040516108959190610e7b565b60405180910390a360019150509392505050565b5f60045f8373ffffffffffffffffffffffffffffffffffffffff1673ffffffffffffffffffffffffffffffffffffffff1681526020019081526020015f20549050919050565b6060600180546108fe90610fae565b80601f016020809104026020016040519081016040528092919081815260200182805461092a90610fae565b80156109755780601f1061094c57610100808354040283529160200191610975565b820191905f5260205f20905b81548152906001019060200180831161095857829003601f168201915b5050505050905090565b5f803390505f73ffffffffffffffffffffffffffffffffffffffff168173ffffffffffffffffffffffffffffffffffffffff16036109f457806040517f7f879f240000000000000000000000000000000000000000000000000000000081526004016109eb9190611037565b60405180910390fd5b5f73ffffffffffffffffffffffffffffffffffffffff168473ffffffffffffffffffffffffffffffffffffffff1603610a6457836040517f7f879f24000000000000000000000000000000000000000000000000000000008152600401610a5b91906110ad565b60405180910390fd5b5f8303610a9d576040517f7c946ed700000000000000000000000000000000000000000000000000000000815260040160405180910390fd5b5f60045f8373ffffffffffffffffffffffffffffffffffffffff1673ffffffffffffffffffffffffffffffffffffffff1681526020019081526020015f2054905083811015610b27578184826040517fdb42144d000000000000000000000000000000000000000000000000000000008152600401610b1e93929190611139565b60405180910390fd5b8360045f8473ffffffffffffffffffffffffffffffffffffffff1673ffffffffffffffffffffffffffffffffffffffff1681526020019081526020015f205f828254610b73919061116e565b925050819055508360045f8773ffffffffffffffffffffffffffffffffffffffff1673ffffffffffffffffffffffffffffffffffffffff1681526020019081526020015f205f828254610bc69190611106565b925050819055508473ffffffffffffffffffffffffffffffffffffffff168273ffffffffffffffffffffffffffffffffffffffff167fddf252ad1be2c89b69c2b068fc378daa952ba7f163c4a11628f55a4df523b3ef86604051610c2a9190610e7b565b60405180910390a360019250505092915050565b5f60055f8473ffffffffffffffffffffffffffffffffffffffff1673ffffffffffffffffffffffffffffffffffffffff1681526020019081526020015f205f8373ffffffffffffffffffffffffffffffffffffffff1673ffffffffffffffffffffffffffffffffffffffff1681526020019081526020015f2054905092915050565b5f81519050919050565b5f82825260208201905092915050565b5f5b83811015610cf7578082015181840152602081019050610cdc565b5f8484015250505050565b5f601f19601f8301169050919050565b5f610d1c82610cc0565b610d268185610cca565b9350610d36818560208601610cda565b610d3f81610d02565b840191505092915050565b5f6020820190508181035f830152610d628184610d12565b905092915050565b5f80fd5b5f73ffffffffffffffffffffffffffffffffffffffff82169050919050565b5f610d9782610d6e565b9050919050565b610da781610d8d565b8114610db1575f80fd5b50565b5f81359050610dc281610d9e565b92915050565b5f819050919050565b610dda81610dc8565b8114610de4575f80fd5b50565b5f81359050610df581610dd1565b92915050565b5f8060408385031215610e1157610e10610d6a565b5b5f610e1e85828601610db4565b9250506020610e2f85828601610de7565b9150509250929050565b5f8115159050919050565b610e4d81610e39565b82525050565b5f602082019050610e665f830184610e44565b92915050565b610e7581610dc8565b82525050565b5f602082019050610e8e5f830184610e6c565b92915050565b5f60ff82169050919050565b610ea981610e94565b82525050565b5f602082019050610ec25f830184610ea0565b92915050565b5f805f60608486031215610edf57610ede610d6a565b5b5f610eec86828701610db4565b9350506020610efd86828701610db4565b9250506040610f0e86828701610de7565b9150509250925092565b5f60208284031215610f2d57610f2c610d6a565b5b5f610f3a84828501610db4565b91505092915050565b5f8060408385031215610f5957610f58610d6a565b5b5f610f6685828601610db4565b9250506020610f7785828601610db4565b9150509250929050565b7f4e487b71000000000000000000000000000000000000000000000000000000005f52602260045260245ffd5b5f6002820490506001821680610fc557607f821691505b602082108103610fd857610fd7610f81565b5b50919050565b610fe781610d8d565b82525050565b7f53656e646572206973207a65726f2061646472657373000000000000000000005f82015250565b5f611021601683610cca565b915061102c82610fed565b602082019050919050565b5f60408201905061104a5f830184610fde565b818103602083015261105b81611015565b905092915050565b7f5265636569766572206973207a65726f206164647265737300000000000000005f82015250565b5f611097601883610cca565b91506110a282611063565b602082019050919050565b5f6040820190506110c05f830184610fde565b81810360208301526110d18161108b565b905092915050565b7f4e487b71000000000000000000000000000000000000000000000000000000005f52601160045260245ffd5b5f61111082610dc8565b915061111b83610dc8565b9250828201905080821115611133576111326110d9565b5b92915050565b5f60608201905061114c5f830186610fde565b6111596020830185610e6c565b6111666040830184610e6c565b949350505050565b5f61117882610dc8565b915061118383610dc8565b925082820390508181111561119b5761119a6110d9565b5b9291505056fea26469706673582212208527b1ab6186a68997f6dcf69ea4d0e8715a2862ca93806b2410cd5ccaf670f364736f6c63430008180033",
					"opcodes": "PUSH1 0x80 PUSH1 0x40 MSTORE CALLVALUE DUP1 ISZERO PUSH3 0x10 JUMPI PUSH0 DUP1 REVERT JUMPDEST POP PUSH1 0x40 MLOAD PUSH3 0x17D3 CODESIZE SUB DUP1 PUSH3 0x17D3 DUP4 CODECOPY DUP2 DUP2 ADD PUSH1 0x40 MSTORE DUP2 ADD SWAP1 PUSH3 0x36 SWAP2 SWAP1 PUSH3 0x23C JUMP JUMPDEST DUP3 PUSH0 SWAP1 DUP2 PUSH3 0x46 SWAP2 SWAP1 PUSH3 0x50A JUMP JUMPDEST POP DUP2 PUSH1 0x1 SWAP1 DUP2 PUSH3 0x58 SWAP2 SWAP1 PUSH3 0x50A JUMP JUMPDEST POP DUP1 PUSH1 0x2 PUSH0 PUSH2 0x100 EXP DUP2 SLOAD DUP2 PUSH1 0xFF MUL NOT AND SWAP1 DUP4 PUSH1 0xFF AND MUL OR SWAP1 SSTORE POP POP POP POP PUSH3 0x5EE JUMP JUMPDEST PUSH0 PUSH1 0x40 MLOAD SWAP1 POP SWAP1 JUMP JUMPDEST PUSH0 DUP1 REVERT JUMPDEST PUSH0 DUP1 REVERT JUMPDEST PUSH0 DUP1 REVERT JUMPDEST PUSH0 DUP1 REVERT JUMPDEST PUSH0 PUSH1 0x1F NOT PUSH1 0x1F DUP4 ADD AND SWAP1 POP SWAP2 SWAP1 POP JUMP JUMPDEST PUSH32 0x4E487B7100000000000000000000000000000000000000000000000000000000 PUSH0 MSTORE PUSH1 0x41 PUSH1 0x4 MSTORE PUSH1 0x24 PUSH0 REVERT JUMPDEST PUSH3 0xDD DUP3 PUSH3 0x95 JUMP JUMPDEST DUP2 ADD DUP2 DUP2 LT PUSH8 0xFFFFFFFFFFFFFFFF DUP3 GT OR ISZERO PUSH3 0xFF JUMPI PUSH3 0xFE PUSH3 0xA5 JUMP JUMPDEST JUMPDEST DUP1 PUSH1 0x40 MSTORE POP POP POP JUMP JUMPDEST PUSH0 PUSH3 0x113 PUSH3 0x7C JUMP JUMPDEST SWAP1 POP PUSH3 0x121 DUP3 DUP3 PUSH3 0xD2 JUMP JUMPDEST SWAP2 SWAP1 POP JUMP JUMPDEST PUSH0 PUSH8 0xFFFFFFFFFFFFFFFF DUP3 GT ISZERO PUSH3 0x143 JUMPI PUSH3 0x142 PUSH3 0xA5 JUMP JUMPDEST JUMPDEST PUSH3 0x14E DUP3 PUSH3 0x95 JUMP JUMPDEST SWAP1 POP PUSH1 0x20 DUP2 ADD SWAP1 POP SWAP2 SWAP1 POP JUMP JUMPDEST PUSH0 JUMPDEST DUP4 DUP2 LT ISZERO PUSH3 0x17A JUMPI DUP1 DUP3 ADD MLOAD DUP2 DUP5 ADD MSTORE PUSH1 0x20 DUP2 ADD SWAP1 POP PUSH3 0x15D JUMP JUMPDEST PUSH0 DUP5 DUP5 ADD MSTORE POP POP POP POP JUMP JUMPDEST PUSH0 PUSH3 0x19B PUSH3 0x195 DUP5 PUSH3 0x126 JUMP JUMPDEST PUSH3 0x108 JUMP JUMPDEST SWAP1 POP DUP3 DUP2 MSTORE PUSH1 0x20 DUP2 ADD DUP5 DUP5 DUP5 ADD GT ISZERO PUSH3 0x1BA JUMPI PUSH3 0x1B9 PUSH3 0x91 JUMP JUMPDEST JUMPDEST PUSH3 0x1C7 DUP5 DUP3 DUP6 PUSH3 0x15B JUMP JUMPDEST POP SWAP4 SWAP3 POP POP POP JUMP JUMPDEST PUSH0 DUP3 PUSH1 0x1F DUP4 ADD SLT PUSH3 0x1E6 JUMPI PUSH3 0x1E5 PUSH3 0x8D JUMP JUMPDEST JUMPDEST DUP2 MLOAD PUSH3 0x1F8 DUP5 DUP3 PUSH1 0x20 DUP7 ADD PUSH3 0x185 JUMP JUMPDEST SWAP2 POP POP SWAP3 SWAP2 POP POP JUMP JUMPDEST PUSH0 PUSH1 0xFF DUP3 AND SWAP1 POP SWAP2 SWAP1 POP JUMP JUMPDEST PUSH3 0x218 DUP2 PUSH3 0x201 JUMP JUMPDEST DUP2 EQ PUSH3 0x223 JUMPI PUSH0 DUP1 REVERT JUMPDEST POP JUMP JUMPDEST PUSH0 DUP2 MLOAD SWAP1 POP PUSH3 0x236 DUP2 PUSH3 0x20D JUMP JUMPDEST SWAP3 SWAP2 POP POP JUMP JUMPDEST PUSH0 DUP1 PUSH0 PUSH1 0x60 DUP5 DUP7 SUB SLT ISZERO PUSH3 0x256 JUMPI PUSH3 0x255 PUSH3 0x85 JUMP JUMPDEST JUMPDEST PUSH0 DUP5 ADD MLOAD PUSH8 0xFFFFFFFFFFFFFFFF DUP2 GT ISZERO PUSH3 0x276 JUMPI PUSH3 0x275 PUSH3 0x89 JUMP JUMPDEST JUMPDEST PUSH3 0x284 DUP7 DUP3 DUP8 ADD PUSH3 0x1CF JUMP JUMPDEST SWAP4 POP POP PUSH1 0x20 DUP5 ADD MLOAD PUSH8 0xFFFFFFFFFFFFFFFF DUP2 GT ISZERO PUSH3 0x2A8 JUMPI PUSH3 0x2A7 PUSH3 0x89 JUMP JUMPDEST JUMPDEST PUSH3 0x2B6 DUP7 DUP3 DUP8 ADD PUSH3 0x1CF JUMP JUMPDEST SWAP3 POP POP PUSH1 0x40 PUSH3 0x2C9 DUP7 DUP3 DUP8 ADD PUSH3 0x226 JUMP JUMPDEST SWAP2 POP POP SWAP3 POP SWAP3 POP SWAP3 JUMP JUMPDEST PUSH0 DUP2 MLOAD SWAP1 POP SWAP2 SWAP1 POP JUMP JUMPDEST PUSH32 0x4E487B7100000000000000000000000000000000000000000000000000000000 PUSH0 MSTORE PUSH1 0x22 PUSH1 0x4 MSTORE PUSH1 0x24 PUSH0 REVERT JUMPDEST PUSH0 PUSH1 0x2 DUP3 DIV SWAP1 POP PUSH1 0x1 DUP3 AND DUP1 PUSH3 0x322 JUMPI PUSH1 0x7F DUP3 AND SWAP2 POP JUMPDEST PUSH1 0x20 DUP3 LT DUP2 SUB PUSH3 0x338 JUMPI PUSH3 0x337 PUSH3 0x2DD JUMP JUMPDEST JUMPDEST POP SWAP2 SWAP1 POP JUMP JUMPDEST PUSH0 DUP2 SWAP1 POP DUP2 PUSH0 MSTORE PUSH1 0x20 PUSH0 KECCAK256 SWAP1 POP SWAP2 SWAP1 POP JUMP JUMPDEST PUSH0 PUSH1 0x20 PUSH1 0x1F DUP4 ADD DIV SWAP1 POP SWAP2 SWAP1 POP JUMP JUMPDEST PUSH0 DUP3 DUP3 SHL SWAP1 POP SWAP3 SWAP2 POP POP JUMP JUMPDEST PUSH0 PUSH1 0x8 DUP4 MUL PUSH3 0x39C PUSH32 0xFFFFFFFFFFFFFFFFFFFFFFFFFFFFFFFFFFFFFFFFFFFFFFFFFFFFFFFFFFFFFFFF DUP3 PUSH3 0x35F JUMP JUMPDEST PUSH3 0x3A8 DUP7 DUP4 PUSH3 0x35F JUMP JUMPDEST SWAP6 POP DUP1 NOT DUP5 AND SWAP4 POP DUP1 DUP7 AND DUP5 OR SWAP3 POP POP POP SWAP4 SWAP3 POP POP POP JUMP JUMPDEST PUSH0 DUP2 SWAP1 POP SWAP2 SWAP1 POP JUMP JUMPDEST PUSH0 DUP2 SWAP1 POP SWAP2 SWAP1 POP JUMP JUMPDEST PUSH0 PUSH3 0x3F2 PUSH3 0x3EC PUSH3 0x3E6 DUP5 PUSH3 0x3C0 JUMP JUMPDEST PUSH3 0x3C9 JUMP JUMPDEST PUSH3 0x3C0 JUMP JUMPDEST SWAP1 POP SWAP2 SWAP1 POP JUMP JUMPDEST PUSH0 DUP2 SWAP1 POP SWAP2 SWAP1 POP JUMP JUMPDEST PUSH3 0x40D DUP4 PUSH3 0x3D2 JUMP JUMPDEST PUSH3 0x425 PUSH3 0x41C DUP3 PUSH3 0x3F9 JUMP JUMPDEST DUP5 DUP5 SLOAD PUSH3 0x36B JUMP JUMPDEST DUP3 SSTORE POP POP POP POP JUMP JUMPDEST PUSH0 SWAP1 JUMP JUMPDEST PUSH3 0x43B PUSH3 0x42D JUMP JUMPDEST PUSH3 0x448 DUP2 DUP5 DUP5 PUSH3 0x402 JUMP JUMPDEST POP POP POP JUMP JUMPDEST JUMPDEST DUP2 DUP2 LT ISZERO PUSH3 0x46F JUMPI PUSH3 0x463 PUSH0 DUP3 PUSH3 0x431 JUMP JUMPDEST PUSH1 0x1 DUP2 ADD SWAP1 POP PUSH3 0x44E JUMP JUMPDEST POP POP JUMP JUMPDEST PUSH1 0x1F DUP3 GT ISZERO PUSH3 0x4BE JUMPI PUSH3 0x488 DUP2 PUSH3 0x33E JUMP JUMPDEST PUSH3 0x493 DUP5 PUSH3 0x350 JUMP JUMPDEST DUP2 ADD PUSH1 0x20 DUP6 LT ISZERO PUSH3 0x4A3 JUMPI DUP2 SWAP1 POP JUMPDEST PUSH3 0x4BB PUSH3 0x4B2 DUP6 PUSH3 0x350 JUMP JUMPDEST DUP4 ADD DUP3 PUSH3 0x44D JUMP JUMPDEST POP POP JUMPDEST POP POP POP JUMP JUMPDEST PUSH0 DUP3 DUP3 SHR SWAP1 POP SWAP3 SWAP2 POP POP JUMP JUMPDEST PUSH0 PUSH3 0x4E0 PUSH0 NOT DUP5 PUSH1 0x8 MUL PUSH3 0x4C3 JUMP JUMPDEST NOT DUP1 DUP4 AND SWAP2 POP POP SWAP3 SWAP2 POP POP JUMP JUMPDEST PUSH0 PUSH3 0x4FA DUP4 DUP4 PUSH3 0x4CF JUMP JUMPDEST SWAP2 POP DUP3 PUSH1 0x2 MUL DUP3 OR SWAP1 POP SWAP3 SWAP2 POP POP JUMP JUMPDEST PUSH3 0x515 DUP3 PUSH3 0x2D3 JUMP JUMPDEST PUSH8 0xFFFFFFFFFFFFFFFF DUP2 GT ISZERO PUSH3 0x531 JUMPI PUSH3 0x530 PUSH3 0xA5 JUMP JUMPDEST JUMPDEST PUSH3 0x53D DUP3 SLOAD PUSH3 0x30A JUMP JUMPDEST PUSH3 0x54A DUP3 DUP3 DUP6 PUSH3 0x473 JUMP JUMPDEST PUSH0 PUSH1 0x20 SWAP1 POP PUSH1 0x1F DUP4 GT PUSH1 0x1 DUP2 EQ PUSH3 0x580 JUMPI PUSH0 DUP5 ISZERO PUSH3 0x56B JUMPI DUP3 DUP8 ADD MLOAD SWAP1 POP JUMPDEST PUSH3 0x577 DUP6 DUP3 PUSH3 0x4ED JUMP JUMPDEST DUP7 SSTORE POP PUSH3 0x5E6 JUMP JUMPDEST PUSH1 0x1F NOT DUP5 AND PUSH3 0x590 DUP7 PUSH3 0x33E JUMP JUMPDEST PUSH0 JUMPDEST DUP3 DUP2 LT ISZERO PUSH3 0x5B9 JUMPI DUP5 DUP10 ADD MLOAD DUP3 SSTORE PUSH1 0x1 DUP3 ADD SWAP2 POP PUSH1 0x20 DUP6 ADD SWAP5 POP PUSH1 0x20 DUP2 ADD SWAP1 POP PUSH3 0x592 JUMP JUMPDEST DUP7 DUP4 LT ISZERO PUSH3 0x5D9 JUMPI DUP5 DUP10 ADD MLOAD PUSH3 0x5D5 PUSH1 0x1F DUP10 AND DUP3 PUSH3 0x4CF JUMP JUMPDEST DUP4 SSTORE POP JUMPDEST PUSH1 0x1 PUSH1 0x2 DUP9 MUL ADD DUP9 SSTORE POP POP POP JUMPDEST POP POP POP POP POP POP JUMP JUMPDEST PUSH2 0x11D7 DUP1 PUSH3 0x5FC PUSH0 CODECOPY PUSH0 RETURN INVALID PUSH1 0x80 PUSH1 0x40 MSTORE CALLVALUE DUP1 ISZERO PUSH2 0xF JUMPI PUSH0 DUP1 REVERT JUMPDEST POP PUSH1 0x4 CALLDATASIZE LT PUSH2 0x9C JUMPI PUSH0 CALLDATALOAD PUSH1 0xE0 SHR DUP1 PUSH4 0x63B0545F GT PUSH2 0x64 JUMPI DUP1 PUSH4 0x63B0545F EQ PUSH2 0x146 JUMPI DUP1 PUSH4 0x70A08231 EQ PUSH2 0x176 JUMPI DUP1 PUSH4 0x95D89B41 EQ PUSH2 0x1A6 JUMPI DUP1 PUSH4 0xA9059CBB EQ PUSH2 0x1C4 JUMPI DUP1 PUSH4 0xDD62ED3E EQ PUSH2 0x1F4 JUMPI PUSH2 0x9C JUMP JUMPDEST DUP1 PUSH4 0x6FDDE03 EQ PUSH2 0xA0 JUMPI DUP1 PUSH4 0x95EA7B3 EQ PUSH2 0xBE JUMPI DUP1 PUSH4 0x18160DDD EQ PUSH2 0xEE JUMPI DUP1 PUSH4 0x313CE567 EQ PUSH2 0x10C JUMPI DUP1 PUSH4 0x40C10F19 EQ PUSH2 0x12A JUMPI JUMPDEST PUSH0 DUP1 REVERT JUMPDEST PUSH2 0xA8 PUSH2 0x224 JUMP JUMPDEST PUSH1 0x40 MLOAD PUSH2 0xB5 SWAP2 SWAP1 PUSH2 0xD4A JUMP JUMPDEST PUSH1 0x40 MLOAD DUP1 SWAP2 SUB SWAP1 RETURN JUMPDEST PUSH2 0xD8 PUSH1 0x4 DUP1 CALLDATASIZE SUB DUP2 ADD SWAP1 PUSH2 0xD3 SWAP2 SWAP1 PUSH2 0xDFB JUMP JUMPDEST PUSH2 0x2B3 JUMP JUMPDEST PUSH1 0x40 MLOAD PUSH2 0xE5 SWAP2 SWAP1 PUSH2 0xE53 JUMP JUMPDEST PUSH1 0x40 MLOAD DUP1 SWAP2 SUB SWAP1 RETURN JUMPDEST PUSH2 0xF6 PUSH2 0x3A0 JUMP JUMPDEST PUSH1 0x40 MLOAD PUSH2 0x103 SWAP2 SWAP1 PUSH2 0xE7B JUMP JUMPDEST PUSH1 0x40 MLOAD DUP1 SWAP2 SUB SWAP1 RETURN JUMPDEST PUSH2 0x114 PUSH2 0x3A9 JUMP JUMPDEST PUSH1 0x40 MLOAD PUSH2 0x121 SWAP2 SWAP1 PUSH2 0xEAF JUMP JUMPDEST PUSH1 0x40 MLOAD DUP1 SWAP2 SUB SWAP1 RETURN JUMPDEST PUSH2 0x144 PUSH1 0x4 DUP1 CALLDATASIZE SUB DUP2 ADD SWAP1 PUSH2 0x13F SWAP2 SWAP1 PUSH2 0xDFB JUMP JUMPDEST PUSH2 0x3BE JUMP JUMPDEST STOP JUMPDEST PUSH2 0x160 PUSH1 0x4 DUP1 CALLDATASIZE SUB DUP2 ADD SWAP1 PUSH2 0x15B SWAP2 SWAP1 PUSH2 0xEC8 JUMP JUMPDEST PUSH2 0x599 JUMP JUMPDEST PUSH1 0x40 MLOAD PUSH2 0x16D SWAP2 SWAP1 PUSH2 0xE53 JUMP JUMPDEST PUSH1 0x40 MLOAD DUP1 SWAP2 SUB SWAP1 RETURN JUMPDEST PUSH2 0x190 PUSH1 0x4 DUP1 CALLDATASIZE SUB DUP2 ADD SWAP1 PUSH2 0x18B SWAP2 SWAP1 PUSH2 0xF18 JUMP JUMPDEST PUSH2 0x8A9 JUMP JUMPDEST PUSH1 0x40 MLOAD PUSH2 0x19D SWAP2 SWAP1 PUSH2 0xE7B JUMP JUMPDEST PUSH1 0x40 MLOAD DUP1 SWAP2 SUB SWAP1 RETURN JUMPDEST PUSH2 0x1AE PUSH2 0x8EF JUMP JUMPDEST PUSH1 0x40 MLOAD PUSH2 0x1BB SWAP2 SWAP1 PUSH2 0xD4A JUMP JUMPDEST PUSH1 0x40 MLOAD DUP1 SWAP2 SUB SWAP1 RETURN JUMPDEST PUSH2 0x1DE PUSH1 0x4 DUP1 CALLDATASIZE SUB DUP2 ADD SWAP1 PUSH2 0x1D9 SWAP2 SWAP1 PUSH2 0xDFB JUMP JUMPDEST PUSH2 0x97F JUMP JUMPDEST PUSH1 0x40 MLOAD PUSH2 0x1EB SWAP2 SWAP1 PUSH2 0xE53 JUMP JUMPDEST PUSH1 0x40 MLOAD DUP1 SWAP2 SUB SWAP1 RETURN JUMPDEST PUSH2 0x20E PUSH1 0x4 DUP1 CALLDATASIZE SUB DUP2 ADD SWAP1 PUSH2 0x209 SWAP2 SWAP1 PUSH2 0xF43 JUMP JUMPDEST PUSH2 0xC3E JUMP JUMPDEST PUSH1 0x40 MLOAD PUSH2 0x21B SWAP2 SWAP1 PUSH2 0xE7B JUMP JUMPDEST PUSH1 0x40 MLOAD DUP1 SWAP2 SUB SWAP1 RETURN JUMPDEST PUSH1 0x60 PUSH0 DUP1 SLOAD PUSH2 0x232 SWAP1 PUSH2 0xFAE JUMP JUMPDEST DUP1 PUSH1 0x1F ADD PUSH1 0x20 DUP1 SWAP2 DIV MUL PUSH1 0x20 ADD PUSH1 0x40 MLOAD SWAP1 DUP2 ADD PUSH1 0x40 MSTORE DUP1 SWAP3 SWAP2 SWAP1 DUP2 DUP2 MSTORE PUSH1 0x20 ADD DUP3 DUP1 SLOAD PUSH2 0x25E SWAP1 PUSH2 0xFAE JUMP JUMPDEST DUP1 ISZERO PUSH2 0x2A9 JUMPI DUP1 PUSH1 0x1F LT PUSH2 0x280 JUMPI PUSH2 0x100 DUP1 DUP4 SLOAD DIV MUL DUP4 MSTORE SWAP2 PUSH1 0x20 ADD SWAP2 PUSH2 0x2A9 JUMP JUMPDEST DUP3 ADD SWAP2 SWAP1 PUSH0 MSTORE PUSH1 0x20 PUSH0 KECCAK256 SWAP1 JUMPDEST DUP2 SLOAD DUP2 MSTORE SWAP1 PUSH1 0x1 ADD SWAP1 PUSH1 0x20 ADD DUP1 DUP4 GT PUSH2 0x28C JUMPI DUP3 SWAP1 SUB PUSH1 0x1F AND DUP3 ADD SWAP2 JUMPDEST POP POP POP POP POP SWAP1 POP SWAP1 JUMP JUMPDEST PUSH0 DUP2 PUSH1 0x5 PUSH0 CALLER PUSH20 0xFFFFFFFFFFFFFFFFFFFFFFFFFFFFFFFFFFFFFFFF AND PUSH20 0xFFFFFFFFFFFFFFFFFFFFFFFFFFFFFFFFFFFFFFFF AND DUP2 MSTORE PUSH1 0x20 ADD SWAP1 DUP2 MSTORE PUSH1 0x20 ADD PUSH0 KECCAK256 PUSH0 DUP6 PUSH20 0xFFFFFFFFFFFFFFFFFFFFFFFFFFFFFFFFFFFFFFFF AND PUSH20 0xFFFFFFFFFFFFFFFFFFFFFFFFFFFFFFFFFFFFFFFF AND DUP2 MSTORE PUSH1 0x20 ADD SWAP1 DUP2 MSTORE PUSH1 0x20 ADD PUSH0 KECCAK256 DUP2 SWAP1 SSTORE POP DUP3 PUSH20 0xFFFFFFFFFFFFFFFFFFFFFFFFFFFFFFFFFFFFFFFF AND CALLER PUSH20 0xFFFFFFFFFFFFFFFFFFFFFFFFFFFFFFFFFFFFFFFF AND PUSH32 0x8C5BE1E5EBEC7D5BD14F71427D1E84F3DD0314C0F7B2291E5B200AC8C7C3B925 DUP5 PUSH1 0x40 MLOAD PUSH2 0x38E SWAP2 SWAP1 PUSH2 0xE7B JUMP JUMPDEST PUSH1 0x40 MLOAD DUP1 SWAP2 SUB SWAP1 LOG3 PUSH1 0x1 SWAP1 POP SWAP3 SWAP2 POP POP JUMP JUMPDEST PUSH0 PUSH1 0x3 SLOAD SWAP1 POP SWAP1 JUMP JUMPDEST PUSH0 PUSH1 0x2 PUSH0 SWAP1 SLOAD SWAP1 PUSH2 0x100 EXP SWAP1 DIV PUSH1 0xFF AND SWAP1 POP SWAP1 JUMP JUMPDEST PUSH0 CALLER SWAP1 POP PUSH0 PUSH20 0xFFFFFFFFFFFFFFFFFFFFFFFFFFFFFFFFFFFFFFFF AND DUP2 PUSH20 0xFFFFFFFFFFFFFFFFFFFFFFFFFFFFFFFFFFFFFFFF AND SUB PUSH2 0x432 JUMPI DUP1 PUSH1 0x40 MLOAD PUSH32 0x7F879F2400000000000000000000000000000000000000000000000000000000 DUP2 MSTORE PUSH1 0x4 ADD PUSH2 0x429 SWAP2 SWAP1 PUSH2 0x1037 JUMP JUMPDEST PUSH1 0x40 MLOAD DUP1 SWAP2 SUB SWAP1 REVERT JUMPDEST PUSH0 PUSH20 0xFFFFFFFFFFFFFFFFFFFFFFFFFFFFFFFFFFFFFFFF AND DUP4 PUSH20 0xFFFFFFFFFFFFFFFFFFFFFFFFFFFFFFFFFFFFFFFF AND SUB PUSH2 0x4A2 JUMPI DUP3 PUSH1 0x40 MLOAD PUSH32 0x7F879F2400000000000000000000000000000000000000000000000000000000 DUP2 MSTORE PUSH1 0x4 ADD PUSH2 0x499 SWAP2 SWAP1 PUSH2 0x10AD JUMP JUMPDEST PUSH1 0x40 MLOAD DUP1 SWAP2 SUB SWAP1 REVERT JUMPDEST PUSH0 DUP3 SUB PUSH2 0x4DB JUMPI PUSH1 0x40 MLOAD PUSH32 0x7C946ED700000000000000000000000000000000000000000000000000000000 DUP2 MSTORE PUSH1 0x4 ADD PUSH1 0x40 MLOAD DUP1 SWAP2 SUB SWAP1 REVERT JUMPDEST DUP2 PUSH1 0x3 PUSH0 DUP3 DUP3 SLOAD PUSH2 0x4EC SWAP2 SWAP1 PUSH2 0x1106 JUMP JUMPDEST SWAP3 POP POP DUP2 SWAP1 SSTORE POP DUP2 PUSH1 0x4 PUSH0 DUP6 PUSH20 0xFFFFFFFFFFFFFFFFFFFFFFFFFFFFFFFFFFFFFFFF AND PUSH20 0xFFFFFFFFFFFFFFFFFFFFFFFFFFFFFFFFFFFFFFFF AND DUP2 MSTORE PUSH1 0x20 ADD SWAP1 DUP2 MSTORE PUSH1 0x20 ADD PUSH0 KECCAK256 PUSH0 DUP3 DUP3 SLOAD PUSH2 0x53F SWAP2 SWAP1 PUSH2 0x1106 JUMP JUMPDEST SWAP3 POP POP DUP2 SWAP1 SSTORE POP DUP3 PUSH20 0xFFFFFFFFFFFFFFFFFFFFFFFFFFFFFFFFFFFFFFFF AND PUSH32 0xF6798A560793A54C3BCFE86A93CDE1E73087D944C0EA20544137D4121396885 DUP4 PUSH1 0x40 MLOAD PUSH2 0x58C SWAP2 SWAP1 PUSH2 0xE7B JUMP JUMPDEST PUSH1 0x40 MLOAD DUP1 SWAP2 SUB SWAP1 LOG2 POP POP POP JUMP JUMPDEST PUSH0 DUP1 PUSH20 0xFFFFFFFFFFFFFFFFFFFFFFFFFFFFFFFFFFFFFFFF AND DUP5 PUSH20 0xFFFFFFFFFFFFFFFFFFFFFFFFFFFFFFFFFFFFFFFF AND SUB PUSH2 0x60A JUMPI DUP4 PUSH1 0x40 MLOAD PUSH32 0x7F879F2400000000000000000000000000000000000000000000000000000000 DUP2 MSTORE PUSH1 0x4 ADD PUSH2 0x601 SWAP2 SWAP1 PUSH2 0x1037 JUMP JUMPDEST PUSH1 0x40 MLOAD DUP1 SWAP2 SUB SWAP1 REVERT JUMPDEST PUSH0 PUSH20 0xFFFFFFFFFFFFFFFFFFFFFFFFFFFFFFFFFFFFFFFF AND DUP4 PUSH20 0xFFFFFFFFFFFFFFFFFFFFFFFFFFFFFFFFFFFFFFFF AND SUB PUSH2 0x67A JUMPI DUP3 PUSH1 0x40 MLOAD PUSH32 0x7F879F2400000000000000000000000000000000000000000000000000000000 DUP2 MSTORE PUSH1 0x4 ADD PUSH2 0x671 SWAP2 SWAP1 PUSH2 0x10AD JUMP JUMPDEST PUSH1 0x40 MLOAD DUP1 SWAP2 SUB SWAP1 REVERT JUMPDEST PUSH0 PUSH1 0x4 PUSH0 DUP7 PUSH20 0xFFFFFFFFFFFFFFFFFFFFFFFFFFFFFFFFFFFFFFFF AND PUSH20 0xFFFFFFFFFFFFFFFFFFFFFFFFFFFFFFFFFFFFFFFF AND DUP2 MSTORE PUSH1 0x20 ADD SWAP1 DUP2 MSTORE PUSH1 0x20 ADD PUSH0 KECCAK256 SLOAD SWAP1 POP DUP3 DUP2 LT ISZERO PUSH2 0x704 JUMPI DUP5 DUP4 DUP3 PUSH1 0x40 MLOAD PUSH32 0xDB42144D00000000000000000000000000000000000000000000000000000000 DUP2 MSTORE PUSH1 0x4 ADD PUSH2 0x6FB SWAP4 SWAP3 SWAP2 SWAP1 PUSH2 0x1139 JUMP JUMPDEST PUSH1 0x40 MLOAD DUP1 SWAP2 SUB SWAP1 REVERT JUMPDEST DUP3 PUSH1 0x4 PUSH0 DUP8 PUSH20 0xFFFFFFFFFFFFFFFFFFFFFFFFFFFFFFFFFFFFFFFF AND PUSH20 0xFFFFFFFFFFFFFFFFFFFFFFFFFFFFFFFFFFFFFFFF AND DUP2 MSTORE PUSH1 0x20 ADD SWAP1 DUP2 MSTORE PUSH1 0x20 ADD PUSH0 KECCAK256 PUSH0 DUP3 DUP3 SLOAD PUSH2 0x750 SWAP2 SWAP1 PUSH2 0x116E JUMP JUMPDEST SWAP3 POP POP DUP2 SWAP1 SSTORE POP DUP3 PUSH1 0x4 PUSH0 DUP7 PUSH20 0xFFFFFFFFFFFFFFFFFFFFFFFFFFFFFFFFFFFFFFFF AND PUSH20 0xFFFFFFFFFFFFFFFFFFFFFFFFFFFFFFFFFFFFFFFF AND DUP2 MSTORE PUSH1 0x20 ADD SWAP1 DUP2 MSTORE PUSH1 0x20 ADD PUSH0 KECCAK256 PUSH0 DUP3 DUP3 SLOAD PUSH2 0x7A3 SWAP2 SWAP1 PUSH2 0x1106 JUMP JUMPDEST SWAP3 POP POP DUP2 SWAP1 SSTORE POP DUP3 PUSH1 0x5 PUSH0 DUP8 PUSH20 0xFFFFFFFFFFFFFFFFFFFFFFFFFFFFFFFFFFFFFFFF AND PUSH20 0xFFFFFFFFFFFFFFFFFFFFFFFFFFFFFFFFFFFFFFFF AND DUP2 MSTORE PUSH1 0x20 ADD SWAP1 DUP2 MSTORE PUSH1 0x20 ADD PUSH0 KECCAK256 PUSH0 CALLER PUSH20 0xFFFFFFFFFFFFFFFFFFFFFFFFFFFFFFFFFFFFFFFF AND PUSH20 0xFFFFFFFFFFFFFFFFFFFFFFFFFFFFFFFFFFFFFFFF AND DUP2 MSTORE PUSH1 0x20 ADD SWAP1 DUP2 MSTORE PUSH1 0x20 ADD PUSH0 KECCAK256 PUSH0 DUP3 DUP3 SLOAD PUSH2 0x831 SWAP2 SWAP1 PUSH2 0x116E JUMP JUMPDEST SWAP3 POP POP DUP2 SWAP1 SSTORE POP DUP4 PUSH20 0xFFFFFFFFFFFFFFFFFFFFFFFFFFFFFFFFFFFFFFFF AND DUP6 PUSH20 0xFFFFFFFFFFFFFFFFFFFFFFFFFFFFFFFFFFFFFFFF AND PUSH32 0xDDF252AD1BE2C89B69C2B068FC378DAA952BA7F163C4A11628F55A4DF523B3EF DUP6 PUSH1 0x40 MLOAD PUSH2 0x895 SWAP2 SWAP1 PUSH2 0xE7B JUMP JUMPDEST PUSH1 0x40 MLOAD DUP1 SWAP2 SUB SWAP1 LOG3 PUSH1 0x1 SWAP2 POP POP SWAP4 SWAP3 POP POP POP JUMP JUMPDEST PUSH0 PUSH1 0x4 PUSH0 DUP4 PUSH20 0xFFFFFFFFFFFFFFFFFFFFFFFFFFFFFFFFFFFFFFFF AND PUSH20 0xFFFFFFFFFFFFFFFFFFFFFFFFFFFFFFFFFFFFFFFF AND DUP2 MSTORE PUSH1 0x20 ADD SWAP1 DUP2 MSTORE PUSH1 0x20 ADD PUSH0 KECCAK256 SLOAD SWAP1 POP SWAP2 SWAP1 POP JUMP JUMPDEST PUSH1 0x60 PUSH1 0x1 DUP1 SLOAD PUSH2 0x8FE SWAP1 PUSH2 0xFAE JUMP JUMPDEST DUP1 PUSH1 0x1F ADD PUSH1 0x20 DUP1 SWAP2 DIV MUL PUSH1 0x20 ADD PUSH1 0x40 MLOAD SWAP1 DUP2 ADD PUSH1 0x40 MSTORE DUP1 SWAP3 SWAP2 SWAP1 DUP2 DUP2 MSTORE PUSH1 0x20 ADD DUP3 DUP1 SLOAD PUSH2 0x92A SWAP1 PUSH2 0xFAE JUMP JUMPDEST DUP1 ISZERO PUSH2 0x975 JUMPI DUP1 PUSH1 0x1F LT PUSH2 0x94C JUMPI PUSH2 0x100 DUP1 DUP4 SLOAD DIV MUL DUP4 MSTORE SWAP2 PUSH1 0x20 ADD SWAP2 PUSH2 0x975 JUMP JUMPDEST DUP3 ADD SWAP2 SWAP1 PUSH0 MSTORE PUSH1 0x20 PUSH0 KECCAK256 SWAP1 JUMPDEST DUP2 SLOAD DUP2 MSTORE SWAP1 PUSH1 0x1 ADD SWAP1 PUSH1 0x20 ADD DUP1 DUP4 GT PUSH2 0x958 JUMPI DUP3 SWAP1 SUB PUSH1 0x1F AND DUP3 ADD SWAP2 JUMPDEST POP POP POP POP POP SWAP1 POP SWAP1 JUMP JUMPDEST PUSH0 DUP1 CALLER SWAP1 POP PUSH0 PUSH20 0xFFFFFFFFFFFFFFFFFFFFFFFFFFFFFFFFFFFFFFFF AND DUP2 PUSH20 0xFFFFFFFFFFFFFFFFFFFFFFFFFFFFFFFFFFFFFFFF AND SUB PUSH2 0x9F4 JUMPI DUP1 PUSH1 0x40 MLOAD PUSH32 0x7F879F2400000000000000000000000000000000000000000000000000000000 DUP2 MSTORE PUSH1 0x4 ADD PUSH2 0x9EB SWAP2 SWAP1 PUSH2 0x1037 JUMP JUMPDEST PUSH1 0x40 MLOAD DUP1 SWAP2 SUB SWAP1 REVERT JUMPDEST PUSH0 PUSH20 0xFFFFFFFFFFFFFFFFFFFFFFFFFFFFFFFFFFFFFFFF AND DUP5 PUSH20 0xFFFFFFFFFFFFFFFFFFFFFFFFFFFFFFFFFFFFFFFF AND SUB PUSH2 0xA64 JUMPI DUP4 PUSH1 0x40 MLOAD PUSH32 0x7F879F2400000000000000000000000000000000000000000000000000000000 DUP2 MSTORE PUSH1 0x4 ADD PUSH2 0xA5B SWAP2 SWAP1 PUSH2 0x10AD JUMP JUMPDEST PUSH1 0x40 MLOAD DUP1 SWAP2 SUB SWAP1 REVERT JUMPDEST PUSH0 DUP4 SUB PUSH2 0xA9D JUMPI PUSH1 0x40 MLOAD PUSH32 0x7C946ED700000000000000000000000000000000000000000000000000000000 DUP2 MSTORE PUSH1 0x4 ADD PUSH1 0x40 MLOAD DUP1 SWAP2 SUB SWAP1 REVERT JUMPDEST PUSH0 PUSH1 0x4 PUSH0 DUP4 PUSH20 0xFFFFFFFFFFFFFFFFFFFFFFFFFFFFFFFFFFFFFFFF AND PUSH20 0xFFFFFFFFFFFFFFFFFFFFFFFFFFFFFFFFFFFFFFFF AND DUP2 MSTORE PUSH1 0x20 ADD SWAP1 DUP2 MSTORE PUSH1 0x20 ADD PUSH0 KECCAK256 SLOAD SWAP1 POP DUP4 DUP2 LT ISZERO PUSH2 0xB27 JUMPI DUP2 DUP5 DUP3 PUSH1 0x40 MLOAD PUSH32 0xDB42144D00000000000000000000000000000000000000000000000000000000 DUP2 MSTORE PUSH1 0x4 ADD PUSH2 0xB1E SWAP4 SWAP3 SWAP2 SWAP1 PUSH2 0x1139 JUMP JUMPDEST PUSH1 0x40 MLOAD DUP1 SWAP2 SUB SWAP1 REVERT JUMPDEST DUP4 PUSH1 0x4 PUSH0 DUP5 PUSH20 0xFFFFFFFFFFFFFFFFFFFFFFFFFFFFFFFFFFFFFFFF AND PUSH20 0xFFFFFFFFFFFFFFFFFFFFFFFFFFFFFFFFFFFFFFFF AND DUP2 MSTORE PUSH1 0x20 ADD SWAP1 DUP2 MSTORE PUSH1 0x20 ADD PUSH0 KECCAK256 PUSH0 DUP3 DUP3 SLOAD PUSH2 0xB73 SWAP2 SWAP1 PUSH2 0x116E JUMP JUMPDEST SWAP3 POP POP DUP2 SWAP1 SSTORE POP DUP4 PUSH1 0x4 PUSH0 DUP8 PUSH20 0xFFFFFFFFFFFFFFFFFFFFFFFFFFFFFFFFFFFFFFFF AND PUSH20 0xFFFFFFFFFFFFFFFFFFFFFFFFFFFFFFFFFFFFFFFF AND DUP2 MSTORE PUSH1 0x20 ADD SWAP1 DUP2 MSTORE PUSH1 0x20 ADD PUSH0 KECCAK256 PUSH0 DUP3 DUP3 SLOAD PUSH2 0xBC6 SWAP2 SWAP1 PUSH2 0x1106 JUMP JUMPDEST SWAP3 POP POP DUP2 SWAP1 SSTORE POP DUP5 PUSH20 0xFFFFFFFFFFFFFFFFFFFFFFFFFFFFFFFFFFFFFFFF AND DUP3 PUSH20 0xFFFFFFFFFFFFFFFFFFFFFFFFFFFFFFFFFFFFFFFF AND PUSH32 0xDDF252AD1BE2C89B69C2B068FC378DAA952BA7F163C4A11628F55A4DF523B3EF DUP7 PUSH1 0x40 MLOAD PUSH2 0xC2A SWAP2 SWAP1 PUSH2 0xE7B JUMP JUMPDEST PUSH1 0x40 MLOAD DUP1 SWAP2 SUB SWAP1 LOG3 PUSH1 0x1 SWAP3 POP POP POP SWAP3 SWAP2 POP POP JUMP JUMPDEST PUSH0 PUSH1 0x5 PUSH0 DUP5 PUSH20 0xFFFFFFFFFFFFFFFFFFFFFFFFFFFFFFFFFFFFFFFF AND PUSH20 0xFFFFFFFFFFFFFFFFFFFFFFFFFFFFFFFFFFFFFFFF AND DUP2 MSTORE PUSH1 0x20 ADD SWAP1 DUP2 MSTORE PUSH1 0x20 ADD PUSH0 KECCAK256 PUSH0 DUP4 PUSH20 0xFFFFFFFFFFFFFFFFFFFFFFFFFFFFFFFFFFFFFFFF AND PUSH20 0xFFFFFFFFFFFFFFFFFFFFFFFFFFFFFFFFFFFFFFFF AND DUP2 MSTORE PUSH1 0x20 ADD SWAP1 DUP2 MSTORE PUSH1 0x20 ADD PUSH0 KECCAK256 SLOAD SWAP1 POP SWAP3 SWAP2 POP POP JUMP JUMPDEST PUSH0 DUP2 MLOAD SWAP1 POP SWAP2 SWAP1 POP JUMP JUMPDEST PUSH0 DUP3 DUP3 MSTORE PUSH1 0x20 DUP3 ADD SWAP1 POP SWAP3 SWAP2 POP POP JUMP JUMPDEST PUSH0 JUMPDEST DUP4 DUP2 LT ISZERO PUSH2 0xCF7 JUMPI DUP1 DUP3 ADD MLOAD DUP2 DUP5 ADD MSTORE PUSH1 0x20 DUP2 ADD SWAP1 POP PUSH2 0xCDC JUMP JUMPDEST PUSH0 DUP5 DUP5 ADD MSTORE POP POP POP POP JUMP JUMPDEST PUSH0 PUSH1 0x1F NOT PUSH1 0x1F DUP4 ADD AND SWAP1 POP SWAP2 SWAP1 POP JUMP JUMPDEST PUSH0 PUSH2 0xD1C DUP3 PUSH2 0xCC0 JUMP JUMPDEST PUSH2 0xD26 DUP2 DUP6 PUSH2 0xCCA JUMP JUMPDEST SWAP4 POP PUSH2 0xD36 DUP2 DUP6 PUSH1 0x20 DUP7 ADD PUSH2 0xCDA JUMP JUMPDEST PUSH2 0xD3F DUP2 PUSH2 0xD02 JUMP JUMPDEST DUP5 ADD SWAP2 POP POP SWAP3 SWAP2 POP POP JUMP JUMPDEST PUSH0 PUSH1 0x20 DUP3 ADD SWAP1 POP DUP2 DUP2 SUB PUSH0 DUP4 ADD MSTORE PUSH2 0xD62 DUP2 DUP5 PUSH2 0xD12 JUMP JUMPDEST SWAP1 POP SWAP3 SWAP2 POP POP JUMP JUMPDEST PUSH0 DUP1 REVERT JUMPDEST PUSH0 PUSH20 0xFFFFFFFFFFFFFFFFFFFFFFFFFFFFFFFFFFFFFFFF DUP3 AND SWAP1 POP SWAP2 SWAP1 POP JUMP JUMPDEST PUSH0 PUSH2 0xD97 DUP3 PUSH2 0xD6E JUMP JUMPDEST SWAP1 POP SWAP2 SWAP1 POP JUMP JUMPDEST PUSH2 0xDA7 DUP2 PUSH2 0xD8D JUMP JUMPDEST DUP2 EQ PUSH2 0xDB1 JUMPI PUSH0 DUP1 REVERT JUMPDEST POP JUMP JUMPDEST PUSH0 DUP2 CALLDATALOAD SWAP1 POP PUSH2 0xDC2 DUP2 PUSH2 0xD9E JUMP JUMPDEST SWAP3 SWAP2 POP POP JUMP JUMPDEST PUSH0 DUP2 SWAP1 POP SWAP2 SWAP1 POP JUMP JUMPDEST PUSH2 0xDDA DUP2 PUSH2 0xDC8 JUMP JUMPDEST DUP2 EQ PUSH2 0xDE4 JUMPI PUSH0 DUP1 REVERT JUMPDEST POP JUMP JUMPDEST PUSH0 DUP2 CALLDATALOAD SWAP1 POP PUSH2 0xDF5 DUP2 PUSH2 0xDD1 JUMP JUMPDEST SWAP3 SWAP2 POP POP JUMP JUMPDEST PUSH0 DUP1 PUSH1 0x40 DUP4 DUP6 SUB SLT ISZERO PUSH2 0xE11 JUMPI PUSH2 0xE10 PUSH2 0xD6A JUMP JUMPDEST JUMPDEST PUSH0 PUSH2 0xE1E DUP6 DUP3 DUP7 ADD PUSH2 0xDB4 JUMP JUMPDEST SWAP3 POP POP PUSH1 0x20 PUSH2 0xE2F DUP6 DUP3 DUP7 ADD PUSH2 0xDE7 JUMP JUMPDEST SWAP2 POP POP SWAP3 POP SWAP3 SWAP1 POP JUMP JUMPDEST PUSH0 DUP2 ISZERO ISZERO SWAP1 POP SWAP2 SWAP1 POP JUMP JUMPDEST PUSH2 0xE4D DUP2 PUSH2 0xE39 JUMP JUMPDEST DUP3 MSTORE POP POP JUMP JUMPDEST PUSH0 PUSH1 0x20 DUP3 ADD SWAP1 POP PUSH2 0xE66 PUSH0 DUP4 ADD DUP5 PUSH2 0xE44 JUMP JUMPDEST SWAP3 SWAP2 POP POP JUMP JUMPDEST PUSH2 0xE75 DUP2 PUSH2 0xDC8 JUMP JUMPDEST DUP3 MSTORE POP POP JUMP JUMPDEST PUSH0 PUSH1 0x20 DUP3 ADD SWAP1 POP PUSH2 0xE8E PUSH0 DUP4 ADD DUP5 PUSH2 0xE6C JUMP JUMPDEST SWAP3 SWAP2 POP POP JUMP JUMPDEST PUSH0 PUSH1 0xFF DUP3 AND SWAP1 POP SWAP2 SWAP1 POP JUMP JUMPDEST PUSH2 0xEA9 DUP2 PUSH2 0xE94 JUMP JUMPDEST DUP3 MSTORE POP POP JUMP JUMPDEST PUSH0 PUSH1 0x20 DUP3 ADD SWAP1 POP PUSH2 0xEC2 PUSH0 DUP4 ADD DUP5 PUSH2 0xEA0 JUMP JUMPDEST SWAP3 SWAP2 POP POP JUMP JUMPDEST PUSH0 DUP1 PUSH0 PUSH1 0x60 DUP5 DUP7 SUB SLT ISZERO PUSH2 0xEDF JUMPI PUSH2 0xEDE PUSH2 0xD6A JUMP JUMPDEST JUMPDEST PUSH0 PUSH2 0xEEC DUP7 DUP3 DUP8 ADD PUSH2 0xDB4 JUMP JUMPDEST SWAP4 POP POP PUSH1 0x20 PUSH2 0xEFD DUP7 DUP3 DUP8 ADD PUSH2 0xDB4 JUMP JUMPDEST SWAP3 POP POP PUSH1 0x40 PUSH2 0xF0E DUP7 DUP3 DUP8 ADD PUSH2 0xDE7 JUMP JUMPDEST SWAP2 POP POP SWAP3 POP SWAP3 POP SWAP3 JUMP JUMPDEST PUSH0 PUSH1 0x20 DUP3 DUP5 SUB SLT ISZERO PUSH2 0xF2D JUMPI PUSH2 0xF2C PUSH2 0xD6A JUMP JUMPDEST JUMPDEST PUSH0 PUSH2 0xF3A DUP5 DUP3 DUP6 ADD PUSH2 0xDB4 JUMP JUMPDEST SWAP2 POP POP SWAP3 SWAP2 POP POP JUMP JUMPDEST PUSH0 DUP1 PUSH1 0x40 DUP4 DUP6 SUB SLT ISZERO PUSH2 0xF59 JUMPI PUSH2 0xF58 PUSH2 0xD6A JUMP JUMPDEST JUMPDEST PUSH0 PUSH2 0xF66 DUP6 DUP3 DUP7 ADD PUSH2 0xDB4 JUMP JUMPDEST SWAP3 POP POP PUSH1 0x20 PUSH2 0xF77 DUP6 DUP3 DUP7 ADD PUSH2 0xDB4 JUMP JUMPDEST SWAP2 POP POP SWAP3 POP SWAP3 SWAP1 POP JUMP JUMPDEST PUSH32 0x4E487B7100000000000000000000000000000000000000000000000000000000 PUSH0 MSTORE PUSH1 0x22 PUSH1 0x4 MSTORE PUSH1 0x24 PUSH0 REVERT JUMPDEST PUSH0 PUSH1 0x2 DUP3 DIV SWAP1 POP PUSH1 0x1 DUP3 AND DUP1 PUSH2 0xFC5 JUMPI PUSH1 0x7F DUP3 AND SWAP2 POP JUMPDEST PUSH1 0x20 DUP3 LT DUP2 SUB PUSH2 0xFD8 JUMPI PUSH2 0xFD7 PUSH2 0xF81 JUMP JUMPDEST JUMPDEST POP SWAP2 SWAP1 POP JUMP JUMPDEST PUSH2 0xFE7 DUP2 PUSH2 0xD8D JUMP JUMPDEST DUP3 MSTORE POP POP JUMP JUMPDEST PUSH32 0x53656E646572206973207A65726F206164647265737300000000000000000000 PUSH0 DUP3 ADD MSTORE POP JUMP JUMPDEST PUSH0 PUSH2 0x1021 PUSH1 0x16 DUP4 PUSH2 0xCCA JUMP JUMPDEST SWAP2 POP PUSH2 0x102C DUP3 PUSH2 0xFED JUMP JUMPDEST PUSH1 0x20 DUP3 ADD SWAP1 POP SWAP2 SWAP1 POP JUMP JUMPDEST PUSH0 PUSH1 0x40 DUP3 ADD SWAP1 POP PUSH2 0x104A PUSH0 DUP4 ADD DUP5 PUSH2 0xFDE JUMP JUMPDEST DUP2 DUP2 SUB PUSH1 0x20 DUP4 ADD MSTORE PUSH2 0x105B DUP2 PUSH2 0x1015 JUMP JUMPDEST SWAP1 POP SWAP3 SWAP2 POP POP JUMP JUMPDEST PUSH32 0x5265636569766572206973207A65726F20616464726573730000000000000000 PUSH0 DUP3 ADD MSTORE POP JUMP JUMPDEST PUSH0 PUSH2 0x1097 PUSH1 0x18 DUP4 PUSH2 0xCCA JUMP JUMPDEST SWAP2 POP PUSH2 0x10A2 DUP3 PUSH2 0x1063 JUMP JUMPDEST PUSH1 0x20 DUP3 ADD SWAP1 POP SWAP2 SWAP1 POP JUMP JUMPDEST PUSH0 PUSH1 0x40 DUP3 ADD SWAP1 POP PUSH2 0x10C0 PUSH0 DUP4 ADD DUP5 PUSH2 0xFDE JUMP JUMPDEST DUP2 DUP2 SUB PUSH1 0x20 DUP4 ADD MSTORE PUSH2 0x10D1 DUP2 PUSH2 0x108B JUMP JUMPDEST SWAP1 POP SWAP3 SWAP2 POP POP JUMP JUMPDEST PUSH32 0x4E487B7100000000000000000000000000000000000000000000000000000000 PUSH0 MSTORE PUSH1 0x11 PUSH1 0x4 MSTORE PUSH1 0x24 PUSH0 REVERT JUMPDEST PUSH0 PUSH2 0x1110 DUP3 PUSH2 0xDC8 JUMP JUMPDEST SWAP2 POP PUSH2 0x111B DUP4 PUSH2 0xDC8 JUMP JUMPDEST SWAP3 POP DUP3 DUP3 ADD SWAP1 POP DUP1 DUP3 GT ISZERO PUSH2 0x1133 JUMPI PUSH2 0x1132 PUSH2 0x10D9 JUMP JUMPDEST JUMPDEST SWAP3 SWAP2 POP POP JUMP JUMPDEST PUSH0 PUSH1 0x60 DUP3 ADD SWAP1 POP PUSH2 0x114C PUSH0 DUP4 ADD DUP7 PUSH2 0xFDE JUMP JUMPDEST PUSH2 0x1159 PUSH1 0x20 DUP4 ADD DUP6 PUSH2 0xE6C JUMP JUMPDEST PUSH2 0x1166 PUSH1 0x40 DUP4 ADD DUP5 PUSH2 0xE6C JUMP JUMPDEST SWAP5 SWAP4 POP POP POP POP JUMP JUMPDEST PUSH0 PUSH2 0x1178 DUP3 PUSH2 0xDC8 JUMP JUMPDEST SWAP2 POP PUSH2 0x1183 DUP4 PUSH2 0xDC8 JUMP JUMPDEST SWAP3 POP DUP3 DUP3 SUB SWAP1 POP DUP2 DUP2 GT ISZERO PUSH2 0x119B JUMPI PUSH2 0x119A PUSH2 0x10D9 JUMP JUMPDEST JUMPDEST SWAP3 SWAP2 POP POP JUMP INVALID LOG2 PUSH5 0x6970667358 0x22 SLT KECCAK256 DUP6 0x27 0xB1 0xAB PUSH2 0x86A6 DUP10 SWAP8 0xF6 0xDC 0xF6 SWAP15 LOG4 0xD0 0xE8 PUSH18 0x5A2862CA93806B2410CD5CCAF670F364736F PUSH13 0x63430008180033000000000000 "
				},
				"gasEstimates": {
					"creation": {
						"codeDepositCost": "913400",
						"executionCost": "infinite",
						"totalCost": "infinite"
					},
					"external": {
						"allowance(address,address)": "infinite",
						"approve(address,uint256)": "infinite",
						"balanceOf(address)": "2851",
						"decimals()": "2540",
						"mint(address,uint256)": "infinite",
						"name()": "infinite",
						"symbol()": "infinite",
						"totalSupply()": "2477",
						"transfer(address,uint256)": "infinite",
						"transferfrom(address,address,uint256)": "infinite"
					}
				},
				"methodIdentifiers": {
					"allowance(address,address)": "dd62ed3e",
					"approve(address,uint256)": "095ea7b3",
					"balanceOf(address)": "70a08231",
					"decimals()": "313ce567",
					"mint(address,uint256)": "40c10f19",
					"name()": "06fdde03",
					"symbol()": "95d89b41",
					"totalSupply()": "18160ddd",
					"transfer(address,uint256)": "a9059cbb",
					"transferfrom(address,address,uint256)": "63b0545f"
				}
			},
			"storageLayout": {
				"storage": [
					{
						"astId": 55,
						"contract": "contracts/BasicERC20.sol:BWCContract",
						"label": "_name",
						"offset": 0,
						"slot": "0",
						"type": "t_string_storage"
					},
					{
						"astId": 57,
						"contract": "contracts/BasicERC20.sol:BWCContract",
						"label": "_symbol",
						"offset": 0,
						"slot": "1",
						"type": "t_string_storage"
					},
					{
						"astId": 59,
						"contract": "contracts/BasicERC20.sol:BWCContract",
						"label": "_decimals",
						"offset": 0,
						"slot": "2",
						"type": "t_uint8"
					},
					{
						"astId": 61,
						"contract": "contracts/BasicERC20.sol:BWCContract",
						"label": "TotalSupply",
						"offset": 0,
						"slot": "3",
						"type": "t_uint256"
					},
					{
						"astId": 65,
						"contract": "contracts/BasicERC20.sol:BWCContract",
						"label": "_balances",
						"offset": 0,
						"slot": "4",
						"type": "t_mapping(t_address,t_uint256)"
					},
					{
						"astId": 71,
						"contract": "contracts/BasicERC20.sol:BWCContract",
						"label": "_allowances",
						"offset": 0,
						"slot": "5",
						"type": "t_mapping(t_address,t_mapping(t_address,t_uint256))"
					}
				],
				"types": {
					"t_address": {
						"encoding": "inplace",
						"label": "address",
						"numberOfBytes": "20"
					},
					"t_mapping(t_address,t_mapping(t_address,t_uint256))": {
						"encoding": "mapping",
						"key": "t_address",
						"label": "mapping(address => mapping(address => uint256))",
						"numberOfBytes": "32",
						"value": "t_mapping(t_address,t_uint256)"
					},
					"t_mapping(t_address,t_uint256)": {
						"encoding": "mapping",
						"key": "t_address",
						"label": "mapping(address => uint256)",
						"numberOfBytes": "32",
						"value": "t_uint256"
					},
					"t_string_storage": {
						"encoding": "bytes",
						"label": "string",
						"numberOfBytes": "32"
					},
					"t_uint256": {
						"encoding": "inplace",
						"label": "uint256",
						"numberOfBytes": "32"
					},
					"t_uint8": {
						"encoding": "inplace",
						"label": "uint8",
						"numberOfBytes": "1"
					}
				}
			},
			"userdoc": {
				"kind": "user",
				"methods": {},
				"version": 1
			}
		}
	}
}