{
	"contracts/AssigmentEth.sol": {
		"AdDivide": {
			"abi": [
				{
					"inputs": [
						{
							"internalType": "uint256",
							"name": "num1",
							"type": "uint256"
						},
						{
							"internalType": "uint256",
							"name": "num2",
							"type": "uint256"
						}
					],
					"name": "add",
					"outputs": [
						{
							"internalType": "uint256",
							"name": "",
							"type": "uint256"
						}
					],
					"stateMutability": "nonpayable",
					"type": "function"
				},
				{
					"inputs": [],
					"name": "addnumber",
					"outputs": [
						{
							"internalType": "uint256",
							"name": "",
							"type": "uint256"
						}
					],
					"stateMutability": "view",
					"type": "function"
				},
				{
					"inputs": [],
					"name": "divide",
					"outputs": [
						{
							"internalType": "uint256",
							"name": "",
							"type": "uint256"
						}
					],
					"stateMutability": "view",
					"type": "function"
				},
				{
					"inputs": [
						{
							"internalType": "uint256",
							"name": "num1",
							"type": "uint256"
						},
						{
							"internalType": "uint256",
							"name": "num2",
							"type": "uint256"
						}
					],
					"name": "divide",
					"outputs": [
						{
							"internalType": "uint256",
							"name": "",
							"type": "uint256"
						}
					],
					"stateMutability": "nonpayable",
					"type": "function"
				},
				{
					"inputs": [],
					"name": "divnumber",
					"outputs": [
						{
							"internalType": "uint256",
							"name": "",
							"type": "uint256"
						}
					],
					"stateMutability": "view",
					"type": "function"
				},
				{
					"inputs": [],
					"name": "getAddNumber",
					"outputs": [
						{
							"internalType": "uint256",
							"name": "",
							"type": "uint256"
						}
					],
					"stateMutability": "view",
					"type": "function"
				},
				{
					"inputs": [],
					"name": "name",
					"outputs": [
						{
							"internalType": "string",
							"name": "",
							"type": "string"
						}
					],
					"stateMutability": "view",
					"type": "function"
				},
				{
					"inputs": [
						{
							"internalType": "string",
							"name": "_name",
							"type": "string"
						}
					],
					"name": "saveName",
					"outputs": [],
					"stateMutability": "nonpayable",
					"type": "function"
				}
			],
			"devdoc": {
				"kind": "dev",
				"methods": {},
				"version": 1
			},
			"evm": {
				"assembly": "    /* \"contracts/AssigmentEth.sol\":60:1036  contract AdDivide {... */\n  mstore(0x40, 0x80)\n  callvalue\n  dup1\n  iszero\n  tag_1\n  jumpi\n  0x00\n  dup1\n  revert\ntag_1:\n  pop\n  dataSize(sub_0)\n  dup1\n  dataOffset(sub_0)\n  0x00\n  codecopy\n  0x00\n  return\nstop\n\nsub_0: assembly {\n        /* \"contracts/AssigmentEth.sol\":60:1036  contract AdDivide {... */\n      mstore(0x40, 0x80)\n      callvalue\n      dup1\n      iszero\n      tag_1\n      jumpi\n      0x00\n      dup1\n      revert\n    tag_1:\n      pop\n      jumpi(tag_2, lt(calldatasize, 0x04))\n      shr(0xe0, calldataload(0x00))\n      dup1\n      0xbc420523\n      gt\n      tag_11\n      jumpi\n      dup1\n      0xbc420523\n      eq\n      tag_7\n      jumpi\n      dup1\n      0xc6e53f71\n      eq\n      tag_8\n      jumpi\n      dup1\n      0xf88e9fbf\n      eq\n      tag_9\n      jumpi\n      dup1\n      0xf8efab09\n      eq\n      tag_10\n      jumpi\n      jump(tag_2)\n    tag_11:\n      dup1\n      0x06fdde03\n      eq\n      tag_3\n      jumpi\n      dup1\n      0x771602f7\n      eq\n      tag_4\n      jumpi\n      dup1\n      0x80380149\n      eq\n      tag_5\n      jumpi\n      dup1\n      0xb53b8d7a\n      eq\n      tag_6\n      jumpi\n    tag_2:\n      0x00\n      dup1\n      revert\n        /* \"contracts/AssigmentEth.sol\":85:103  string public name */\n    tag_3:\n      tag_12\n      tag_13\n      jump\t// in\n    tag_12:\n      mload(0x40)\n      tag_14\n      swap2\n      swap1\n      tag_15\n      jump\t// in\n    tag_14:\n      mload(0x40)\n      dup1\n      swap2\n      sub\n      swap1\n      return\n        /* \"contracts/AssigmentEth.sol\":411:546  function add(uint256 num1, uint256 num2) public returns (uint256) {... */\n    tag_4:\n      tag_16\n      0x04\n      dup1\n      calldatasize\n      sub\n      dup2\n      add\n      swap1\n      tag_17\n      swap2\n      swap1\n      tag_18\n      jump\t// in\n    tag_17:\n      tag_19\n      jump\t// in\n    tag_16:\n      mload(0x40)\n      tag_20\n      swap2\n      swap1\n      tag_21\n      jump\t// in\n    tag_20:\n      mload(0x40)\n      dup1\n      swap2\n      sub\n      swap1\n      return\n        /* \"contracts/AssigmentEth.sol\":195:219  uint256 public divnumber */\n    tag_5:\n      tag_22\n      tag_23\n      jump\t// in\n    tag_22:\n      mload(0x40)\n      tag_24\n      swap2\n      swap1\n      tag_21\n      jump\t// in\n    tag_24:\n      mload(0x40)\n      dup1\n      swap2\n      sub\n      swap1\n      return\n        /* \"contracts/AssigmentEth.sol\":951:1033  function divide() public view returns(uint256) {... */\n    tag_6:\n      tag_25\n      tag_26\n      jump\t// in\n    tag_25:\n      mload(0x40)\n      tag_27\n      swap2\n      swap1\n      tag_21\n      jump\t// in\n    tag_27:\n      mload(0x40)\n      dup1\n      swap2\n      sub\n      swap1\n      return\n        /* \"contracts/AssigmentEth.sol\":289:366  function saveName(string memory _name) public {... */\n    tag_7:\n      tag_28\n      0x04\n      dup1\n      calldatasize\n      sub\n      dup2\n      add\n      swap1\n      tag_29\n      swap2\n      swap1\n      tag_30\n      jump\t// in\n    tag_29:\n      tag_31\n      jump\t// in\n    tag_28:\n      stop\n        /* \"contracts/AssigmentEth.sol\":137:161  uint256 public addnumber */\n    tag_8:\n      tag_32\n      tag_33\n      jump\t// in\n    tag_32:\n      mload(0x40)\n      tag_34\n      swap2\n      swap1\n      tag_21\n      jump\t// in\n    tag_34:\n      mload(0x40)\n      dup1\n      swap2\n      sub\n      swap1\n      return\n        /* \"contracts/AssigmentEth.sol\":736:945  function divide(uint256 num1, uint256 num2) public returns (uint256) {... */\n    tag_9:\n      tag_35\n      0x04\n      dup1\n      calldatasize\n      sub\n      dup2\n      add\n      swap1\n      tag_36\n      swap2\n      swap1\n      tag_18\n      jump\t// in\n    tag_36:\n      tag_37\n      jump\t// in\n    tag_35:\n      mload(0x40)\n      tag_38\n      swap2\n      swap1\n      tag_21\n      jump\t// in\n    tag_38:\n      mload(0x40)\n      dup1\n      swap2\n      sub\n      swap1\n      return\n        /* \"contracts/AssigmentEth.sol\":602:691  function getAddNumber() public view returns (uint256) {... */\n    tag_10:\n      tag_39\n      tag_40\n      jump\t// in\n    tag_39:\n      mload(0x40)\n      tag_41\n      swap2\n      swap1\n      tag_21\n      jump\t// in\n    tag_41:\n      mload(0x40)\n      dup1\n      swap2\n      sub\n      swap1\n      return\n        /* \"contracts/AssigmentEth.sol\":85:103  string public name */\n    tag_13:\n      0x00\n      dup1\n      sload\n      tag_42\n      swap1\n      tag_43\n      jump\t// in\n    tag_42:\n      dup1\n      0x1f\n      add\n      0x20\n      dup1\n      swap2\n      div\n      mul\n      0x20\n      add\n      mload(0x40)\n      swap1\n      dup2\n      add\n      0x40\n      mstore\n      dup1\n      swap3\n      swap2\n      swap1\n      dup2\n      dup2\n      mstore\n      0x20\n      add\n      dup3\n      dup1\n      sload\n      tag_44\n      swap1\n      tag_43\n      jump\t// in\n    tag_44:\n      dup1\n      iszero\n      tag_45\n      jumpi\n      dup1\n      0x1f\n      lt\n      tag_46\n      jumpi\n      0x0100\n      dup1\n      dup4\n      sload\n      div\n      mul\n      dup4\n      mstore\n      swap2\n      0x20\n      add\n      swap2\n      jump(tag_45)\n    tag_46:\n      dup3\n      add\n      swap2\n      swap1\n      0x00\n      mstore\n      keccak256(0x00, 0x20)\n      swap1\n    tag_47:\n      dup2\n      sload\n      dup2\n      mstore\n      swap1\n      0x01\n      add\n      swap1\n      0x20\n      add\n      dup1\n      dup4\n      gt\n      tag_47\n      jumpi\n      dup3\n      swap1\n      sub\n      0x1f\n      and\n      dup3\n      add\n      swap2\n    tag_45:\n      pop\n      pop\n      pop\n      pop\n      pop\n      dup2\n      jump\t// out\n        /* \"contracts/AssigmentEth.sol\":411:546  function add(uint256 num1, uint256 num2) public returns (uint256) {... */\n    tag_19:\n        /* \"contracts/AssigmentEth.sol\":468:475  uint256 */\n      0x00\n        /* \"contracts/AssigmentEth.sol\":507:511  num2 */\n      dup2\n        /* \"contracts/AssigmentEth.sol\":500:504  num1 */\n      dup4\n        /* \"contracts/AssigmentEth.sol\":500:511  num1 + num2 */\n      tag_49\n      swap2\n      swap1\n      tag_50\n      jump\t// in\n    tag_49:\n        /* \"contracts/AssigmentEth.sol\":488:497  addnumber */\n      0x01\n        /* \"contracts/AssigmentEth.sol\":488:511  addnumber = num1 + num2 */\n      dup2\n      swap1\n      sstore\n      pop\n        /* \"contracts/AssigmentEth.sol\":529:538  addnumber */\n      sload(0x01)\n        /* \"contracts/AssigmentEth.sol\":522:538  return addnumber */\n      swap1\n      pop\n        /* \"contracts/AssigmentEth.sol\":411:546  function add(uint256 num1, uint256 num2) public returns (uint256) {... */\n      swap3\n      swap2\n      pop\n      pop\n      jump\t// out\n        /* \"contracts/AssigmentEth.sol\":195:219  uint256 public divnumber */\n    tag_23:\n      sload(0x02)\n      dup2\n      jump\t// out\n        /* \"contracts/AssigmentEth.sol\":951:1033  function divide() public view returns(uint256) {... */\n    tag_26:\n        /* \"contracts/AssigmentEth.sol\":989:996  uint256 */\n      0x00\n        /* \"contracts/AssigmentEth.sol\":1016:1025  divnumber */\n      sload(0x02)\n        /* \"contracts/AssigmentEth.sol\":1009:1025  return divnumber */\n      swap1\n      pop\n        /* \"contracts/AssigmentEth.sol\":951:1033  function divide() public view returns(uint256) {... */\n      swap1\n      jump\t// out\n        /* \"contracts/AssigmentEth.sol\":289:366  function saveName(string memory _name) public {... */\n    tag_31:\n        /* \"contracts/AssigmentEth.sol\":353:358  _name */\n      dup1\n        /* \"contracts/AssigmentEth.sol\":346:350  name */\n      0x00\n        /* \"contracts/AssigmentEth.sol\":346:358  name = _name */\n      swap1\n      dup2\n      tag_53\n      swap2\n      swap1\n      tag_54\n      jump\t// in\n    tag_53:\n      pop\n        /* \"contracts/AssigmentEth.sol\":289:366  function saveName(string memory _name) public {... */\n      pop\n      jump\t// out\n        /* \"contracts/AssigmentEth.sol\":137:161  uint256 public addnumber */\n    tag_33:\n      sload(0x01)\n      dup2\n      jump\t// out\n        /* \"contracts/AssigmentEth.sol\":736:945  function divide(uint256 num1, uint256 num2) public returns (uint256) {... */\n    tag_37:\n        /* \"contracts/AssigmentEth.sol\":796:803  uint256 */\n      0x00\n        /* \"contracts/AssigmentEth.sol\":832:833  0 */\n      dup1\n        /* \"contracts/AssigmentEth.sol\":824:828  num2 */\n      dup3\n        /* \"contracts/AssigmentEth.sol\":824:833  num2 != 0 */\n      sub\n        /* \"contracts/AssigmentEth.sol\":816:857  require(num2 != 0, \"num2 cannot be zero\") */\n      tag_56\n      jumpi\n      mload(0x40)\n      0x08c379a000000000000000000000000000000000000000000000000000000000\n      dup2\n      mstore\n      0x04\n      add\n      tag_57\n      swap1\n      tag_58\n      jump\t// in\n    tag_57:\n      mload(0x40)\n      dup1\n      swap2\n      sub\n      swap1\n      revert\n    tag_56:\n        /* \"contracts/AssigmentEth.sol\":906:910  num2 */\n      dup2\n        /* \"contracts/AssigmentEth.sol\":899:903  num1 */\n      dup4\n        /* \"contracts/AssigmentEth.sol\":899:910  num1 / num2 */\n      tag_59\n      swap2\n      swap1\n      tag_60\n      jump\t// in\n    tag_59:\n        /* \"contracts/AssigmentEth.sol\":887:896  divnumber */\n      0x02\n        /* \"contracts/AssigmentEth.sol\":887:910  divnumber = num1 / num2 */\n      dup2\n      swap1\n      sstore\n      pop\n        /* \"contracts/AssigmentEth.sol\":928:937  divnumber */\n      sload(0x02)\n        /* \"contracts/AssigmentEth.sol\":921:937  return divnumber */\n      swap1\n      pop\n        /* \"contracts/AssigmentEth.sol\":736:945  function divide(uint256 num1, uint256 num2) public returns (uint256) {... */\n      swap3\n      swap2\n      pop\n      pop\n      jump\t// out\n        /* \"contracts/AssigmentEth.sol\":602:691  function getAddNumber() public view returns (uint256) {... */\n    tag_40:\n        /* \"contracts/AssigmentEth.sol\":647:654  uint256 */\n      0x00\n        /* \"contracts/AssigmentEth.sol\":674:683  addnumber */\n      sload(0x01)\n        /* \"contracts/AssigmentEth.sol\":667:683  return addnumber */\n      swap1\n      pop\n        /* \"contracts/AssigmentEth.sol\":602:691  function getAddNumber() public view returns (uint256) {... */\n      swap1\n      jump\t// out\n        /* \"#utility.yul\":7:106   */\n    tag_62:\n        /* \"#utility.yul\":59:65   */\n      0x00\n        /* \"#utility.yul\":93:98   */\n      dup2\n        /* \"#utility.yul\":87:99   */\n      mload\n        /* \"#utility.yul\":77:99   */\n      swap1\n      pop\n        /* \"#utility.yul\":7:106   */\n      swap2\n      swap1\n      pop\n      jump\t// out\n        /* \"#utility.yul\":112:281   */\n    tag_63:\n        /* \"#utility.yul\":196:207   */\n      0x00\n        /* \"#utility.yul\":230:236   */\n      dup3\n        /* \"#utility.yul\":225:228   */\n      dup3\n        /* \"#utility.yul\":218:237   */\n      mstore\n        /* \"#utility.yul\":270:274   */\n      0x20\n        /* \"#utility.yul\":265:268   */\n      dup3\n        /* \"#utility.yul\":261:275   */\n      add\n        /* \"#utility.yul\":246:275   */\n      swap1\n      pop\n        /* \"#utility.yul\":112:281   */\n      swap3\n      swap2\n      pop\n      pop\n      jump\t// out\n        /* \"#utility.yul\":287:533   */\n    tag_64:\n        /* \"#utility.yul\":368:369   */\n      0x00\n        /* \"#utility.yul\":378:491   */\n    tag_107:\n        /* \"#utility.yul\":392:398   */\n      dup4\n        /* \"#utility.yul\":389:390   */\n      dup2\n        /* \"#utility.yul\":386:399   */\n      lt\n        /* \"#utility.yul\":378:491   */\n      iszero\n      tag_109\n      jumpi\n        /* \"#utility.yul\":477:478   */\n      dup1\n        /* \"#utility.yul\":472:475   */\n      dup3\n        /* \"#utility.yul\":468:479   */\n      add\n        /* \"#utility.yul\":462:480   */\n      mload\n        /* \"#utility.yul\":458:459   */\n      dup2\n        /* \"#utility.yul\":453:456   */\n      dup5\n        /* \"#utility.yul\":449:460   */\n      add\n        /* \"#utility.yul\":442:481   */\n      mstore\n        /* \"#utility.yul\":414:416   */\n      0x20\n        /* \"#utility.yul\":411:412   */\n      dup2\n        /* \"#utility.yul\":407:417   */\n      add\n        /* \"#utility.yul\":402:417   */\n      swap1\n      pop\n        /* \"#utility.yul\":378:491   */\n      jump(tag_107)\n    tag_109:\n        /* \"#utility.yul\":525:526   */\n      0x00\n        /* \"#utility.yul\":516:522   */\n      dup5\n        /* \"#utility.yul\":511:514   */\n      dup5\n        /* \"#utility.yul\":507:523   */\n      add\n        /* \"#utility.yul\":500:527   */\n      mstore\n        /* \"#utility.yul\":349:533   */\n      pop\n        /* \"#utility.yul\":287:533   */\n      pop\n      pop\n      pop\n      jump\t// out\n        /* \"#utility.yul\":539:641   */\n    tag_65:\n        /* \"#utility.yul\":580:586   */\n      0x00\n        /* \"#utility.yul\":631:633   */\n      0x1f\n        /* \"#utility.yul\":627:634   */\n      not\n        /* \"#utility.yul\":622:624   */\n      0x1f\n        /* \"#utility.yul\":615:620   */\n      dup4\n        /* \"#utility.yul\":611:625   */\n      add\n        /* \"#utility.yul\":607:635   */\n      and\n        /* \"#utility.yul\":597:635   */\n      swap1\n      pop\n        /* \"#utility.yul\":539:641   */\n      swap2\n      swap1\n      pop\n      jump\t// out\n        /* \"#utility.yul\":647:1024   */\n    tag_66:\n        /* \"#utility.yul\":735:738   */\n      0x00\n        /* \"#utility.yul\":763:802   */\n      tag_112\n        /* \"#utility.yul\":796:801   */\n      dup3\n        /* \"#utility.yul\":763:802   */\n      tag_62\n      jump\t// in\n    tag_112:\n        /* \"#utility.yul\":818:889   */\n      tag_113\n        /* \"#utility.yul\":882:888   */\n      dup2\n        /* \"#utility.yul\":877:880   */\n      dup6\n        /* \"#utility.yul\":818:889   */\n      tag_63\n      jump\t// in\n    tag_113:\n        /* \"#utility.yul\":811:889   */\n      swap4\n      pop\n        /* \"#utility.yul\":898:963   */\n      tag_114\n        /* \"#utility.yul\":956:962   */\n      dup2\n        /* \"#utility.yul\":951:954   */\n      dup6\n        /* \"#utility.yul\":944:948   */\n      0x20\n        /* \"#utility.yul\":937:942   */\n      dup7\n        /* \"#utility.yul\":933:949   */\n      add\n        /* \"#utility.yul\":898:963   */\n      tag_64\n      jump\t// in\n    tag_114:\n        /* \"#utility.yul\":988:1017   */\n      tag_115\n        /* \"#utility.yul\":1010:1016   */\n      dup2\n        /* \"#utility.yul\":988:1017   */\n      tag_65\n      jump\t// in\n    tag_115:\n        /* \"#utility.yul\":983:986   */\n      dup5\n        /* \"#utility.yul\":979:1018   */\n      add\n        /* \"#utility.yul\":972:1018   */\n      swap2\n      pop\n        /* \"#utility.yul\":739:1024   */\n      pop\n        /* \"#utility.yul\":647:1024   */\n      swap3\n      swap2\n      pop\n      pop\n      jump\t// out\n        /* \"#utility.yul\":1030:1343   */\n    tag_15:\n        /* \"#utility.yul\":1143:1147   */\n      0x00\n        /* \"#utility.yul\":1181:1183   */\n      0x20\n        /* \"#utility.yul\":1170:1179   */\n      dup3\n        /* \"#utility.yul\":1166:1184   */\n      add\n        /* \"#utility.yul\":1158:1184   */\n      swap1\n      pop\n        /* \"#utility.yul\":1230:1239   */\n      dup2\n        /* \"#utility.yul\":1224:1228   */\n      dup2\n        /* \"#utility.yul\":1220:1240   */\n      sub\n        /* \"#utility.yul\":1216:1217   */\n      0x00\n        /* \"#utility.yul\":1205:1214   */\n      dup4\n        /* \"#utility.yul\":1201:1218   */\n      add\n        /* \"#utility.yul\":1194:1241   */\n      mstore\n        /* \"#utility.yul\":1258:1336   */\n      tag_117\n        /* \"#utility.yul\":1331:1335   */\n      dup2\n        /* \"#utility.yul\":1322:1328   */\n      dup5\n        /* \"#utility.yul\":1258:1336   */\n      tag_66\n      jump\t// in\n    tag_117:\n        /* \"#utility.yul\":1250:1336   */\n      swap1\n      pop\n        /* \"#utility.yul\":1030:1343   */\n      swap3\n      swap2\n      pop\n      pop\n      jump\t// out\n        /* \"#utility.yul\":1349:1424   */\n    tag_67:\n        /* \"#utility.yul\":1382:1388   */\n      0x00\n        /* \"#utility.yul\":1415:1417   */\n      0x40\n        /* \"#utility.yul\":1409:1418   */\n      mload\n        /* \"#utility.yul\":1399:1418   */\n      swap1\n      pop\n        /* \"#utility.yul\":1349:1424   */\n      swap1\n      jump\t// out\n        /* \"#utility.yul\":1430:1547   */\n    tag_68:\n        /* \"#utility.yul\":1539:1540   */\n      0x00\n        /* \"#utility.yul\":1536:1537   */\n      dup1\n        /* \"#utility.yul\":1529:1541   */\n      revert\n        /* \"#utility.yul\":1553:1670   */\n    tag_69:\n        /* \"#utility.yul\":1662:1663   */\n      0x00\n        /* \"#utility.yul\":1659:1660   */\n      dup1\n        /* \"#utility.yul\":1652:1664   */\n      revert\n        /* \"#utility.yul\":1676:1753   */\n    tag_70:\n        /* \"#utility.yul\":1713:1720   */\n      0x00\n        /* \"#utility.yul\":1742:1747   */\n      dup2\n        /* \"#utility.yul\":1731:1747   */\n      swap1\n      pop\n        /* \"#utility.yul\":1676:1753   */\n      swap2\n      swap1\n      pop\n      jump\t// out\n        /* \"#utility.yul\":1759:1881   */\n    tag_71:\n        /* \"#utility.yul\":1832:1856   */\n      tag_123\n        /* \"#utility.yul\":1850:1855   */\n      dup2\n        /* \"#utility.yul\":1832:1856   */\n      tag_70\n      jump\t// in\n    tag_123:\n        /* \"#utility.yul\":1825:1830   */\n      dup2\n        /* \"#utility.yul\":1822:1857   */\n      eq\n        /* \"#utility.yul\":1812:1875   */\n      tag_124\n      jumpi\n        /* \"#utility.yul\":1871:1872   */\n      0x00\n        /* \"#utility.yul\":1868:1869   */\n      dup1\n        /* \"#utility.yul\":1861:1873   */\n      revert\n        /* \"#utility.yul\":1812:1875   */\n    tag_124:\n        /* \"#utility.yul\":1759:1881   */\n      pop\n      jump\t// out\n        /* \"#utility.yul\":1887:2026   */\n    tag_72:\n        /* \"#utility.yul\":1933:1938   */\n      0x00\n        /* \"#utility.yul\":1971:1977   */\n      dup2\n        /* \"#utility.yul\":1958:1978   */\n      calldataload\n        /* \"#utility.yul\":1949:1978   */\n      swap1\n      pop\n        /* \"#utility.yul\":1987:2020   */\n      tag_126\n        /* \"#utility.yul\":2014:2019   */\n      dup2\n        /* \"#utility.yul\":1987:2020   */\n      tag_71\n      jump\t// in\n    tag_126:\n        /* \"#utility.yul\":1887:2026   */\n      swap3\n      swap2\n      pop\n      pop\n      jump\t// out\n        /* \"#utility.yul\":2032:2506   */\n    tag_18:\n        /* \"#utility.yul\":2100:2106   */\n      0x00\n        /* \"#utility.yul\":2108:2114   */\n      dup1\n        /* \"#utility.yul\":2157:2159   */\n      0x40\n        /* \"#utility.yul\":2145:2154   */\n      dup4\n        /* \"#utility.yul\":2136:2143   */\n      dup6\n        /* \"#utility.yul\":2132:2155   */\n      sub\n        /* \"#utility.yul\":2128:2160   */\n      slt\n        /* \"#utility.yul\":2125:2244   */\n      iszero\n      tag_128\n      jumpi\n        /* \"#utility.yul\":2163:2242   */\n      tag_129\n      tag_68\n      jump\t// in\n    tag_129:\n        /* \"#utility.yul\":2125:2244   */\n    tag_128:\n        /* \"#utility.yul\":2283:2284   */\n      0x00\n        /* \"#utility.yul\":2308:2361   */\n      tag_130\n        /* \"#utility.yul\":2353:2360   */\n      dup6\n        /* \"#utility.yul\":2344:2350   */\n      dup3\n        /* \"#utility.yul\":2333:2342   */\n      dup7\n        /* \"#utility.yul\":2329:2351   */\n      add\n        /* \"#utility.yul\":2308:2361   */\n      tag_72\n      jump\t// in\n    tag_130:\n        /* \"#utility.yul\":2298:2361   */\n      swap3\n      pop\n        /* \"#utility.yul\":2254:2371   */\n      pop\n        /* \"#utility.yul\":2410:2412   */\n      0x20\n        /* \"#utility.yul\":2436:2489   */\n      tag_131\n        /* \"#utility.yul\":2481:2488   */\n      dup6\n        /* \"#utility.yul\":2472:2478   */\n      dup3\n        /* \"#utility.yul\":2461:2470   */\n      dup7\n        /* \"#utility.yul\":2457:2479   */\n      add\n        /* \"#utility.yul\":2436:2489   */\n      tag_72\n      jump\t// in\n    tag_131:\n        /* \"#utility.yul\":2426:2489   */\n      swap2\n      pop\n        /* \"#utility.yul\":2381:2499   */\n      pop\n        /* \"#utility.yul\":2032:2506   */\n      swap3\n      pop\n      swap3\n      swap1\n      pop\n      jump\t// out\n        /* \"#utility.yul\":2512:2630   */\n    tag_73:\n        /* \"#utility.yul\":2599:2623   */\n      tag_133\n        /* \"#utility.yul\":2617:2622   */\n      dup2\n        /* \"#utility.yul\":2599:2623   */\n      tag_70\n      jump\t// in\n    tag_133:\n        /* \"#utility.yul\":2594:2597   */\n      dup3\n        /* \"#utility.yul\":2587:2624   */\n      mstore\n        /* \"#utility.yul\":2512:2630   */\n      pop\n      pop\n      jump\t// out\n        /* \"#utility.yul\":2636:2858   */\n    tag_21:\n        /* \"#utility.yul\":2729:2733   */\n      0x00\n        /* \"#utility.yul\":2767:2769   */\n      0x20\n        /* \"#utility.yul\":2756:2765   */\n      dup3\n        /* \"#utility.yul\":2752:2770   */\n      add\n        /* \"#utility.yul\":2744:2770   */\n      swap1\n      pop\n        /* \"#utility.yul\":2780:2851   */\n      tag_135\n        /* \"#utility.yul\":2848:2849   */\n      0x00\n        /* \"#utility.yul\":2837:2846   */\n      dup4\n        /* \"#utility.yul\":2833:2850   */\n      add\n        /* \"#utility.yul\":2824:2830   */\n      dup5\n        /* \"#utility.yul\":2780:2851   */\n      tag_73\n      jump\t// in\n    tag_135:\n        /* \"#utility.yul\":2636:2858   */\n      swap3\n      swap2\n      pop\n      pop\n      jump\t// out\n        /* \"#utility.yul\":2864:2981   */\n    tag_74:\n        /* \"#utility.yul\":2973:2974   */\n      0x00\n        /* \"#utility.yul\":2970:2971   */\n      dup1\n        /* \"#utility.yul\":2963:2975   */\n      revert\n        /* \"#utility.yul\":2987:3104   */\n    tag_75:\n        /* \"#utility.yul\":3096:3097   */\n      0x00\n        /* \"#utility.yul\":3093:3094   */\n      dup1\n        /* \"#utility.yul\":3086:3098   */\n      revert\n        /* \"#utility.yul\":3110:3290   */\n    tag_76:\n        /* \"#utility.yul\":3158:3235   */\n      0x4e487b7100000000000000000000000000000000000000000000000000000000\n        /* \"#utility.yul\":3155:3156   */\n      0x00\n        /* \"#utility.yul\":3148:3236   */\n      mstore\n        /* \"#utility.yul\":3255:3259   */\n      0x41\n        /* \"#utility.yul\":3252:3253   */\n      0x04\n        /* \"#utility.yul\":3245:3260   */\n      mstore\n        /* \"#utility.yul\":3279:3283   */\n      0x24\n        /* \"#utility.yul\":3276:3277   */\n      0x00\n        /* \"#utility.yul\":3269:3284   */\n      revert\n        /* \"#utility.yul\":3296:3577   */\n    tag_77:\n        /* \"#utility.yul\":3379:3406   */\n      tag_140\n        /* \"#utility.yul\":3401:3405   */\n      dup3\n        /* \"#utility.yul\":3379:3406   */\n      tag_65\n      jump\t// in\n    tag_140:\n        /* \"#utility.yul\":3371:3377   */\n      dup2\n        /* \"#utility.yul\":3367:3407   */\n      add\n        /* \"#utility.yul\":3509:3515   */\n      dup2\n        /* \"#utility.yul\":3497:3507   */\n      dup2\n        /* \"#utility.yul\":3494:3516   */\n      lt\n        /* \"#utility.yul\":3473:3491   */\n      0xffffffffffffffff\n        /* \"#utility.yul\":3461:3471   */\n      dup3\n        /* \"#utility.yul\":3458:3492   */\n      gt\n        /* \"#utility.yul\":3455:3517   */\n      or\n        /* \"#utility.yul\":3452:3540   */\n      iszero\n      tag_141\n      jumpi\n        /* \"#utility.yul\":3520:3538   */\n      tag_142\n      tag_76\n      jump\t// in\n    tag_142:\n        /* \"#utility.yul\":3452:3540   */\n    tag_141:\n        /* \"#utility.yul\":3560:3570   */\n      dup1\n        /* \"#utility.yul\":3556:3558   */\n      0x40\n        /* \"#utility.yul\":3549:3571   */\n      mstore\n        /* \"#utility.yul\":3339:3577   */\n      pop\n        /* \"#utility.yul\":3296:3577   */\n      pop\n      pop\n      jump\t// out\n        /* \"#utility.yul\":3583:3712   */\n    tag_78:\n        /* \"#utility.yul\":3617:3623   */\n      0x00\n        /* \"#utility.yul\":3644:3664   */\n      tag_144\n      tag_67\n      jump\t// in\n    tag_144:\n        /* \"#utility.yul\":3634:3664   */\n      swap1\n      pop\n        /* \"#utility.yul\":3673:3706   */\n      tag_145\n        /* \"#utility.yul\":3701:3705   */\n      dup3\n        /* \"#utility.yul\":3693:3699   */\n      dup3\n        /* \"#utility.yul\":3673:3706   */\n      tag_77\n      jump\t// in\n    tag_145:\n        /* \"#utility.yul\":3583:3712   */\n      swap2\n      swap1\n      pop\n      jump\t// out\n        /* \"#utility.yul\":3718:4026   */\n    tag_79:\n        /* \"#utility.yul\":3780:3784   */\n      0x00\n        /* \"#utility.yul\":3870:3888   */\n      0xffffffffffffffff\n        /* \"#utility.yul\":3862:3868   */\n      dup3\n        /* \"#utility.yul\":3859:3889   */\n      gt\n        /* \"#utility.yul\":3856:3912   */\n      iszero\n      tag_147\n      jumpi\n        /* \"#utility.yul\":3892:3910   */\n      tag_148\n      tag_76\n      jump\t// in\n    tag_148:\n        /* \"#utility.yul\":3856:3912   */\n    tag_147:\n        /* \"#utility.yul\":3930:3959   */\n      tag_149\n        /* \"#utility.yul\":3952:3958   */\n      dup3\n        /* \"#utility.yul\":3930:3959   */\n      tag_65\n      jump\t// in\n    tag_149:\n        /* \"#utility.yul\":3922:3959   */\n      swap1\n      pop\n        /* \"#utility.yul\":4014:4018   */\n      0x20\n        /* \"#utility.yul\":4008:4012   */\n      dup2\n        /* \"#utility.yul\":4004:4019   */\n      add\n        /* \"#utility.yul\":3996:4019   */\n      swap1\n      pop\n        /* \"#utility.yul\":3718:4026   */\n      swap2\n      swap1\n      pop\n      jump\t// out\n        /* \"#utility.yul\":4032:4178   */\n    tag_80:\n        /* \"#utility.yul\":4129:4135   */\n      dup3\n        /* \"#utility.yul\":4124:4127   */\n      dup2\n        /* \"#utility.yul\":4119:4122   */\n      dup4\n        /* \"#utility.yul\":4106:4136   */\n      calldatacopy\n        /* \"#utility.yul\":4170:4171   */\n      0x00\n        /* \"#utility.yul\":4161:4167   */\n      dup4\n        /* \"#utility.yul\":4156:4159   */\n      dup4\n        /* \"#utility.yul\":4152:4168   */\n      add\n        /* \"#utility.yul\":4145:4172   */\n      mstore\n        /* \"#utility.yul\":4032:4178   */\n      pop\n      pop\n      pop\n      jump\t// out\n        /* \"#utility.yul\":4184:4609   */\n    tag_81:\n        /* \"#utility.yul\":4262:4267   */\n      0x00\n        /* \"#utility.yul\":4287:4353   */\n      tag_152\n        /* \"#utility.yul\":4303:4352   */\n      tag_153\n        /* \"#utility.yul\":4345:4351   */\n      dup5\n        /* \"#utility.yul\":4303:4352   */\n      tag_79\n      jump\t// in\n    tag_153:\n        /* \"#utility.yul\":4287:4353   */\n      tag_78\n      jump\t// in\n    tag_152:\n        /* \"#utility.yul\":4278:4353   */\n      swap1\n      pop\n        /* \"#utility.yul\":4376:4382   */\n      dup3\n        /* \"#utility.yul\":4369:4374   */\n      dup2\n        /* \"#utility.yul\":4362:4383   */\n      mstore\n        /* \"#utility.yul\":4414:4418   */\n      0x20\n        /* \"#utility.yul\":4407:4412   */\n      dup2\n        /* \"#utility.yul\":4403:4419   */\n      add\n        /* \"#utility.yul\":4452:4455   */\n      dup5\n        /* \"#utility.yul\":4443:4449   */\n      dup5\n        /* \"#utility.yul\":4438:4441   */\n      dup5\n        /* \"#utility.yul\":4434:4450   */\n      add\n        /* \"#utility.yul\":4431:4456   */\n      gt\n        /* \"#utility.yul\":4428:4540   */\n      iszero\n      tag_154\n      jumpi\n        /* \"#utility.yul\":4459:4538   */\n      tag_155\n      tag_75\n      jump\t// in\n    tag_155:\n        /* \"#utility.yul\":4428:4540   */\n    tag_154:\n        /* \"#utility.yul\":4549:4603   */\n      tag_156\n        /* \"#utility.yul\":4596:4602   */\n      dup5\n        /* \"#utility.yul\":4591:4594   */\n      dup3\n        /* \"#utility.yul\":4586:4589   */\n      dup6\n        /* \"#utility.yul\":4549:4603   */\n      tag_80\n      jump\t// in\n    tag_156:\n        /* \"#utility.yul\":4268:4609   */\n      pop\n        /* \"#utility.yul\":4184:4609   */\n      swap4\n      swap3\n      pop\n      pop\n      pop\n      jump\t// out\n        /* \"#utility.yul\":4629:4969   */\n    tag_82:\n        /* \"#utility.yul\":4685:4690   */\n      0x00\n        /* \"#utility.yul\":4734:4737   */\n      dup3\n        /* \"#utility.yul\":4727:4731   */\n      0x1f\n        /* \"#utility.yul\":4719:4725   */\n      dup4\n        /* \"#utility.yul\":4715:4732   */\n      add\n        /* \"#utility.yul\":4711:4738   */\n      slt\n        /* \"#utility.yul\":4701:4823   */\n      tag_158\n      jumpi\n        /* \"#utility.yul\":4742:4821   */\n      tag_159\n      tag_74\n      jump\t// in\n    tag_159:\n        /* \"#utility.yul\":4701:4823   */\n    tag_158:\n        /* \"#utility.yul\":4859:4865   */\n      dup2\n        /* \"#utility.yul\":4846:4866   */\n      calldataload\n        /* \"#utility.yul\":4884:4963   */\n      tag_160\n        /* \"#utility.yul\":4959:4962   */\n      dup5\n        /* \"#utility.yul\":4951:4957   */\n      dup3\n        /* \"#utility.yul\":4944:4948   */\n      0x20\n        /* \"#utility.yul\":4936:4942   */\n      dup7\n        /* \"#utility.yul\":4932:4949   */\n      add\n        /* \"#utility.yul\":4884:4963   */\n      tag_81\n      jump\t// in\n    tag_160:\n        /* \"#utility.yul\":4875:4963   */\n      swap2\n      pop\n        /* \"#utility.yul\":4691:4969   */\n      pop\n        /* \"#utility.yul\":4629:4969   */\n      swap3\n      swap2\n      pop\n      pop\n      jump\t// out\n        /* \"#utility.yul\":4975:5484   */\n    tag_30:\n        /* \"#utility.yul\":5044:5050   */\n      0x00\n        /* \"#utility.yul\":5093:5095   */\n      0x20\n        /* \"#utility.yul\":5081:5090   */\n      dup3\n        /* \"#utility.yul\":5072:5079   */\n      dup5\n        /* \"#utility.yul\":5068:5091   */\n      sub\n        /* \"#utility.yul\":5064:5096   */\n      slt\n        /* \"#utility.yul\":5061:5180   */\n      iszero\n      tag_162\n      jumpi\n        /* \"#utility.yul\":5099:5178   */\n      tag_163\n      tag_68\n      jump\t// in\n    tag_163:\n        /* \"#utility.yul\":5061:5180   */\n    tag_162:\n        /* \"#utility.yul\":5247:5248   */\n      0x00\n        /* \"#utility.yul\":5236:5245   */\n      dup3\n        /* \"#utility.yul\":5232:5249   */\n      add\n        /* \"#utility.yul\":5219:5250   */\n      calldataload\n        /* \"#utility.yul\":5277:5295   */\n      0xffffffffffffffff\n        /* \"#utility.yul\":5269:5275   */\n      dup2\n        /* \"#utility.yul\":5266:5296   */\n      gt\n        /* \"#utility.yul\":5263:5380   */\n      iszero\n      tag_164\n      jumpi\n        /* \"#utility.yul\":5299:5378   */\n      tag_165\n      tag_69\n      jump\t// in\n    tag_165:\n        /* \"#utility.yul\":5263:5380   */\n    tag_164:\n        /* \"#utility.yul\":5404:5467   */\n      tag_166\n        /* \"#utility.yul\":5459:5466   */\n      dup5\n        /* \"#utility.yul\":5450:5456   */\n      dup3\n        /* \"#utility.yul\":5439:5448   */\n      dup6\n        /* \"#utility.yul\":5435:5457   */\n      add\n        /* \"#utility.yul\":5404:5467   */\n      tag_82\n      jump\t// in\n    tag_166:\n        /* \"#utility.yul\":5394:5467   */\n      swap2\n      pop\n        /* \"#utility.yul\":5190:5477   */\n      pop\n        /* \"#utility.yul\":4975:5484   */\n      swap3\n      swap2\n      pop\n      pop\n      jump\t// out\n        /* \"#utility.yul\":5490:5670   */\n    tag_83:\n        /* \"#utility.yul\":5538:5615   */\n      0x4e487b7100000000000000000000000000000000000000000000000000000000\n        /* \"#utility.yul\":5535:5536   */\n      0x00\n        /* \"#utility.yul\":5528:5616   */\n      mstore\n        /* \"#utility.yul\":5635:5639   */\n      0x22\n        /* \"#utility.yul\":5632:5633   */\n      0x04\n        /* \"#utility.yul\":5625:5640   */\n      mstore\n        /* \"#utility.yul\":5659:5663   */\n      0x24\n        /* \"#utility.yul\":5656:5657   */\n      0x00\n        /* \"#utility.yul\":5649:5664   */\n      revert\n        /* \"#utility.yul\":5676:5996   */\n    tag_43:\n        /* \"#utility.yul\":5720:5726   */\n      0x00\n        /* \"#utility.yul\":5757:5758   */\n      0x02\n        /* \"#utility.yul\":5751:5755   */\n      dup3\n        /* \"#utility.yul\":5747:5759   */\n      div\n        /* \"#utility.yul\":5737:5759   */\n      swap1\n      pop\n        /* \"#utility.yul\":5804:5805   */\n      0x01\n        /* \"#utility.yul\":5798:5802   */\n      dup3\n        /* \"#utility.yul\":5794:5806   */\n      and\n        /* \"#utility.yul\":5825:5843   */\n      dup1\n        /* \"#utility.yul\":5815:5896   */\n      tag_169\n      jumpi\n        /* \"#utility.yul\":5881:5885   */\n      0x7f\n        /* \"#utility.yul\":5873:5879   */\n      dup3\n        /* \"#utility.yul\":5869:5886   */\n      and\n        /* \"#utility.yul\":5859:5886   */\n      swap2\n      pop\n        /* \"#utility.yul\":5815:5896   */\n    tag_169:\n        /* \"#utility.yul\":5943:5945   */\n      0x20\n        /* \"#utility.yul\":5935:5941   */\n      dup3\n        /* \"#utility.yul\":5932:5946   */\n      lt\n        /* \"#utility.yul\":5912:5930   */\n      dup2\n        /* \"#utility.yul\":5909:5947   */\n      sub\n        /* \"#utility.yul\":5906:5990   */\n      tag_170\n      jumpi\n        /* \"#utility.yul\":5962:5980   */\n      tag_171\n      tag_83\n      jump\t// in\n    tag_171:\n        /* \"#utility.yul\":5906:5990   */\n    tag_170:\n        /* \"#utility.yul\":5727:5996   */\n      pop\n        /* \"#utility.yul\":5676:5996   */\n      swap2\n      swap1\n      pop\n      jump\t// out\n        /* \"#utility.yul\":6002:6182   */\n    tag_84:\n        /* \"#utility.yul\":6050:6127   */\n      0x4e487b7100000000000000000000000000000000000000000000000000000000\n        /* \"#utility.yul\":6047:6048   */\n      0x00\n        /* \"#utility.yul\":6040:6128   */\n      mstore\n        /* \"#utility.yul\":6147:6151   */\n      0x11\n        /* \"#utility.yul\":6144:6145   */\n      0x04\n        /* \"#utility.yul\":6137:6152   */\n      mstore\n        /* \"#utility.yul\":6171:6175   */\n      0x24\n        /* \"#utility.yul\":6168:6169   */\n      0x00\n        /* \"#utility.yul\":6161:6176   */\n      revert\n        /* \"#utility.yul\":6188:6379   */\n    tag_50:\n        /* \"#utility.yul\":6228:6231   */\n      0x00\n        /* \"#utility.yul\":6247:6267   */\n      tag_174\n        /* \"#utility.yul\":6265:6266   */\n      dup3\n        /* \"#utility.yul\":6247:6267   */\n      tag_70\n      jump\t// in\n    tag_174:\n        /* \"#utility.yul\":6242:6267   */\n      swap2\n      pop\n        /* \"#utility.yul\":6281:6301   */\n      tag_175\n        /* \"#utility.yul\":6299:6300   */\n      dup4\n        /* \"#utility.yul\":6281:6301   */\n      tag_70\n      jump\t// in\n    tag_175:\n        /* \"#utility.yul\":6276:6301   */\n      swap3\n      pop\n        /* \"#utility.yul\":6324:6325   */\n      dup3\n        /* \"#utility.yul\":6321:6322   */\n      dup3\n        /* \"#utility.yul\":6317:6326   */\n      add\n        /* \"#utility.yul\":6310:6326   */\n      swap1\n      pop\n        /* \"#utility.yul\":6345:6348   */\n      dup1\n        /* \"#utility.yul\":6342:6343   */\n      dup3\n        /* \"#utility.yul\":6339:6349   */\n      gt\n        /* \"#utility.yul\":6336:6372   */\n      iszero\n      tag_176\n      jumpi\n        /* \"#utility.yul\":6352:6370   */\n      tag_177\n      tag_84\n      jump\t// in\n    tag_177:\n        /* \"#utility.yul\":6336:6372   */\n    tag_176:\n        /* \"#utility.yul\":6188:6379   */\n      swap3\n      swap2\n      pop\n      pop\n      jump\t// out\n        /* \"#utility.yul\":6385:6526   */\n    tag_85:\n        /* \"#utility.yul\":6434:6438   */\n      0x00\n        /* \"#utility.yul\":6457:6460   */\n      dup2\n        /* \"#utility.yul\":6449:6460   */\n      swap1\n      pop\n        /* \"#utility.yul\":6480:6483   */\n      dup2\n        /* \"#utility.yul\":6477:6478   */\n      0x00\n        /* \"#utility.yul\":6470:6484   */\n      mstore\n        /* \"#utility.yul\":6514:6518   */\n      0x20\n        /* \"#utility.yul\":6511:6512   */\n      0x00\n        /* \"#utility.yul\":6501:6519   */\n      keccak256\n        /* \"#utility.yul\":6493:6519   */\n      swap1\n      pop\n        /* \"#utility.yul\":6385:6526   */\n      swap2\n      swap1\n      pop\n      jump\t// out\n        /* \"#utility.yul\":6532:6625   */\n    tag_86:\n        /* \"#utility.yul\":6569:6575   */\n      0x00\n        /* \"#utility.yul\":6616:6618   */\n      0x20\n        /* \"#utility.yul\":6611:6613   */\n      0x1f\n        /* \"#utility.yul\":6604:6609   */\n      dup4\n        /* \"#utility.yul\":6600:6614   */\n      add\n        /* \"#utility.yul\":6596:6619   */\n      div\n        /* \"#utility.yul\":6586:6619   */\n      swap1\n      pop\n        /* \"#utility.yul\":6532:6625   */\n      swap2\n      swap1\n      pop\n      jump\t// out\n        /* \"#utility.yul\":6631:6738   */\n    tag_87:\n        /* \"#utility.yul\":6675:6683   */\n      0x00\n        /* \"#utility.yul\":6725:6730   */\n      dup3\n        /* \"#utility.yul\":6719:6723   */\n      dup3\n        /* \"#utility.yul\":6715:6731   */\n      shl\n        /* \"#utility.yul\":6694:6731   */\n      swap1\n      pop\n        /* \"#utility.yul\":6631:6738   */\n      swap3\n      swap2\n      pop\n      pop\n      jump\t// out\n        /* \"#utility.yul\":6744:7137   */\n    tag_88:\n        /* \"#utility.yul\":6813:6819   */\n      0x00\n        /* \"#utility.yul\":6863:6864   */\n      0x08\n        /* \"#utility.yul\":6851:6861   */\n      dup4\n        /* \"#utility.yul\":6847:6865   */\n      mul\n        /* \"#utility.yul\":6886:6983   */\n      tag_182\n        /* \"#utility.yul\":6916:6982   */\n      0xffffffffffffffffffffffffffffffffffffffffffffffffffffffffffffffff\n        /* \"#utility.yul\":6905:6914   */\n      dup3\n        /* \"#utility.yul\":6886:6983   */\n      tag_87\n      jump\t// in\n    tag_182:\n        /* \"#utility.yul\":7004:7043   */\n      tag_183\n        /* \"#utility.yul\":7034:7042   */\n      dup7\n        /* \"#utility.yul\":7023:7032   */\n      dup4\n        /* \"#utility.yul\":7004:7043   */\n      tag_87\n      jump\t// in\n    tag_183:\n        /* \"#utility.yul\":6992:7043   */\n      swap6\n      pop\n        /* \"#utility.yul\":7076:7080   */\n      dup1\n        /* \"#utility.yul\":7072:7081   */\n      not\n        /* \"#utility.yul\":7065:7070   */\n      dup5\n        /* \"#utility.yul\":7061:7082   */\n      and\n        /* \"#utility.yul\":7052:7082   */\n      swap4\n      pop\n        /* \"#utility.yul\":7125:7129   */\n      dup1\n        /* \"#utility.yul\":7115:7123   */\n      dup7\n        /* \"#utility.yul\":7111:7130   */\n      and\n        /* \"#utility.yul\":7104:7109   */\n      dup5\n        /* \"#utility.yul\":7101:7131   */\n      or\n        /* \"#utility.yul\":7091:7131   */\n      swap3\n      pop\n        /* \"#utility.yul\":6820:7137   */\n      pop\n      pop\n        /* \"#utility.yul\":6744:7137   */\n      swap4\n      swap3\n      pop\n      pop\n      pop\n      jump\t// out\n        /* \"#utility.yul\":7143:7203   */\n    tag_89:\n        /* \"#utility.yul\":7171:7174   */\n      0x00\n        /* \"#utility.yul\":7192:7197   */\n      dup2\n        /* \"#utility.yul\":7185:7197   */\n      swap1\n      pop\n        /* \"#utility.yul\":7143:7203   */\n      swap2\n      swap1\n      pop\n      jump\t// out\n        /* \"#utility.yul\":7209:7351   */\n    tag_90:\n        /* \"#utility.yul\":7259:7268   */\n      0x00\n        /* \"#utility.yul\":7292:7345   */\n      tag_186\n        /* \"#utility.yul\":7310:7344   */\n      tag_187\n        /* \"#utility.yul\":7319:7343   */\n      tag_188\n        /* \"#utility.yul\":7337:7342   */\n      dup5\n        /* \"#utility.yul\":7319:7343   */\n      tag_70\n      jump\t// in\n    tag_188:\n        /* \"#utility.yul\":7310:7344   */\n      tag_89\n      jump\t// in\n    tag_187:\n        /* \"#utility.yul\":7292:7345   */\n      tag_70\n      jump\t// in\n    tag_186:\n        /* \"#utility.yul\":7279:7345   */\n      swap1\n      pop\n        /* \"#utility.yul\":7209:7351   */\n      swap2\n      swap1\n      pop\n      jump\t// out\n        /* \"#utility.yul\":7357:7432   */\n    tag_91:\n        /* \"#utility.yul\":7400:7403   */\n      0x00\n        /* \"#utility.yul\":7421:7426   */\n      dup2\n        /* \"#utility.yul\":7414:7426   */\n      swap1\n      pop\n        /* \"#utility.yul\":7357:7432   */\n      swap2\n      swap1\n      pop\n      jump\t// out\n        /* \"#utility.yul\":7438:7707   */\n    tag_92:\n        /* \"#utility.yul\":7548:7587   */\n      tag_191\n        /* \"#utility.yul\":7579:7586   */\n      dup4\n        /* \"#utility.yul\":7548:7587   */\n      tag_90\n      jump\t// in\n    tag_191:\n        /* \"#utility.yul\":7609:7700   */\n      tag_192\n        /* \"#utility.yul\":7658:7699   */\n      tag_193\n        /* \"#utility.yul\":7682:7698   */\n      dup3\n        /* \"#utility.yul\":7658:7699   */\n      tag_91\n      jump\t// in\n    tag_193:\n        /* \"#utility.yul\":7650:7656   */\n      dup5\n        /* \"#utility.yul\":7643:7647   */\n      dup5\n        /* \"#utility.yul\":7637:7648   */\n      sload\n        /* \"#utility.yul\":7609:7700   */\n      tag_88\n      jump\t// in\n    tag_192:\n        /* \"#utility.yul\":7603:7607   */\n      dup3\n        /* \"#utility.yul\":7596:7701   */\n      sstore\n        /* \"#utility.yul\":7514:7707   */\n      pop\n        /* \"#utility.yul\":7438:7707   */\n      pop\n      pop\n      pop\n      jump\t// out\n        /* \"#utility.yul\":7713:7786   */\n    tag_93:\n        /* \"#utility.yul\":7758:7761   */\n      0x00\n        /* \"#utility.yul\":7713:7786   */\n      swap1\n      jump\t// out\n        /* \"#utility.yul\":7792:7981   */\n    tag_94:\n        /* \"#utility.yul\":7869:7901   */\n      tag_196\n      tag_93\n      jump\t// in\n    tag_196:\n        /* \"#utility.yul\":7910:7975   */\n      tag_197\n        /* \"#utility.yul\":7968:7974   */\n      dup2\n        /* \"#utility.yul\":7960:7966   */\n      dup5\n        /* \"#utility.yul\":7954:7958   */\n      dup5\n        /* \"#utility.yul\":7910:7975   */\n      tag_92\n      jump\t// in\n    tag_197:\n        /* \"#utility.yul\":7845:7981   */\n      pop\n        /* \"#utility.yul\":7792:7981   */\n      pop\n      pop\n      jump\t// out\n        /* \"#utility.yul\":7987:8173   */\n    tag_95:\n        /* \"#utility.yul\":8047:8167   */\n    tag_199:\n        /* \"#utility.yul\":8064:8067   */\n      dup2\n        /* \"#utility.yul\":8057:8062   */\n      dup2\n        /* \"#utility.yul\":8054:8068   */\n      lt\n        /* \"#utility.yul\":8047:8167   */\n      iszero\n      tag_201\n      jumpi\n        /* \"#utility.yul\":8118:8157   */\n      tag_202\n        /* \"#utility.yul\":8155:8156   */\n      0x00\n        /* \"#utility.yul\":8148:8153   */\n      dup3\n        /* \"#utility.yul\":8118:8157   */\n      tag_94\n      jump\t// in\n    tag_202:\n        /* \"#utility.yul\":8091:8092   */\n      0x01\n        /* \"#utility.yul\":8084:8089   */\n      dup2\n        /* \"#utility.yul\":8080:8093   */\n      add\n        /* \"#utility.yul\":8071:8093   */\n      swap1\n      pop\n        /* \"#utility.yul\":8047:8167   */\n      jump(tag_199)\n    tag_201:\n        /* \"#utility.yul\":7987:8173   */\n      pop\n      pop\n      jump\t// out\n        /* \"#utility.yul\":8179:8722   */\n    tag_96:\n        /* \"#utility.yul\":8280:8282   */\n      0x1f\n        /* \"#utility.yul\":8275:8278   */\n      dup3\n        /* \"#utility.yul\":8272:8283   */\n      gt\n        /* \"#utility.yul\":8269:8715   */\n      iszero\n      tag_204\n      jumpi\n        /* \"#utility.yul\":8314:8352   */\n      tag_205\n        /* \"#utility.yul\":8346:8351   */\n      dup2\n        /* \"#utility.yul\":8314:8352   */\n      tag_85\n      jump\t// in\n    tag_205:\n        /* \"#utility.yul\":8398:8427   */\n      tag_206\n        /* \"#utility.yul\":8416:8426   */\n      dup5\n        /* \"#utility.yul\":8398:8427   */\n      tag_86\n      jump\t// in\n    tag_206:\n        /* \"#utility.yul\":8388:8396   */\n      dup2\n        /* \"#utility.yul\":8384:8428   */\n      add\n        /* \"#utility.yul\":8581:8583   */\n      0x20\n        /* \"#utility.yul\":8569:8579   */\n      dup6\n        /* \"#utility.yul\":8566:8584   */\n      lt\n        /* \"#utility.yul\":8563:8612   */\n      iszero\n      tag_207\n      jumpi\n        /* \"#utility.yul\":8602:8610   */\n      dup2\n        /* \"#utility.yul\":8587:8610   */\n      swap1\n      pop\n        /* \"#utility.yul\":8563:8612   */\n    tag_207:\n        /* \"#utility.yul\":8625:8705   */\n      tag_208\n        /* \"#utility.yul\":8681:8703   */\n      tag_209\n        /* \"#utility.yul\":8699:8702   */\n      dup6\n        /* \"#utility.yul\":8681:8703   */\n      tag_86\n      jump\t// in\n    tag_209:\n        /* \"#utility.yul\":8671:8679   */\n      dup4\n        /* \"#utility.yul\":8667:8704   */\n      add\n        /* \"#utility.yul\":8654:8665   */\n      dup3\n        /* \"#utility.yul\":8625:8705   */\n      tag_95\n      jump\t// in\n    tag_208:\n        /* \"#utility.yul\":8284:8715   */\n      pop\n      pop\n        /* \"#utility.yul\":8269:8715   */\n    tag_204:\n        /* \"#utility.yul\":8179:8722   */\n      pop\n      pop\n      pop\n      jump\t// out\n        /* \"#utility.yul\":8728:8845   */\n    tag_97:\n        /* \"#utility.yul\":8782:8790   */\n      0x00\n        /* \"#utility.yul\":8832:8837   */\n      dup3\n        /* \"#utility.yul\":8826:8830   */\n      dup3\n        /* \"#utility.yul\":8822:8838   */\n      shr\n        /* \"#utility.yul\":8801:8838   */\n      swap1\n      pop\n        /* \"#utility.yul\":8728:8845   */\n      swap3\n      swap2\n      pop\n      pop\n      jump\t// out\n        /* \"#utility.yul\":8851:9020   */\n    tag_98:\n        /* \"#utility.yul\":8895:8901   */\n      0x00\n        /* \"#utility.yul\":8928:8979   */\n      tag_212\n        /* \"#utility.yul\":8976:8977   */\n      0x00\n        /* \"#utility.yul\":8972:8978   */\n      not\n        /* \"#utility.yul\":8964:8969   */\n      dup5\n        /* \"#utility.yul\":8961:8962   */\n      0x08\n        /* \"#utility.yul\":8957:8970   */\n      mul\n        /* \"#utility.yul\":8928:8979   */\n      tag_97\n      jump\t// in\n    tag_212:\n        /* \"#utility.yul\":8924:8980   */\n      not\n        /* \"#utility.yul\":9009:9013   */\n      dup1\n        /* \"#utility.yul\":9003:9007   */\n      dup4\n        /* \"#utility.yul\":8999:9014   */\n      and\n        /* \"#utility.yul\":8989:9014   */\n      swap2\n      pop\n        /* \"#utility.yul\":8902:9020   */\n      pop\n        /* \"#utility.yul\":8851:9020   */\n      swap3\n      swap2\n      pop\n      pop\n      jump\t// out\n        /* \"#utility.yul\":9025:9320   */\n    tag_99:\n        /* \"#utility.yul\":9101:9105   */\n      0x00\n        /* \"#utility.yul\":9247:9276   */\n      tag_214\n        /* \"#utility.yul\":9272:9275   */\n      dup4\n        /* \"#utility.yul\":9266:9270   */\n      dup4\n        /* \"#utility.yul\":9247:9276   */\n      tag_98\n      jump\t// in\n    tag_214:\n        /* \"#utility.yul\":9239:9276   */\n      swap2\n      pop\n        /* \"#utility.yul\":9309:9312   */\n      dup3\n        /* \"#utility.yul\":9306:9307   */\n      0x02\n        /* \"#utility.yul\":9302:9313   */\n      mul\n        /* \"#utility.yul\":9296:9300   */\n      dup3\n        /* \"#utility.yul\":9293:9314   */\n      or\n        /* \"#utility.yul\":9285:9314   */\n      swap1\n      pop\n        /* \"#utility.yul\":9025:9320   */\n      swap3\n      swap2\n      pop\n      pop\n      jump\t// out\n        /* \"#utility.yul\":9325:10720   */\n    tag_54:\n        /* \"#utility.yul\":9442:9479   */\n      tag_216\n        /* \"#utility.yul\":9475:9478   */\n      dup3\n        /* \"#utility.yul\":9442:9479   */\n      tag_62\n      jump\t// in\n    tag_216:\n        /* \"#utility.yul\":9544:9562   */\n      0xffffffffffffffff\n        /* \"#utility.yul\":9536:9542   */\n      dup2\n        /* \"#utility.yul\":9533:9563   */\n      gt\n        /* \"#utility.yul\":9530:9586   */\n      iszero\n      tag_217\n      jumpi\n        /* \"#utility.yul\":9566:9584   */\n      tag_218\n      tag_76\n      jump\t// in\n    tag_218:\n        /* \"#utility.yul\":9530:9586   */\n    tag_217:\n        /* \"#utility.yul\":9610:9648   */\n      tag_219\n        /* \"#utility.yul\":9642:9646   */\n      dup3\n        /* \"#utility.yul\":9636:9647   */\n      sload\n        /* \"#utility.yul\":9610:9648   */\n      tag_43\n      jump\t// in\n    tag_219:\n        /* \"#utility.yul\":9695:9762   */\n      tag_220\n        /* \"#utility.yul\":9755:9761   */\n      dup3\n        /* \"#utility.yul\":9747:9753   */\n      dup3\n        /* \"#utility.yul\":9741:9745   */\n      dup6\n        /* \"#utility.yul\":9695:9762   */\n      tag_96\n      jump\t// in\n    tag_220:\n        /* \"#utility.yul\":9789:9790   */\n      0x00\n        /* \"#utility.yul\":9813:9817   */\n      0x20\n        /* \"#utility.yul\":9800:9817   */\n      swap1\n      pop\n        /* \"#utility.yul\":9845:9847   */\n      0x1f\n        /* \"#utility.yul\":9837:9843   */\n      dup4\n        /* \"#utility.yul\":9834:9848   */\n      gt\n        /* \"#utility.yul\":9862:9863   */\n      0x01\n        /* \"#utility.yul\":9857:10475   */\n      dup2\n      eq\n      tag_222\n      jumpi\n        /* \"#utility.yul\":10519:10520   */\n      0x00\n        /* \"#utility.yul\":10536:10542   */\n      dup5\n        /* \"#utility.yul\":10533:10610   */\n      iszero\n      tag_223\n      jumpi\n        /* \"#utility.yul\":10585:10594   */\n      dup3\n        /* \"#utility.yul\":10580:10583   */\n      dup8\n        /* \"#utility.yul\":10576:10595   */\n      add\n        /* \"#utility.yul\":10570:10596   */\n      mload\n        /* \"#utility.yul\":10561:10596   */\n      swap1\n      pop\n        /* \"#utility.yul\":10533:10610   */\n    tag_223:\n        /* \"#utility.yul\":10636:10703   */\n      tag_224\n        /* \"#utility.yul\":10696:10702   */\n      dup6\n        /* \"#utility.yul\":10689:10694   */\n      dup3\n        /* \"#utility.yul\":10636:10703   */\n      tag_99\n      jump\t// in\n    tag_224:\n        /* \"#utility.yul\":10630:10634   */\n      dup7\n        /* \"#utility.yul\":10623:10704   */\n      sstore\n        /* \"#utility.yul\":10492:10714   */\n      pop\n        /* \"#utility.yul\":9827:10714   */\n      jump(tag_221)\n        /* \"#utility.yul\":9857:10475   */\n    tag_222:\n        /* \"#utility.yul\":9909:9913   */\n      0x1f\n        /* \"#utility.yul\":9905:9914   */\n      not\n        /* \"#utility.yul\":9897:9903   */\n      dup5\n        /* \"#utility.yul\":9893:9915   */\n      and\n        /* \"#utility.yul\":9943:9980   */\n      tag_225\n        /* \"#utility.yul\":9975:9979   */\n      dup7\n        /* \"#utility.yul\":9943:9980   */\n      tag_85\n      jump\t// in\n    tag_225:\n        /* \"#utility.yul\":10002:10003   */\n      0x00\n        /* \"#utility.yul\":10016:10224   */\n    tag_226:\n        /* \"#utility.yul\":10030:10037   */\n      dup3\n        /* \"#utility.yul\":10027:10028   */\n      dup2\n        /* \"#utility.yul\":10024:10038   */\n      lt\n        /* \"#utility.yul\":10016:10224   */\n      iszero\n      tag_228\n      jumpi\n        /* \"#utility.yul\":10109:10118   */\n      dup5\n        /* \"#utility.yul\":10104:10107   */\n      dup10\n        /* \"#utility.yul\":10100:10119   */\n      add\n        /* \"#utility.yul\":10094:10120   */\n      mload\n        /* \"#utility.yul\":10086:10092   */\n      dup3\n        /* \"#utility.yul\":10079:10121   */\n      sstore\n        /* \"#utility.yul\":10160:10161   */\n      0x01\n        /* \"#utility.yul\":10152:10158   */\n      dup3\n        /* \"#utility.yul\":10148:10162   */\n      add\n        /* \"#utility.yul\":10138:10162   */\n      swap2\n      pop\n        /* \"#utility.yul\":10207:10209   */\n      0x20\n        /* \"#utility.yul\":10196:10205   */\n      dup6\n        /* \"#utility.yul\":10192:10210   */\n      add\n        /* \"#utility.yul\":10179:10210   */\n      swap5\n      pop\n        /* \"#utility.yul\":10053:10057   */\n      0x20\n        /* \"#utility.yul\":10050:10051   */\n      dup2\n        /* \"#utility.yul\":10046:10058   */\n      add\n        /* \"#utility.yul\":10041:10058   */\n      swap1\n      pop\n        /* \"#utility.yul\":10016:10224   */\n      jump(tag_226)\n    tag_228:\n        /* \"#utility.yul\":10252:10258   */\n      dup7\n        /* \"#utility.yul\":10243:10250   */\n      dup4\n        /* \"#utility.yul\":10240:10259   */\n      lt\n        /* \"#utility.yul\":10237:10416   */\n      iszero\n      tag_229\n      jumpi\n        /* \"#utility.yul\":10310:10319   */\n      dup5\n        /* \"#utility.yul\":10305:10308   */\n      dup10\n        /* \"#utility.yul\":10301:10320   */\n      add\n        /* \"#utility.yul\":10295:10321   */\n      mload\n        /* \"#utility.yul\":10353:10401   */\n      tag_230\n        /* \"#utility.yul\":10395:10399   */\n      0x1f\n        /* \"#utility.yul\":10387:10393   */\n      dup10\n        /* \"#utility.yul\":10383:10400   */\n      and\n        /* \"#utility.yul\":10372:10381   */\n      dup3\n        /* \"#utility.yul\":10353:10401   */\n      tag_98\n      jump\t// in\n    tag_230:\n        /* \"#utility.yul\":10345:10351   */\n      dup4\n        /* \"#utility.yul\":10338:10402   */\n      sstore\n        /* \"#utility.yul\":10260:10416   */\n      pop\n        /* \"#utility.yul\":10237:10416   */\n    tag_229:\n        /* \"#utility.yul\":10462:10463   */\n      0x01\n        /* \"#utility.yul\":10458:10459   */\n      0x02\n        /* \"#utility.yul\":10450:10456   */\n      dup9\n        /* \"#utility.yul\":10446:10460   */\n      mul\n        /* \"#utility.yul\":10442:10464   */\n      add\n        /* \"#utility.yul\":10436:10440   */\n      dup9\n        /* \"#utility.yul\":10429:10465   */\n      sstore\n        /* \"#utility.yul\":9864:10475   */\n      pop\n      pop\n      pop\n        /* \"#utility.yul\":9827:10714   */\n    tag_221:\n      pop\n        /* \"#utility.yul\":9417:10720   */\n      pop\n      pop\n      pop\n        /* \"#utility.yul\":9325:10720   */\n      pop\n      pop\n      jump\t// out\n        /* \"#utility.yul\":10726:10895   */\n    tag_100:\n        /* \"#utility.yul\":10866:10887   */\n      0x6e756d322063616e6e6f74206265207a65726f00000000000000000000000000\n        /* \"#utility.yul\":10862:10863   */\n      0x00\n        /* \"#utility.yul\":10854:10860   */\n      dup3\n        /* \"#utility.yul\":10850:10864   */\n      add\n        /* \"#utility.yul\":10843:10888   */\n      mstore\n        /* \"#utility.yul\":10726:10895   */\n      pop\n      jump\t// out\n        /* \"#utility.yul\":10901:11267   */\n    tag_101:\n        /* \"#utility.yul\":11043:11046   */\n      0x00\n        /* \"#utility.yul\":11064:11131   */\n      tag_233\n        /* \"#utility.yul\":11128:11130   */\n      0x13\n        /* \"#utility.yul\":11123:11126   */\n      dup4\n        /* \"#utility.yul\":11064:11131   */\n      tag_63\n      jump\t// in\n    tag_233:\n        /* \"#utility.yul\":11057:11131   */\n      swap2\n      pop\n        /* \"#utility.yul\":11140:11233   */\n      tag_234\n        /* \"#utility.yul\":11229:11232   */\n      dup3\n        /* \"#utility.yul\":11140:11233   */\n      tag_100\n      jump\t// in\n    tag_234:\n        /* \"#utility.yul\":11258:11260   */\n      0x20\n        /* \"#utility.yul\":11253:11256   */\n      dup3\n        /* \"#utility.yul\":11249:11261   */\n      add\n        /* \"#utility.yul\":11242:11261   */\n      swap1\n      pop\n        /* \"#utility.yul\":10901:11267   */\n      swap2\n      swap1\n      pop\n      jump\t// out\n        /* \"#utility.yul\":11273:11692   */\n    tag_58:\n        /* \"#utility.yul\":11439:11443   */\n      0x00\n        /* \"#utility.yul\":11477:11479   */\n      0x20\n        /* \"#utility.yul\":11466:11475   */\n      dup3\n        /* \"#utility.yul\":11462:11480   */\n      add\n        /* \"#utility.yul\":11454:11480   */\n      swap1\n      pop\n        /* \"#utility.yul\":11526:11535   */\n      dup2\n        /* \"#utility.yul\":11520:11524   */\n      dup2\n        /* \"#utility.yul\":11516:11536   */\n      sub\n        /* \"#utility.yul\":11512:11513   */\n      0x00\n        /* \"#utility.yul\":11501:11510   */\n      dup4\n        /* \"#utility.yul\":11497:11514   */\n      add\n        /* \"#utility.yul\":11490:11537   */\n      mstore\n        /* \"#utility.yul\":11554:11685   */\n      tag_236\n        /* \"#utility.yul\":11680:11684   */\n      dup2\n        /* \"#utility.yul\":11554:11685   */\n      tag_101\n      jump\t// in\n    tag_236:\n        /* \"#utility.yul\":11546:11685   */\n      swap1\n      pop\n        /* \"#utility.yul\":11273:11692   */\n      swap2\n      swap1\n      pop\n      jump\t// out\n        /* \"#utility.yul\":11698:11878   */\n    tag_102:\n        /* \"#utility.yul\":11746:11823   */\n      0x4e487b7100000000000000000000000000000000000000000000000000000000\n        /* \"#utility.yul\":11743:11744   */\n      0x00\n        /* \"#utility.yul\":11736:11824   */\n      mstore\n        /* \"#utility.yul\":11843:11847   */\n      0x12\n        /* \"#utility.yul\":11840:11841   */\n      0x04\n        /* \"#utility.yul\":11833:11848   */\n      mstore\n        /* \"#utility.yul\":11867:11871   */\n      0x24\n        /* \"#utility.yul\":11864:11865   */\n      0x00\n        /* \"#utility.yul\":11857:11872   */\n      revert\n        /* \"#utility.yul\":11884:12069   */\n    tag_60:\n        /* \"#utility.yul\":11924:11925   */\n      0x00\n        /* \"#utility.yul\":11941:11961   */\n      tag_239\n        /* \"#utility.yul\":11959:11960   */\n      dup3\n        /* \"#utility.yul\":11941:11961   */\n      tag_70\n      jump\t// in\n    tag_239:\n        /* \"#utility.yul\":11936:11961   */\n      swap2\n      pop\n        /* \"#utility.yul\":11975:11995   */\n      tag_240\n        /* \"#utility.yul\":11993:11994   */\n      dup4\n        /* \"#utility.yul\":11975:11995   */\n      tag_70\n      jump\t// in\n    tag_240:\n        /* \"#utility.yul\":11970:11995   */\n      swap3\n      pop\n        /* \"#utility.yul\":12014:12015   */\n      dup3\n        /* \"#utility.yul\":12004:12039   */\n      tag_241\n      jumpi\n        /* \"#utility.yul\":12019:12037   */\n      tag_242\n      tag_102\n      jump\t// in\n    tag_242:\n        /* \"#utility.yul\":12004:12039   */\n    tag_241:\n        /* \"#utility.yul\":12061:12062   */\n      dup3\n        /* \"#utility.yul\":12058:12059   */\n      dup3\n        /* \"#utility.yul\":12054:12063   */\n      div\n        /* \"#utility.yul\":12049:12063   */\n      swap1\n      pop\n        /* \"#utility.yul\":11884:12069   */\n      swap3\n      swap2\n      pop\n      pop\n      jump\t// out\n\n    auxdata: 0xa2646970667358221220d8afdb3bb48e7e17b76be05a4147650ae5aa2528a1ed9af0065abcac1367f1a064736f6c63430008180033\n}\n",
				"bytecode": {
					"linkReferences": {},
					"object": "608060405234801561000f575f80fd5b506109c08061001d5f395ff3fe608060405234801561000f575f80fd5b5060043610610086575f3560e01c8063bc42052311610059578063bc42052314610114578063c6e53f7114610130578063f88e9fbf1461014e578063f8efab091461017e57610086565b806306fdde031461008a578063771602f7146100a857806380380149146100d8578063b53b8d7a146100f6575b5f80fd5b61009261019c565b60405161009f919061035f565b60405180910390f35b6100c260048036038101906100bd91906103c3565b610227565b6040516100cf9190610410565b60405180910390f35b6100e0610245565b6040516100ed9190610410565b60405180910390f35b6100fe61024b565b60405161010b9190610410565b60405180910390f35b61012e60048036038101906101299190610555565b610254565b005b610138610266565b6040516101459190610410565b60405180910390f35b610168600480360381019061016391906103c3565b61026c565b6040516101759190610410565b60405180910390f35b6101866102cc565b6040516101939190610410565b60405180910390f35b5f80546101a8906105c9565b80601f01602080910402602001604051908101604052809291908181526020018280546101d4906105c9565b801561021f5780601f106101f65761010080835404028352916020019161021f565b820191905f5260205f20905b81548152906001019060200180831161020257829003601f168201915b505050505081565b5f81836102349190610626565b600181905550600154905092915050565b60025481565b5f600254905090565b805f908161026291906107f6565b5050565b60015481565b5f8082036102af576040517f08c379a00000000000000000000000000000000000000000000000000000000081526004016102a69061090f565b60405180910390fd5b81836102bb919061095a565b600281905550600254905092915050565b5f600154905090565b5f81519050919050565b5f82825260208201905092915050565b5f5b8381101561030c5780820151818401526020810190506102f1565b5f8484015250505050565b5f601f19601f8301169050919050565b5f610331826102d5565b61033b81856102df565b935061034b8185602086016102ef565b61035481610317565b840191505092915050565b5f6020820190508181035f8301526103778184610327565b905092915050565b5f604051905090565b5f80fd5b5f80fd5b5f819050919050565b6103a281610390565b81146103ac575f80fd5b50565b5f813590506103bd81610399565b92915050565b5f80604083850312156103d9576103d8610388565b5b5f6103e6858286016103af565b92505060206103f7858286016103af565b9150509250929050565b61040a81610390565b82525050565b5f6020820190506104235f830184610401565b92915050565b5f80fd5b5f80fd5b7f4e487b71000000000000000000000000000000000000000000000000000000005f52604160045260245ffd5b61046782610317565b810181811067ffffffffffffffff8211171561048657610485610431565b5b80604052505050565b5f61049861037f565b90506104a4828261045e565b919050565b5f67ffffffffffffffff8211156104c3576104c2610431565b5b6104cc82610317565b9050602081019050919050565b828183375f83830152505050565b5f6104f96104f4846104a9565b61048f565b9050828152602081018484840111156105155761051461042d565b5b6105208482856104d9565b509392505050565b5f82601f83011261053c5761053b610429565b5b813561054c8482602086016104e7565b91505092915050565b5f6020828403121561056a57610569610388565b5b5f82013567ffffffffffffffff8111156105875761058661038c565b5b61059384828501610528565b91505092915050565b7f4e487b71000000000000000000000000000000000000000000000000000000005f52602260045260245ffd5b5f60028204905060018216806105e057607f821691505b6020821081036105f3576105f261059c565b5b50919050565b7f4e487b71000000000000000000000000000000000000000000000000000000005f52601160045260245ffd5b5f61063082610390565b915061063b83610390565b9250828201905080821115610653576106526105f9565b5b92915050565b5f819050815f5260205f209050919050565b5f6020601f8301049050919050565b5f82821b905092915050565b5f600883026106b57fffffffffffffffffffffffffffffffffffffffffffffffffffffffffffffffff8261067a565b6106bf868361067a565b95508019841693508086168417925050509392505050565b5f819050919050565b5f6106fa6106f56106f084610390565b6106d7565b610390565b9050919050565b5f819050919050565b610713836106e0565b61072761071f82610701565b848454610686565b825550505050565b5f90565b61073b61072f565b61074681848461070a565b505050565b5b818110156107695761075e5f82610733565b60018101905061074c565b5050565b601f8211156107ae5761077f81610659565b6107888461066b565b81016020851015610797578190505b6107ab6107a38561066b565b83018261074b565b50505b505050565b5f82821c905092915050565b5f6107ce5f19846008026107b3565b1980831691505092915050565b5f6107e683836107bf565b9150826002028217905092915050565b6107ff826102d5565b67ffffffffffffffff81111561081857610817610431565b5b61082282546105c9565b61082d82828561076d565b5f60209050601f83116001811461085e575f841561084c578287015190505b61085685826107db565b8655506108bd565b601f19841661086c86610659565b5f5b828110156108935784890151825560018201915060208501945060208101905061086e565b868310156108b057848901516108ac601f8916826107bf565b8355505b6001600288020188555050505b505050505050565b7f6e756d322063616e6e6f74206265207a65726f000000000000000000000000005f82015250565b5f6108f96013836102df565b9150610904826108c5565b602082019050919050565b5f6020820190508181035f830152610926816108ed565b9050919050565b7f4e487b71000000000000000000000000000000000000000000000000000000005f52601260045260245ffd5b5f61096482610390565b915061096f83610390565b92508261097f5761097e61092d565b5b82820490509291505056fea2646970667358221220d8afdb3bb48e7e17b76be05a4147650ae5aa2528a1ed9af0065abcac1367f1a064736f6c63430008180033",
					"opcodes": "PUSH1 0x80 PUSH1 0x40 MSTORE CALLVALUE DUP1 ISZERO PUSH2 0xF JUMPI PUSH0 DUP1 REVERT JUMPDEST POP PUSH2 0x9C0 DUP1 PUSH2 0x1D PUSH0 CODECOPY PUSH0 RETURN INVALID PUSH1 0x80 PUSH1 0x40 MSTORE CALLVALUE DUP1 ISZERO PUSH2 0xF JUMPI PUSH0 DUP1 REVERT JUMPDEST POP PUSH1 0x4 CALLDATASIZE LT PUSH2 0x86 JUMPI PUSH0 CALLDATALOAD PUSH1 0xE0 SHR DUP1 PUSH4 0xBC420523 GT PUSH2 0x59 JUMPI DUP1 PUSH4 0xBC420523 EQ PUSH2 0x114 JUMPI DUP1 PUSH4 0xC6E53F71 EQ PUSH2 0x130 JUMPI DUP1 PUSH4 0xF88E9FBF EQ PUSH2 0x14E JUMPI DUP1 PUSH4 0xF8EFAB09 EQ PUSH2 0x17E JUMPI PUSH2 0x86 JUMP JUMPDEST DUP1 PUSH4 0x6FDDE03 EQ PUSH2 0x8A JUMPI DUP1 PUSH4 0x771602F7 EQ PUSH2 0xA8 JUMPI DUP1 PUSH4 0x80380149 EQ PUSH2 0xD8 JUMPI DUP1 PUSH4 0xB53B8D7A EQ PUSH2 0xF6 JUMPI JUMPDEST PUSH0 DUP1 REVERT JUMPDEST PUSH2 0x92 PUSH2 0x19C JUMP JUMPDEST PUSH1 0x40 MLOAD PUSH2 0x9F SWAP2 SWAP1 PUSH2 0x35F JUMP JUMPDEST PUSH1 0x40 MLOAD DUP1 SWAP2 SUB SWAP1 RETURN JUMPDEST PUSH2 0xC2 PUSH1 0x4 DUP1 CALLDATASIZE SUB DUP2 ADD SWAP1 PUSH2 0xBD SWAP2 SWAP1 PUSH2 0x3C3 JUMP JUMPDEST PUSH2 0x227 JUMP JUMPDEST PUSH1 0x40 MLOAD PUSH2 0xCF SWAP2 SWAP1 PUSH2 0x410 JUMP JUMPDEST PUSH1 0x40 MLOAD DUP1 SWAP2 SUB SWAP1 RETURN JUMPDEST PUSH2 0xE0 PUSH2 0x245 JUMP JUMPDEST PUSH1 0x40 MLOAD PUSH2 0xED SWAP2 SWAP1 PUSH2 0x410 JUMP JUMPDEST PUSH1 0x40 MLOAD DUP1 SWAP2 SUB SWAP1 RETURN JUMPDEST PUSH2 0xFE PUSH2 0x24B JUMP JUMPDEST PUSH1 0x40 MLOAD PUSH2 0x10B SWAP2 SWAP1 PUSH2 0x410 JUMP JUMPDEST PUSH1 0x40 MLOAD DUP1 SWAP2 SUB SWAP1 RETURN JUMPDEST PUSH2 0x12E PUSH1 0x4 DUP1 CALLDATASIZE SUB DUP2 ADD SWAP1 PUSH2 0x129 SWAP2 SWAP1 PUSH2 0x555 JUMP JUMPDEST PUSH2 0x254 JUMP JUMPDEST STOP JUMPDEST PUSH2 0x138 PUSH2 0x266 JUMP JUMPDEST PUSH1 0x40 MLOAD PUSH2 0x145 SWAP2 SWAP1 PUSH2 0x410 JUMP JUMPDEST PUSH1 0x40 MLOAD DUP1 SWAP2 SUB SWAP1 RETURN JUMPDEST PUSH2 0x168 PUSH1 0x4 DUP1 CALLDATASIZE SUB DUP2 ADD SWAP1 PUSH2 0x163 SWAP2 SWAP1 PUSH2 0x3C3 JUMP JUMPDEST PUSH2 0x26C JUMP JUMPDEST PUSH1 0x40 MLOAD PUSH2 0x175 SWAP2 SWAP1 PUSH2 0x410 JUMP JUMPDEST PUSH1 0x40 MLOAD DUP1 SWAP2 SUB SWAP1 RETURN JUMPDEST PUSH2 0x186 PUSH2 0x2CC JUMP JUMPDEST PUSH1 0x40 MLOAD PUSH2 0x193 SWAP2 SWAP1 PUSH2 0x410 JUMP JUMPDEST PUSH1 0x40 MLOAD DUP1 SWAP2 SUB SWAP1 RETURN JUMPDEST PUSH0 DUP1 SLOAD PUSH2 0x1A8 SWAP1 PUSH2 0x5C9 JUMP JUMPDEST DUP1 PUSH1 0x1F ADD PUSH1 0x20 DUP1 SWAP2 DIV MUL PUSH1 0x20 ADD PUSH1 0x40 MLOAD SWAP1 DUP2 ADD PUSH1 0x40 MSTORE DUP1 SWAP3 SWAP2 SWAP1 DUP2 DUP2 MSTORE PUSH1 0x20 ADD DUP3 DUP1 SLOAD PUSH2 0x1D4 SWAP1 PUSH2 0x5C9 JUMP JUMPDEST DUP1 ISZERO PUSH2 0x21F JUMPI DUP1 PUSH1 0x1F LT PUSH2 0x1F6 JUMPI PUSH2 0x100 DUP1 DUP4 SLOAD DIV MUL DUP4 MSTORE SWAP2 PUSH1 0x20 ADD SWAP2 PUSH2 0x21F JUMP JUMPDEST DUP3 ADD SWAP2 SWAP1 PUSH0 MSTORE PUSH1 0x20 PUSH0 KECCAK256 SWAP1 JUMPDEST DUP2 SLOAD DUP2 MSTORE SWAP1 PUSH1 0x1 ADD SWAP1 PUSH1 0x20 ADD DUP1 DUP4 GT PUSH2 0x202 JUMPI DUP3 SWAP1 SUB PUSH1 0x1F AND DUP3 ADD SWAP2 JUMPDEST POP POP POP POP POP DUP2 JUMP JUMPDEST PUSH0 DUP2 DUP4 PUSH2 0x234 SWAP2 SWAP1 PUSH2 0x626 JUMP JUMPDEST PUSH1 0x1 DUP2 SWAP1 SSTORE POP PUSH1 0x1 SLOAD SWAP1 POP SWAP3 SWAP2 POP POP JUMP JUMPDEST PUSH1 0x2 SLOAD DUP2 JUMP JUMPDEST PUSH0 PUSH1 0x2 SLOAD SWAP1 POP SWAP1 JUMP JUMPDEST DUP1 PUSH0 SWAP1 DUP2 PUSH2 0x262 SWAP2 SWAP1 PUSH2 0x7F6 JUMP JUMPDEST POP POP JUMP JUMPDEST PUSH1 0x1 SLOAD DUP2 JUMP JUMPDEST PUSH0 DUP1 DUP3 SUB PUSH2 0x2AF JUMPI PUSH1 0x40 MLOAD PUSH32 0x8C379A000000000000000000000000000000000000000000000000000000000 DUP2 MSTORE PUSH1 0x4 ADD PUSH2 0x2A6 SWAP1 PUSH2 0x90F JUMP JUMPDEST PUSH1 0x40 MLOAD DUP1 SWAP2 SUB SWAP1 REVERT JUMPDEST DUP2 DUP4 PUSH2 0x2BB SWAP2 SWAP1 PUSH2 0x95A JUMP JUMPDEST PUSH1 0x2 DUP2 SWAP1 SSTORE POP PUSH1 0x2 SLOAD SWAP1 POP SWAP3 SWAP2 POP POP JUMP JUMPDEST PUSH0 PUSH1 0x1 SLOAD SWAP1 POP SWAP1 JUMP JUMPDEST PUSH0 DUP2 MLOAD SWAP1 POP SWAP2 SWAP1 POP JUMP JUMPDEST PUSH0 DUP3 DUP3 MSTORE PUSH1 0x20 DUP3 ADD SWAP1 POP SWAP3 SWAP2 POP POP JUMP JUMPDEST PUSH0 JUMPDEST DUP4 DUP2 LT ISZERO PUSH2 0x30C JUMPI DUP1 DUP3 ADD MLOAD DUP2 DUP5 ADD MSTORE PUSH1 0x20 DUP2 ADD SWAP1 POP PUSH2 0x2F1 JUMP JUMPDEST PUSH0 DUP5 DUP5 ADD MSTORE POP POP POP POP JUMP JUMPDEST PUSH0 PUSH1 0x1F NOT PUSH1 0x1F DUP4 ADD AND SWAP1 POP SWAP2 SWAP1 POP JUMP JUMPDEST PUSH0 PUSH2 0x331 DUP3 PUSH2 0x2D5 JUMP JUMPDEST PUSH2 0x33B DUP2 DUP6 PUSH2 0x2DF JUMP JUMPDEST SWAP4 POP PUSH2 0x34B DUP2 DUP6 PUSH1 0x20 DUP7 ADD PUSH2 0x2EF JUMP JUMPDEST PUSH2 0x354 DUP2 PUSH2 0x317 JUMP JUMPDEST DUP5 ADD SWAP2 POP POP SWAP3 SWAP2 POP POP JUMP JUMPDEST PUSH0 PUSH1 0x20 DUP3 ADD SWAP1 POP DUP2 DUP2 SUB PUSH0 DUP4 ADD MSTORE PUSH2 0x377 DUP2 DUP5 PUSH2 0x327 JUMP JUMPDEST SWAP1 POP SWAP3 SWAP2 POP POP JUMP JUMPDEST PUSH0 PUSH1 0x40 MLOAD SWAP1 POP SWAP1 JUMP JUMPDEST PUSH0 DUP1 REVERT JUMPDEST PUSH0 DUP1 REVERT JUMPDEST PUSH0 DUP2 SWAP1 POP SWAP2 SWAP1 POP JUMP JUMPDEST PUSH2 0x3A2 DUP2 PUSH2 0x390 JUMP JUMPDEST DUP2 EQ PUSH2 0x3AC JUMPI PUSH0 DUP1 REVERT JUMPDEST POP JUMP JUMPDEST PUSH0 DUP2 CALLDATALOAD SWAP1 POP PUSH2 0x3BD DUP2 PUSH2 0x399 JUMP JUMPDEST SWAP3 SWAP2 POP POP JUMP JUMPDEST PUSH0 DUP1 PUSH1 0x40 DUP4 DUP6 SUB SLT ISZERO PUSH2 0x3D9 JUMPI PUSH2 0x3D8 PUSH2 0x388 JUMP JUMPDEST JUMPDEST PUSH0 PUSH2 0x3E6 DUP6 DUP3 DUP7 ADD PUSH2 0x3AF JUMP JUMPDEST SWAP3 POP POP PUSH1 0x20 PUSH2 0x3F7 DUP6 DUP3 DUP7 ADD PUSH2 0x3AF JUMP JUMPDEST SWAP2 POP POP SWAP3 POP SWAP3 SWAP1 POP JUMP JUMPDEST PUSH2 0x40A DUP2 PUSH2 0x390 JUMP JUMPDEST DUP3 MSTORE POP POP JUMP JUMPDEST PUSH0 PUSH1 0x20 DUP3 ADD SWAP1 POP PUSH2 0x423 PUSH0 DUP4 ADD DUP5 PUSH2 0x401 JUMP JUMPDEST SWAP3 SWAP2 POP POP JUMP JUMPDEST PUSH0 DUP1 REVERT JUMPDEST PUSH0 DUP1 REVERT JUMPDEST PUSH32 0x4E487B7100000000000000000000000000000000000000000000000000000000 PUSH0 MSTORE PUSH1 0x41 PUSH1 0x4 MSTORE PUSH1 0x24 PUSH0 REVERT JUMPDEST PUSH2 0x467 DUP3 PUSH2 0x317 JUMP JUMPDEST DUP2 ADD DUP2 DUP2 LT PUSH8 0xFFFFFFFFFFFFFFFF DUP3 GT OR ISZERO PUSH2 0x486 JUMPI PUSH2 0x485 PUSH2 0x431 JUMP JUMPDEST JUMPDEST DUP1 PUSH1 0x40 MSTORE POP POP POP JUMP JUMPDEST PUSH0 PUSH2 0x498 PUSH2 0x37F JUMP JUMPDEST SWAP1 POP PUSH2 0x4A4 DUP3 DUP3 PUSH2 0x45E JUMP JUMPDEST SWAP2 SWAP1 POP JUMP JUMPDEST PUSH0 PUSH8 0xFFFFFFFFFFFFFFFF DUP3 GT ISZERO PUSH2 0x4C3 JUMPI PUSH2 0x4C2 PUSH2 0x431 JUMP JUMPDEST JUMPDEST PUSH2 0x4CC DUP3 PUSH2 0x317 JUMP JUMPDEST SWAP1 POP PUSH1 0x20 DUP2 ADD SWAP1 POP SWAP2 SWAP1 POP JUMP JUMPDEST DUP3 DUP2 DUP4 CALLDATACOPY PUSH0 DUP4 DUP4 ADD MSTORE POP POP POP JUMP JUMPDEST PUSH0 PUSH2 0x4F9 PUSH2 0x4F4 DUP5 PUSH2 0x4A9 JUMP JUMPDEST PUSH2 0x48F JUMP JUMPDEST SWAP1 POP DUP3 DUP2 MSTORE PUSH1 0x20 DUP2 ADD DUP5 DUP5 DUP5 ADD GT ISZERO PUSH2 0x515 JUMPI PUSH2 0x514 PUSH2 0x42D JUMP JUMPDEST JUMPDEST PUSH2 0x520 DUP5 DUP3 DUP6 PUSH2 0x4D9 JUMP JUMPDEST POP SWAP4 SWAP3 POP POP POP JUMP JUMPDEST PUSH0 DUP3 PUSH1 0x1F DUP4 ADD SLT PUSH2 0x53C JUMPI PUSH2 0x53B PUSH2 0x429 JUMP JUMPDEST JUMPDEST DUP2 CALLDATALOAD PUSH2 0x54C DUP5 DUP3 PUSH1 0x20 DUP7 ADD PUSH2 0x4E7 JUMP JUMPDEST SWAP2 POP POP SWAP3 SWAP2 POP POP JUMP JUMPDEST PUSH0 PUSH1 0x20 DUP3 DUP5 SUB SLT ISZERO PUSH2 0x56A JUMPI PUSH2 0x569 PUSH2 0x388 JUMP JUMPDEST JUMPDEST PUSH0 DUP3 ADD CALLDATALOAD PUSH8 0xFFFFFFFFFFFFFFFF DUP2 GT ISZERO PUSH2 0x587 JUMPI PUSH2 0x586 PUSH2 0x38C JUMP JUMPDEST JUMPDEST PUSH2 0x593 DUP5 DUP3 DUP6 ADD PUSH2 0x528 JUMP JUMPDEST SWAP2 POP POP SWAP3 SWAP2 POP POP JUMP JUMPDEST PUSH32 0x4E487B7100000000000000000000000000000000000000000000000000000000 PUSH0 MSTORE PUSH1 0x22 PUSH1 0x4 MSTORE PUSH1 0x24 PUSH0 REVERT JUMPDEST PUSH0 PUSH1 0x2 DUP3 DIV SWAP1 POP PUSH1 0x1 DUP3 AND DUP1 PUSH2 0x5E0 JUMPI PUSH1 0x7F DUP3 AND SWAP2 POP JUMPDEST PUSH1 0x20 DUP3 LT DUP2 SUB PUSH2 0x5F3 JUMPI PUSH2 0x5F2 PUSH2 0x59C JUMP JUMPDEST JUMPDEST POP SWAP2 SWAP1 POP JUMP JUMPDEST PUSH32 0x4E487B7100000000000000000000000000000000000000000000000000000000 PUSH0 MSTORE PUSH1 0x11 PUSH1 0x4 MSTORE PUSH1 0x24 PUSH0 REVERT JUMPDEST PUSH0 PUSH2 0x630 DUP3 PUSH2 0x390 JUMP JUMPDEST SWAP2 POP PUSH2 0x63B DUP4 PUSH2 0x390 JUMP JUMPDEST SWAP3 POP DUP3 DUP3 ADD SWAP1 POP DUP1 DUP3 GT ISZERO PUSH2 0x653 JUMPI PUSH2 0x652 PUSH2 0x5F9 JUMP JUMPDEST JUMPDEST SWAP3 SWAP2 POP POP JUMP JUMPDEST PUSH0 DUP2 SWAP1 POP DUP2 PUSH0 MSTORE PUSH1 0x20 PUSH0 KECCAK256 SWAP1 POP SWAP2 SWAP1 POP JUMP JUMPDEST PUSH0 PUSH1 0x20 PUSH1 0x1F DUP4 ADD DIV SWAP1 POP SWAP2 SWAP1 POP JUMP JUMPDEST PUSH0 DUP3 DUP3 SHL SWAP1 POP SWAP3 SWAP2 POP POP JUMP JUMPDEST PUSH0 PUSH1 0x8 DUP4 MUL PUSH2 0x6B5 PUSH32 0xFFFFFFFFFFFFFFFFFFFFFFFFFFFFFFFFFFFFFFFFFFFFFFFFFFFFFFFFFFFFFFFF DUP3 PUSH2 0x67A JUMP JUMPDEST PUSH2 0x6BF DUP7 DUP4 PUSH2 0x67A JUMP JUMPDEST SWAP6 POP DUP1 NOT DUP5 AND SWAP4 POP DUP1 DUP7 AND DUP5 OR SWAP3 POP POP POP SWAP4 SWAP3 POP POP POP JUMP JUMPDEST PUSH0 DUP2 SWAP1 POP SWAP2 SWAP1 POP JUMP JUMPDEST PUSH0 PUSH2 0x6FA PUSH2 0x6F5 PUSH2 0x6F0 DUP5 PUSH2 0x390 JUMP JUMPDEST PUSH2 0x6D7 JUMP JUMPDEST PUSH2 0x390 JUMP JUMPDEST SWAP1 POP SWAP2 SWAP1 POP JUMP JUMPDEST PUSH0 DUP2 SWAP1 POP SWAP2 SWAP1 POP JUMP JUMPDEST PUSH2 0x713 DUP4 PUSH2 0x6E0 JUMP JUMPDEST PUSH2 0x727 PUSH2 0x71F DUP3 PUSH2 0x701 JUMP JUMPDEST DUP5 DUP5 SLOAD PUSH2 0x686 JUMP JUMPDEST DUP3 SSTORE POP POP POP POP JUMP JUMPDEST PUSH0 SWAP1 JUMP JUMPDEST PUSH2 0x73B PUSH2 0x72F JUMP JUMPDEST PUSH2 0x746 DUP2 DUP5 DUP5 PUSH2 0x70A JUMP JUMPDEST POP POP POP JUMP JUMPDEST JUMPDEST DUP2 DUP2 LT ISZERO PUSH2 0x769 JUMPI PUSH2 0x75E PUSH0 DUP3 PUSH2 0x733 JUMP JUMPDEST PUSH1 0x1 DUP2 ADD SWAP1 POP PUSH2 0x74C JUMP JUMPDEST POP POP JUMP JUMPDEST PUSH1 0x1F DUP3 GT ISZERO PUSH2 0x7AE JUMPI PUSH2 0x77F DUP2 PUSH2 0x659 JUMP JUMPDEST PUSH2 0x788 DUP5 PUSH2 0x66B JUMP JUMPDEST DUP2 ADD PUSH1 0x20 DUP6 LT ISZERO PUSH2 0x797 JUMPI DUP2 SWAP1 POP JUMPDEST PUSH2 0x7AB PUSH2 0x7A3 DUP6 PUSH2 0x66B JUMP JUMPDEST DUP4 ADD DUP3 PUSH2 0x74B JUMP JUMPDEST POP POP JUMPDEST POP POP POP JUMP JUMPDEST PUSH0 DUP3 DUP3 SHR SWAP1 POP SWAP3 SWAP2 POP POP JUMP JUMPDEST PUSH0 PUSH2 0x7CE PUSH0 NOT DUP5 PUSH1 0x8 MUL PUSH2 0x7B3 JUMP JUMPDEST NOT DUP1 DUP4 AND SWAP2 POP POP SWAP3 SWAP2 POP POP JUMP JUMPDEST PUSH0 PUSH2 0x7E6 DUP4 DUP4 PUSH2 0x7BF JUMP JUMPDEST SWAP2 POP DUP3 PUSH1 0x2 MUL DUP3 OR SWAP1 POP SWAP3 SWAP2 POP POP JUMP JUMPDEST PUSH2 0x7FF DUP3 PUSH2 0x2D5 JUMP JUMPDEST PUSH8 0xFFFFFFFFFFFFFFFF DUP2 GT ISZERO PUSH2 0x818 JUMPI PUSH2 0x817 PUSH2 0x431 JUMP JUMPDEST JUMPDEST PUSH2 0x822 DUP3 SLOAD PUSH2 0x5C9 JUMP JUMPDEST PUSH2 0x82D DUP3 DUP3 DUP6 PUSH2 0x76D JUMP JUMPDEST PUSH0 PUSH1 0x20 SWAP1 POP PUSH1 0x1F DUP4 GT PUSH1 0x1 DUP2 EQ PUSH2 0x85E JUMPI PUSH0 DUP5 ISZERO PUSH2 0x84C JUMPI DUP3 DUP8 ADD MLOAD SWAP1 POP JUMPDEST PUSH2 0x856 DUP6 DUP3 PUSH2 0x7DB JUMP JUMPDEST DUP7 SSTORE POP PUSH2 0x8BD JUMP JUMPDEST PUSH1 0x1F NOT DUP5 AND PUSH2 0x86C DUP7 PUSH2 0x659 JUMP JUMPDEST PUSH0 JUMPDEST DUP3 DUP2 LT ISZERO PUSH2 0x893 JUMPI DUP5 DUP10 ADD MLOAD DUP3 SSTORE PUSH1 0x1 DUP3 ADD SWAP2 POP PUSH1 0x20 DUP6 ADD SWAP5 POP PUSH1 0x20 DUP2 ADD SWAP1 POP PUSH2 0x86E JUMP JUMPDEST DUP7 DUP4 LT ISZERO PUSH2 0x8B0 JUMPI DUP5 DUP10 ADD MLOAD PUSH2 0x8AC PUSH1 0x1F DUP10 AND DUP3 PUSH2 0x7BF JUMP JUMPDEST DUP4 SSTORE POP JUMPDEST PUSH1 0x1 PUSH1 0x2 DUP9 MUL ADD DUP9 SSTORE POP POP POP JUMPDEST POP POP POP POP POP POP JUMP JUMPDEST PUSH32 0x6E756D322063616E6E6F74206265207A65726F00000000000000000000000000 PUSH0 DUP3 ADD MSTORE POP JUMP JUMPDEST PUSH0 PUSH2 0x8F9 PUSH1 0x13 DUP4 PUSH2 0x2DF JUMP JUMPDEST SWAP2 POP PUSH2 0x904 DUP3 PUSH2 0x8C5 JUMP JUMPDEST PUSH1 0x20 DUP3 ADD SWAP1 POP SWAP2 SWAP1 POP JUMP JUMPDEST PUSH0 PUSH1 0x20 DUP3 ADD SWAP1 POP DUP2 DUP2 SUB PUSH0 DUP4 ADD MSTORE PUSH2 0x926 DUP2 PUSH2 0x8ED JUMP JUMPDEST SWAP1 POP SWAP2 SWAP1 POP JUMP JUMPDEST PUSH32 0x4E487B7100000000000000000000000000000000000000000000000000000000 PUSH0 MSTORE PUSH1 0x12 PUSH1 0x4 MSTORE PUSH1 0x24 PUSH0 REVERT JUMPDEST PUSH0 PUSH2 0x964 DUP3 PUSH2 0x390 JUMP JUMPDEST SWAP2 POP PUSH2 0x96F DUP4 PUSH2 0x390 JUMP JUMPDEST SWAP3 POP DUP3 PUSH2 0x97F JUMPI PUSH2 0x97E PUSH2 0x92D JUMP JUMPDEST JUMPDEST DUP3 DUP3 DIV SWAP1 POP SWAP3 SWAP2 POP POP JUMP INVALID LOG2 PUSH5 0x6970667358 0x22 SLT KECCAK256 0xD8 0xAF 0xDB EXTCODESIZE 0xB4 DUP15 PUSH31 0x17B76BE05A4147650AE5AA2528A1ED9AF0065ABCAC1367F1A064736F6C6343 STOP ADDMOD XOR STOP CALLER "
				},
				"gasEstimates": {
					"creation": {
						"codeDepositCost": "499200",
						"executionCost": "528",
						"totalCost": "499728"
					},
					"external": {
						"add(uint256,uint256)": "infinite",
						"addnumber()": "2447",
						"divide()": "2499",
						"divide(uint256,uint256)": "infinite",
						"divnumber()": "2470",
						"getAddNumber()": "2498",
						"name()": "infinite",
						"saveName(string)": "infinite"
					}
				},
				"methodIdentifiers": {
					"add(uint256,uint256)": "771602f7",
					"addnumber()": "c6e53f71",
					"divide()": "b53b8d7a",
					"divide(uint256,uint256)": "f88e9fbf",
					"divnumber()": "80380149",
					"getAddNumber()": "f8efab09",
					"name()": "06fdde03",
					"saveName(string)": "bc420523"
				}
			},
			"storageLayout": {
				"storage": [
					{
						"astId": 3,
						"contract": "contracts/AssigmentEth.sol:AdDivide",
						"label": "name",
						"offset": 0,
						"slot": "0",
						"type": "t_string_storage"
					},
					{
						"astId": 5,
						"contract": "contracts/AssigmentEth.sol:AdDivide",
						"label": "addnumber",
						"offset": 0,
						"slot": "1",
						"type": "t_uint256"
					},
					{
						"astId": 7,
						"contract": "contracts/AssigmentEth.sol:AdDivide",
						"label": "divnumber",
						"offset": 0,
						"slot": "2",
						"type": "t_uint256"
					}
				],
				"types": {
					"t_string_storage": {
						"encoding": "bytes",
						"label": "string",
						"numberOfBytes": "32"
					},
					"t_uint256": {
						"encoding": "inplace",
						"label": "uint256",
						"numberOfBytes": "32"
					}
				}
			},
			"userdoc": {
				"kind": "user",
				"methods": {},
				"version": 1
			}
		}
	}
}