{
	"contracts/Copy_AssigmentEth.sol": {
		"AdDivide": {
			"abi": [
				{
					"inputs": [],
					"name": "AddNumber",
					"outputs": [
						{
							"internalType": "uint256",
							"name": "",
							"type": "uint256"
						}
					],
					"stateMutability": "view",
					"type": "function"
				},
				{
					"inputs": [],
					"name": "DivNumber",
					"outputs": [
						{
							"internalType": "uint256",
							"name": "",
							"type": "uint256"
						}
					],
					"stateMutability": "view",
					"type": "function"
				},
				{
					"inputs": [],
					"name": "Name",
					"outputs": [
						{
							"internalType": "string",
							"name": "",
							"type": "string"
						}
					],
					"stateMutability": "view",
					"type": "function"
				},
				{
					"inputs": [
						{
							"internalType": "uint256",
							"name": "num1",
							"type": "uint256"
						},
						{
							"internalType": "uint256",
							"name": "num2",
							"type": "uint256"
						}
					],
					"name": "add",
					"outputs": [
						{
							"internalType": "uint256",
							"name": "",
							"type": "uint256"
						}
					],
					"stateMutability": "nonpayable",
					"type": "function"
				},
				{
					"inputs": [
						{
							"internalType": "uint256",
							"name": "num1",
							"type": "uint256"
						},
						{
							"internalType": "uint256",
							"name": "num2",
							"type": "uint256"
						}
					],
					"name": "divide",
					"outputs": [
						{
							"internalType": "uint256",
							"name": "",
							"type": "uint256"
						}
					],
					"stateMutability": "nonpayable",
					"type": "function"
				},
				{
					"inputs": [],
					"name": "getAddNumber",
					"outputs": [
						{
							"internalType": "uint256",
							"name": "",
							"type": "uint256"
						}
					],
					"stateMutability": "view",
					"type": "function"
				},
				{
					"inputs": [
						{
							"internalType": "string",
							"name": "_name",
							"type": "string"
						}
					],
					"name": "saveName",
					"outputs": [],
					"stateMutability": "nonpayable",
					"type": "function"
				}
			],
			"devdoc": {
				"kind": "dev",
				"methods": {},
				"version": 1
			},
			"evm": {
				"assembly": "    /* \"contracts/Copy_AssigmentEth.sol\":60:948  contract AdDivide {... */\n  mstore(0x40, 0x80)\n  callvalue\n  dup1\n  iszero\n  tag_1\n  jumpi\n  0x00\n  dup1\n  revert\ntag_1:\n  pop\n  dataSize(sub_0)\n  dup1\n  dataOffset(sub_0)\n  0x00\n  codecopy\n  0x00\n  return\nstop\n\nsub_0: assembly {\n        /* \"contracts/Copy_AssigmentEth.sol\":60:948  contract AdDivide {... */\n      mstore(0x40, 0x80)\n      callvalue\n      dup1\n      iszero\n      tag_1\n      jumpi\n      0x00\n      dup1\n      revert\n    tag_1:\n      pop\n      jumpi(tag_2, lt(calldatasize, 0x04))\n      shr(0xe0, calldataload(0x00))\n      dup1\n      0x8052474d\n      gt\n      tag_10\n      jumpi\n      dup1\n      0x8052474d\n      eq\n      tag_6\n      jumpi\n      dup1\n      0xbc420523\n      eq\n      tag_7\n      jumpi\n      dup1\n      0xf88e9fbf\n      eq\n      tag_8\n      jumpi\n      dup1\n      0xf8efab09\n      eq\n      tag_9\n      jumpi\n      jump(tag_2)\n    tag_10:\n      dup1\n      0x1b680918\n      eq\n      tag_3\n      jumpi\n      dup1\n      0x54ec5075\n      eq\n      tag_4\n      jumpi\n      dup1\n      0x771602f7\n      eq\n      tag_5\n      jumpi\n    tag_2:\n      0x00\n      dup1\n      revert\n        /* \"contracts/Copy_AssigmentEth.sol\":195:219  uint256 public DivNumber */\n    tag_3:\n      tag_11\n      tag_12\n      jump\t// in\n    tag_11:\n      mload(0x40)\n      tag_13\n      swap2\n      swap1\n      tag_14\n      jump\t// in\n    tag_13:\n      mload(0x40)\n      dup1\n      swap2\n      sub\n      swap1\n      return\n        /* \"contracts/Copy_AssigmentEth.sol\":137:161  uint256 public AddNumber */\n    tag_4:\n      tag_15\n      tag_16\n      jump\t// in\n    tag_15:\n      mload(0x40)\n      tag_17\n      swap2\n      swap1\n      tag_14\n      jump\t// in\n    tag_17:\n      mload(0x40)\n      dup1\n      swap2\n      sub\n      swap1\n      return\n        /* \"contracts/Copy_AssigmentEth.sol\":411:546  function add(uint256 num1, uint256 num2) public returns (uint256) {... */\n    tag_5:\n      tag_18\n      0x04\n      dup1\n      calldatasize\n      sub\n      dup2\n      add\n      swap1\n      tag_19\n      swap2\n      swap1\n      tag_20\n      jump\t// in\n    tag_19:\n      tag_21\n      jump\t// in\n    tag_18:\n      mload(0x40)\n      tag_22\n      swap2\n      swap1\n      tag_14\n      jump\t// in\n    tag_22:\n      mload(0x40)\n      dup1\n      swap2\n      sub\n      swap1\n      return\n        /* \"contracts/Copy_AssigmentEth.sol\":85:103  string public Name */\n    tag_6:\n      tag_23\n      tag_24\n      jump\t// in\n    tag_23:\n      mload(0x40)\n      tag_25\n      swap2\n      swap1\n      tag_26\n      jump\t// in\n    tag_25:\n      mload(0x40)\n      dup1\n      swap2\n      sub\n      swap1\n      return\n        /* \"contracts/Copy_AssigmentEth.sol\":289:366  function saveName(string memory _name) public {... */\n    tag_7:\n      tag_27\n      0x04\n      dup1\n      calldatasize\n      sub\n      dup2\n      add\n      swap1\n      tag_28\n      swap2\n      swap1\n      tag_29\n      jump\t// in\n    tag_28:\n      tag_30\n      jump\t// in\n    tag_27:\n      stop\n        /* \"contracts/Copy_AssigmentEth.sol\":736:945  function divide(uint256 num1, uint256 num2) public returns (uint256) {... */\n    tag_8:\n      tag_31\n      0x04\n      dup1\n      calldatasize\n      sub\n      dup2\n      add\n      swap1\n      tag_32\n      swap2\n      swap1\n      tag_20\n      jump\t// in\n    tag_32:\n      tag_33\n      jump\t// in\n    tag_31:\n      mload(0x40)\n      tag_34\n      swap2\n      swap1\n      tag_14\n      jump\t// in\n    tag_34:\n      mload(0x40)\n      dup1\n      swap2\n      sub\n      swap1\n      return\n        /* \"contracts/Copy_AssigmentEth.sol\":602:691  function getAddNumber() public view returns (uint256) {... */\n    tag_9:\n      tag_35\n      tag_36\n      jump\t// in\n    tag_35:\n      mload(0x40)\n      tag_37\n      swap2\n      swap1\n      tag_14\n      jump\t// in\n    tag_37:\n      mload(0x40)\n      dup1\n      swap2\n      sub\n      swap1\n      return\n        /* \"contracts/Copy_AssigmentEth.sol\":195:219  uint256 public DivNumber */\n    tag_12:\n      sload(0x02)\n      dup2\n      jump\t// out\n        /* \"contracts/Copy_AssigmentEth.sol\":137:161  uint256 public AddNumber */\n    tag_16:\n      sload(0x01)\n      dup2\n      jump\t// out\n        /* \"contracts/Copy_AssigmentEth.sol\":411:546  function add(uint256 num1, uint256 num2) public returns (uint256) {... */\n    tag_21:\n        /* \"contracts/Copy_AssigmentEth.sol\":468:475  uint256 */\n      0x00\n        /* \"contracts/Copy_AssigmentEth.sol\":507:511  num2 */\n      dup2\n        /* \"contracts/Copy_AssigmentEth.sol\":500:504  num1 */\n      dup4\n        /* \"contracts/Copy_AssigmentEth.sol\":500:511  num1 + num2 */\n      tag_39\n      swap2\n      swap1\n      tag_40\n      jump\t// in\n    tag_39:\n        /* \"contracts/Copy_AssigmentEth.sol\":488:497  AddNumber */\n      0x01\n        /* \"contracts/Copy_AssigmentEth.sol\":488:511  AddNumber = num1 + num2 */\n      dup2\n      swap1\n      sstore\n      pop\n        /* \"contracts/Copy_AssigmentEth.sol\":529:538  AddNumber */\n      sload(0x01)\n        /* \"contracts/Copy_AssigmentEth.sol\":522:538  return AddNumber */\n      swap1\n      pop\n        /* \"contracts/Copy_AssigmentEth.sol\":411:546  function add(uint256 num1, uint256 num2) public returns (uint256) {... */\n      swap3\n      swap2\n      pop\n      pop\n      jump\t// out\n        /* \"contracts/Copy_AssigmentEth.sol\":85:103  string public Name */\n    tag_24:\n      0x00\n      dup1\n      sload\n      tag_41\n      swap1\n      tag_42\n      jump\t// in\n    tag_41:\n      dup1\n      0x1f\n      add\n      0x20\n      dup1\n      swap2\n      div\n      mul\n      0x20\n      add\n      mload(0x40)\n      swap1\n      dup2\n      add\n      0x40\n      mstore\n      dup1\n      swap3\n      swap2\n      swap1\n      dup2\n      dup2\n      mstore\n      0x20\n      add\n      dup3\n      dup1\n      sload\n      tag_43\n      swap1\n      tag_42\n      jump\t// in\n    tag_43:\n      dup1\n      iszero\n      tag_44\n      jumpi\n      dup1\n      0x1f\n      lt\n      tag_45\n      jumpi\n      0x0100\n      dup1\n      dup4\n      sload\n      div\n      mul\n      dup4\n      mstore\n      swap2\n      0x20\n      add\n      swap2\n      jump(tag_44)\n    tag_45:\n      dup3\n      add\n      swap2\n      swap1\n      0x00\n      mstore\n      keccak256(0x00, 0x20)\n      swap1\n    tag_46:\n      dup2\n      sload\n      dup2\n      mstore\n      swap1\n      0x01\n      add\n      swap1\n      0x20\n      add\n      dup1\n      dup4\n      gt\n      tag_46\n      jumpi\n      dup3\n      swap1\n      sub\n      0x1f\n      and\n      dup3\n      add\n      swap2\n    tag_44:\n      pop\n      pop\n      pop\n      pop\n      pop\n      dup2\n      jump\t// out\n        /* \"contracts/Copy_AssigmentEth.sol\":289:366  function saveName(string memory _name) public {... */\n    tag_30:\n        /* \"contracts/Copy_AssigmentEth.sol\":353:358  _name */\n      dup1\n        /* \"contracts/Copy_AssigmentEth.sol\":346:350  Name */\n      0x00\n        /* \"contracts/Copy_AssigmentEth.sol\":346:358  Name = _name */\n      swap1\n      dup2\n      tag_48\n      swap2\n      swap1\n      tag_49\n      jump\t// in\n    tag_48:\n      pop\n        /* \"contracts/Copy_AssigmentEth.sol\":289:366  function saveName(string memory _name) public {... */\n      pop\n      jump\t// out\n        /* \"contracts/Copy_AssigmentEth.sol\":736:945  function divide(uint256 num1, uint256 num2) public returns (uint256) {... */\n    tag_33:\n        /* \"contracts/Copy_AssigmentEth.sol\":796:803  uint256 */\n      0x00\n        /* \"contracts/Copy_AssigmentEth.sol\":832:833  0 */\n      dup1\n        /* \"contracts/Copy_AssigmentEth.sol\":824:828  num2 */\n      dup3\n        /* \"contracts/Copy_AssigmentEth.sol\":824:833  num2 != 0 */\n      sub\n        /* \"contracts/Copy_AssigmentEth.sol\":816:857  require(num2 != 0, \"num2 cannot be zero\") */\n      tag_51\n      jumpi\n      mload(0x40)\n      0x08c379a000000000000000000000000000000000000000000000000000000000\n      dup2\n      mstore\n      0x04\n      add\n      tag_52\n      swap1\n      tag_53\n      jump\t// in\n    tag_52:\n      mload(0x40)\n      dup1\n      swap2\n      sub\n      swap1\n      revert\n    tag_51:\n        /* \"contracts/Copy_AssigmentEth.sol\":906:910  num2 */\n      dup2\n        /* \"contracts/Copy_AssigmentEth.sol\":899:903  num1 */\n      dup4\n        /* \"contracts/Copy_AssigmentEth.sol\":899:910  num1 / num2 */\n      tag_54\n      swap2\n      swap1\n      tag_55\n      jump\t// in\n    tag_54:\n        /* \"contracts/Copy_AssigmentEth.sol\":887:896  DivNumber */\n      0x02\n        /* \"contracts/Copy_AssigmentEth.sol\":887:910  DivNumber = num1 / num2 */\n      dup2\n      swap1\n      sstore\n      pop\n        /* \"contracts/Copy_AssigmentEth.sol\":928:937  DivNumber */\n      sload(0x02)\n        /* \"contracts/Copy_AssigmentEth.sol\":921:937  return DivNumber */\n      swap1\n      pop\n        /* \"contracts/Copy_AssigmentEth.sol\":736:945  function divide(uint256 num1, uint256 num2) public returns (uint256) {... */\n      swap3\n      swap2\n      pop\n      pop\n      jump\t// out\n        /* \"contracts/Copy_AssigmentEth.sol\":602:691  function getAddNumber() public view returns (uint256) {... */\n    tag_36:\n        /* \"contracts/Copy_AssigmentEth.sol\":647:654  uint256 */\n      0x00\n        /* \"contracts/Copy_AssigmentEth.sol\":674:683  AddNumber */\n      sload(0x01)\n        /* \"contracts/Copy_AssigmentEth.sol\":667:683  return AddNumber */\n      swap1\n      pop\n        /* \"contracts/Copy_AssigmentEth.sol\":602:691  function getAddNumber() public view returns (uint256) {... */\n      swap1\n      jump\t// out\n        /* \"#utility.yul\":7:84   */\n    tag_57:\n        /* \"#utility.yul\":44:51   */\n      0x00\n        /* \"#utility.yul\":73:78   */\n      dup2\n        /* \"#utility.yul\":62:78   */\n      swap1\n      pop\n        /* \"#utility.yul\":7:84   */\n      swap2\n      swap1\n      pop\n      jump\t// out\n        /* \"#utility.yul\":90:208   */\n    tag_58:\n        /* \"#utility.yul\":177:201   */\n      tag_101\n        /* \"#utility.yul\":195:200   */\n      dup2\n        /* \"#utility.yul\":177:201   */\n      tag_57\n      jump\t// in\n    tag_101:\n        /* \"#utility.yul\":172:175   */\n      dup3\n        /* \"#utility.yul\":165:202   */\n      mstore\n        /* \"#utility.yul\":90:208   */\n      pop\n      pop\n      jump\t// out\n        /* \"#utility.yul\":214:436   */\n    tag_14:\n        /* \"#utility.yul\":307:311   */\n      0x00\n        /* \"#utility.yul\":345:347   */\n      0x20\n        /* \"#utility.yul\":334:343   */\n      dup3\n        /* \"#utility.yul\":330:348   */\n      add\n        /* \"#utility.yul\":322:348   */\n      swap1\n      pop\n        /* \"#utility.yul\":358:429   */\n      tag_103\n        /* \"#utility.yul\":426:427   */\n      0x00\n        /* \"#utility.yul\":415:424   */\n      dup4\n        /* \"#utility.yul\":411:428   */\n      add\n        /* \"#utility.yul\":402:408   */\n      dup5\n        /* \"#utility.yul\":358:429   */\n      tag_58\n      jump\t// in\n    tag_103:\n        /* \"#utility.yul\":214:436   */\n      swap3\n      swap2\n      pop\n      pop\n      jump\t// out\n        /* \"#utility.yul\":442:517   */\n    tag_59:\n        /* \"#utility.yul\":475:481   */\n      0x00\n        /* \"#utility.yul\":508:510   */\n      0x40\n        /* \"#utility.yul\":502:511   */\n      mload\n        /* \"#utility.yul\":492:511   */\n      swap1\n      pop\n        /* \"#utility.yul\":442:517   */\n      swap1\n      jump\t// out\n        /* \"#utility.yul\":523:640   */\n    tag_60:\n        /* \"#utility.yul\":632:633   */\n      0x00\n        /* \"#utility.yul\":629:630   */\n      dup1\n        /* \"#utility.yul\":622:634   */\n      revert\n        /* \"#utility.yul\":646:763   */\n    tag_61:\n        /* \"#utility.yul\":755:756   */\n      0x00\n        /* \"#utility.yul\":752:753   */\n      dup1\n        /* \"#utility.yul\":745:757   */\n      revert\n        /* \"#utility.yul\":769:891   */\n    tag_62:\n        /* \"#utility.yul\":842:866   */\n      tag_108\n        /* \"#utility.yul\":860:865   */\n      dup2\n        /* \"#utility.yul\":842:866   */\n      tag_57\n      jump\t// in\n    tag_108:\n        /* \"#utility.yul\":835:840   */\n      dup2\n        /* \"#utility.yul\":832:867   */\n      eq\n        /* \"#utility.yul\":822:885   */\n      tag_109\n      jumpi\n        /* \"#utility.yul\":881:882   */\n      0x00\n        /* \"#utility.yul\":878:879   */\n      dup1\n        /* \"#utility.yul\":871:883   */\n      revert\n        /* \"#utility.yul\":822:885   */\n    tag_109:\n        /* \"#utility.yul\":769:891   */\n      pop\n      jump\t// out\n        /* \"#utility.yul\":897:1036   */\n    tag_63:\n        /* \"#utility.yul\":943:948   */\n      0x00\n        /* \"#utility.yul\":981:987   */\n      dup2\n        /* \"#utility.yul\":968:988   */\n      calldataload\n        /* \"#utility.yul\":959:988   */\n      swap1\n      pop\n        /* \"#utility.yul\":997:1030   */\n      tag_111\n        /* \"#utility.yul\":1024:1029   */\n      dup2\n        /* \"#utility.yul\":997:1030   */\n      tag_62\n      jump\t// in\n    tag_111:\n        /* \"#utility.yul\":897:1036   */\n      swap3\n      swap2\n      pop\n      pop\n      jump\t// out\n        /* \"#utility.yul\":1042:1516   */\n    tag_20:\n        /* \"#utility.yul\":1110:1116   */\n      0x00\n        /* \"#utility.yul\":1118:1124   */\n      dup1\n        /* \"#utility.yul\":1167:1169   */\n      0x40\n        /* \"#utility.yul\":1155:1164   */\n      dup4\n        /* \"#utility.yul\":1146:1153   */\n      dup6\n        /* \"#utility.yul\":1142:1165   */\n      sub\n        /* \"#utility.yul\":1138:1170   */\n      slt\n        /* \"#utility.yul\":1135:1254   */\n      iszero\n      tag_113\n      jumpi\n        /* \"#utility.yul\":1173:1252   */\n      tag_114\n      tag_60\n      jump\t// in\n    tag_114:\n        /* \"#utility.yul\":1135:1254   */\n    tag_113:\n        /* \"#utility.yul\":1293:1294   */\n      0x00\n        /* \"#utility.yul\":1318:1371   */\n      tag_115\n        /* \"#utility.yul\":1363:1370   */\n      dup6\n        /* \"#utility.yul\":1354:1360   */\n      dup3\n        /* \"#utility.yul\":1343:1352   */\n      dup7\n        /* \"#utility.yul\":1339:1361   */\n      add\n        /* \"#utility.yul\":1318:1371   */\n      tag_63\n      jump\t// in\n    tag_115:\n        /* \"#utility.yul\":1308:1371   */\n      swap3\n      pop\n        /* \"#utility.yul\":1264:1381   */\n      pop\n        /* \"#utility.yul\":1420:1422   */\n      0x20\n        /* \"#utility.yul\":1446:1499   */\n      tag_116\n        /* \"#utility.yul\":1491:1498   */\n      dup6\n        /* \"#utility.yul\":1482:1488   */\n      dup3\n        /* \"#utility.yul\":1471:1480   */\n      dup7\n        /* \"#utility.yul\":1467:1489   */\n      add\n        /* \"#utility.yul\":1446:1499   */\n      tag_63\n      jump\t// in\n    tag_116:\n        /* \"#utility.yul\":1436:1499   */\n      swap2\n      pop\n        /* \"#utility.yul\":1391:1509   */\n      pop\n        /* \"#utility.yul\":1042:1516   */\n      swap3\n      pop\n      swap3\n      swap1\n      pop\n      jump\t// out\n        /* \"#utility.yul\":1522:1621   */\n    tag_64:\n        /* \"#utility.yul\":1574:1580   */\n      0x00\n        /* \"#utility.yul\":1608:1613   */\n      dup2\n        /* \"#utility.yul\":1602:1614   */\n      mload\n        /* \"#utility.yul\":1592:1614   */\n      swap1\n      pop\n        /* \"#utility.yul\":1522:1621   */\n      swap2\n      swap1\n      pop\n      jump\t// out\n        /* \"#utility.yul\":1627:1796   */\n    tag_65:\n        /* \"#utility.yul\":1711:1722   */\n      0x00\n        /* \"#utility.yul\":1745:1751   */\n      dup3\n        /* \"#utility.yul\":1740:1743   */\n      dup3\n        /* \"#utility.yul\":1733:1752   */\n      mstore\n        /* \"#utility.yul\":1785:1789   */\n      0x20\n        /* \"#utility.yul\":1780:1783   */\n      dup3\n        /* \"#utility.yul\":1776:1790   */\n      add\n        /* \"#utility.yul\":1761:1790   */\n      swap1\n      pop\n        /* \"#utility.yul\":1627:1796   */\n      swap3\n      swap2\n      pop\n      pop\n      jump\t// out\n        /* \"#utility.yul\":1802:2048   */\n    tag_66:\n        /* \"#utility.yul\":1883:1884   */\n      0x00\n        /* \"#utility.yul\":1893:2006   */\n    tag_120:\n        /* \"#utility.yul\":1907:1913   */\n      dup4\n        /* \"#utility.yul\":1904:1905   */\n      dup2\n        /* \"#utility.yul\":1901:1914   */\n      lt\n        /* \"#utility.yul\":1893:2006   */\n      iszero\n      tag_122\n      jumpi\n        /* \"#utility.yul\":1992:1993   */\n      dup1\n        /* \"#utility.yul\":1987:1990   */\n      dup3\n        /* \"#utility.yul\":1983:1994   */\n      add\n        /* \"#utility.yul\":1977:1995   */\n      mload\n        /* \"#utility.yul\":1973:1974   */\n      dup2\n        /* \"#utility.yul\":1968:1971   */\n      dup5\n        /* \"#utility.yul\":1964:1975   */\n      add\n        /* \"#utility.yul\":1957:1996   */\n      mstore\n        /* \"#utility.yul\":1929:1931   */\n      0x20\n        /* \"#utility.yul\":1926:1927   */\n      dup2\n        /* \"#utility.yul\":1922:1932   */\n      add\n        /* \"#utility.yul\":1917:1932   */\n      swap1\n      pop\n        /* \"#utility.yul\":1893:2006   */\n      jump(tag_120)\n    tag_122:\n        /* \"#utility.yul\":2040:2041   */\n      0x00\n        /* \"#utility.yul\":2031:2037   */\n      dup5\n        /* \"#utility.yul\":2026:2029   */\n      dup5\n        /* \"#utility.yul\":2022:2038   */\n      add\n        /* \"#utility.yul\":2015:2042   */\n      mstore\n        /* \"#utility.yul\":1864:2048   */\n      pop\n        /* \"#utility.yul\":1802:2048   */\n      pop\n      pop\n      pop\n      jump\t// out\n        /* \"#utility.yul\":2054:2156   */\n    tag_67:\n        /* \"#utility.yul\":2095:2101   */\n      0x00\n        /* \"#utility.yul\":2146:2148   */\n      0x1f\n        /* \"#utility.yul\":2142:2149   */\n      not\n        /* \"#utility.yul\":2137:2139   */\n      0x1f\n        /* \"#utility.yul\":2130:2135   */\n      dup4\n        /* \"#utility.yul\":2126:2140   */\n      add\n        /* \"#utility.yul\":2122:2150   */\n      and\n        /* \"#utility.yul\":2112:2150   */\n      swap1\n      pop\n        /* \"#utility.yul\":2054:2156   */\n      swap2\n      swap1\n      pop\n      jump\t// out\n        /* \"#utility.yul\":2162:2539   */\n    tag_68:\n        /* \"#utility.yul\":2250:2253   */\n      0x00\n        /* \"#utility.yul\":2278:2317   */\n      tag_125\n        /* \"#utility.yul\":2311:2316   */\n      dup3\n        /* \"#utility.yul\":2278:2317   */\n      tag_64\n      jump\t// in\n    tag_125:\n        /* \"#utility.yul\":2333:2404   */\n      tag_126\n        /* \"#utility.yul\":2397:2403   */\n      dup2\n        /* \"#utility.yul\":2392:2395   */\n      dup6\n        /* \"#utility.yul\":2333:2404   */\n      tag_65\n      jump\t// in\n    tag_126:\n        /* \"#utility.yul\":2326:2404   */\n      swap4\n      pop\n        /* \"#utility.yul\":2413:2478   */\n      tag_127\n        /* \"#utility.yul\":2471:2477   */\n      dup2\n        /* \"#utility.yul\":2466:2469   */\n      dup6\n        /* \"#utility.yul\":2459:2463   */\n      0x20\n        /* \"#utility.yul\":2452:2457   */\n      dup7\n        /* \"#utility.yul\":2448:2464   */\n      add\n        /* \"#utility.yul\":2413:2478   */\n      tag_66\n      jump\t// in\n    tag_127:\n        /* \"#utility.yul\":2503:2532   */\n      tag_128\n        /* \"#utility.yul\":2525:2531   */\n      dup2\n        /* \"#utility.yul\":2503:2532   */\n      tag_67\n      jump\t// in\n    tag_128:\n        /* \"#utility.yul\":2498:2501   */\n      dup5\n        /* \"#utility.yul\":2494:2533   */\n      add\n        /* \"#utility.yul\":2487:2533   */\n      swap2\n      pop\n        /* \"#utility.yul\":2254:2539   */\n      pop\n        /* \"#utility.yul\":2162:2539   */\n      swap3\n      swap2\n      pop\n      pop\n      jump\t// out\n        /* \"#utility.yul\":2545:2858   */\n    tag_26:\n        /* \"#utility.yul\":2658:2662   */\n      0x00\n        /* \"#utility.yul\":2696:2698   */\n      0x20\n        /* \"#utility.yul\":2685:2694   */\n      dup3\n        /* \"#utility.yul\":2681:2699   */\n      add\n        /* \"#utility.yul\":2673:2699   */\n      swap1\n      pop\n        /* \"#utility.yul\":2745:2754   */\n      dup2\n        /* \"#utility.yul\":2739:2743   */\n      dup2\n        /* \"#utility.yul\":2735:2755   */\n      sub\n        /* \"#utility.yul\":2731:2732   */\n      0x00\n        /* \"#utility.yul\":2720:2729   */\n      dup4\n        /* \"#utility.yul\":2716:2733   */\n      add\n        /* \"#utility.yul\":2709:2756   */\n      mstore\n        /* \"#utility.yul\":2773:2851   */\n      tag_130\n        /* \"#utility.yul\":2846:2850   */\n      dup2\n        /* \"#utility.yul\":2837:2843   */\n      dup5\n        /* \"#utility.yul\":2773:2851   */\n      tag_68\n      jump\t// in\n    tag_130:\n        /* \"#utility.yul\":2765:2851   */\n      swap1\n      pop\n        /* \"#utility.yul\":2545:2858   */\n      swap3\n      swap2\n      pop\n      pop\n      jump\t// out\n        /* \"#utility.yul\":2864:2981   */\n    tag_69:\n        /* \"#utility.yul\":2973:2974   */\n      0x00\n        /* \"#utility.yul\":2970:2971   */\n      dup1\n        /* \"#utility.yul\":2963:2975   */\n      revert\n        /* \"#utility.yul\":2987:3104   */\n    tag_70:\n        /* \"#utility.yul\":3096:3097   */\n      0x00\n        /* \"#utility.yul\":3093:3094   */\n      dup1\n        /* \"#utility.yul\":3086:3098   */\n      revert\n        /* \"#utility.yul\":3110:3290   */\n    tag_71:\n        /* \"#utility.yul\":3158:3235   */\n      0x4e487b7100000000000000000000000000000000000000000000000000000000\n        /* \"#utility.yul\":3155:3156   */\n      0x00\n        /* \"#utility.yul\":3148:3236   */\n      mstore\n        /* \"#utility.yul\":3255:3259   */\n      0x41\n        /* \"#utility.yul\":3252:3253   */\n      0x04\n        /* \"#utility.yul\":3245:3260   */\n      mstore\n        /* \"#utility.yul\":3279:3283   */\n      0x24\n        /* \"#utility.yul\":3276:3277   */\n      0x00\n        /* \"#utility.yul\":3269:3284   */\n      revert\n        /* \"#utility.yul\":3296:3577   */\n    tag_72:\n        /* \"#utility.yul\":3379:3406   */\n      tag_135\n        /* \"#utility.yul\":3401:3405   */\n      dup3\n        /* \"#utility.yul\":3379:3406   */\n      tag_67\n      jump\t// in\n    tag_135:\n        /* \"#utility.yul\":3371:3377   */\n      dup2\n        /* \"#utility.yul\":3367:3407   */\n      add\n        /* \"#utility.yul\":3509:3515   */\n      dup2\n        /* \"#utility.yul\":3497:3507   */\n      dup2\n        /* \"#utility.yul\":3494:3516   */\n      lt\n        /* \"#utility.yul\":3473:3491   */\n      0xffffffffffffffff\n        /* \"#utility.yul\":3461:3471   */\n      dup3\n        /* \"#utility.yul\":3458:3492   */\n      gt\n        /* \"#utility.yul\":3455:3517   */\n      or\n        /* \"#utility.yul\":3452:3540   */\n      iszero\n      tag_136\n      jumpi\n        /* \"#utility.yul\":3520:3538   */\n      tag_137\n      tag_71\n      jump\t// in\n    tag_137:\n        /* \"#utility.yul\":3452:3540   */\n    tag_136:\n        /* \"#utility.yul\":3560:3570   */\n      dup1\n        /* \"#utility.yul\":3556:3558   */\n      0x40\n        /* \"#utility.yul\":3549:3571   */\n      mstore\n        /* \"#utility.yul\":3339:3577   */\n      pop\n        /* \"#utility.yul\":3296:3577   */\n      pop\n      pop\n      jump\t// out\n        /* \"#utility.yul\":3583:3712   */\n    tag_73:\n        /* \"#utility.yul\":3617:3623   */\n      0x00\n        /* \"#utility.yul\":3644:3664   */\n      tag_139\n      tag_59\n      jump\t// in\n    tag_139:\n        /* \"#utility.yul\":3634:3664   */\n      swap1\n      pop\n        /* \"#utility.yul\":3673:3706   */\n      tag_140\n        /* \"#utility.yul\":3701:3705   */\n      dup3\n        /* \"#utility.yul\":3693:3699   */\n      dup3\n        /* \"#utility.yul\":3673:3706   */\n      tag_72\n      jump\t// in\n    tag_140:\n        /* \"#utility.yul\":3583:3712   */\n      swap2\n      swap1\n      pop\n      jump\t// out\n        /* \"#utility.yul\":3718:4026   */\n    tag_74:\n        /* \"#utility.yul\":3780:3784   */\n      0x00\n        /* \"#utility.yul\":3870:3888   */\n      0xffffffffffffffff\n        /* \"#utility.yul\":3862:3868   */\n      dup3\n        /* \"#utility.yul\":3859:3889   */\n      gt\n        /* \"#utility.yul\":3856:3912   */\n      iszero\n      tag_142\n      jumpi\n        /* \"#utility.yul\":3892:3910   */\n      tag_143\n      tag_71\n      jump\t// in\n    tag_143:\n        /* \"#utility.yul\":3856:3912   */\n    tag_142:\n        /* \"#utility.yul\":3930:3959   */\n      tag_144\n        /* \"#utility.yul\":3952:3958   */\n      dup3\n        /* \"#utility.yul\":3930:3959   */\n      tag_67\n      jump\t// in\n    tag_144:\n        /* \"#utility.yul\":3922:3959   */\n      swap1\n      pop\n        /* \"#utility.yul\":4014:4018   */\n      0x20\n        /* \"#utility.yul\":4008:4012   */\n      dup2\n        /* \"#utility.yul\":4004:4019   */\n      add\n        /* \"#utility.yul\":3996:4019   */\n      swap1\n      pop\n        /* \"#utility.yul\":3718:4026   */\n      swap2\n      swap1\n      pop\n      jump\t// out\n        /* \"#utility.yul\":4032:4178   */\n    tag_75:\n        /* \"#utility.yul\":4129:4135   */\n      dup3\n        /* \"#utility.yul\":4124:4127   */\n      dup2\n        /* \"#utility.yul\":4119:4122   */\n      dup4\n        /* \"#utility.yul\":4106:4136   */\n      calldatacopy\n        /* \"#utility.yul\":4170:4171   */\n      0x00\n        /* \"#utility.yul\":4161:4167   */\n      dup4\n        /* \"#utility.yul\":4156:4159   */\n      dup4\n        /* \"#utility.yul\":4152:4168   */\n      add\n        /* \"#utility.yul\":4145:4172   */\n      mstore\n        /* \"#utility.yul\":4032:4178   */\n      pop\n      pop\n      pop\n      jump\t// out\n        /* \"#utility.yul\":4184:4609   */\n    tag_76:\n        /* \"#utility.yul\":4262:4267   */\n      0x00\n        /* \"#utility.yul\":4287:4353   */\n      tag_147\n        /* \"#utility.yul\":4303:4352   */\n      tag_148\n        /* \"#utility.yul\":4345:4351   */\n      dup5\n        /* \"#utility.yul\":4303:4352   */\n      tag_74\n      jump\t// in\n    tag_148:\n        /* \"#utility.yul\":4287:4353   */\n      tag_73\n      jump\t// in\n    tag_147:\n        /* \"#utility.yul\":4278:4353   */\n      swap1\n      pop\n        /* \"#utility.yul\":4376:4382   */\n      dup3\n        /* \"#utility.yul\":4369:4374   */\n      dup2\n        /* \"#utility.yul\":4362:4383   */\n      mstore\n        /* \"#utility.yul\":4414:4418   */\n      0x20\n        /* \"#utility.yul\":4407:4412   */\n      dup2\n        /* \"#utility.yul\":4403:4419   */\n      add\n        /* \"#utility.yul\":4452:4455   */\n      dup5\n        /* \"#utility.yul\":4443:4449   */\n      dup5\n        /* \"#utility.yul\":4438:4441   */\n      dup5\n        /* \"#utility.yul\":4434:4450   */\n      add\n        /* \"#utility.yul\":4431:4456   */\n      gt\n        /* \"#utility.yul\":4428:4540   */\n      iszero\n      tag_149\n      jumpi\n        /* \"#utility.yul\":4459:4538   */\n      tag_150\n      tag_70\n      jump\t// in\n    tag_150:\n        /* \"#utility.yul\":4428:4540   */\n    tag_149:\n        /* \"#utility.yul\":4549:4603   */\n      tag_151\n        /* \"#utility.yul\":4596:4602   */\n      dup5\n        /* \"#utility.yul\":4591:4594   */\n      dup3\n        /* \"#utility.yul\":4586:4589   */\n      dup6\n        /* \"#utility.yul\":4549:4603   */\n      tag_75\n      jump\t// in\n    tag_151:\n        /* \"#utility.yul\":4268:4609   */\n      pop\n        /* \"#utility.yul\":4184:4609   */\n      swap4\n      swap3\n      pop\n      pop\n      pop\n      jump\t// out\n        /* \"#utility.yul\":4629:4969   */\n    tag_77:\n        /* \"#utility.yul\":4685:4690   */\n      0x00\n        /* \"#utility.yul\":4734:4737   */\n      dup3\n        /* \"#utility.yul\":4727:4731   */\n      0x1f\n        /* \"#utility.yul\":4719:4725   */\n      dup4\n        /* \"#utility.yul\":4715:4732   */\n      add\n        /* \"#utility.yul\":4711:4738   */\n      slt\n        /* \"#utility.yul\":4701:4823   */\n      tag_153\n      jumpi\n        /* \"#utility.yul\":4742:4821   */\n      tag_154\n      tag_69\n      jump\t// in\n    tag_154:\n        /* \"#utility.yul\":4701:4823   */\n    tag_153:\n        /* \"#utility.yul\":4859:4865   */\n      dup2\n        /* \"#utility.yul\":4846:4866   */\n      calldataload\n        /* \"#utility.yul\":4884:4963   */\n      tag_155\n        /* \"#utility.yul\":4959:4962   */\n      dup5\n        /* \"#utility.yul\":4951:4957   */\n      dup3\n        /* \"#utility.yul\":4944:4948   */\n      0x20\n        /* \"#utility.yul\":4936:4942   */\n      dup7\n        /* \"#utility.yul\":4932:4949   */\n      add\n        /* \"#utility.yul\":4884:4963   */\n      tag_76\n      jump\t// in\n    tag_155:\n        /* \"#utility.yul\":4875:4963   */\n      swap2\n      pop\n        /* \"#utility.yul\":4691:4969   */\n      pop\n        /* \"#utility.yul\":4629:4969   */\n      swap3\n      swap2\n      pop\n      pop\n      jump\t// out\n        /* \"#utility.yul\":4975:5484   */\n    tag_29:\n        /* \"#utility.yul\":5044:5050   */\n      0x00\n        /* \"#utility.yul\":5093:5095   */\n      0x20\n        /* \"#utility.yul\":5081:5090   */\n      dup3\n        /* \"#utility.yul\":5072:5079   */\n      dup5\n        /* \"#utility.yul\":5068:5091   */\n      sub\n        /* \"#utility.yul\":5064:5096   */\n      slt\n        /* \"#utility.yul\":5061:5180   */\n      iszero\n      tag_157\n      jumpi\n        /* \"#utility.yul\":5099:5178   */\n      tag_158\n      tag_60\n      jump\t// in\n    tag_158:\n        /* \"#utility.yul\":5061:5180   */\n    tag_157:\n        /* \"#utility.yul\":5247:5248   */\n      0x00\n        /* \"#utility.yul\":5236:5245   */\n      dup3\n        /* \"#utility.yul\":5232:5249   */\n      add\n        /* \"#utility.yul\":5219:5250   */\n      calldataload\n        /* \"#utility.yul\":5277:5295   */\n      0xffffffffffffffff\n        /* \"#utility.yul\":5269:5275   */\n      dup2\n        /* \"#utility.yul\":5266:5296   */\n      gt\n        /* \"#utility.yul\":5263:5380   */\n      iszero\n      tag_159\n      jumpi\n        /* \"#utility.yul\":5299:5378   */\n      tag_160\n      tag_61\n      jump\t// in\n    tag_160:\n        /* \"#utility.yul\":5263:5380   */\n    tag_159:\n        /* \"#utility.yul\":5404:5467   */\n      tag_161\n        /* \"#utility.yul\":5459:5466   */\n      dup5\n        /* \"#utility.yul\":5450:5456   */\n      dup3\n        /* \"#utility.yul\":5439:5448   */\n      dup6\n        /* \"#utility.yul\":5435:5457   */\n      add\n        /* \"#utility.yul\":5404:5467   */\n      tag_77\n      jump\t// in\n    tag_161:\n        /* \"#utility.yul\":5394:5467   */\n      swap2\n      pop\n        /* \"#utility.yul\":5190:5477   */\n      pop\n        /* \"#utility.yul\":4975:5484   */\n      swap3\n      swap2\n      pop\n      pop\n      jump\t// out\n        /* \"#utility.yul\":5490:5670   */\n    tag_78:\n        /* \"#utility.yul\":5538:5615   */\n      0x4e487b7100000000000000000000000000000000000000000000000000000000\n        /* \"#utility.yul\":5535:5536   */\n      0x00\n        /* \"#utility.yul\":5528:5616   */\n      mstore\n        /* \"#utility.yul\":5635:5639   */\n      0x11\n        /* \"#utility.yul\":5632:5633   */\n      0x04\n        /* \"#utility.yul\":5625:5640   */\n      mstore\n        /* \"#utility.yul\":5659:5663   */\n      0x24\n        /* \"#utility.yul\":5656:5657   */\n      0x00\n        /* \"#utility.yul\":5649:5664   */\n      revert\n        /* \"#utility.yul\":5676:5867   */\n    tag_40:\n        /* \"#utility.yul\":5716:5719   */\n      0x00\n        /* \"#utility.yul\":5735:5755   */\n      tag_164\n        /* \"#utility.yul\":5753:5754   */\n      dup3\n        /* \"#utility.yul\":5735:5755   */\n      tag_57\n      jump\t// in\n    tag_164:\n        /* \"#utility.yul\":5730:5755   */\n      swap2\n      pop\n        /* \"#utility.yul\":5769:5789   */\n      tag_165\n        /* \"#utility.yul\":5787:5788   */\n      dup4\n        /* \"#utility.yul\":5769:5789   */\n      tag_57\n      jump\t// in\n    tag_165:\n        /* \"#utility.yul\":5764:5789   */\n      swap3\n      pop\n        /* \"#utility.yul\":5812:5813   */\n      dup3\n        /* \"#utility.yul\":5809:5810   */\n      dup3\n        /* \"#utility.yul\":5805:5814   */\n      add\n        /* \"#utility.yul\":5798:5814   */\n      swap1\n      pop\n        /* \"#utility.yul\":5833:5836   */\n      dup1\n        /* \"#utility.yul\":5830:5831   */\n      dup3\n        /* \"#utility.yul\":5827:5837   */\n      gt\n        /* \"#utility.yul\":5824:5860   */\n      iszero\n      tag_166\n      jumpi\n        /* \"#utility.yul\":5840:5858   */\n      tag_167\n      tag_78\n      jump\t// in\n    tag_167:\n        /* \"#utility.yul\":5824:5860   */\n    tag_166:\n        /* \"#utility.yul\":5676:5867   */\n      swap3\n      swap2\n      pop\n      pop\n      jump\t// out\n        /* \"#utility.yul\":5873:6053   */\n    tag_79:\n        /* \"#utility.yul\":5921:5998   */\n      0x4e487b7100000000000000000000000000000000000000000000000000000000\n        /* \"#utility.yul\":5918:5919   */\n      0x00\n        /* \"#utility.yul\":5911:5999   */\n      mstore\n        /* \"#utility.yul\":6018:6022   */\n      0x22\n        /* \"#utility.yul\":6015:6016   */\n      0x04\n        /* \"#utility.yul\":6008:6023   */\n      mstore\n        /* \"#utility.yul\":6042:6046   */\n      0x24\n        /* \"#utility.yul\":6039:6040   */\n      0x00\n        /* \"#utility.yul\":6032:6047   */\n      revert\n        /* \"#utility.yul\":6059:6379   */\n    tag_42:\n        /* \"#utility.yul\":6103:6109   */\n      0x00\n        /* \"#utility.yul\":6140:6141   */\n      0x02\n        /* \"#utility.yul\":6134:6138   */\n      dup3\n        /* \"#utility.yul\":6130:6142   */\n      div\n        /* \"#utility.yul\":6120:6142   */\n      swap1\n      pop\n        /* \"#utility.yul\":6187:6188   */\n      0x01\n        /* \"#utility.yul\":6181:6185   */\n      dup3\n        /* \"#utility.yul\":6177:6189   */\n      and\n        /* \"#utility.yul\":6208:6226   */\n      dup1\n        /* \"#utility.yul\":6198:6279   */\n      tag_170\n      jumpi\n        /* \"#utility.yul\":6264:6268   */\n      0x7f\n        /* \"#utility.yul\":6256:6262   */\n      dup3\n        /* \"#utility.yul\":6252:6269   */\n      and\n        /* \"#utility.yul\":6242:6269   */\n      swap2\n      pop\n        /* \"#utility.yul\":6198:6279   */\n    tag_170:\n        /* \"#utility.yul\":6326:6328   */\n      0x20\n        /* \"#utility.yul\":6318:6324   */\n      dup3\n        /* \"#utility.yul\":6315:6329   */\n      lt\n        /* \"#utility.yul\":6295:6313   */\n      dup2\n        /* \"#utility.yul\":6292:6330   */\n      sub\n        /* \"#utility.yul\":6289:6373   */\n      tag_171\n      jumpi\n        /* \"#utility.yul\":6345:6363   */\n      tag_172\n      tag_79\n      jump\t// in\n    tag_172:\n        /* \"#utility.yul\":6289:6373   */\n    tag_171:\n        /* \"#utility.yul\":6110:6379   */\n      pop\n        /* \"#utility.yul\":6059:6379   */\n      swap2\n      swap1\n      pop\n      jump\t// out\n        /* \"#utility.yul\":6385:6526   */\n    tag_80:\n        /* \"#utility.yul\":6434:6438   */\n      0x00\n        /* \"#utility.yul\":6457:6460   */\n      dup2\n        /* \"#utility.yul\":6449:6460   */\n      swap1\n      pop\n        /* \"#utility.yul\":6480:6483   */\n      dup2\n        /* \"#utility.yul\":6477:6478   */\n      0x00\n        /* \"#utility.yul\":6470:6484   */\n      mstore\n        /* \"#utility.yul\":6514:6518   */\n      0x20\n        /* \"#utility.yul\":6511:6512   */\n      0x00\n        /* \"#utility.yul\":6501:6519   */\n      keccak256\n        /* \"#utility.yul\":6493:6519   */\n      swap1\n      pop\n        /* \"#utility.yul\":6385:6526   */\n      swap2\n      swap1\n      pop\n      jump\t// out\n        /* \"#utility.yul\":6532:6625   */\n    tag_81:\n        /* \"#utility.yul\":6569:6575   */\n      0x00\n        /* \"#utility.yul\":6616:6618   */\n      0x20\n        /* \"#utility.yul\":6611:6613   */\n      0x1f\n        /* \"#utility.yul\":6604:6609   */\n      dup4\n        /* \"#utility.yul\":6600:6614   */\n      add\n        /* \"#utility.yul\":6596:6619   */\n      div\n        /* \"#utility.yul\":6586:6619   */\n      swap1\n      pop\n        /* \"#utility.yul\":6532:6625   */\n      swap2\n      swap1\n      pop\n      jump\t// out\n        /* \"#utility.yul\":6631:6738   */\n    tag_82:\n        /* \"#utility.yul\":6675:6683   */\n      0x00\n        /* \"#utility.yul\":6725:6730   */\n      dup3\n        /* \"#utility.yul\":6719:6723   */\n      dup3\n        /* \"#utility.yul\":6715:6731   */\n      shl\n        /* \"#utility.yul\":6694:6731   */\n      swap1\n      pop\n        /* \"#utility.yul\":6631:6738   */\n      swap3\n      swap2\n      pop\n      pop\n      jump\t// out\n        /* \"#utility.yul\":6744:7137   */\n    tag_83:\n        /* \"#utility.yul\":6813:6819   */\n      0x00\n        /* \"#utility.yul\":6863:6864   */\n      0x08\n        /* \"#utility.yul\":6851:6861   */\n      dup4\n        /* \"#utility.yul\":6847:6865   */\n      mul\n        /* \"#utility.yul\":6886:6983   */\n      tag_177\n        /* \"#utility.yul\":6916:6982   */\n      0xffffffffffffffffffffffffffffffffffffffffffffffffffffffffffffffff\n        /* \"#utility.yul\":6905:6914   */\n      dup3\n        /* \"#utility.yul\":6886:6983   */\n      tag_82\n      jump\t// in\n    tag_177:\n        /* \"#utility.yul\":7004:7043   */\n      tag_178\n        /* \"#utility.yul\":7034:7042   */\n      dup7\n        /* \"#utility.yul\":7023:7032   */\n      dup4\n        /* \"#utility.yul\":7004:7043   */\n      tag_82\n      jump\t// in\n    tag_178:\n        /* \"#utility.yul\":6992:7043   */\n      swap6\n      pop\n        /* \"#utility.yul\":7076:7080   */\n      dup1\n        /* \"#utility.yul\":7072:7081   */\n      not\n        /* \"#utility.yul\":7065:7070   */\n      dup5\n        /* \"#utility.yul\":7061:7082   */\n      and\n        /* \"#utility.yul\":7052:7082   */\n      swap4\n      pop\n        /* \"#utility.yul\":7125:7129   */\n      dup1\n        /* \"#utility.yul\":7115:7123   */\n      dup7\n        /* \"#utility.yul\":7111:7130   */\n      and\n        /* \"#utility.yul\":7104:7109   */\n      dup5\n        /* \"#utility.yul\":7101:7131   */\n      or\n        /* \"#utility.yul\":7091:7131   */\n      swap3\n      pop\n        /* \"#utility.yul\":6820:7137   */\n      pop\n      pop\n        /* \"#utility.yul\":6744:7137   */\n      swap4\n      swap3\n      pop\n      pop\n      pop\n      jump\t// out\n        /* \"#utility.yul\":7143:7203   */\n    tag_84:\n        /* \"#utility.yul\":7171:7174   */\n      0x00\n        /* \"#utility.yul\":7192:7197   */\n      dup2\n        /* \"#utility.yul\":7185:7197   */\n      swap1\n      pop\n        /* \"#utility.yul\":7143:7203   */\n      swap2\n      swap1\n      pop\n      jump\t// out\n        /* \"#utility.yul\":7209:7351   */\n    tag_85:\n        /* \"#utility.yul\":7259:7268   */\n      0x00\n        /* \"#utility.yul\":7292:7345   */\n      tag_181\n        /* \"#utility.yul\":7310:7344   */\n      tag_182\n        /* \"#utility.yul\":7319:7343   */\n      tag_183\n        /* \"#utility.yul\":7337:7342   */\n      dup5\n        /* \"#utility.yul\":7319:7343   */\n      tag_57\n      jump\t// in\n    tag_183:\n        /* \"#utility.yul\":7310:7344   */\n      tag_84\n      jump\t// in\n    tag_182:\n        /* \"#utility.yul\":7292:7345   */\n      tag_57\n      jump\t// in\n    tag_181:\n        /* \"#utility.yul\":7279:7345   */\n      swap1\n      pop\n        /* \"#utility.yul\":7209:7351   */\n      swap2\n      swap1\n      pop\n      jump\t// out\n        /* \"#utility.yul\":7357:7432   */\n    tag_86:\n        /* \"#utility.yul\":7400:7403   */\n      0x00\n        /* \"#utility.yul\":7421:7426   */\n      dup2\n        /* \"#utility.yul\":7414:7426   */\n      swap1\n      pop\n        /* \"#utility.yul\":7357:7432   */\n      swap2\n      swap1\n      pop\n      jump\t// out\n        /* \"#utility.yul\":7438:7707   */\n    tag_87:\n        /* \"#utility.yul\":7548:7587   */\n      tag_186\n        /* \"#utility.yul\":7579:7586   */\n      dup4\n        /* \"#utility.yul\":7548:7587   */\n      tag_85\n      jump\t// in\n    tag_186:\n        /* \"#utility.yul\":7609:7700   */\n      tag_187\n        /* \"#utility.yul\":7658:7699   */\n      tag_188\n        /* \"#utility.yul\":7682:7698   */\n      dup3\n        /* \"#utility.yul\":7658:7699   */\n      tag_86\n      jump\t// in\n    tag_188:\n        /* \"#utility.yul\":7650:7656   */\n      dup5\n        /* \"#utility.yul\":7643:7647   */\n      dup5\n        /* \"#utility.yul\":7637:7648   */\n      sload\n        /* \"#utility.yul\":7609:7700   */\n      tag_83\n      jump\t// in\n    tag_187:\n        /* \"#utility.yul\":7603:7607   */\n      dup3\n        /* \"#utility.yul\":7596:7701   */\n      sstore\n        /* \"#utility.yul\":7514:7707   */\n      pop\n        /* \"#utility.yul\":7438:7707   */\n      pop\n      pop\n      pop\n      jump\t// out\n        /* \"#utility.yul\":7713:7786   */\n    tag_88:\n        /* \"#utility.yul\":7758:7761   */\n      0x00\n        /* \"#utility.yul\":7713:7786   */\n      swap1\n      jump\t// out\n        /* \"#utility.yul\":7792:7981   */\n    tag_89:\n        /* \"#utility.yul\":7869:7901   */\n      tag_191\n      tag_88\n      jump\t// in\n    tag_191:\n        /* \"#utility.yul\":7910:7975   */\n      tag_192\n        /* \"#utility.yul\":7968:7974   */\n      dup2\n        /* \"#utility.yul\":7960:7966   */\n      dup5\n        /* \"#utility.yul\":7954:7958   */\n      dup5\n        /* \"#utility.yul\":7910:7975   */\n      tag_87\n      jump\t// in\n    tag_192:\n        /* \"#utility.yul\":7845:7981   */\n      pop\n        /* \"#utility.yul\":7792:7981   */\n      pop\n      pop\n      jump\t// out\n        /* \"#utility.yul\":7987:8173   */\n    tag_90:\n        /* \"#utility.yul\":8047:8167   */\n    tag_194:\n        /* \"#utility.yul\":8064:8067   */\n      dup2\n        /* \"#utility.yul\":8057:8062   */\n      dup2\n        /* \"#utility.yul\":8054:8068   */\n      lt\n        /* \"#utility.yul\":8047:8167   */\n      iszero\n      tag_196\n      jumpi\n        /* \"#utility.yul\":8118:8157   */\n      tag_197\n        /* \"#utility.yul\":8155:8156   */\n      0x00\n        /* \"#utility.yul\":8148:8153   */\n      dup3\n        /* \"#utility.yul\":8118:8157   */\n      tag_89\n      jump\t// in\n    tag_197:\n        /* \"#utility.yul\":8091:8092   */\n      0x01\n        /* \"#utility.yul\":8084:8089   */\n      dup2\n        /* \"#utility.yul\":8080:8093   */\n      add\n        /* \"#utility.yul\":8071:8093   */\n      swap1\n      pop\n        /* \"#utility.yul\":8047:8167   */\n      jump(tag_194)\n    tag_196:\n        /* \"#utility.yul\":7987:8173   */\n      pop\n      pop\n      jump\t// out\n        /* \"#utility.yul\":8179:8722   */\n    tag_91:\n        /* \"#utility.yul\":8280:8282   */\n      0x1f\n        /* \"#utility.yul\":8275:8278   */\n      dup3\n        /* \"#utility.yul\":8272:8283   */\n      gt\n        /* \"#utility.yul\":8269:8715   */\n      iszero\n      tag_199\n      jumpi\n        /* \"#utility.yul\":8314:8352   */\n      tag_200\n        /* \"#utility.yul\":8346:8351   */\n      dup2\n        /* \"#utility.yul\":8314:8352   */\n      tag_80\n      jump\t// in\n    tag_200:\n        /* \"#utility.yul\":8398:8427   */\n      tag_201\n        /* \"#utility.yul\":8416:8426   */\n      dup5\n        /* \"#utility.yul\":8398:8427   */\n      tag_81\n      jump\t// in\n    tag_201:\n        /* \"#utility.yul\":8388:8396   */\n      dup2\n        /* \"#utility.yul\":8384:8428   */\n      add\n        /* \"#utility.yul\":8581:8583   */\n      0x20\n        /* \"#utility.yul\":8569:8579   */\n      dup6\n        /* \"#utility.yul\":8566:8584   */\n      lt\n        /* \"#utility.yul\":8563:8612   */\n      iszero\n      tag_202\n      jumpi\n        /* \"#utility.yul\":8602:8610   */\n      dup2\n        /* \"#utility.yul\":8587:8610   */\n      swap1\n      pop\n        /* \"#utility.yul\":8563:8612   */\n    tag_202:\n        /* \"#utility.yul\":8625:8705   */\n      tag_203\n        /* \"#utility.yul\":8681:8703   */\n      tag_204\n        /* \"#utility.yul\":8699:8702   */\n      dup6\n        /* \"#utility.yul\":8681:8703   */\n      tag_81\n      jump\t// in\n    tag_204:\n        /* \"#utility.yul\":8671:8679   */\n      dup4\n        /* \"#utility.yul\":8667:8704   */\n      add\n        /* \"#utility.yul\":8654:8665   */\n      dup3\n        /* \"#utility.yul\":8625:8705   */\n      tag_90\n      jump\t// in\n    tag_203:\n        /* \"#utility.yul\":8284:8715   */\n      pop\n      pop\n        /* \"#utility.yul\":8269:8715   */\n    tag_199:\n        /* \"#utility.yul\":8179:8722   */\n      pop\n      pop\n      pop\n      jump\t// out\n        /* \"#utility.yul\":8728:8845   */\n    tag_92:\n        /* \"#utility.yul\":8782:8790   */\n      0x00\n        /* \"#utility.yul\":8832:8837   */\n      dup3\n        /* \"#utility.yul\":8826:8830   */\n      dup3\n        /* \"#utility.yul\":8822:8838   */\n      shr\n        /* \"#utility.yul\":8801:8838   */\n      swap1\n      pop\n        /* \"#utility.yul\":8728:8845   */\n      swap3\n      swap2\n      pop\n      pop\n      jump\t// out\n        /* \"#utility.yul\":8851:9020   */\n    tag_93:\n        /* \"#utility.yul\":8895:8901   */\n      0x00\n        /* \"#utility.yul\":8928:8979   */\n      tag_207\n        /* \"#utility.yul\":8976:8977   */\n      0x00\n        /* \"#utility.yul\":8972:8978   */\n      not\n        /* \"#utility.yul\":8964:8969   */\n      dup5\n        /* \"#utility.yul\":8961:8962   */\n      0x08\n        /* \"#utility.yul\":8957:8970   */\n      mul\n        /* \"#utility.yul\":8928:8979   */\n      tag_92\n      jump\t// in\n    tag_207:\n        /* \"#utility.yul\":8924:8980   */\n      not\n        /* \"#utility.yul\":9009:9013   */\n      dup1\n        /* \"#utility.yul\":9003:9007   */\n      dup4\n        /* \"#utility.yul\":8999:9014   */\n      and\n        /* \"#utility.yul\":8989:9014   */\n      swap2\n      pop\n        /* \"#utility.yul\":8902:9020   */\n      pop\n        /* \"#utility.yul\":8851:9020   */\n      swap3\n      swap2\n      pop\n      pop\n      jump\t// out\n        /* \"#utility.yul\":9025:9320   */\n    tag_94:\n        /* \"#utility.yul\":9101:9105   */\n      0x00\n        /* \"#utility.yul\":9247:9276   */\n      tag_209\n        /* \"#utility.yul\":9272:9275   */\n      dup4\n        /* \"#utility.yul\":9266:9270   */\n      dup4\n        /* \"#utility.yul\":9247:9276   */\n      tag_93\n      jump\t// in\n    tag_209:\n        /* \"#utility.yul\":9239:9276   */\n      swap2\n      pop\n        /* \"#utility.yul\":9309:9312   */\n      dup3\n        /* \"#utility.yul\":9306:9307   */\n      0x02\n        /* \"#utility.yul\":9302:9313   */\n      mul\n        /* \"#utility.yul\":9296:9300   */\n      dup3\n        /* \"#utility.yul\":9293:9314   */\n      or\n        /* \"#utility.yul\":9285:9314   */\n      swap1\n      pop\n        /* \"#utility.yul\":9025:9320   */\n      swap3\n      swap2\n      pop\n      pop\n      jump\t// out\n        /* \"#utility.yul\":9325:10720   */\n    tag_49:\n        /* \"#utility.yul\":9442:9479   */\n      tag_211\n        /* \"#utility.yul\":9475:9478   */\n      dup3\n        /* \"#utility.yul\":9442:9479   */\n      tag_64\n      jump\t// in\n    tag_211:\n        /* \"#utility.yul\":9544:9562   */\n      0xffffffffffffffff\n        /* \"#utility.yul\":9536:9542   */\n      dup2\n        /* \"#utility.yul\":9533:9563   */\n      gt\n        /* \"#utility.yul\":9530:9586   */\n      iszero\n      tag_212\n      jumpi\n        /* \"#utility.yul\":9566:9584   */\n      tag_213\n      tag_71\n      jump\t// in\n    tag_213:\n        /* \"#utility.yul\":9530:9586   */\n    tag_212:\n        /* \"#utility.yul\":9610:9648   */\n      tag_214\n        /* \"#utility.yul\":9642:9646   */\n      dup3\n        /* \"#utility.yul\":9636:9647   */\n      sload\n        /* \"#utility.yul\":9610:9648   */\n      tag_42\n      jump\t// in\n    tag_214:\n        /* \"#utility.yul\":9695:9762   */\n      tag_215\n        /* \"#utility.yul\":9755:9761   */\n      dup3\n        /* \"#utility.yul\":9747:9753   */\n      dup3\n        /* \"#utility.yul\":9741:9745   */\n      dup6\n        /* \"#utility.yul\":9695:9762   */\n      tag_91\n      jump\t// in\n    tag_215:\n        /* \"#utility.yul\":9789:9790   */\n      0x00\n        /* \"#utility.yul\":9813:9817   */\n      0x20\n        /* \"#utility.yul\":9800:9817   */\n      swap1\n      pop\n        /* \"#utility.yul\":9845:9847   */\n      0x1f\n        /* \"#utility.yul\":9837:9843   */\n      dup4\n        /* \"#utility.yul\":9834:9848   */\n      gt\n        /* \"#utility.yul\":9862:9863   */\n      0x01\n        /* \"#utility.yul\":9857:10475   */\n      dup2\n      eq\n      tag_217\n      jumpi\n        /* \"#utility.yul\":10519:10520   */\n      0x00\n        /* \"#utility.yul\":10536:10542   */\n      dup5\n        /* \"#utility.yul\":10533:10610   */\n      iszero\n      tag_218\n      jumpi\n        /* \"#utility.yul\":10585:10594   */\n      dup3\n        /* \"#utility.yul\":10580:10583   */\n      dup8\n        /* \"#utility.yul\":10576:10595   */\n      add\n        /* \"#utility.yul\":10570:10596   */\n      mload\n        /* \"#utility.yul\":10561:10596   */\n      swap1\n      pop\n        /* \"#utility.yul\":10533:10610   */\n    tag_218:\n        /* \"#utility.yul\":10636:10703   */\n      tag_219\n        /* \"#utility.yul\":10696:10702   */\n      dup6\n        /* \"#utility.yul\":10689:10694   */\n      dup3\n        /* \"#utility.yul\":10636:10703   */\n      tag_94\n      jump\t// in\n    tag_219:\n        /* \"#utility.yul\":10630:10634   */\n      dup7\n        /* \"#utility.yul\":10623:10704   */\n      sstore\n        /* \"#utility.yul\":10492:10714   */\n      pop\n        /* \"#utility.yul\":9827:10714   */\n      jump(tag_216)\n        /* \"#utility.yul\":9857:10475   */\n    tag_217:\n        /* \"#utility.yul\":9909:9913   */\n      0x1f\n        /* \"#utility.yul\":9905:9914   */\n      not\n        /* \"#utility.yul\":9897:9903   */\n      dup5\n        /* \"#utility.yul\":9893:9915   */\n      and\n        /* \"#utility.yul\":9943:9980   */\n      tag_220\n        /* \"#utility.yul\":9975:9979   */\n      dup7\n        /* \"#utility.yul\":9943:9980   */\n      tag_80\n      jump\t// in\n    tag_220:\n        /* \"#utility.yul\":10002:10003   */\n      0x00\n        /* \"#utility.yul\":10016:10224   */\n    tag_221:\n        /* \"#utility.yul\":10030:10037   */\n      dup3\n        /* \"#utility.yul\":10027:10028   */\n      dup2\n        /* \"#utility.yul\":10024:10038   */\n      lt\n        /* \"#utility.yul\":10016:10224   */\n      iszero\n      tag_223\n      jumpi\n        /* \"#utility.yul\":10109:10118   */\n      dup5\n        /* \"#utility.yul\":10104:10107   */\n      dup10\n        /* \"#utility.yul\":10100:10119   */\n      add\n        /* \"#utility.yul\":10094:10120   */\n      mload\n        /* \"#utility.yul\":10086:10092   */\n      dup3\n        /* \"#utility.yul\":10079:10121   */\n      sstore\n        /* \"#utility.yul\":10160:10161   */\n      0x01\n        /* \"#utility.yul\":10152:10158   */\n      dup3\n        /* \"#utility.yul\":10148:10162   */\n      add\n        /* \"#utility.yul\":10138:10162   */\n      swap2\n      pop\n        /* \"#utility.yul\":10207:10209   */\n      0x20\n        /* \"#utility.yul\":10196:10205   */\n      dup6\n        /* \"#utility.yul\":10192:10210   */\n      add\n        /* \"#utility.yul\":10179:10210   */\n      swap5\n      pop\n        /* \"#utility.yul\":10053:10057   */\n      0x20\n        /* \"#utility.yul\":10050:10051   */\n      dup2\n        /* \"#utility.yul\":10046:10058   */\n      add\n        /* \"#utility.yul\":10041:10058   */\n      swap1\n      pop\n        /* \"#utility.yul\":10016:10224   */\n      jump(tag_221)\n    tag_223:\n        /* \"#utility.yul\":10252:10258   */\n      dup7\n        /* \"#utility.yul\":10243:10250   */\n      dup4\n        /* \"#utility.yul\":10240:10259   */\n      lt\n        /* \"#utility.yul\":10237:10416   */\n      iszero\n      tag_224\n      jumpi\n        /* \"#utility.yul\":10310:10319   */\n      dup5\n        /* \"#utility.yul\":10305:10308   */\n      dup10\n        /* \"#utility.yul\":10301:10320   */\n      add\n        /* \"#utility.yul\":10295:10321   */\n      mload\n        /* \"#utility.yul\":10353:10401   */\n      tag_225\n        /* \"#utility.yul\":10395:10399   */\n      0x1f\n        /* \"#utility.yul\":10387:10393   */\n      dup10\n        /* \"#utility.yul\":10383:10400   */\n      and\n        /* \"#utility.yul\":10372:10381   */\n      dup3\n        /* \"#utility.yul\":10353:10401   */\n      tag_93\n      jump\t// in\n    tag_225:\n        /* \"#utility.yul\":10345:10351   */\n      dup4\n        /* \"#utility.yul\":10338:10402   */\n      sstore\n        /* \"#utility.yul\":10260:10416   */\n      pop\n        /* \"#utility.yul\":10237:10416   */\n    tag_224:\n        /* \"#utility.yul\":10462:10463   */\n      0x01\n        /* \"#utility.yul\":10458:10459   */\n      0x02\n        /* \"#utility.yul\":10450:10456   */\n      dup9\n        /* \"#utility.yul\":10446:10460   */\n      mul\n        /* \"#utility.yul\":10442:10464   */\n      add\n        /* \"#utility.yul\":10436:10440   */\n      dup9\n        /* \"#utility.yul\":10429:10465   */\n      sstore\n        /* \"#utility.yul\":9864:10475   */\n      pop\n      pop\n      pop\n        /* \"#utility.yul\":9827:10714   */\n    tag_216:\n      pop\n        /* \"#utility.yul\":9417:10720   */\n      pop\n      pop\n      pop\n        /* \"#utility.yul\":9325:10720   */\n      pop\n      pop\n      jump\t// out\n        /* \"#utility.yul\":10726:10895   */\n    tag_95:\n        /* \"#utility.yul\":10866:10887   */\n      0x6e756d322063616e6e6f74206265207a65726f00000000000000000000000000\n        /* \"#utility.yul\":10862:10863   */\n      0x00\n        /* \"#utility.yul\":10854:10860   */\n      dup3\n        /* \"#utility.yul\":10850:10864   */\n      add\n        /* \"#utility.yul\":10843:10888   */\n      mstore\n        /* \"#utility.yul\":10726:10895   */\n      pop\n      jump\t// out\n        /* \"#utility.yul\":10901:11267   */\n    tag_96:\n        /* \"#utility.yul\":11043:11046   */\n      0x00\n        /* \"#utility.yul\":11064:11131   */\n      tag_228\n        /* \"#utility.yul\":11128:11130   */\n      0x13\n        /* \"#utility.yul\":11123:11126   */\n      dup4\n        /* \"#utility.yul\":11064:11131   */\n      tag_65\n      jump\t// in\n    tag_228:\n        /* \"#utility.yul\":11057:11131   */\n      swap2\n      pop\n        /* \"#utility.yul\":11140:11233   */\n      tag_229\n        /* \"#utility.yul\":11229:11232   */\n      dup3\n        /* \"#utility.yul\":11140:11233   */\n      tag_95\n      jump\t// in\n    tag_229:\n        /* \"#utility.yul\":11258:11260   */\n      0x20\n        /* \"#utility.yul\":11253:11256   */\n      dup3\n        /* \"#utility.yul\":11249:11261   */\n      add\n        /* \"#utility.yul\":11242:11261   */\n      swap1\n      pop\n        /* \"#utility.yul\":10901:11267   */\n      swap2\n      swap1\n      pop\n      jump\t// out\n        /* \"#utility.yul\":11273:11692   */\n    tag_53:\n        /* \"#utility.yul\":11439:11443   */\n      0x00\n        /* \"#utility.yul\":11477:11479   */\n      0x20\n        /* \"#utility.yul\":11466:11475   */\n      dup3\n        /* \"#utility.yul\":11462:11480   */\n      add\n        /* \"#utility.yul\":11454:11480   */\n      swap1\n      pop\n        /* \"#utility.yul\":11526:11535   */\n      dup2\n        /* \"#utility.yul\":11520:11524   */\n      dup2\n        /* \"#utility.yul\":11516:11536   */\n      sub\n        /* \"#utility.yul\":11512:11513   */\n      0x00\n        /* \"#utility.yul\":11501:11510   */\n      dup4\n        /* \"#utility.yul\":11497:11514   */\n      add\n        /* \"#utility.yul\":11490:11537   */\n      mstore\n        /* \"#utility.yul\":11554:11685   */\n      tag_231\n        /* \"#utility.yul\":11680:11684   */\n      dup2\n        /* \"#utility.yul\":11554:11685   */\n      tag_96\n      jump\t// in\n    tag_231:\n        /* \"#utility.yul\":11546:11685   */\n      swap1\n      pop\n        /* \"#utility.yul\":11273:11692   */\n      swap2\n      swap1\n      pop\n      jump\t// out\n        /* \"#utility.yul\":11698:11878   */\n    tag_97:\n        /* \"#utility.yul\":11746:11823   */\n      0x4e487b7100000000000000000000000000000000000000000000000000000000\n        /* \"#utility.yul\":11743:11744   */\n      0x00\n        /* \"#utility.yul\":11736:11824   */\n      mstore\n        /* \"#utility.yul\":11843:11847   */\n      0x12\n        /* \"#utility.yul\":11840:11841   */\n      0x04\n        /* \"#utility.yul\":11833:11848   */\n      mstore\n        /* \"#utility.yul\":11867:11871   */\n      0x24\n        /* \"#utility.yul\":11864:11865   */\n      0x00\n        /* \"#utility.yul\":11857:11872   */\n      revert\n        /* \"#utility.yul\":11884:12069   */\n    tag_55:\n        /* \"#utility.yul\":11924:11925   */\n      0x00\n        /* \"#utility.yul\":11941:11961   */\n      tag_234\n        /* \"#utility.yul\":11959:11960   */\n      dup3\n        /* \"#utility.yul\":11941:11961   */\n      tag_57\n      jump\t// in\n    tag_234:\n        /* \"#utility.yul\":11936:11961   */\n      swap2\n      pop\n        /* \"#utility.yul\":11975:11995   */\n      tag_235\n        /* \"#utility.yul\":11993:11994   */\n      dup4\n        /* \"#utility.yul\":11975:11995   */\n      tag_57\n      jump\t// in\n    tag_235:\n        /* \"#utility.yul\":11970:11995   */\n      swap3\n      pop\n        /* \"#utility.yul\":12014:12015   */\n      dup3\n        /* \"#utility.yul\":12004:12039   */\n      tag_236\n      jumpi\n        /* \"#utility.yul\":12019:12037   */\n      tag_237\n      tag_97\n      jump\t// in\n    tag_237:\n        /* \"#utility.yul\":12004:12039   */\n    tag_236:\n        /* \"#utility.yul\":12061:12062   */\n      dup3\n        /* \"#utility.yul\":12058:12059   */\n      dup3\n        /* \"#utility.yul\":12054:12063   */\n      div\n        /* \"#utility.yul\":12049:12063   */\n      swap1\n      pop\n        /* \"#utility.yul\":11884:12069   */\n      swap3\n      swap2\n      pop\n      pop\n      jump\t// out\n\n    auxdata: 0xa2646970667358221220275fa8c9b904075928eea3c5ea8a1fa24d79a7cacfa033cc0c1214cf4ae24f1a64736f6c63430008180033\n}\n",
				"bytecode": {
					"linkReferences": {},
					"object": "608060405234801561000f575f80fd5b5061098e8061001d5f395ff3fe608060405234801561000f575f80fd5b506004361061007b575f3560e01c80638052474d116100595780638052474d146100eb578063bc42052314610109578063f88e9fbf14610125578063f8efab09146101555761007b565b80631b6809181461007f57806354ec50751461009d578063771602f7146100bb575b5f80fd5b610087610173565b60405161009491906102bb565b60405180910390f35b6100a5610179565b6040516100b291906102bb565b60405180910390f35b6100d560048036038101906100d0919061030f565b61017f565b6040516100e291906102bb565b60405180910390f35b6100f361019d565b60405161010091906103d7565b60405180910390f35b610123600480360381019061011e9190610523565b610228565b005b61013f600480360381019061013a919061030f565b61023a565b60405161014c91906102bb565b60405180910390f35b61015d61029a565b60405161016a91906102bb565b60405180910390f35b60025481565b60015481565b5f818361018c9190610597565b600181905550600154905092915050565b5f80546101a9906105f7565b80601f01602080910402602001604051908101604052809291908181526020018280546101d5906105f7565b80156102205780601f106101f757610100808354040283529160200191610220565b820191905f5260205f20905b81548152906001019060200180831161020357829003601f168201915b505050505081565b805f908161023691906107c4565b5050565b5f80820361027d576040517f08c379a0000000000000000000000000000000000000000000000000000000008152600401610274906108dd565b60405180910390fd5b81836102899190610928565b600281905550600254905092915050565b5f600154905090565b5f819050919050565b6102b5816102a3565b82525050565b5f6020820190506102ce5f8301846102ac565b92915050565b5f604051905090565b5f80fd5b5f80fd5b6102ee816102a3565b81146102f8575f80fd5b50565b5f81359050610309816102e5565b92915050565b5f8060408385031215610325576103246102dd565b5b5f610332858286016102fb565b9250506020610343858286016102fb565b9150509250929050565b5f81519050919050565b5f82825260208201905092915050565b5f5b83811015610384578082015181840152602081019050610369565b5f8484015250505050565b5f601f19601f8301169050919050565b5f6103a98261034d565b6103b38185610357565b93506103c3818560208601610367565b6103cc8161038f565b840191505092915050565b5f6020820190508181035f8301526103ef818461039f565b905092915050565b5f80fd5b5f80fd5b7f4e487b71000000000000000000000000000000000000000000000000000000005f52604160045260245ffd5b6104358261038f565b810181811067ffffffffffffffff82111715610454576104536103ff565b5b80604052505050565b5f6104666102d4565b9050610472828261042c565b919050565b5f67ffffffffffffffff821115610491576104906103ff565b5b61049a8261038f565b9050602081019050919050565b828183375f83830152505050565b5f6104c76104c284610477565b61045d565b9050828152602081018484840111156104e3576104e26103fb565b5b6104ee8482856104a7565b509392505050565b5f82601f83011261050a576105096103f7565b5b813561051a8482602086016104b5565b91505092915050565b5f60208284031215610538576105376102dd565b5b5f82013567ffffffffffffffff811115610555576105546102e1565b5b610561848285016104f6565b91505092915050565b7f4e487b71000000000000000000000000000000000000000000000000000000005f52601160045260245ffd5b5f6105a1826102a3565b91506105ac836102a3565b92508282019050808211156105c4576105c361056a565b5b92915050565b7f4e487b71000000000000000000000000000000000000000000000000000000005f52602260045260245ffd5b5f600282049050600182168061060e57607f821691505b602082108103610621576106206105ca565b5b50919050565b5f819050815f5260205f209050919050565b5f6020601f8301049050919050565b5f82821b905092915050565b5f600883026106837fffffffffffffffffffffffffffffffffffffffffffffffffffffffffffffffff82610648565b61068d8683610648565b95508019841693508086168417925050509392505050565b5f819050919050565b5f6106c86106c36106be846102a3565b6106a5565b6102a3565b9050919050565b5f819050919050565b6106e1836106ae565b6106f56106ed826106cf565b848454610654565b825550505050565b5f90565b6107096106fd565b6107148184846106d8565b505050565b5b818110156107375761072c5f82610701565b60018101905061071a565b5050565b601f82111561077c5761074d81610627565b61075684610639565b81016020851015610765578190505b61077961077185610639565b830182610719565b50505b505050565b5f82821c905092915050565b5f61079c5f1984600802610781565b1980831691505092915050565b5f6107b4838361078d565b9150826002028217905092915050565b6107cd8261034d565b67ffffffffffffffff8111156107e6576107e56103ff565b5b6107f082546105f7565b6107fb82828561073b565b5f60209050601f83116001811461082c575f841561081a578287015190505b61082485826107a9565b86555061088b565b601f19841661083a86610627565b5f5b828110156108615784890151825560018201915060208501945060208101905061083c565b8683101561087e578489015161087a601f89168261078d565b8355505b6001600288020188555050505b505050505050565b7f6e756d322063616e6e6f74206265207a65726f000000000000000000000000005f82015250565b5f6108c7601383610357565b91506108d282610893565b602082019050919050565b5f6020820190508181035f8301526108f4816108bb565b9050919050565b7f4e487b71000000000000000000000000000000000000000000000000000000005f52601260045260245ffd5b5f610932826102a3565b915061093d836102a3565b92508261094d5761094c6108fb565b5b82820490509291505056fea2646970667358221220275fa8c9b904075928eea3c5ea8a1fa24d79a7cacfa033cc0c1214cf4ae24f1a64736f6c63430008180033",
					"opcodes": "PUSH1 0x80 PUSH1 0x40 MSTORE CALLVALUE DUP1 ISZERO PUSH2 0xF JUMPI PUSH0 DUP1 REVERT JUMPDEST POP PUSH2 0x98E DUP1 PUSH2 0x1D PUSH0 CODECOPY PUSH0 RETURN INVALID PUSH1 0x80 PUSH1 0x40 MSTORE CALLVALUE DUP1 ISZERO PUSH2 0xF JUMPI PUSH0 DUP1 REVERT JUMPDEST POP PUSH1 0x4 CALLDATASIZE LT PUSH2 0x7B JUMPI PUSH0 CALLDATALOAD PUSH1 0xE0 SHR DUP1 PUSH4 0x8052474D GT PUSH2 0x59 JUMPI DUP1 PUSH4 0x8052474D EQ PUSH2 0xEB JUMPI DUP1 PUSH4 0xBC420523 EQ PUSH2 0x109 JUMPI DUP1 PUSH4 0xF88E9FBF EQ PUSH2 0x125 JUMPI DUP1 PUSH4 0xF8EFAB09 EQ PUSH2 0x155 JUMPI PUSH2 0x7B JUMP JUMPDEST DUP1 PUSH4 0x1B680918 EQ PUSH2 0x7F JUMPI DUP1 PUSH4 0x54EC5075 EQ PUSH2 0x9D JUMPI DUP1 PUSH4 0x771602F7 EQ PUSH2 0xBB JUMPI JUMPDEST PUSH0 DUP1 REVERT JUMPDEST PUSH2 0x87 PUSH2 0x173 JUMP JUMPDEST PUSH1 0x40 MLOAD PUSH2 0x94 SWAP2 SWAP1 PUSH2 0x2BB JUMP JUMPDEST PUSH1 0x40 MLOAD DUP1 SWAP2 SUB SWAP1 RETURN JUMPDEST PUSH2 0xA5 PUSH2 0x179 JUMP JUMPDEST PUSH1 0x40 MLOAD PUSH2 0xB2 SWAP2 SWAP1 PUSH2 0x2BB JUMP JUMPDEST PUSH1 0x40 MLOAD DUP1 SWAP2 SUB SWAP1 RETURN JUMPDEST PUSH2 0xD5 PUSH1 0x4 DUP1 CALLDATASIZE SUB DUP2 ADD SWAP1 PUSH2 0xD0 SWAP2 SWAP1 PUSH2 0x30F JUMP JUMPDEST PUSH2 0x17F JUMP JUMPDEST PUSH1 0x40 MLOAD PUSH2 0xE2 SWAP2 SWAP1 PUSH2 0x2BB JUMP JUMPDEST PUSH1 0x40 MLOAD DUP1 SWAP2 SUB SWAP1 RETURN JUMPDEST PUSH2 0xF3 PUSH2 0x19D JUMP JUMPDEST PUSH1 0x40 MLOAD PUSH2 0x100 SWAP2 SWAP1 PUSH2 0x3D7 JUMP JUMPDEST PUSH1 0x40 MLOAD DUP1 SWAP2 SUB SWAP1 RETURN JUMPDEST PUSH2 0x123 PUSH1 0x4 DUP1 CALLDATASIZE SUB DUP2 ADD SWAP1 PUSH2 0x11E SWAP2 SWAP1 PUSH2 0x523 JUMP JUMPDEST PUSH2 0x228 JUMP JUMPDEST STOP JUMPDEST PUSH2 0x13F PUSH1 0x4 DUP1 CALLDATASIZE SUB DUP2 ADD SWAP1 PUSH2 0x13A SWAP2 SWAP1 PUSH2 0x30F JUMP JUMPDEST PUSH2 0x23A JUMP JUMPDEST PUSH1 0x40 MLOAD PUSH2 0x14C SWAP2 SWAP1 PUSH2 0x2BB JUMP JUMPDEST PUSH1 0x40 MLOAD DUP1 SWAP2 SUB SWAP1 RETURN JUMPDEST PUSH2 0x15D PUSH2 0x29A JUMP JUMPDEST PUSH1 0x40 MLOAD PUSH2 0x16A SWAP2 SWAP1 PUSH2 0x2BB JUMP JUMPDEST PUSH1 0x40 MLOAD DUP1 SWAP2 SUB SWAP1 RETURN JUMPDEST PUSH1 0x2 SLOAD DUP2 JUMP JUMPDEST PUSH1 0x1 SLOAD DUP2 JUMP JUMPDEST PUSH0 DUP2 DUP4 PUSH2 0x18C SWAP2 SWAP1 PUSH2 0x597 JUMP JUMPDEST PUSH1 0x1 DUP2 SWAP1 SSTORE POP PUSH1 0x1 SLOAD SWAP1 POP SWAP3 SWAP2 POP POP JUMP JUMPDEST PUSH0 DUP1 SLOAD PUSH2 0x1A9 SWAP1 PUSH2 0x5F7 JUMP JUMPDEST DUP1 PUSH1 0x1F ADD PUSH1 0x20 DUP1 SWAP2 DIV MUL PUSH1 0x20 ADD PUSH1 0x40 MLOAD SWAP1 DUP2 ADD PUSH1 0x40 MSTORE DUP1 SWAP3 SWAP2 SWAP1 DUP2 DUP2 MSTORE PUSH1 0x20 ADD DUP3 DUP1 SLOAD PUSH2 0x1D5 SWAP1 PUSH2 0x5F7 JUMP JUMPDEST DUP1 ISZERO PUSH2 0x220 JUMPI DUP1 PUSH1 0x1F LT PUSH2 0x1F7 JUMPI PUSH2 0x100 DUP1 DUP4 SLOAD DIV MUL DUP4 MSTORE SWAP2 PUSH1 0x20 ADD SWAP2 PUSH2 0x220 JUMP JUMPDEST DUP3 ADD SWAP2 SWAP1 PUSH0 MSTORE PUSH1 0x20 PUSH0 KECCAK256 SWAP1 JUMPDEST DUP2 SLOAD DUP2 MSTORE SWAP1 PUSH1 0x1 ADD SWAP1 PUSH1 0x20 ADD DUP1 DUP4 GT PUSH2 0x203 JUMPI DUP3 SWAP1 SUB PUSH1 0x1F AND DUP3 ADD SWAP2 JUMPDEST POP POP POP POP POP DUP2 JUMP JUMPDEST DUP1 PUSH0 SWAP1 DUP2 PUSH2 0x236 SWAP2 SWAP1 PUSH2 0x7C4 JUMP JUMPDEST POP POP JUMP JUMPDEST PUSH0 DUP1 DUP3 SUB PUSH2 0x27D JUMPI PUSH1 0x40 MLOAD PUSH32 0x8C379A000000000000000000000000000000000000000000000000000000000 DUP2 MSTORE PUSH1 0x4 ADD PUSH2 0x274 SWAP1 PUSH2 0x8DD JUMP JUMPDEST PUSH1 0x40 MLOAD DUP1 SWAP2 SUB SWAP1 REVERT JUMPDEST DUP2 DUP4 PUSH2 0x289 SWAP2 SWAP1 PUSH2 0x928 JUMP JUMPDEST PUSH1 0x2 DUP2 SWAP1 SSTORE POP PUSH1 0x2 SLOAD SWAP1 POP SWAP3 SWAP2 POP POP JUMP JUMPDEST PUSH0 PUSH1 0x1 SLOAD SWAP1 POP SWAP1 JUMP JUMPDEST PUSH0 DUP2 SWAP1 POP SWAP2 SWAP1 POP JUMP JUMPDEST PUSH2 0x2B5 DUP2 PUSH2 0x2A3 JUMP JUMPDEST DUP3 MSTORE POP POP JUMP JUMPDEST PUSH0 PUSH1 0x20 DUP3 ADD SWAP1 POP PUSH2 0x2CE PUSH0 DUP4 ADD DUP5 PUSH2 0x2AC JUMP JUMPDEST SWAP3 SWAP2 POP POP JUMP JUMPDEST PUSH0 PUSH1 0x40 MLOAD SWAP1 POP SWAP1 JUMP JUMPDEST PUSH0 DUP1 REVERT JUMPDEST PUSH0 DUP1 REVERT JUMPDEST PUSH2 0x2EE DUP2 PUSH2 0x2A3 JUMP JUMPDEST DUP2 EQ PUSH2 0x2F8 JUMPI PUSH0 DUP1 REVERT JUMPDEST POP JUMP JUMPDEST PUSH0 DUP2 CALLDATALOAD SWAP1 POP PUSH2 0x309 DUP2 PUSH2 0x2E5 JUMP JUMPDEST SWAP3 SWAP2 POP POP JUMP JUMPDEST PUSH0 DUP1 PUSH1 0x40 DUP4 DUP6 SUB SLT ISZERO PUSH2 0x325 JUMPI PUSH2 0x324 PUSH2 0x2DD JUMP JUMPDEST JUMPDEST PUSH0 PUSH2 0x332 DUP6 DUP3 DUP7 ADD PUSH2 0x2FB JUMP JUMPDEST SWAP3 POP POP PUSH1 0x20 PUSH2 0x343 DUP6 DUP3 DUP7 ADD PUSH2 0x2FB JUMP JUMPDEST SWAP2 POP POP SWAP3 POP SWAP3 SWAP1 POP JUMP JUMPDEST PUSH0 DUP2 MLOAD SWAP1 POP SWAP2 SWAP1 POP JUMP JUMPDEST PUSH0 DUP3 DUP3 MSTORE PUSH1 0x20 DUP3 ADD SWAP1 POP SWAP3 SWAP2 POP POP JUMP JUMPDEST PUSH0 JUMPDEST DUP4 DUP2 LT ISZERO PUSH2 0x384 JUMPI DUP1 DUP3 ADD MLOAD DUP2 DUP5 ADD MSTORE PUSH1 0x20 DUP2 ADD SWAP1 POP PUSH2 0x369 JUMP JUMPDEST PUSH0 DUP5 DUP5 ADD MSTORE POP POP POP POP JUMP JUMPDEST PUSH0 PUSH1 0x1F NOT PUSH1 0x1F DUP4 ADD AND SWAP1 POP SWAP2 SWAP1 POP JUMP JUMPDEST PUSH0 PUSH2 0x3A9 DUP3 PUSH2 0x34D JUMP JUMPDEST PUSH2 0x3B3 DUP2 DUP6 PUSH2 0x357 JUMP JUMPDEST SWAP4 POP PUSH2 0x3C3 DUP2 DUP6 PUSH1 0x20 DUP7 ADD PUSH2 0x367 JUMP JUMPDEST PUSH2 0x3CC DUP2 PUSH2 0x38F JUMP JUMPDEST DUP5 ADD SWAP2 POP POP SWAP3 SWAP2 POP POP JUMP JUMPDEST PUSH0 PUSH1 0x20 DUP3 ADD SWAP1 POP DUP2 DUP2 SUB PUSH0 DUP4 ADD MSTORE PUSH2 0x3EF DUP2 DUP5 PUSH2 0x39F JUMP JUMPDEST SWAP1 POP SWAP3 SWAP2 POP POP JUMP JUMPDEST PUSH0 DUP1 REVERT JUMPDEST PUSH0 DUP1 REVERT JUMPDEST PUSH32 0x4E487B7100000000000000000000000000000000000000000000000000000000 PUSH0 MSTORE PUSH1 0x41 PUSH1 0x4 MSTORE PUSH1 0x24 PUSH0 REVERT JUMPDEST PUSH2 0x435 DUP3 PUSH2 0x38F JUMP JUMPDEST DUP2 ADD DUP2 DUP2 LT PUSH8 0xFFFFFFFFFFFFFFFF DUP3 GT OR ISZERO PUSH2 0x454 JUMPI PUSH2 0x453 PUSH2 0x3FF JUMP JUMPDEST JUMPDEST DUP1 PUSH1 0x40 MSTORE POP POP POP JUMP JUMPDEST PUSH0 PUSH2 0x466 PUSH2 0x2D4 JUMP JUMPDEST SWAP1 POP PUSH2 0x472 DUP3 DUP3 PUSH2 0x42C JUMP JUMPDEST SWAP2 SWAP1 POP JUMP JUMPDEST PUSH0 PUSH8 0xFFFFFFFFFFFFFFFF DUP3 GT ISZERO PUSH2 0x491 JUMPI PUSH2 0x490 PUSH2 0x3FF JUMP JUMPDEST JUMPDEST PUSH2 0x49A DUP3 PUSH2 0x38F JUMP JUMPDEST SWAP1 POP PUSH1 0x20 DUP2 ADD SWAP1 POP SWAP2 SWAP1 POP JUMP JUMPDEST DUP3 DUP2 DUP4 CALLDATACOPY PUSH0 DUP4 DUP4 ADD MSTORE POP POP POP JUMP JUMPDEST PUSH0 PUSH2 0x4C7 PUSH2 0x4C2 DUP5 PUSH2 0x477 JUMP JUMPDEST PUSH2 0x45D JUMP JUMPDEST SWAP1 POP DUP3 DUP2 MSTORE PUSH1 0x20 DUP2 ADD DUP5 DUP5 DUP5 ADD GT ISZERO PUSH2 0x4E3 JUMPI PUSH2 0x4E2 PUSH2 0x3FB JUMP JUMPDEST JUMPDEST PUSH2 0x4EE DUP5 DUP3 DUP6 PUSH2 0x4A7 JUMP JUMPDEST POP SWAP4 SWAP3 POP POP POP JUMP JUMPDEST PUSH0 DUP3 PUSH1 0x1F DUP4 ADD SLT PUSH2 0x50A JUMPI PUSH2 0x509 PUSH2 0x3F7 JUMP JUMPDEST JUMPDEST DUP2 CALLDATALOAD PUSH2 0x51A DUP5 DUP3 PUSH1 0x20 DUP7 ADD PUSH2 0x4B5 JUMP JUMPDEST SWAP2 POP POP SWAP3 SWAP2 POP POP JUMP JUMPDEST PUSH0 PUSH1 0x20 DUP3 DUP5 SUB SLT ISZERO PUSH2 0x538 JUMPI PUSH2 0x537 PUSH2 0x2DD JUMP JUMPDEST JUMPDEST PUSH0 DUP3 ADD CALLDATALOAD PUSH8 0xFFFFFFFFFFFFFFFF DUP2 GT ISZERO PUSH2 0x555 JUMPI PUSH2 0x554 PUSH2 0x2E1 JUMP JUMPDEST JUMPDEST PUSH2 0x561 DUP5 DUP3 DUP6 ADD PUSH2 0x4F6 JUMP JUMPDEST SWAP2 POP POP SWAP3 SWAP2 POP POP JUMP JUMPDEST PUSH32 0x4E487B7100000000000000000000000000000000000000000000000000000000 PUSH0 MSTORE PUSH1 0x11 PUSH1 0x4 MSTORE PUSH1 0x24 PUSH0 REVERT JUMPDEST PUSH0 PUSH2 0x5A1 DUP3 PUSH2 0x2A3 JUMP JUMPDEST SWAP2 POP PUSH2 0x5AC DUP4 PUSH2 0x2A3 JUMP JUMPDEST SWAP3 POP DUP3 DUP3 ADD SWAP1 POP DUP1 DUP3 GT ISZERO PUSH2 0x5C4 JUMPI PUSH2 0x5C3 PUSH2 0x56A JUMP JUMPDEST JUMPDEST SWAP3 SWAP2 POP POP JUMP JUMPDEST PUSH32 0x4E487B7100000000000000000000000000000000000000000000000000000000 PUSH0 MSTORE PUSH1 0x22 PUSH1 0x4 MSTORE PUSH1 0x24 PUSH0 REVERT JUMPDEST PUSH0 PUSH1 0x2 DUP3 DIV SWAP1 POP PUSH1 0x1 DUP3 AND DUP1 PUSH2 0x60E JUMPI PUSH1 0x7F DUP3 AND SWAP2 POP JUMPDEST PUSH1 0x20 DUP3 LT DUP2 SUB PUSH2 0x621 JUMPI PUSH2 0x620 PUSH2 0x5CA JUMP JUMPDEST JUMPDEST POP SWAP2 SWAP1 POP JUMP JUMPDEST PUSH0 DUP2 SWAP1 POP DUP2 PUSH0 MSTORE PUSH1 0x20 PUSH0 KECCAK256 SWAP1 POP SWAP2 SWAP1 POP JUMP JUMPDEST PUSH0 PUSH1 0x20 PUSH1 0x1F DUP4 ADD DIV SWAP1 POP SWAP2 SWAP1 POP JUMP JUMPDEST PUSH0 DUP3 DUP3 SHL SWAP1 POP SWAP3 SWAP2 POP POP JUMP JUMPDEST PUSH0 PUSH1 0x8 DUP4 MUL PUSH2 0x683 PUSH32 0xFFFFFFFFFFFFFFFFFFFFFFFFFFFFFFFFFFFFFFFFFFFFFFFFFFFFFFFFFFFFFFFF DUP3 PUSH2 0x648 JUMP JUMPDEST PUSH2 0x68D DUP7 DUP4 PUSH2 0x648 JUMP JUMPDEST SWAP6 POP DUP1 NOT DUP5 AND SWAP4 POP DUP1 DUP7 AND DUP5 OR SWAP3 POP POP POP SWAP4 SWAP3 POP POP POP JUMP JUMPDEST PUSH0 DUP2 SWAP1 POP SWAP2 SWAP1 POP JUMP JUMPDEST PUSH0 PUSH2 0x6C8 PUSH2 0x6C3 PUSH2 0x6BE DUP5 PUSH2 0x2A3 JUMP JUMPDEST PUSH2 0x6A5 JUMP JUMPDEST PUSH2 0x2A3 JUMP JUMPDEST SWAP1 POP SWAP2 SWAP1 POP JUMP JUMPDEST PUSH0 DUP2 SWAP1 POP SWAP2 SWAP1 POP JUMP JUMPDEST PUSH2 0x6E1 DUP4 PUSH2 0x6AE JUMP JUMPDEST PUSH2 0x6F5 PUSH2 0x6ED DUP3 PUSH2 0x6CF JUMP JUMPDEST DUP5 DUP5 SLOAD PUSH2 0x654 JUMP JUMPDEST DUP3 SSTORE POP POP POP POP JUMP JUMPDEST PUSH0 SWAP1 JUMP JUMPDEST PUSH2 0x709 PUSH2 0x6FD JUMP JUMPDEST PUSH2 0x714 DUP2 DUP5 DUP5 PUSH2 0x6D8 JUMP JUMPDEST POP POP POP JUMP JUMPDEST JUMPDEST DUP2 DUP2 LT ISZERO PUSH2 0x737 JUMPI PUSH2 0x72C PUSH0 DUP3 PUSH2 0x701 JUMP JUMPDEST PUSH1 0x1 DUP2 ADD SWAP1 POP PUSH2 0x71A JUMP JUMPDEST POP POP JUMP JUMPDEST PUSH1 0x1F DUP3 GT ISZERO PUSH2 0x77C JUMPI PUSH2 0x74D DUP2 PUSH2 0x627 JUMP JUMPDEST PUSH2 0x756 DUP5 PUSH2 0x639 JUMP JUMPDEST DUP2 ADD PUSH1 0x20 DUP6 LT ISZERO PUSH2 0x765 JUMPI DUP2 SWAP1 POP JUMPDEST PUSH2 0x779 PUSH2 0x771 DUP6 PUSH2 0x639 JUMP JUMPDEST DUP4 ADD DUP3 PUSH2 0x719 JUMP JUMPDEST POP POP JUMPDEST POP POP POP JUMP JUMPDEST PUSH0 DUP3 DUP3 SHR SWAP1 POP SWAP3 SWAP2 POP POP JUMP JUMPDEST PUSH0 PUSH2 0x79C PUSH0 NOT DUP5 PUSH1 0x8 MUL PUSH2 0x781 JUMP JUMPDEST NOT DUP1 DUP4 AND SWAP2 POP POP SWAP3 SWAP2 POP POP JUMP JUMPDEST PUSH0 PUSH2 0x7B4 DUP4 DUP4 PUSH2 0x78D JUMP JUMPDEST SWAP2 POP DUP3 PUSH1 0x2 MUL DUP3 OR SWAP1 POP SWAP3 SWAP2 POP POP JUMP JUMPDEST PUSH2 0x7CD DUP3 PUSH2 0x34D JUMP JUMPDEST PUSH8 0xFFFFFFFFFFFFFFFF DUP2 GT ISZERO PUSH2 0x7E6 JUMPI PUSH2 0x7E5 PUSH2 0x3FF JUMP JUMPDEST JUMPDEST PUSH2 0x7F0 DUP3 SLOAD PUSH2 0x5F7 JUMP JUMPDEST PUSH2 0x7FB DUP3 DUP3 DUP6 PUSH2 0x73B JUMP JUMPDEST PUSH0 PUSH1 0x20 SWAP1 POP PUSH1 0x1F DUP4 GT PUSH1 0x1 DUP2 EQ PUSH2 0x82C JUMPI PUSH0 DUP5 ISZERO PUSH2 0x81A JUMPI DUP3 DUP8 ADD MLOAD SWAP1 POP JUMPDEST PUSH2 0x824 DUP6 DUP3 PUSH2 0x7A9 JUMP JUMPDEST DUP7 SSTORE POP PUSH2 0x88B JUMP JUMPDEST PUSH1 0x1F NOT DUP5 AND PUSH2 0x83A DUP7 PUSH2 0x627 JUMP JUMPDEST PUSH0 JUMPDEST DUP3 DUP2 LT ISZERO PUSH2 0x861 JUMPI DUP5 DUP10 ADD MLOAD DUP3 SSTORE PUSH1 0x1 DUP3 ADD SWAP2 POP PUSH1 0x20 DUP6 ADD SWAP5 POP PUSH1 0x20 DUP2 ADD SWAP1 POP PUSH2 0x83C JUMP JUMPDEST DUP7 DUP4 LT ISZERO PUSH2 0x87E JUMPI DUP5 DUP10 ADD MLOAD PUSH2 0x87A PUSH1 0x1F DUP10 AND DUP3 PUSH2 0x78D JUMP JUMPDEST DUP4 SSTORE POP JUMPDEST PUSH1 0x1 PUSH1 0x2 DUP9 MUL ADD DUP9 SSTORE POP POP POP JUMPDEST POP POP POP POP POP POP JUMP JUMPDEST PUSH32 0x6E756D322063616E6E6F74206265207A65726F00000000000000000000000000 PUSH0 DUP3 ADD MSTORE POP JUMP JUMPDEST PUSH0 PUSH2 0x8C7 PUSH1 0x13 DUP4 PUSH2 0x357 JUMP JUMPDEST SWAP2 POP PUSH2 0x8D2 DUP3 PUSH2 0x893 JUMP JUMPDEST PUSH1 0x20 DUP3 ADD SWAP1 POP SWAP2 SWAP1 POP JUMP JUMPDEST PUSH0 PUSH1 0x20 DUP3 ADD SWAP1 POP DUP2 DUP2 SUB PUSH0 DUP4 ADD MSTORE PUSH2 0x8F4 DUP2 PUSH2 0x8BB JUMP JUMPDEST SWAP1 POP SWAP2 SWAP1 POP JUMP JUMPDEST PUSH32 0x4E487B7100000000000000000000000000000000000000000000000000000000 PUSH0 MSTORE PUSH1 0x12 PUSH1 0x4 MSTORE PUSH1 0x24 PUSH0 REVERT JUMPDEST PUSH0 PUSH2 0x932 DUP3 PUSH2 0x2A3 JUMP JUMPDEST SWAP2 POP PUSH2 0x93D DUP4 PUSH2 0x2A3 JUMP JUMPDEST SWAP3 POP DUP3 PUSH2 0x94D JUMPI PUSH2 0x94C PUSH2 0x8FB JUMP JUMPDEST JUMPDEST DUP3 DUP3 DIV SWAP1 POP SWAP3 SWAP2 POP POP JUMP INVALID LOG2 PUSH5 0x6970667358 0x22 SLT KECCAK256 0x27 PUSH0 0xA8 0xC9 0xB9 DIV SMOD MSIZE 0x28 0xEE LOG3 0xC5 0xEA DUP11 0x1F LOG2 0x4D PUSH26 0xA7CACFA033CC0C1214CF4AE24F1A64736F6C6343000818003300 "
				},
				"gasEstimates": {
					"creation": {
						"codeDepositCost": "489200",
						"executionCost": "522",
						"totalCost": "489722"
					},
					"external": {
						"AddNumber()": "2448",
						"DivNumber()": "2426",
						"Name()": "infinite",
						"add(uint256,uint256)": "infinite",
						"divide(uint256,uint256)": "infinite",
						"getAddNumber()": "2498",
						"saveName(string)": "infinite"
					}
				},
				"methodIdentifiers": {
					"AddNumber()": "54ec5075",
					"DivNumber()": "1b680918",
					"Name()": "8052474d",
					"add(uint256,uint256)": "771602f7",
					"divide(uint256,uint256)": "f88e9fbf",
					"getAddNumber()": "f8efab09",
					"saveName(string)": "bc420523"
				}
			},
			"storageLayout": {
				"storage": [
					{
						"astId": 3,
						"contract": "contracts/Copy_AssigmentEth.sol:AdDivide",
						"label": "Name",
						"offset": 0,
						"slot": "0",
						"type": "t_string_storage"
					},
					{
						"astId": 5,
						"contract": "contracts/Copy_AssigmentEth.sol:AdDivide",
						"label": "AddNumber",
						"offset": 0,
						"slot": "1",
						"type": "t_uint256"
					},
					{
						"astId": 7,
						"contract": "contracts/Copy_AssigmentEth.sol:AdDivide",
						"label": "DivNumber",
						"offset": 0,
						"slot": "2",
						"type": "t_uint256"
					}
				],
				"types": {
					"t_string_storage": {
						"encoding": "bytes",
						"label": "string",
						"numberOfBytes": "32"
					},
					"t_uint256": {
						"encoding": "inplace",
						"label": "uint256",
						"numberOfBytes": "32"
					}
				}
			},
			"userdoc": {
				"kind": "user",
				"methods": {},
				"version": 1
			}
		}
	}
}